{
  "address": "0xB15bF5184a86a9a9cb6c5A95d50b157CDC3cA477",
  "abi": [
    {
      "inputs": [
        {
          "internalType": "address[]",
          "name": "_crosser",
          "type": "address[]"
        },
        {
          "internalType": "address",
          "name": "_token0",
          "type": "address"
        },
        {
          "internalType": "contract IToken",
          "name": "_token1",
          "type": "address"
        },
        {
          "internalType": "address[]",
          "name": "_feeTo",
          "type": "address[]"
        }
      ],
      "stateMutability": "nonpayable",
      "type": "constructor"
    },
    {
      "anonymous": false,
      "inputs": [
        {
          "indexed": false,
          "internalType": "address",
          "name": "token0",
          "type": "address"
        },
        {
          "indexed": false,
          "internalType": "address",
          "name": "token1",
          "type": "address"
        },
        {
          "indexed": false,
          "internalType": "address",
          "name": "from",
          "type": "address"
        },
        {
          "indexed": false,
          "internalType": "address",
          "name": "to",
          "type": "address"
        },
        {
          "indexed": false,
          "internalType": "uint256",
          "name": "amount",
          "type": "uint256"
        }
      ],
      "name": "CrossBurn",
      "type": "event"
    },
    {
      "anonymous": false,
      "inputs": [
        {
          "indexed": false,
          "internalType": "address",
          "name": "token0",
          "type": "address"
        },
        {
          "indexed": false,
          "internalType": "address",
          "name": "token1",
          "type": "address"
        },
        {
          "indexed": false,
          "internalType": "address",
          "name": "from",
          "type": "address"
        },
        {
          "indexed": false,
          "internalType": "address",
          "name": "to",
          "type": "address"
        },
        {
          "indexed": false,
          "internalType": "uint256",
          "name": "amount",
          "type": "uint256"
        },
        {
          "indexed": false,
          "internalType": "string",
          "name": "txid",
          "type": "string"
        }
      ],
      "name": "CrossMint",
      "type": "event"
    },
    {
      "anonymous": false,
      "inputs": [
        {
          "indexed": false,
          "internalType": "uint256",
          "name": "lockFeeAmount",
          "type": "uint256"
        },
        {
          "indexed": false,
          "internalType": "uint256",
          "name": "lockFeeRatio",
          "type": "uint256"
        },
        {
          "indexed": false,
          "internalType": "uint256",
          "name": "unlockFeeAmount",
          "type": "uint256"
        },
        {
          "indexed": false,
          "internalType": "uint256",
          "name": "unlockFeeRatio",
          "type": "uint256"
        }
      ],
      "name": "FeeChange",
      "type": "event"
    },
    {
      "anonymous": false,
      "inputs": [
        {
          "indexed": false,
          "internalType": "address",
          "name": "account",
          "type": "address"
        }
      ],
      "name": "FeeToAdded",
      "type": "event"
    },
    {
      "anonymous": false,
      "inputs": [
        {
          "indexed": false,
          "internalType": "address",
          "name": "account",
          "type": "address"
        }
      ],
      "name": "FeeToRemoved",
      "type": "event"
    },
    {
      "anonymous": false,
      "inputs": [
        {
          "indexed": false,
          "internalType": "address",
          "name": "from",
          "type": "address"
        },
        {
          "indexed": false,
          "internalType": "address",
          "name": "to",
          "type": "address"
        },
        {
          "indexed": false,
          "internalType": "uint256",
          "name": "amount",
          "type": "uint256"
        },
        {
          "indexed": false,
          "internalType": "address",
          "name": "proposer",
          "type": "address"
        },
        {
          "indexed": false,
          "internalType": "uint256",
          "name": "count",
          "type": "uint256"
        },
        {
          "indexed": false,
          "internalType": "uint256",
          "name": "threshold",
          "type": "uint256"
        }
      ],
      "name": "ProposalVoted",
      "type": "event"
    },
    {
      "anonymous": false,
      "inputs": [
        {
          "indexed": true,
          "internalType": "bytes32",
          "name": "role",
          "type": "bytes32"
        },
        {
          "indexed": true,
          "internalType": "bytes32",
          "name": "previousAdminRole",
          "type": "bytes32"
        },
        {
          "indexed": true,
          "internalType": "bytes32",
          "name": "newAdminRole",
          "type": "bytes32"
        }
      ],
      "name": "RoleAdminChanged",
      "type": "event"
    },
    {
      "anonymous": false,
      "inputs": [
        {
          "indexed": true,
          "internalType": "bytes32",
          "name": "role",
          "type": "bytes32"
        },
        {
          "indexed": true,
          "internalType": "address",
          "name": "account",
          "type": "address"
        },
        {
          "indexed": true,
          "internalType": "address",
          "name": "sender",
          "type": "address"
        }
      ],
      "name": "RoleGranted",
      "type": "event"
    },
    {
      "anonymous": false,
      "inputs": [
        {
          "indexed": true,
          "internalType": "bytes32",
          "name": "role",
          "type": "bytes32"
        },
        {
          "indexed": true,
          "internalType": "address",
          "name": "account",
          "type": "address"
        },
        {
          "indexed": true,
          "internalType": "address",
          "name": "sender",
          "type": "address"
        }
      ],
      "name": "RoleRevoked",
      "type": "event"
    },
    {
      "anonymous": false,
      "inputs": [
        {
          "indexed": false,
          "internalType": "uint256",
          "name": "oldThreshold",
          "type": "uint256"
        },
        {
          "indexed": false,
          "internalType": "uint256",
          "name": "newThreshold",
          "type": "uint256"
        }
      ],
      "name": "ThresholdChanged",
      "type": "event"
    },
    {
      "inputs": [],
      "name": "CROSSER_ROLE",
      "outputs": [
        {
          "internalType": "bytes32",
          "name": "",
          "type": "bytes32"
        }
      ],
      "stateMutability": "view",
      "type": "function"
    },
    {
      "inputs": [],
      "name": "DEFAULT_ADMIN_ROLE",
      "outputs": [
        {
          "internalType": "bytes32",
          "name": "",
          "type": "bytes32"
        }
      ],
      "stateMutability": "view",
      "type": "function"
    },
    {
      "inputs": [
        {
          "internalType": "address",
          "name": "account",
          "type": "address"
        }
      ],
      "name": "addFeeTo",
      "outputs": [],
      "stateMutability": "nonpayable",
      "type": "function"
    },
    {
      "inputs": [
        {
          "internalType": "uint256",
          "name": "amount",
          "type": "uint256"
        },
        {
          "internalType": "uint256",
          "name": "crossType",
          "type": "uint256"
        }
      ],
      "name": "calculateFee",
      "outputs": [
        {
          "internalType": "uint256",
          "name": "feeAmount",
          "type": "uint256"
        },
        {
          "internalType": "uint256",
          "name": "remainAmount",
          "type": "uint256"
        }
      ],
      "stateMutability": "view",
      "type": "function"
    },
    {
      "inputs": [
        {
          "internalType": "address",
          "name": "to",
          "type": "address"
        },
        {
          "internalType": "uint256",
          "name": "amount",
          "type": "uint256"
        }
      ],
      "name": "crossBurn",
      "outputs": [],
      "stateMutability": "nonpayable",
      "type": "function"
    },
    {
      "inputs": [
        {
          "internalType": "address",
          "name": "from",
          "type": "address"
        },
        {
          "internalType": "address",
          "name": "to",
          "type": "address"
        },
        {
          "internalType": "uint256",
          "name": "amount",
          "type": "uint256"
        },
        {
          "internalType": "string",
          "name": "txid",
          "type": "string"
        }
      ],
      "name": "crossMint",
      "outputs": [],
      "stateMutability": "nonpayable",
      "type": "function"
    },
    {
      "inputs": [],
      "name": "feeToLength",
      "outputs": [
        {
          "internalType": "uint256",
          "name": "len",
          "type": "uint256"
        }
      ],
      "stateMutability": "view",
      "type": "function"
    },
    {
      "inputs": [
        {
          "internalType": "uint256",
          "name": "i",
          "type": "uint256"
        }
      ],
      "name": "getFeeTo",
      "outputs": [
        {
          "internalType": "address",
          "name": "account",
          "type": "address"
        }
      ],
      "stateMutability": "view",
      "type": "function"
    },
    {
      "inputs": [
        {
          "internalType": "bytes32",
          "name": "role",
          "type": "bytes32"
        }
      ],
      "name": "getRoleAdmin",
      "outputs": [
        {
          "internalType": "bytes32",
          "name": "",
          "type": "bytes32"
        }
      ],
      "stateMutability": "view",
      "type": "function"
    },
    {
      "inputs": [
        {
          "internalType": "bytes32",
          "name": "role",
          "type": "bytes32"
        },
        {
          "internalType": "uint256",
          "name": "index",
          "type": "uint256"
        }
      ],
      "name": "getRoleMember",
      "outputs": [
        {
          "internalType": "address",
          "name": "",
          "type": "address"
        }
      ],
      "stateMutability": "view",
      "type": "function"
    },
    {
      "inputs": [
        {
          "internalType": "bytes32",
          "name": "role",
          "type": "bytes32"
        }
      ],
      "name": "getRoleMemberCount",
      "outputs": [
        {
          "internalType": "uint256",
          "name": "",
          "type": "uint256"
        }
      ],
      "stateMutability": "view",
      "type": "function"
    },
    {
      "inputs": [
        {
          "internalType": "bytes32",
          "name": "role",
          "type": "bytes32"
        },
        {
          "internalType": "address",
          "name": "account",
          "type": "address"
        }
      ],
      "name": "grantRole",
      "outputs": [],
      "stateMutability": "nonpayable",
      "type": "function"
    },
    {
      "inputs": [
        {
          "internalType": "bytes32",
          "name": "role",
          "type": "bytes32"
        },
        {
          "internalType": "address",
          "name": "account",
          "type": "address"
        }
      ],
      "name": "hasRole",
      "outputs": [
        {
          "internalType": "bool",
          "name": "",
          "type": "bool"
        }
      ],
      "stateMutability": "view",
      "type": "function"
    },
    {
      "inputs": [],
      "name": "lockFeeAmount",
      "outputs": [
        {
          "internalType": "uint256",
          "name": "",
          "type": "uint256"
        }
      ],
      "stateMutability": "view",
      "type": "function"
    },
    {
      "inputs": [],
      "name": "lockFeeRatio",
      "outputs": [
        {
          "internalType": "uint256",
          "name": "",
          "type": "uint256"
        }
      ],
      "stateMutability": "view",
      "type": "function"
    },
    {
      "inputs": [
        {
          "internalType": "bytes32",
          "name": "",
          "type": "bytes32"
        }
      ],
      "name": "proposalOf",
      "outputs": [
        {
          "internalType": "address",
          "name": "tokenTo",
          "type": "address"
        },
        {
          "internalType": "address",
          "name": "from",
          "type": "address"
        },
        {
          "internalType": "address",
          "name": "to",
          "type": "address"
        },
        {
          "internalType": "uint256",
          "name": "amount",
          "type": "uint256"
        },
        {
          "internalType": "uint256",
          "name": "count",
          "type": "uint256"
        },
        {
          "internalType": "string",
          "name": "txid",
          "type": "string"
        },
        {
          "internalType": "bool",
          "name": "isFinished",
          "type": "bool"
        },
        {
          "internalType": "bool",
          "name": "isExist",
          "type": "bool"
        }
      ],
      "stateMutability": "view",
      "type": "function"
    },
    {
      "inputs": [
        {
          "internalType": "address",
          "name": "account",
          "type": "address"
        }
      ],
      "name": "removeFeeTo",
      "outputs": [],
      "stateMutability": "nonpayable",
      "type": "function"
    },
    {
      "inputs": [
        {
          "internalType": "bytes32",
          "name": "role",
          "type": "bytes32"
        },
        {
          "internalType": "address",
          "name": "account",
          "type": "address"
        }
      ],
      "name": "renounceRole",
      "outputs": [],
      "stateMutability": "nonpayable",
      "type": "function"
    },
    {
      "inputs": [
        {
          "internalType": "bytes32",
          "name": "role",
          "type": "bytes32"
        },
        {
          "internalType": "address",
          "name": "account",
          "type": "address"
        }
      ],
      "name": "revokeRole",
      "outputs": [],
      "stateMutability": "nonpayable",
      "type": "function"
    },
    {
      "inputs": [
        {
          "internalType": "uint256",
          "name": "_lockFeeAmount",
          "type": "uint256"
        },
        {
          "internalType": "uint256",
          "name": "_lockFeeRatio",
          "type": "uint256"
        },
        {
          "internalType": "uint256",
          "name": "_unlockFeeAmount",
          "type": "uint256"
        },
        {
          "internalType": "uint256",
          "name": "_unlockFeeRatio",
          "type": "uint256"
        }
      ],
      "name": "setFee",
      "outputs": [],
      "stateMutability": "nonpayable",
      "type": "function"
    },
    {
      "inputs": [
        {
          "internalType": "uint256",
          "name": "_threshold",
          "type": "uint256"
        }
      ],
      "name": "setThreshold",
      "outputs": [],
      "stateMutability": "nonpayable",
      "type": "function"
    },
    {
      "inputs": [],
      "name": "threshold",
      "outputs": [
        {
          "internalType": "uint256",
          "name": "",
          "type": "uint256"
        }
      ],
      "stateMutability": "view",
      "type": "function"
    },
    {
      "inputs": [],
      "name": "token0",
      "outputs": [
        {
          "internalType": "address",
          "name": "",
          "type": "address"
        }
      ],
      "stateMutability": "view",
      "type": "function"
    },
    {
      "inputs": [],
      "name": "token1",
      "outputs": [
        {
          "internalType": "contract IToken",
          "name": "",
          "type": "address"
        }
      ],
      "stateMutability": "view",
      "type": "function"
    },
    {
      "inputs": [
        {
          "internalType": "string",
          "name": "",
          "type": "string"
        }
      ],
      "name": "txMinted",
      "outputs": [
        {
          "internalType": "bool",
          "name": "",
          "type": "bool"
        }
      ],
      "stateMutability": "view",
      "type": "function"
    },
    {
      "inputs": [],
      "name": "unlockFeeAmount",
      "outputs": [
        {
          "internalType": "uint256",
          "name": "",
          "type": "uint256"
        }
      ],
      "stateMutability": "view",
      "type": "function"
    },
    {
      "inputs": [],
      "name": "unlockFeeRatio",
      "outputs": [
        {
          "internalType": "uint256",
          "name": "",
          "type": "uint256"
        }
      ],
      "stateMutability": "view",
      "type": "function"
    }
  ],
  "transactionHash": "0xed3d2d56d7b5a57403fe3cd046d5b1e919f96d5639df666e5b10f776c310c8b7",
  "args": [
    [
      "0x0E04597D3397C9cA39C1B9f6907004Df507463d7"
    ],
    "0x3c9d6c1C73b31c837832c72E04D3152f051fc1A9",
    "0x7B506bDaDdE8075Cf93348aA495Ac5f3Ac83cBa2",
    [
      "0x0E04597D3397C9cA39C1B9f6907004Df507463d7"
    ]
  ],
  "solcInputHash": "fe8ee4c1c755aebc15a42dd47e0fcb02",
  "bytecode": "0x60806040523480156200001157600080fd5b50604051620031a1380380620031a1833981810160405260808110156200003757600080fd5b81019080805160405193929190846401000000008211156200005857600080fd5b838201915060208201858111156200006f57600080fd5b82518660208202830111640100000000821117156200008d57600080fd5b8083526020830192505050908051906020019060200280838360005b83811015620000c6578082015181840152602081019050620000a9565b505050509050016040526020018051906020019092919080519060200190929190805160405193929190846401000000008211156200010457600080fd5b838201915060208201858111156200011b57600080fd5b82518660208202830111640100000000821117156200013957600080fd5b8083526020830192505050908051906020019060200280838360005b838110156200017257808201518184015260208101905062000155565b50505050905001604052505050808451806001819055505060005b8151811015620001d557620001c6828281518110620001a857fe5b60200260200101516006620002da60201b62001b3a1790919060201c565b5080806001019150506200018d565b505060005b845181101562000238576200022a7f43524f535345525f524f4c4500000000000000000000000000000000000000008683815181106200021657fe5b60200260200101516200031260201b60201c565b8080600101915050620001da565b506200024e6000801b336200031260201b60201c565b82600960006101000a81548173ffffffffffffffffffffffffffffffffffffffff021916908373ffffffffffffffffffffffffffffffffffffffff16021790555081600a60006101000a81548173ffffffffffffffffffffffffffffffffffffffff021916908373ffffffffffffffffffffffffffffffffffffffff1602179055505050505062000471565b60006200030a836000018373ffffffffffffffffffffffffffffffffffffffff1660001b6200032860201b60201c565b905092915050565b620003248282620003a260201b60201c565b5050565b60006200033c83836200044660201b60201c565b620003975782600001829080600181540180825580915050600190039060005260206000200160009091909190915055826000018054905083600101600084815260200190815260200160002081905550600190506200039c565b600090505b92915050565b620003d18160086000858152602001908152602001600020600001620002da60201b62001b3a1790919060201c565b156200044257620003e76200046960201b60201c565b73ffffffffffffffffffffffffffffffffffffffff168173ffffffffffffffffffffffffffffffffffffffff16837f2f8788117e7eff1d82e926ec794901d17c78024a50270940304540a733656f0d60405160405180910390a45b5050565b600080836001016000848152602001908152602001600020541415905092915050565b600033905090565b612d2080620004816000396000f3fe608060405234801561001057600080fd5b50600436106101a95760003560e01c80639010d07c116100f9578063ca15c87311610097578063d21220a711610071578063d21220a714610831578063d547741f14610865578063f48c0abf146108b3578063f9dfaab7146109d1576101a9565b8063ca15c8731461078d578063cb4bc51a146107cf578063d20d834d14610813576101a9565b8063a217fddf116100d3578063a217fddf146106e7578063a2a957bb14610705578063a49a1e0b14610751578063ad7ea9a41461076f576101a9565b80639010d07c146105f357806391d1485414610655578063960bfe04146106b9576101a9565b806336568abe11610166578063589a9e6e11610140578063589a9e6e1461052557806363cd1c19146105735780637163f55b146105b757806377e3548e146105d5576101a9565b806336568abe1461049b57806342cde4e8146104e957806356cf02d914610507576101a9565b80630dfe1681146101ae57806310c27402146101e2578063248a9ca3146102b357806329b89a09146102f55780632f2ff15d146103fa57806334e7312214610448575b600080fd5b6101b6610a29565b604051808273ffffffffffffffffffffffffffffffffffffffff16815260200191505060405180910390f35b61029b600480360360208110156101f857600080fd5b810190808035906020019064010000000081111561021557600080fd5b82018360208201111561022757600080fd5b8035906020019184600183028401116401000000008311171561024957600080fd5b91908080601f016020809104026020016040519081016040528093929190818152602001838380828437600081840152601f19601f820116905080830192505050505050509192919290505050610a4f565b60405180821515815260200191505060405180910390f35b6102df600480360360208110156102c957600080fd5b8101908080359060200190929190505050610a85565b6040518082815260200191505060405180910390f35b6103f86004803603608081101561030b57600080fd5b81019080803573ffffffffffffffffffffffffffffffffffffffff169060200190929190803573ffffffffffffffffffffffffffffffffffffffff169060200190929190803590602001909291908035906020019064010000000081111561037257600080fd5b82018360208201111561038457600080fd5b803590602001918460018302840111640100000000831117156103a657600080fd5b91908080601f016020809104026020016040519081016040528093929190818152602001838380828437600081840152601f19601f820116905080830192505050505050509192919290505050610aa5565b005b6104466004803603604081101561041057600080fd5b8101908080359060200190929190803573ffffffffffffffffffffffffffffffffffffffff169060200190929190505050611048565b005b61047e6004803603604081101561045e57600080fd5b8101908080359060200190929190803590602001909291905050506110d2565b604051808381526020018281526020019250505060405180910390f35b6104e7600480360360408110156104b157600080fd5b8101908080359060200190929190803573ffffffffffffffffffffffffffffffffffffffff169060200190929190505050611140565b005b6104f16111d9565b6040518082815260200191505060405180910390f35b61050f6111df565b6040518082815260200191505060405180910390f35b6105716004803603604081101561053b57600080fd5b81019080803573ffffffffffffffffffffffffffffffffffffffff16906020019092919080359060200190929190505050611203565b005b6105b56004803603602081101561058957600080fd5b81019080803573ffffffffffffffffffffffffffffffffffffffff169060200190929190505050611626565b005b6105bf6116b1565b6040518082815260200191505060405180910390f35b6105dd6116b7565b6040518082815260200191505060405180910390f35b6106296004803603604081101561060957600080fd5b8101908080359060200190929190803590602001909291905050506116c8565b604051808273ffffffffffffffffffffffffffffffffffffffff16815260200191505060405180910390f35b6106a16004803603604081101561066b57600080fd5b8101908080359060200190929190803573ffffffffffffffffffffffffffffffffffffffff1690602001909291905050506116fa565b60405180821515815260200191505060405180910390f35b6106e5600480360360208110156106cf57600080fd5b810190808035906020019092919050505061172c565b005b6106ef6117b7565b6040518082815260200191505060405180910390f35b61074f6004803603608081101561071b57600080fd5b81019080803590602001909291908035906020019092919080359060200190929190803590602001909291905050506117be565b005b61075961184f565b6040518082815260200191505060405180910390f35b610777611855565b6040518082815260200191505060405180910390f35b6107b9600480360360208110156107a357600080fd5b810190808035906020019092919050505061185b565b6040518082815260200191505060405180910390f35b610811600480360360208110156107e557600080fd5b81019080803573ffffffffffffffffffffffffffffffffffffffff169060200190929190505050611882565b005b61081b61190d565b6040518082815260200191505060405180910390f35b610839611913565b604051808273ffffffffffffffffffffffffffffffffffffffff16815260200191505060405180910390f35b6108b16004803603604081101561087b57600080fd5b8101908080359060200190929190803573ffffffffffffffffffffffffffffffffffffffff169060200190929190505050611939565b005b6108df600480360360208110156108c957600080fd5b81019080803590602001909291905050506119c3565b604051808973ffffffffffffffffffffffffffffffffffffffff1681526020018873ffffffffffffffffffffffffffffffffffffffff1681526020018773ffffffffffffffffffffffffffffffffffffffff1681526020018681526020018581526020018060200184151581526020018315158152602001828103825285818151815260200191508051906020019080838360005b8381101561098f578082015181840152602081019050610974565b50505050905090810190601f1680156109bc5780820380516001836020036101000a031916815260200191505b50995050505050505050505060405180910390f35b6109fd600480360360208110156109e757600080fd5b8101908080359060200190929190505050611b1d565b604051808273ffffffffffffffffffffffffffffffffffffffff16815260200191505060405180910390f35b600960009054906101000a900473ffffffffffffffffffffffffffffffffffffffff1681565b600b818051602081018201805184825260208301602085012081835280955050505050506000915054906101000a900460ff1681565b600060086000838152602001908152602001600020600201549050919050565b610acf7f43524f535345525f524f4c450000000000000000000000000000000000000000336116fa565b610b41576040517f08c379a000000000000000000000000000000000000000000000000000000000815260040180806020018281038252601d8152602001807f4272696467653a3a63616c6c6572206973206e6f742063726f7373657200000081525060200191505060405180910390fd5b8060001515600b826040518082805190602001908083835b60208310610b7c5780518252602082019150602081019050602083039250610b59565b6001836020036101000a038019825116818451168082178552505050505050905001915050908152602001604051809103902060009054906101000a900460ff16151514610c32576040517f08c379a00000000000000000000000000000000000000000000000000000000081526004018080602001828103825260098152602001807f7478206d696e746564000000000000000000000000000000000000000000000081525060200191505060405180910390fd5b6000610c63600a60009054906101000a900473ffffffffffffffffffffffffffffffffffffffff1687878787611b6a565b90508015611040576001600b846040518082805190602001908083835b60208310610ca35780518252602082019150602081019050602083039250610c80565b6001836020036101000a038019825116818451168082178552505050505050905001915050908152602001604051809103902060006101000a81548160ff021916908315150217905550600080610cfb8660006110d2565b91509150600a60009054906101000a900473ffffffffffffffffffffffffffffffffffffffff1673ffffffffffffffffffffffffffffffffffffffff166340c10f1988836040518363ffffffff1660e01b8152600401808373ffffffffffffffffffffffffffffffffffffffff16815260200182815260200192505050602060405180830381600087803b158015610d9257600080fd5b505af1158015610da6573d6000803e3d6000fd5b505050506040513d6020811015610dbc57600080fd5b8101908080519060200190929190505050506000610dd86116b7565b905060005b81811015610edb57600a60009054906101000a900473ffffffffffffffffffffffffffffffffffffffff1673ffffffffffffffffffffffffffffffffffffffff166340c10f19610e2c83611b1d565b610e3f85886120b190919063ffffffff16565b6040518363ffffffff1660e01b8152600401808373ffffffffffffffffffffffffffffffffffffffff16815260200182815260200192505050602060405180830381600087803b158015610e9257600080fd5b505af1158015610ea6573d6000803e3d6000fd5b505050506040513d6020811015610ebc57600080fd5b8101908080519060200190929190505050508080600101915050610ddd565b507f6a63f74ecc819d2b6dcd082e3d41016177d95577813b4f7fc5431d7fe6e4738e600960009054906101000a900473ffffffffffffffffffffffffffffffffffffffff16600a60009054906101000a900473ffffffffffffffffffffffffffffffffffffffff168b8b8b8b604051808773ffffffffffffffffffffffffffffffffffffffff1681526020018673ffffffffffffffffffffffffffffffffffffffff1681526020018573ffffffffffffffffffffffffffffffffffffffff1681526020018473ffffffffffffffffffffffffffffffffffffffff16815260200183815260200180602001828103825283818151815260200191508051906020019080838360005b83811015610ffd578082015181840152602081019050610fe2565b50505050905090810190601f16801561102a5780820380516001836020036101000a031916815260200191505b5097505050505050505060405180910390a15050505b505050505050565b61106f600860008481526020019081526020016000206002015461106a61213a565b6116fa565b6110c4576040517f08c379a000000000000000000000000000000000000000000000000000000000815260040180806020018281038252602f815260200180612c19602f913960400191505060405180910390fd5b6110ce8282612142565b5050565b60008060008060008514156110f057600354915060025490506110fb565b600554915060045490505b61112061111182886121d690919063ffffffff16565b8361220390919063ffffffff16565b9350611135848761228b90919063ffffffff16565b925050509250929050565b61114861213a565b73ffffffffffffffffffffffffffffffffffffffff168173ffffffffffffffffffffffffffffffffffffffff16146111cb576040517f08c379a000000000000000000000000000000000000000000000000000000000815260040180806020018281038252602f815260200180612cbc602f913960400191505060405180910390fd5b6111d5828261230e565b5050565b60015481565b7f43524f535345525f524f4c45000000000000000000000000000000000000000081565b80600a60009054906101000a900473ffffffffffffffffffffffffffffffffffffffff1673ffffffffffffffffffffffffffffffffffffffff166370a08231336040518263ffffffff1660e01b8152600401808273ffffffffffffffffffffffffffffffffffffffff16815260200191505060206040518083038186803b15801561128d57600080fd5b505afa1580156112a1573d6000803e3d6000fd5b505050506040513d60208110156112b757600080fd5b8101908080519060200190929190505050101561131f576040517f08c379a0000000000000000000000000000000000000000000000000000000008152600401808060200182810382526023815260200180612c996023913960400191505060405180910390fd5b60008061132d8360016110d2565b91509150600061133b6116b7565b905060005b8181101561145c57600a60009054906101000a900473ffffffffffffffffffffffffffffffffffffffff1673ffffffffffffffffffffffffffffffffffffffff166323b872dd3361139084611b1d565b6113a386896120b190919063ffffffff16565b6040518463ffffffff1660e01b8152600401808473ffffffffffffffffffffffffffffffffffffffff1681526020018373ffffffffffffffffffffffffffffffffffffffff1681526020018281526020019350505050602060405180830381600087803b15801561141357600080fd5b505af1158015611427573d6000803e3d6000fd5b505050506040513d602081101561143d57600080fd5b8101908080519060200190929190505050508080600101915050611340565b50600a60009054906101000a900473ffffffffffffffffffffffffffffffffffffffff1673ffffffffffffffffffffffffffffffffffffffff16639dc29fac33846040518363ffffffff1660e01b8152600401808373ffffffffffffffffffffffffffffffffffffffff16815260200182815260200192505050602060405180830381600087803b1580156114f057600080fd5b505af1158015611504573d6000803e3d6000fd5b505050506040513d602081101561151a57600080fd5b8101908080519060200190929190505050507f63db45e521861dc5b6514d863ebf6814df6c1079c65b0d1b49a59ac5c5d4aebc600960009054906101000a900473ffffffffffffffffffffffffffffffffffffffff16600a60009054906101000a900473ffffffffffffffffffffffffffffffffffffffff16338886604051808673ffffffffffffffffffffffffffffffffffffffff1681526020018573ffffffffffffffffffffffffffffffffffffffff1681526020018473ffffffffffffffffffffffffffffffffffffffff1681526020018373ffffffffffffffffffffffffffffffffffffffff1681526020018281526020019550505050505060405180910390a15050505050565b6116336000801b336116fa565b6116a5576040517f08c379a000000000000000000000000000000000000000000000000000000000815260040180806020018281038252601b8152602001807f4272696467653a3a6f6e6c792061646d696e2063616e2063616c6c000000000081525060200191505060405180910390fd5b6116ae816123a2565b50565b60035481565b60006116c3600661244b565b905090565b60006116f2826008600086815260200190815260200160002060000161246090919063ffffffff16565b905092915050565b6000611724826008600086815260200190815260200160002060000161247a90919063ffffffff16565b905092915050565b6117396000801b336116fa565b6117ab576040517f08c379a000000000000000000000000000000000000000000000000000000000815260040180806020018281038252601b8152602001807f4272696467653a3a6f6e6c792061646d696e2063616e2063616c6c000000000081525060200191505060405180910390fd5b6117b4816124aa565b50565b6000801b81565b6117cb6000801b336116fa565b61183d576040517f08c379a000000000000000000000000000000000000000000000000000000000815260040180806020018281038252601b8152602001807f4272696467653a3a6f6e6c792061646d696e2063616e2063616c6c000000000081525060200191505060405180910390fd5b611849848484846124fd565b50505050565b60025481565b60045481565b600061187b6008600084815260200190815260200160002060000161244b565b9050919050565b61188f6000801b336116fa565b611901576040517f08c379a000000000000000000000000000000000000000000000000000000000815260040180806020018281038252601b8152602001807f4272696467653a3a6f6e6c792061646d696e2063616e2063616c6c000000000081525060200191505060405180910390fd5b61190a816125f2565b50565b60055481565b600a60009054906101000a900473ffffffffffffffffffffffffffffffffffffffff1681565b611960600860008481526020019081526020016000206002015461195b61213a565b6116fa565b6119b5576040517f08c379a0000000000000000000000000000000000000000000000000000000008152600401808060200182810382526030815260200180612c486030913960400191505060405180910390fd5b6119bf828261230e565b5050565b60006020528060005260406000206000915090508060000160009054906101000a900473ffffffffffffffffffffffffffffffffffffffff16908060010160009054906101000a900473ffffffffffffffffffffffffffffffffffffffff16908060020160009054906101000a900473ffffffffffffffffffffffffffffffffffffffff1690806003015490806004015490806005018054600181600116156101000203166002900480601f016020809104026020016040519081016040528092919081815260200182805460018160011615610100020316600290048015611aed5780601f10611ac257610100808354040283529160200191611aed565b820191906000526020600020905b815481529060010190602001808311611ad057829003601f168201915b5050505050908060060160009054906101000a900460ff16908060060160019054906101000a900460ff16905088565b6000611b3382600661246090919063ffffffff16565b9050919050565b6000611b62836000018373ffffffffffffffffffffffffffffffffffffffff1660001b61269b565b905092915050565b6000808686868686604051602001808673ffffffffffffffffffffffffffffffffffffffff1660601b81526014018573ffffffffffffffffffffffffffffffffffffffff1660601b81526014018473ffffffffffffffffffffffffffffffffffffffff1660601b815260140183815260200182805190602001908083835b60208310611c0b5780518252602082019150602081019050602083039250611be8565b6001836020036101000a03801982511681845116808217855250505050505090500195505050505050604051602081830303815290604052805190602001209050600080600083815260200190815260200160002090506000151560008084815260200190815260200160002060060160019054906101000a900460ff1615151415611e0257878160000160006101000a81548173ffffffffffffffffffffffffffffffffffffffff021916908373ffffffffffffffffffffffffffffffffffffffff160217905550868160010160006101000a81548173ffffffffffffffffffffffffffffffffffffffff021916908373ffffffffffffffffffffffffffffffffffffffff160217905550858160020160006101000a81548173ffffffffffffffffffffffffffffffffffffffff021916908373ffffffffffffffffffffffffffffffffffffffff1602179055508481600301819055506001816004018190555083816005019080519060200190611d85929190612960565b5060018160060160016101000a81548160ff02191690831515021790555060018160070160003373ffffffffffffffffffffffffffffffffffffffff1673ffffffffffffffffffffffffffffffffffffffff16815260200190815260200160002060006101000a81548160ff021916908315150217905550611fd0565b600015158160060160009054906101000a900460ff16151514611e8d576040517f08c379a00000000000000000000000000000000000000000000000000000000081526004018080602001828103825260188152602001807f5f766f74653a3a70726f706f73616c2066696e6973686564000000000000000081525060200191505060405180910390fd5b600015158160070160003373ffffffffffffffffffffffffffffffffffffffff1673ffffffffffffffffffffffffffffffffffffffff16815260200190815260200160002060009054906101000a900460ff16151514611f55576040517f08c379a00000000000000000000000000000000000000000000000000000000081526004018080602001828103825260178152602001807f5f766f74653a3a6d73672e73656e64657220766f74656400000000000000000081525060200191505060405180910390fd5b611f6d6001826004015461220390919063ffffffff16565b816004018190555060018160070160003373ffffffffffffffffffffffffffffffffffffffff1673ffffffffffffffffffffffffffffffffffffffff16815260200190815260200160002060006101000a81548160ff0219169083151502179055505b600154816004015410611fff5760018160060160006101000a81548160ff021916908315150217905550600192505b7fe3d441f57487d225494bc1ae96df3d59dde1d2d7caed4444f870a0bab81abf14878787338560040154600154604051808773ffffffffffffffffffffffffffffffffffffffff1681526020018673ffffffffffffffffffffffffffffffffffffffff1681526020018581526020018473ffffffffffffffffffffffffffffffffffffffff168152602001838152602001828152602001965050505050505060405180910390a1505095945050505050565b6000808211612128576040517f08c379a000000000000000000000000000000000000000000000000000000000815260040180806020018281038252601a8152602001807f536166654d6174683a206469766973696f6e206279207a65726f00000000000081525060200191505060405180910390fd5b81838161213157fe5b04905092915050565b600033905090565b61216a8160086000858152602001908152602001600020600001611b3a90919063ffffffff16565b156121d25761217761213a565b73ffffffffffffffffffffffffffffffffffffffff168173ffffffffffffffffffffffffffffffffffffffff16837f2f8788117e7eff1d82e926ec794901d17c78024a50270940304540a733656f0d60405160405180910390a45b5050565b6000601260ff16600a0a6121f3838561270b90919063ffffffff16565b816121fa57fe5b04905092915050565b600080828401905083811015612281576040517f08c379a000000000000000000000000000000000000000000000000000000000815260040180806020018281038252601b8152602001807f536166654d6174683a206164646974696f6e206f766572666c6f77000000000081525060200191505060405180910390fd5b8091505092915050565b600082821115612303576040517f08c379a000000000000000000000000000000000000000000000000000000000815260040180806020018281038252601e8152602001807f536166654d6174683a207375627472616374696f6e206f766572666c6f77000081525060200191505060405180910390fd5b818303905092915050565b612336816008600085815260200190815260200160002060000161279190919063ffffffff16565b1561239e5761234361213a565b73ffffffffffffffffffffffffffffffffffffffff168173ffffffffffffffffffffffffffffffffffffffff16837ff6391f5c32d9c69d2a47ea670b442974b53935d1edc7fd64eb21e047a839171b60405160405180910390a45b5050565b600115156123ba82600661247a90919063ffffffff16565b1515146123fc576040517f08c379a00000000000000000000000000000000000000000000000000000000081526004016123f390612b24565b60405180910390fd5b61241081600661279190919063ffffffff16565b507faabec9693f6b47fa09034c80c0114d4e8477fee2c0522b0d03c97e1b58e37d9e816040516124409190612ae9565b60405180910390a150565b6000612459826000016127c1565b9050919050565b600061246f83600001836127d2565b60001c905092915050565b60006124a2836000018373ffffffffffffffffffffffffffffffffffffffff1660001b612855565b905092915050565b60006001549050816001819055507f3164947cf0f49f08dd0cd80e671535b1e11590d347c55dcaa97ba3c24a96b33a81600154604051808381526020018281526020019250505060405180910390a15050565b670de0b6b3a7640000831115612548576040517f08c379a000000000000000000000000000000000000000000000000000000000815260040161253f90612b44565b60405180910390fd5b670de0b6b3a7640000811115612593576040517f08c379a000000000000000000000000000000000000000000000000000000000815260040161258a90612b44565b60405180910390fd5b836003819055508260028190555081600581905550806004819055507f650bf5314bb5924368ffebaf7dffcfaa4a0f99c2ab08264c26bf0547f8c459e9848484846040516125e49493929190612b64565b60405180910390a150505050565b6000151561260a82600661247a90919063ffffffff16565b15151461264c576040517f08c379a000000000000000000000000000000000000000000000000000000000815260040161264390612b04565b60405180910390fd5b612660816006611b3a90919063ffffffff16565b507fbbd32211d098879eb46e2883a50313fa8c9fa1591b7e80fbfc374f020eb001cf816040516126909190612ae9565b60405180910390a150565b60006126a78383612855565b612700578260000182908060018154018082558091505060019003906000526020600020016000909190919091505582600001805490508360010160008481526020019081526020016000208190555060019050612705565b600090505b92915050565b60008083141561271e576000905061278b565b600082840290508284828161272f57fe5b0414612786576040517f08c379a0000000000000000000000000000000000000000000000000000000008152600401808060200182810382526021815260200180612c786021913960400191505060405180910390fd5b809150505b92915050565b60006127b9836000018373ffffffffffffffffffffffffffffffffffffffff1660001b612878565b905092915050565b600081600001805490509050919050565b600081836000018054905011612833576040517f08c379a0000000000000000000000000000000000000000000000000000000008152600401808060200182810382526022815260200180612bf76022913960400191505060405180910390fd5b82600001828154811061284257fe5b9060005260206000200154905092915050565b600080836001016000848152602001908152602001600020541415905092915050565b6000808360010160008481526020019081526020016000205490506000811461295457600060018203905060006001866000018054905003905060008660000182815481106128c357fe5b90600052602060002001549050808760000184815481106128e057fe5b906000526020600020018190555060018301876001016000838152602001908152602001600020819055508660000180548061291857fe5b6001900381819060005260206000200160009055905586600101600087815260200190815260200160002060009055600194505050505061295a565b60009150505b92915050565b828054600181600116156101000203166002900490600052602060002090601f01602090048101928261299657600085556129dd565b82601f106129af57805160ff19168380011785556129dd565b828001600101855582156129dd579182015b828111156129dc5782518255916020019190600101906129c1565b5b5090506129ea91906129ee565b5090565b5b80821115612a075760008160009055506001016129ef565b5090565b612a1481612bba565b82525050565b6000612a27601f83612ba9565b91507f546f6c6c3a3a6163636f756e742077617320666565546f20616c7265616479006000830152602082019050919050565b6000612a67601a83612ba9565b91507f546f6c6c3a3a6163636f756e74206973206e6f7420666565546f0000000000006000830152602082019050919050565b6000612aa7601583612ba9565b91507f66656520726174696f206e6f7420636f727265637400000000000000000000006000830152602082019050919050565b612ae381612bec565b82525050565b6000602082019050612afe6000830184612a0b565b92915050565b60006020820190508181036000830152612b1d81612a1a565b9050919050565b60006020820190508181036000830152612b3d81612a5a565b9050919050565b60006020820190508181036000830152612b5d81612a9a565b9050919050565b6000608082019050612b796000830187612ada565b612b866020830186612ada565b612b936040830185612ada565b612ba06060830184612ada565b95945050505050565b600082825260208201905092915050565b6000612bc582612bcc565b9050919050565b600073ffffffffffffffffffffffffffffffffffffffff82169050919050565b600081905091905056fe456e756d657261626c655365743a20696e646578206f7574206f6620626f756e6473416363657373436f6e74726f6c3a2073656e646572206d75737420626520616e2061646d696e20746f206772616e74416363657373436f6e74726f6c3a2073656e646572206d75737420626520616e2061646d696e20746f207265766f6b65536166654d6174683a206d756c7469706c69636174696f6e206f766572666c6f776d73672e73656e646572206e6f7420656e6f75676820746f6b656e20746f206275726e416363657373436f6e74726f6c3a2063616e206f6e6c792072656e6f756e636520726f6c657320666f722073656c66a2646970667358221220fe66674bd29bd942b6852f6192cb84e6f284f7c4d6a7125afb9b3574f475a35764736f6c63430007060033",
  "devdoc": {
    "kind": "dev",
    "methods": {
      "getRoleAdmin(bytes32)": {
        "details": "Returns the admin role that controls `role`. See {grantRole} and {revokeRole}. To change a role's admin, use {_setRoleAdmin}."
      },
      "getRoleMember(bytes32,uint256)": {
        "details": "Returns one of the accounts that have `role`. `index` must be a value between 0 and {getRoleMemberCount}, non-inclusive. Role bearers are not sorted in any particular way, and their ordering may change at any point. WARNING: When using {getRoleMember} and {getRoleMemberCount}, make sure you perform all queries on the same block. See the following https://forum.openzeppelin.com/t/iterating-over-elements-on-enumerableset-in-openzeppelin-contracts/2296[forum post] for more information."
      },
      "getRoleMemberCount(bytes32)": {
        "details": "Returns the number of accounts that have `role`. Can be used together with {getRoleMember} to enumerate all bearers of a role."
      },
      "grantRole(bytes32,address)": {
        "details": "Grants `role` to `account`. If `account` had not been already granted `role`, emits a {RoleGranted} event. Requirements: - the caller must have ``role``'s admin role."
      },
      "hasRole(bytes32,address)": {
        "details": "Returns `true` if `account` has been granted `role`."
      },
      "renounceRole(bytes32,address)": {
        "details": "Revokes `role` from the calling account. Roles are often managed via {grantRole} and {revokeRole}: this function's purpose is to provide a mechanism for accounts to lose their privileges if they are compromised (such as when a trusted device is misplaced). If the calling account had been granted `role`, emits a {RoleRevoked} event. Requirements: - the caller must be `account`."
      },
      "revokeRole(bytes32,address)": {
        "details": "Revokes `role` from `account`. If `account` had been granted `role`, emits a {RoleRevoked} event. Requirements: - the caller must have ``role``'s admin role."
      }
    },
    "version": 1
  },
  "userdoc": {
    "kind": "user",
    "methods": {},
    "version": 1
  },
  "storageLayout": {
    "storage": [
      {
        "astId": 3485,
        "contract": "contracts/Bridge.sol:Bridge",
        "label": "proposalOf",
        "offset": 0,
        "slot": "0",
        "type": "t_mapping(t_bytes32,t_struct(Proposal)3720_storage)"
      },
      {
        "astId": 3487,
        "contract": "contracts/Bridge.sol:Bridge",
        "label": "threshold",
        "offset": 0,
        "slot": "1",
        "type": "t_uint256"
      },
      {
        "astId": 3846,
        "contract": "contracts/Bridge.sol:Bridge",
        "label": "lockFeeRatio",
        "offset": 0,
        "slot": "2",
        "type": "t_uint256"
      },
      {
        "astId": 3848,
        "contract": "contracts/Bridge.sol:Bridge",
        "label": "lockFeeAmount",
        "offset": 0,
        "slot": "3",
        "type": "t_uint256"
      },
      {
        "astId": 3850,
        "contract": "contracts/Bridge.sol:Bridge",
        "label": "unlockFeeRatio",
        "offset": 0,
        "slot": "4",
        "type": "t_uint256"
      },
      {
        "astId": 3852,
        "contract": "contracts/Bridge.sol:Bridge",
        "label": "unlockFeeAmount",
        "offset": 0,
        "slot": "5",
        "type": "t_uint256"
      },
      {
        "astId": 3854,
        "contract": "contracts/Bridge.sol:Bridge",
        "label": "feeToSet",
        "offset": 0,
        "slot": "6",
        "type": "t_struct(AddressSet)2268_storage"
      },
      {
        "astId": 22,
        "contract": "contracts/Bridge.sol:Bridge",
        "label": "_roles",
        "offset": 0,
        "slot": "8",
        "type": "t_mapping(t_bytes32,t_struct(RoleData)18_storage)"
      },
      {
        "astId": 2505,
        "contract": "contracts/Bridge.sol:Bridge",
        "label": "token0",
        "offset": 0,
        "slot": "9",
        "type": "t_address"
      },
      {
        "astId": 2507,
        "contract": "contracts/Bridge.sol:Bridge",
        "label": "token1",
        "offset": 0,
        "slot": "10",
        "type": "t_contract(IToken)4207"
      },
      {
        "astId": 2511,
        "contract": "contracts/Bridge.sol:Bridge",
        "label": "txMinted",
        "offset": 0,
        "slot": "11",
        "type": "t_mapping(t_string_memory_ptr,t_bool)"
      }
    ],
    "types": {
      "t_address": {
        "encoding": "inplace",
        "label": "address",
        "numberOfBytes": "20"
      },
      "t_array(t_bytes32)dyn_storage": {
        "base": "t_bytes32",
        "encoding": "dynamic_array",
        "label": "bytes32[]",
        "numberOfBytes": "32"
      },
      "t_bool": {
        "encoding": "inplace",
        "label": "bool",
        "numberOfBytes": "1"
      },
      "t_bytes32": {
        "encoding": "inplace",
        "label": "bytes32",
        "numberOfBytes": "32"
      },
      "t_contract(IToken)4207": {
        "encoding": "inplace",
        "label": "contract IToken",
        "numberOfBytes": "20"
      },
      "t_mapping(t_address,t_bool)": {
        "encoding": "mapping",
        "key": "t_address",
        "label": "mapping(address => bool)",
        "numberOfBytes": "32",
        "value": "t_bool"
      },
      "t_mapping(t_bytes32,t_struct(Proposal)3720_storage)": {
        "encoding": "mapping",
        "key": "t_bytes32",
        "label": "mapping(bytes32 => struct Proposal)",
        "numberOfBytes": "32",
        "value": "t_struct(Proposal)3720_storage"
      },
      "t_mapping(t_bytes32,t_struct(RoleData)18_storage)": {
        "encoding": "mapping",
        "key": "t_bytes32",
        "label": "mapping(bytes32 => struct AccessControl.RoleData)",
        "numberOfBytes": "32",
        "value": "t_struct(RoleData)18_storage"
      },
      "t_mapping(t_bytes32,t_uint256)": {
        "encoding": "mapping",
        "key": "t_bytes32",
        "label": "mapping(bytes32 => uint256)",
        "numberOfBytes": "32",
        "value": "t_uint256"
      },
      "t_mapping(t_string_memory_ptr,t_bool)": {
        "encoding": "mapping",
        "key": "t_string_memory_ptr",
        "label": "mapping(string => bool)",
        "numberOfBytes": "32",
        "value": "t_bool"
      },
      "t_string_memory_ptr": {
        "encoding": "bytes",
        "label": "string",
        "numberOfBytes": "32"
      },
      "t_string_storage": {
        "encoding": "bytes",
        "label": "string",
        "numberOfBytes": "32"
      },
      "t_struct(AddressSet)2268_storage": {
        "encoding": "inplace",
        "label": "struct EnumerableSet.AddressSet",
        "members": [
          {
            "astId": 2267,
            "contract": "contracts/Bridge.sol:Bridge",
            "label": "_inner",
            "offset": 0,
            "slot": "0",
            "type": "t_struct(Set)2003_storage"
          }
        ],
        "numberOfBytes": "64"
      },
      "t_struct(Proposal)3720_storage": {
        "encoding": "inplace",
        "label": "struct Proposal",
        "members": [
          {
            "astId": 3701,
            "contract": "contracts/Bridge.sol:Bridge",
            "label": "tokenTo",
            "offset": 0,
            "slot": "0",
            "type": "t_address"
          },
          {
            "astId": 3703,
            "contract": "contracts/Bridge.sol:Bridge",
            "label": "from",
            "offset": 0,
            "slot": "1",
            "type": "t_address"
          },
          {
            "astId": 3705,
            "contract": "contracts/Bridge.sol:Bridge",
            "label": "to",
            "offset": 0,
            "slot": "2",
            "type": "t_address"
          },
          {
            "astId": 3707,
            "contract": "contracts/Bridge.sol:Bridge",
            "label": "amount",
            "offset": 0,
            "slot": "3",
            "type": "t_uint256"
          },
          {
            "astId": 3709,
            "contract": "contracts/Bridge.sol:Bridge",
            "label": "count",
            "offset": 0,
            "slot": "4",
            "type": "t_uint256"
          },
          {
            "astId": 3711,
            "contract": "contracts/Bridge.sol:Bridge",
            "label": "txid",
            "offset": 0,
            "slot": "5",
            "type": "t_string_storage"
          },
          {
            "astId": 3713,
            "contract": "contracts/Bridge.sol:Bridge",
            "label": "isFinished",
            "offset": 0,
            "slot": "6",
            "type": "t_bool"
          },
          {
            "astId": 3715,
            "contract": "contracts/Bridge.sol:Bridge",
            "label": "isExist",
            "offset": 1,
            "slot": "6",
            "type": "t_bool"
          },
          {
            "astId": 3719,
            "contract": "contracts/Bridge.sol:Bridge",
            "label": "isVoted",
            "offset": 0,
            "slot": "7",
            "type": "t_mapping(t_address,t_bool)"
          }
        ],
        "numberOfBytes": "256"
      },
      "t_struct(RoleData)18_storage": {
        "encoding": "inplace",
        "label": "struct AccessControl.RoleData",
        "members": [
          {
            "astId": 15,
            "contract": "contracts/Bridge.sol:Bridge",
            "label": "members",
            "offset": 0,
            "slot": "0",
            "type": "t_struct(AddressSet)2268_storage"
          },
          {
            "astId": 17,
            "contract": "contracts/Bridge.sol:Bridge",
            "label": "adminRole",
            "offset": 0,
            "slot": "2",
            "type": "t_bytes32"
          }
        ],
        "numberOfBytes": "96"
      },
      "t_struct(Set)2003_storage": {
        "encoding": "inplace",
        "label": "struct EnumerableSet.Set",
        "members": [
          {
            "astId": 1998,
            "contract": "contracts/Bridge.sol:Bridge",
            "label": "_values",
            "offset": 0,
            "slot": "0",
            "type": "t_array(t_bytes32)dyn_storage"
          },
          {
            "astId": 2002,
            "contract": "contracts/Bridge.sol:Bridge",
            "label": "_indexes",
            "offset": 0,
            "slot": "1",
            "type": "t_mapping(t_bytes32,t_uint256)"
          }
        ],
        "numberOfBytes": "64"
      },
      "t_uint256": {
        "encoding": "inplace",
        "label": "uint256",
        "numberOfBytes": "32"
      }
    }
  }
}