{
  "address": "0xb1FDcbAb45017651a6daf600BBf07863192aD50A",
  "abi": [
    {
      "inputs": [
        {
          "internalType": "string",
          "name": "_name",
          "type": "string"
        },
        {
          "internalType": "string",
          "name": "_symbol",
          "type": "string"
        },
        {
          "internalType": "uint8",
          "name": "decimals_",
          "type": "uint8"
        },
        {
          "internalType": "address",
          "name": "_token0",
          "type": "address"
        },
        {
          "internalType": "address",
          "name": "_token1",
          "type": "address"
        }
      ],
      "stateMutability": "nonpayable",
      "type": "constructor"
    },
    {
      "anonymous": false,
      "inputs": [
        {
          "indexed": true,
          "internalType": "address",
          "name": "owner",
          "type": "address"
        },
        {
          "indexed": true,
          "internalType": "address",
          "name": "spender",
          "type": "address"
        },
        {
          "indexed": false,
          "internalType": "uint256",
          "name": "value",
          "type": "uint256"
        }
      ],
      "name": "Approval",
      "type": "event"
    },
    {
      "anonymous": false,
      "inputs": [
        {
          "indexed": true,
          "internalType": "address",
          "name": "sender",
          "type": "address"
        },
        {
          "indexed": false,
          "internalType": "uint256",
          "name": "amount0",
          "type": "uint256"
        },
        {
          "indexed": false,
          "internalType": "uint256",
          "name": "amount1",
          "type": "uint256"
        },
        {
          "indexed": true,
          "internalType": "address",
          "name": "to",
          "type": "address"
        }
      ],
      "name": "Burn",
      "type": "event"
    },
    {
      "anonymous": false,
      "inputs": [
        {
          "indexed": true,
          "internalType": "address",
          "name": "sender",
          "type": "address"
        },
        {
          "indexed": false,
          "internalType": "uint256",
          "name": "amount",
          "type": "uint256"
        }
      ],
      "name": "Mint",
      "type": "event"
    },
    {
      "anonymous": false,
      "inputs": [
        {
          "indexed": true,
          "internalType": "address",
          "name": "previousOwner",
          "type": "address"
        },
        {
          "indexed": true,
          "internalType": "address",
          "name": "newOwner",
          "type": "address"
        }
      ],
      "name": "OwnershipTransferred",
      "type": "event"
    },
    {
      "anonymous": false,
      "inputs": [
        {
          "indexed": true,
          "internalType": "address",
          "name": "sender",
          "type": "address"
        },
        {
          "indexed": false,
          "internalType": "uint256",
          "name": "amountIn",
          "type": "uint256"
        },
        {
          "indexed": false,
          "internalType": "uint256",
          "name": "amountOut",
          "type": "uint256"
        },
        {
          "indexed": true,
          "internalType": "address",
          "name": "to",
          "type": "address"
        }
      ],
      "name": "Swap",
      "type": "event"
    },
    {
      "anonymous": false,
      "inputs": [
        {
          "indexed": true,
          "internalType": "address",
          "name": "from",
          "type": "address"
        },
        {
          "indexed": true,
          "internalType": "address",
          "name": "to",
          "type": "address"
        },
        {
          "indexed": false,
          "internalType": "uint256",
          "name": "value",
          "type": "uint256"
        }
      ],
      "name": "Transfer",
      "type": "event"
    },
    {
      "inputs": [],
      "name": "MINIMUM_LIQUIDITY",
      "outputs": [
        {
          "internalType": "uint256",
          "name": "",
          "type": "uint256"
        }
      ],
      "stateMutability": "view",
      "type": "function"
    },
    {
      "inputs": [
        {
          "internalType": "address",
          "name": "owner",
          "type": "address"
        },
        {
          "internalType": "address",
          "name": "spender",
          "type": "address"
        }
      ],
      "name": "allowance",
      "outputs": [
        {
          "internalType": "uint256",
          "name": "",
          "type": "uint256"
        }
      ],
      "stateMutability": "view",
      "type": "function"
    },
    {
      "inputs": [
        {
          "internalType": "address",
          "name": "spender",
          "type": "address"
        },
        {
          "internalType": "uint256",
          "name": "amount",
          "type": "uint256"
        }
      ],
      "name": "approve",
      "outputs": [
        {
          "internalType": "bool",
          "name": "",
          "type": "bool"
        }
      ],
      "stateMutability": "nonpayable",
      "type": "function"
    },
    {
      "inputs": [],
      "name": "bRatio",
      "outputs": [
        {
          "internalType": "uint256",
          "name": "",
          "type": "uint256"
        }
      ],
      "stateMutability": "view",
      "type": "function"
    },
    {
      "inputs": [
        {
          "internalType": "address",
          "name": "account",
          "type": "address"
        }
      ],
      "name": "balanceOf",
      "outputs": [
        {
          "internalType": "uint256",
          "name": "",
          "type": "uint256"
        }
      ],
      "stateMutability": "view",
      "type": "function"
    },
    {
      "inputs": [
        {
          "internalType": "address",
          "name": "from",
          "type": "address"
        },
        {
          "internalType": "address",
          "name": "to",
          "type": "address"
        },
        {
          "internalType": "uint256",
          "name": "lpAmount",
          "type": "uint256"
        },
        {
          "internalType": "address",
          "name": "feeTo",
          "type": "address"
        },
        {
          "internalType": "uint256",
          "name": "feeAmount",
          "type": "uint256"
        }
      ],
      "name": "burn",
      "outputs": [
        {
          "internalType": "uint256",
          "name": "amount0",
          "type": "uint256"
        },
        {
          "internalType": "uint256",
          "name": "amount1",
          "type": "uint256"
        }
      ],
      "stateMutability": "nonpayable",
      "type": "function"
    },
    {
      "inputs": [
        {
          "internalType": "uint256",
          "name": "lpAmount",
          "type": "uint256"
        }
      ],
      "name": "calculateBurn",
      "outputs": [
        {
          "internalType": "uint256",
          "name": "amount0",
          "type": "uint256"
        },
        {
          "internalType": "uint256",
          "name": "amount1",
          "type": "uint256"
        }
      ],
      "stateMutability": "view",
      "type": "function"
    },
    {
      "inputs": [],
      "name": "decimals",
      "outputs": [
        {
          "internalType": "uint8",
          "name": "",
          "type": "uint8"
        }
      ],
      "stateMutability": "view",
      "type": "function"
    },
    {
      "inputs": [],
      "name": "decimalsUNIT",
      "outputs": [
        {
          "internalType": "uint256",
          "name": "",
          "type": "uint256"
        }
      ],
      "stateMutability": "view",
      "type": "function"
    },
    {
      "inputs": [
        {
          "internalType": "address",
          "name": "spender",
          "type": "address"
        },
        {
          "internalType": "uint256",
          "name": "subtractedValue",
          "type": "uint256"
        }
      ],
      "name": "decreaseAllowance",
      "outputs": [
        {
          "internalType": "bool",
          "name": "",
          "type": "bool"
        }
      ],
      "stateMutability": "nonpayable",
      "type": "function"
    },
    {
      "inputs": [],
      "name": "getReserves",
      "outputs": [
        {
          "internalType": "uint256",
          "name": "",
          "type": "uint256"
        },
        {
          "internalType": "uint256",
          "name": "",
          "type": "uint256"
        }
      ],
      "stateMutability": "view",
      "type": "function"
    },
    {
      "inputs": [
        {
          "internalType": "address",
          "name": "spender",
          "type": "address"
        },
        {
          "internalType": "uint256",
          "name": "addedValue",
          "type": "uint256"
        }
      ],
      "name": "increaseAllowance",
      "outputs": [
        {
          "internalType": "bool",
          "name": "",
          "type": "bool"
        }
      ],
      "stateMutability": "nonpayable",
      "type": "function"
    },
    {
      "inputs": [
        {
          "internalType": "address",
          "name": "to",
          "type": "address"
        }
      ],
      "name": "mint",
      "outputs": [
        {
          "internalType": "uint256",
          "name": "lpAmount",
          "type": "uint256"
        }
      ],
      "stateMutability": "nonpayable",
      "type": "function"
    },
    {
      "inputs": [],
      "name": "name",
      "outputs": [
        {
          "internalType": "string",
          "name": "",
          "type": "string"
        }
      ],
      "stateMutability": "view",
      "type": "function"
    },
    {
      "inputs": [],
      "name": "owner",
      "outputs": [
        {
          "internalType": "address",
          "name": "",
          "type": "address"
        }
      ],
      "stateMutability": "view",
      "type": "function"
    },
    {
      "inputs": [],
      "name": "renounceOwnership",
      "outputs": [],
      "stateMutability": "nonpayable",
      "type": "function"
    },
    {
      "inputs": [
        {
          "internalType": "uint256",
          "name": "_ratio",
          "type": "uint256"
        }
      ],
      "name": "setBRatio",
      "outputs": [],
      "stateMutability": "nonpayable",
      "type": "function"
    },
    {
      "inputs": [
        {
          "internalType": "address",
          "name": "_twoWay",
          "type": "address"
        }
      ],
      "name": "setTwoWay",
      "outputs": [],
      "stateMutability": "nonpayable",
      "type": "function"
    },
    {
      "inputs": [
        {
          "internalType": "address",
          "name": "to",
          "type": "address"
        },
        {
          "internalType": "uint256",
          "name": "amount1",
          "type": "uint256"
        },
        {
          "internalType": "uint256",
          "name": "feeAmountFix",
          "type": "uint256"
        },
        {
          "internalType": "uint256",
          "name": "remainAmount",
          "type": "uint256"
        },
        {
          "internalType": "address",
          "name": "feeToDev",
          "type": "address"
        }
      ],
      "name": "swapIn",
      "outputs": [],
      "stateMutability": "nonpayable",
      "type": "function"
    },
    {
      "inputs": [
        {
          "internalType": "address",
          "name": "to",
          "type": "address"
        },
        {
          "internalType": "uint256",
          "name": "amount0",
          "type": "uint256"
        }
      ],
      "name": "swapOut",
      "outputs": [],
      "stateMutability": "nonpayable",
      "type": "function"
    },
    {
      "inputs": [],
      "name": "symbol",
      "outputs": [
        {
          "internalType": "string",
          "name": "",
          "type": "string"
        }
      ],
      "stateMutability": "view",
      "type": "function"
    },
    {
      "inputs": [],
      "name": "token0",
      "outputs": [
        {
          "internalType": "address",
          "name": "",
          "type": "address"
        }
      ],
      "stateMutability": "view",
      "type": "function"
    },
    {
      "inputs": [],
      "name": "token1",
      "outputs": [
        {
          "internalType": "address",
          "name": "",
          "type": "address"
        }
      ],
      "stateMutability": "view",
      "type": "function"
    },
    {
      "inputs": [],
      "name": "totalSupply",
      "outputs": [
        {
          "internalType": "uint256",
          "name": "",
          "type": "uint256"
        }
      ],
      "stateMutability": "view",
      "type": "function"
    },
    {
      "inputs": [
        {
          "internalType": "address",
          "name": "recipient",
          "type": "address"
        },
        {
          "internalType": "uint256",
          "name": "amount",
          "type": "uint256"
        }
      ],
      "name": "transfer",
      "outputs": [
        {
          "internalType": "bool",
          "name": "",
          "type": "bool"
        }
      ],
      "stateMutability": "nonpayable",
      "type": "function"
    },
    {
      "inputs": [
        {
          "internalType": "address",
          "name": "sender",
          "type": "address"
        },
        {
          "internalType": "address",
          "name": "recipient",
          "type": "address"
        },
        {
          "internalType": "uint256",
          "name": "amount",
          "type": "uint256"
        }
      ],
      "name": "transferFrom",
      "outputs": [
        {
          "internalType": "bool",
          "name": "",
          "type": "bool"
        }
      ],
      "stateMutability": "nonpayable",
      "type": "function"
    },
    {
      "inputs": [
        {
          "internalType": "address",
          "name": "newOwner",
          "type": "address"
        }
      ],
      "name": "transferOwnership",
      "outputs": [],
      "stateMutability": "nonpayable",
      "type": "function"
    },
    {
      "inputs": [],
      "name": "twoWay",
      "outputs": [
        {
          "internalType": "address",
          "name": "",
          "type": "address"
        }
      ],
      "stateMutability": "view",
      "type": "function"
    },
    {
      "inputs": [],
      "name": "update",
      "outputs": [],
      "stateMutability": "nonpayable",
      "type": "function"
    }
  ],
  "transactionHash": "0x5637fd9edd7bbc5b932a99f188b951ea072619e90a397c35d09b6922703c2488",
  "args": [
    "TwoWay LP",
    "TLP",
    18,
    "0x382bB369d343125BfB2117af9c149795C6C65C50",
    "0x5e23a392829AF3095C703bAd32A2F6db929E4Ab3"
  ],
  "solcInputHash": "23ccfa0acef8b091c680d4f1904dc2cb",
  "bytecode": "0x60806040526003600c553480156200001657600080fd5b506040516200234c3803806200234c8339810160408190526200003991620002a4565b845185908590620000529060039060208501906200012e565b508051620000689060049060208401906200012e565b505050620000856200007f620000d860201b60201c565b620000dc565b600780546001600160a01b039384166001600160a01b031991821617909155600880549290931691161790556005805460ff909216600160a01b0260ff60a01b19909216919091179055506200039c9050565b3390565b600580546001600160a01b038381166001600160a01b0319831681179093556040519116919082907f8be0079c531659141344cd1fd0a4f28419497f9722a3daafe3b4186f6b6457e090600090a35050565b8280546200013c9062000349565b90600052602060002090601f016020900481019282620001605760008555620001ab565b82601f106200017b57805160ff1916838001178555620001ab565b82800160010185558215620001ab579182015b82811115620001ab5782518255916020019190600101906200018e565b50620001b9929150620001bd565b5090565b5b80821115620001b95760008155600101620001be565b80516001600160a01b0381168114620001ec57600080fd5b919050565b600082601f83011262000202578081fd5b81516001600160401b03808211156200021f576200021f62000386565b604051601f8301601f19908116603f011681019082821181831017156200024a576200024a62000386565b8160405283815260209250868385880101111562000266578485fd5b8491505b838210156200028957858201830151818301840152908201906200026a565b838211156200029a57848385830101525b9695505050505050565b600080600080600060a08688031215620002bc578081fd5b85516001600160401b0380821115620002d3578283fd5b620002e189838a01620001f1565b96506020880151915080821115620002f7578283fd5b506200030688828901620001f1565b945050604086015160ff811681146200031d578182fd5b92506200032d60608701620001d4565b91506200033d60808701620001d4565b90509295509295909350565b600181811c908216806200035e57607f821691505b602082108114156200038057634e487b7160e01b600052602260045260246000fd5b50919050565b634e487b7160e01b600052604160045260246000fd5b611fa080620003ac6000396000f3fe608060405234801561001057600080fd5b50600436106101cf5760003560e01c806370a0823111610104578063a9059cbb116100a2578063dc287c7e11610071578063dc287c7e146103d1578063dd62ed3e146103e4578063f2fde38b1461041d578063fa02a70a1461043057600080fd5b8063a9059cbb1461038f578063ba9a7a56146103a2578063d21220a7146103ab578063d45c5b7c146103be57600080fd5b80638da5cb5b116100de5780638da5cb5b1461035b57806395d89b411461036c578063a2e6204514610374578063a457c2d71461037c57600080fd5b806370a0823114610317578063715018a614610340578063779afa371461034857600080fd5b806318160ddd11610171578063395093511161014b57806339509351146102d557806342baeb84146102e85780634a991743146102fb5780636a6278421461030457600080fd5b806318160ddd1461029b57806323b872dd146102a3578063313ce567146102b657600080fd5b80630cf5bf1a116101ad5780630cf5bf1a146102315780630dfe16811461024657806310d974ae14610271578063177817f41461028457600080fd5b806306fdde03146101d45780630902f1ac146101f2578063095ea7b31461020e575b600080fd5b6101dc610443565b6040516101e99190611dd4565b60405180910390f35b600954600a545b604080519283526020830191909152016101e9565b61022161021c366004611cf0565b6104d5565b60405190151581526020016101e9565b61024461023f366004611c15565b6104eb565b005b600754610259906001600160a01b031681565b6040516001600160a01b0390911681526020016101e9565b61024461027f366004611cf0565b610540565b61028d600c5481565b6040519081526020016101e9565b60025461028d565b6102216102b1366004611c61565b610789565b600554600160a01b900460ff1660405160ff90911681526020016101e9565b6102216102e3366004611cf0565b610835565b600b54610259906001600160a01b031681565b61028d60065481565b61028d610312366004611c15565b610871565b61028d610325366004611c15565b6001600160a01b031660009081526020819052604090205490565b610244610a2e565b6101f9610356366004611c9c565b610a64565b6005546001600160a01b0316610259565b6101dc610d9b565b610244610daa565b61022161038a366004611cf0565b610edd565b61022161039d366004611cf0565b610f76565b61028d6103e881565b600854610259906001600160a01b031681565b6102446103cc366004611d88565b610f83565b6101f96103df366004611d88565b610fb2565b61028d6103f2366004611c2f565b6001600160a01b03918216600090815260016020908152604080832093909416825291909152205490565b61024461042b366004611c15565b611071565b61024461043e366004611d19565b61110c565b60606003805461045290611f19565b80601f016020809104026020016040519081016040528092919081815260200182805461047e90611f19565b80156104cb5780601f106104a0576101008083540402835291602001916104cb565b820191906000526020600020905b8154815290600101906020018083116104ae57829003601f168201915b5050505050905090565b60006104e23384846113df565b50600192915050565b6005546001600160a01b0316331461051e5760405162461bcd60e51b815260040161051590611e4a565b60405180910390fd5b600b80546001600160a01b0319166001600160a01b0392909216919091179055565b600b546001600160a01b0316331461056a5760405162461bcd60e51b815260040161051590611e07565b6000610579600954600a549091565b915050818110156105cc5760405162461bcd60e51b815260206004820152601e60248201527f53776170506169723a20696e7375666669656e74206c697175696469747900006044820152606401610515565b600854604051632770a7eb60e21b8152306004820152602481018490526001600160a01b0390911690639dc29fac90604401600060405180830381600087803b15801561061857600080fd5b505af115801561062c573d6000803e3d6000fd5b50506007546040516370a0823160e01b8152306004820152600093506001600160a01b0390911691506370a082319060240160206040518083038186803b15801561067657600080fd5b505afa15801561068a573d6000803e3d6000fd5b505050506040513d601f19601f820116820180604052508101906106ae9190611da0565b6008546040516370a0823160e01b81523060048201529192506000916001600160a01b03909116906370a082319060240160206040518083038186803b1580156106f757600080fd5b505afa15801561070b573d6000803e3d6000fd5b505050506040513d601f19601f8201168201806040525081019061072f9190611da0565b6009839055600a81905560408051868152602081018790529192506001600160a01b0387169133917f2a9237ff5aa599ef4c5ee4b1142b53429d5755e2685fe6288b2e3320202115f5910160405180910390a35050505050565b6000610796848484611504565b6001600160a01b03841660009081526001602090815260408083203384529091529020548281101561081b5760405162461bcd60e51b815260206004820152602860248201527f45524332303a207472616e7366657220616d6f756e74206578636565647320616044820152676c6c6f77616e636560c01b6064820152608401610515565b61082885338584036113df565b60019150505b9392505050565b3360008181526001602090815260408083206001600160a01b038716845290915281205490916104e291859061086c908690611e7f565b6113df565b600b546000906001600160a01b0316331461089e5760405162461bcd60e51b815260040161051590611e07565b6000806108ae600954600a549091565b6007546040516370a0823160e01b81523060048201529294509092506000916001600160a01b03909116906370a082319060240160206040518083038186803b1580156108fa57600080fd5b505afa15801561090e573d6000803e3d6000fd5b505050506040513d601f19601f820116820180604052508101906109329190611da0565b9050600061094082856116d4565b9050600061094d60025490565b90508061095c57819550610980565b6109668486611e7f565b6002546109739084611eb7565b61097d9190611e97565b95505b600086116109e05760405162461bcd60e51b815260206004820152602760248201527f53776170506169723a20696e73756666696369656e74206c6971756964697479604482015266081b5a5b9d195960ca1b6064820152608401610515565b6109ea87876116e0565b600983905560405186815233907f0f6798a560793a54c3bcfe86a93cde1e73087d944c0ea20544137d41213968859060200160405180910390a25050505050919050565b6005546001600160a01b03163314610a585760405162461bcd60e51b815260040161051590611e4a565b610a6260006117bf565b565b600b5460009081906001600160a01b03163314610a935760405162461bcd60e51b815260040161051590611e07565b610a9c85610fb2565b60075491935091506001600160a01b031663a9059cbb87610abd8686611ed6565b6040516001600160e01b031960e085901b1681526001600160a01b0390921660048301526024820152604401602060405180830381600087803b158015610b0357600080fd5b505af1158015610b17573d6000803e3d6000fd5b505050506040513d601f19601f82011682018060405250810190610b3b9190611d68565b508215610bca5760075460405163a9059cbb60e01b81526001600160a01b038681166004830152602482018690529091169063a9059cbb90604401602060405180830381600087803b158015610b9057600080fd5b505af1158015610ba4573d6000803e3d6000fd5b505050506040513d601f19601f82011682018060405250810190610bc89190611d68565b505b8015610c3557600854604051632770a7eb60e21b8152306004820152602481018390526001600160a01b0390911690639dc29fac90604401600060405180830381600087803b158015610c1c57600080fd5b505af1158015610c30573d6000803e3d6000fd5b505050505b610c3f8786611811565b6007546040516370a0823160e01b81523060048201526000916001600160a01b0316906370a082319060240160206040518083038186803b158015610c8357600080fd5b505afa158015610c97573d6000803e3d6000fd5b505050506040513d601f19601f82011682018060405250810190610cbb9190611da0565b6008546040516370a0823160e01b81523060048201529192506000916001600160a01b03909116906370a082319060240160206040518083038186803b158015610d0457600080fd5b505afa158015610d18573d6000803e3d6000fd5b505050506040513d601f19601f82011682018060405250810190610d3c9190611da0565b6009839055600a81905560408051868152602081018690529192506001600160a01b038a169133917fdccd412f0b1252819cb1fd330b93224ca42612892bb3f4f789976e6d81936496910160405180910390a350509550959350505050565b60606004805461045290611f19565b600b546001600160a01b03163314610dd45760405162461bcd60e51b815260040161051590611e07565b6007546040516370a0823160e01b81523060048201526000916001600160a01b0316906370a082319060240160206040518083038186803b158015610e1857600080fd5b505afa158015610e2c573d6000803e3d6000fd5b505050506040513d601f19601f82011682018060405250810190610e509190611da0565b6008546040516370a0823160e01b81523060048201529192506000916001600160a01b03909116906370a082319060240160206040518083038186803b158015610e9957600080fd5b505afa158015610ead573d6000803e3d6000fd5b505050506040513d601f19601f82011682018060405250810190610ed19190611da0565b60099290925550600a55565b3360009081526001602090815260408083206001600160a01b038616845290915281205482811015610f5f5760405162461bcd60e51b815260206004820152602560248201527f45524332303a2064656372656173656420616c6c6f77616e63652062656c6f77604482015264207a65726f60d81b6064820152608401610515565b610f6c33858584036113df565b5060019392505050565b60006104e2338484611504565b6005546001600160a01b03163314610fad5760405162461bcd60e51b815260040161051590611e4a565b600c55565b600080600080610fc5600954600a549091565b915091506000610fd460025490565b9050600081610fe38486611e7f565b610fed9089611eb7565b610ff79190611e97565b90508361100f600c548561195c90919063ffffffff16565b10156110415760095481111561103557600954955061102e8682611ed6565b9450611068565b80955060009450611068565b6110558261104f898761195c565b90611968565b95506110658261104f898661195c565b94505b50505050915091565b6005546001600160a01b0316331461109b5760405162461bcd60e51b815260040161051590611e4a565b6001600160a01b0381166111005760405162461bcd60e51b815260206004820152602660248201527f4f776e61626c653a206e6577206f776e657220697320746865207a65726f206160448201526564647265737360d01b6064820152608401610515565b611109816117bf565b50565b600b546001600160a01b031633146111365760405162461bcd60e51b815260040161051590611e07565b6000611145600954600a549091565b5090508481101561118f5760405162461bcd60e51b8152602060048201526014602482015273496e7375666669656e74206c697175696469747960601b6044820152606401610515565b600085116111eb5760405162461bcd60e51b8152602060048201526024808201527f5377617020616d6f756e742073686f756c6420626520677265617465722074686044820152630616e20360e41b6064820152608401610515565b600754611202906001600160a01b03168785611974565b831561121f5760075461121f906001600160a01b03168386611974565b6008546040516340c10f1960e01b8152306004820152602481018790526001600160a01b03909116906340c10f1990604401600060405180830381600087803b15801561126b57600080fd5b505af115801561127f573d6000803e3d6000fd5b50506007546040516370a0823160e01b8152306004820152600093506001600160a01b0390911691506370a082319060240160206040518083038186803b1580156112c957600080fd5b505afa1580156112dd573d6000803e3d6000fd5b505050506040513d601f19601f820116820180604052508101906113019190611da0565b6008546040516370a0823160e01b81523060048201529192506000916001600160a01b03909116906370a082319060240160206040518083038186803b15801561134a57600080fd5b505afa15801561135e573d6000803e3d6000fd5b505050506040513d601f19601f820116820180604052508101906113829190611da0565b6009839055600a81905560408051898152602081018a90529192506001600160a01b038a169133917f2a9237ff5aa599ef4c5ee4b1142b53429d5755e2685fe6288b2e3320202115f5910160405180910390a35050505050505050565b6001600160a01b0383166114415760405162461bcd60e51b8152602060048201526024808201527f45524332303a20617070726f76652066726f6d20746865207a65726f206164646044820152637265737360e01b6064820152608401610515565b6001600160a01b0382166114a25760405162461bcd60e51b815260206004820152602260248201527f45524332303a20617070726f766520746f20746865207a65726f206164647265604482015261737360f01b6064820152608401610515565b6001600160a01b0383811660008181526001602090815260408083209487168084529482529182902085905590518481527f8c5be1e5ebec7d5bd14f71427d1e84f3dd0314c0f7b2291e5b200ac8c7c3b92591015b60405180910390a3505050565b6001600160a01b0383166115685760405162461bcd60e51b815260206004820152602560248201527f45524332303a207472616e736665722066726f6d20746865207a65726f206164604482015264647265737360d81b6064820152608401610515565b6001600160a01b0382166115ca5760405162461bcd60e51b815260206004820152602360248201527f45524332303a207472616e7366657220746f20746865207a65726f206164647260448201526265737360e81b6064820152608401610515565b6001600160a01b038316600090815260208190526040902054818110156116425760405162461bcd60e51b815260206004820152602660248201527f45524332303a207472616e7366657220616d6f756e7420657863656564732062604482015265616c616e636560d01b6064820152608401610515565b6001600160a01b03808516600090815260208190526040808220858503905591851681529081208054849290611679908490611e7f565b92505081905550826001600160a01b0316846001600160a01b03167fddf252ad1be2c89b69c2b068fc378daa952ba7f163c4a11628f55a4df523b3ef846040516116c591815260200190565b60405180910390a35b50505050565b600061082e8284611ed6565b6001600160a01b0382166117365760405162461bcd60e51b815260206004820152601f60248201527f45524332303a206d696e7420746f20746865207a65726f2061646472657373006044820152606401610515565b80600260008282546117489190611e7f565b90915550506001600160a01b03821660009081526020819052604081208054839290611775908490611e7f565b90915550506040518181526001600160a01b038316906000907fddf252ad1be2c89b69c2b068fc378daa952ba7f163c4a11628f55a4df523b3ef9060200160405180910390a35050565b600580546001600160a01b038381166001600160a01b0319831681179093556040519116919082907f8be0079c531659141344cd1fd0a4f28419497f9722a3daafe3b4186f6b6457e090600090a35050565b6001600160a01b0382166118715760405162461bcd60e51b815260206004820152602160248201527f45524332303a206275726e2066726f6d20746865207a65726f206164647265736044820152607360f81b6064820152608401610515565b6001600160a01b038216600090815260208190526040902054818110156118e55760405162461bcd60e51b815260206004820152602260248201527f45524332303a206275726e20616d6f756e7420657863656564732062616c616e604482015261636560f01b6064820152608401610515565b6001600160a01b0383166000908152602081905260408120838303905560028054849290611914908490611ed6565b90915550506040518281526000906001600160a01b038516907fddf252ad1be2c89b69c2b068fc378daa952ba7f163c4a11628f55a4df523b3ef906020016114f7565b505050565b600061082e8284611eb7565b600061082e8284611e97565b604080516001600160a01b03848116602483015260448083018590528351808403909101815260649092018352602080830180516001600160e01b031663a9059cbb60e01b17905283518085019094528084527f5361666545524332303a206c6f772d6c6576656c2063616c6c206661696c65649084015261195792869291600091611a04918516908490611a81565b8051909150156119575780806020019051810190611a229190611d68565b6119575760405162461bcd60e51b815260206004820152602a60248201527f5361666545524332303a204552433230206f7065726174696f6e20646964206e6044820152691bdd081cdd58d8d9595960b21b6064820152608401610515565b6060611a908484600085611a98565b949350505050565b606082471015611af95760405162461bcd60e51b815260206004820152602660248201527f416464726573733a20696e73756666696369656e742062616c616e636520666f6044820152651c8818d85b1b60d21b6064820152608401610515565b843b611b475760405162461bcd60e51b815260206004820152601d60248201527f416464726573733a2063616c6c20746f206e6f6e2d636f6e74726163740000006044820152606401610515565b600080866001600160a01b03168587604051611b639190611db8565b60006040518083038185875af1925050503d8060008114611ba0576040519150601f19603f3d011682016040523d82523d6000602084013e611ba5565b606091505b5091509150611bb5828286611bc0565b979650505050505050565b60608315611bcf57508161082e565b825115611bdf5782518084602001fd5b8160405162461bcd60e51b81526004016105159190611dd4565b80356001600160a01b0381168114611c1057600080fd5b919050565b600060208284031215611c26578081fd5b61082e82611bf9565b60008060408385031215611c41578081fd5b611c4a83611bf9565b9150611c5860208401611bf9565b90509250929050565b600080600060608486031215611c75578081fd5b611c7e84611bf9565b9250611c8c60208501611bf9565b9150604084013590509250925092565b600080600080600060a08688031215611cb3578081fd5b611cbc86611bf9565b9450611cca60208701611bf9565b935060408601359250611cdf60608701611bf9565b949793965091946080013592915050565b60008060408385031215611d02578182fd5b611d0b83611bf9565b946020939093013593505050565b600080600080600060a08688031215611d30578081fd5b611d3986611bf9565b9450602086013593506040860135925060608601359150611d5c60808701611bf9565b90509295509295909350565b600060208284031215611d79578081fd5b8151801515811461082e578182fd5b600060208284031215611d99578081fd5b5035919050565b600060208284031215611db1578081fd5b5051919050565b60008251611dca818460208701611eed565b9190910192915050565b6020815260008251806020840152611df3816040850160208701611eed565b601f01601f19169190910160400192915050565b60208082526023908201527f53776170506169723a206f6e6c792074776f5761792063616e20696e766f6b65604082015262081a5d60ea1b606082015260800190565b6020808252818101527f4f776e61626c653a2063616c6c6572206973206e6f7420746865206f776e6572604082015260600190565b60008219821115611e9257611e92611f54565b500190565b600082611eb257634e487b7160e01b81526012600452602481fd5b500490565b6000816000190483118215151615611ed157611ed1611f54565b500290565b600082821015611ee857611ee8611f54565b500390565b60005b83811015611f08578181015183820152602001611ef0565b838111156116ce5750506000910152565b600181811c90821680611f2d57607f821691505b60208210811415611f4e57634e487b7160e01b600052602260045260246000fd5b50919050565b634e487b7160e01b600052601160045260246000fdfea2646970667358221220c22c92e3800d3c0b5368cf0155d7a783bb238fc7c439d57dc9239cf46e2e69f464736f6c63430008040033",
  "devdoc": {
    "kind": "dev",
    "methods": {
      "allowance(address,address)": {
        "details": "See {IERC20-allowance}."
      },
      "approve(address,uint256)": {
        "details": "See {IERC20-approve}. Requirements: - `spender` cannot be the zero address."
      },
      "balanceOf(address)": {
        "details": "See {IERC20-balanceOf}."
      },
      "decimals()": {
        "details": "Returns the number of decimals used to get its user representation. For example, if `decimals` equals `2`, a balance of `505` tokens should be displayed to a user as `5,05` (`505 / 10 ** 2`). Tokens usually opt for a value of 18, imitating the relationship between Ether and Wei. This is the value {ERC20} uses, unless this function is overridden; NOTE: This information is only used for _display_ purposes: it in no way affects any of the arithmetic of the contract, including {IERC20-balanceOf} and {IERC20-transfer}."
      },
      "decreaseAllowance(address,uint256)": {
        "details": "Atomically decreases the allowance granted to `spender` by the caller. This is an alternative to {approve} that can be used as a mitigation for problems described in {IERC20-approve}. Emits an {Approval} event indicating the updated allowance. Requirements: - `spender` cannot be the zero address. - `spender` must have allowance for the caller of at least `subtractedValue`."
      },
      "increaseAllowance(address,uint256)": {
        "details": "Atomically increases the allowance granted to `spender` by the caller. This is an alternative to {approve} that can be used as a mitigation for problems described in {IERC20-approve}. Emits an {Approval} event indicating the updated allowance. Requirements: - `spender` cannot be the zero address."
      },
      "name()": {
        "details": "Returns the name of the token."
      },
      "owner()": {
        "details": "Returns the address of the current owner."
      },
      "renounceOwnership()": {
        "details": "Leaves the contract without owner. It will not be possible to call `onlyOwner` functions anymore. Can only be called by the current owner. NOTE: Renouncing ownership will leave the contract without an owner, thereby removing any functionality that is only available to the owner."
      },
      "symbol()": {
        "details": "Returns the symbol of the token, usually a shorter version of the name."
      },
      "totalSupply()": {
        "details": "See {IERC20-totalSupply}."
      },
      "transfer(address,uint256)": {
        "details": "See {IERC20-transfer}. Requirements: - `recipient` cannot be the zero address. - the caller must have a balance of at least `amount`."
      },
      "transferFrom(address,address,uint256)": {
        "details": "See {IERC20-transferFrom}. Emits an {Approval} event indicating the updated allowance. This is not required by the EIP. See the note at the beginning of {ERC20}. Requirements: - `sender` and `recipient` cannot be the zero address. - `sender` must have a balance of at least `amount`. - the caller must have allowance for ``sender``'s tokens of at least `amount`."
      },
      "transferOwnership(address)": {
        "details": "Transfers ownership of the contract to a new account (`newOwner`). Can only be called by the current owner."
      }
    },
    "version": 1
  },
  "userdoc": {
    "kind": "user",
    "methods": {},
    "version": 1
  },
  "storageLayout": {
    "storage": [
      {
        "astId": 2862,
        "contract": "contracts/twoway/SwapPair.sol:SwapPair",
        "label": "_balances",
        "offset": 0,
        "slot": "0",
        "type": "t_mapping(t_address,t_uint256)"
      },
      {
        "astId": 2868,
        "contract": "contracts/twoway/SwapPair.sol:SwapPair",
        "label": "_allowances",
        "offset": 0,
        "slot": "1",
        "type": "t_mapping(t_address,t_mapping(t_address,t_uint256))"
      },
      {
        "astId": 2870,
        "contract": "contracts/twoway/SwapPair.sol:SwapPair",
        "label": "_totalSupply",
        "offset": 0,
        "slot": "2",
        "type": "t_uint256"
      },
      {
        "astId": 2872,
        "contract": "contracts/twoway/SwapPair.sol:SwapPair",
        "label": "_name",
        "offset": 0,
        "slot": "3",
        "type": "t_string_storage"
      },
      {
        "astId": 2874,
        "contract": "contracts/twoway/SwapPair.sol:SwapPair",
        "label": "_symbol",
        "offset": 0,
        "slot": "4",
        "type": "t_string_storage"
      },
      {
        "astId": 2750,
        "contract": "contracts/twoway/SwapPair.sol:SwapPair",
        "label": "_owner",
        "offset": 0,
        "slot": "5",
        "type": "t_address"
      },
      {
        "astId": 7696,
        "contract": "contracts/twoway/SwapPair.sol:SwapPair",
        "label": "_decimals",
        "offset": 20,
        "slot": "5",
        "type": "t_uint8"
      },
      {
        "astId": 7698,
        "contract": "contracts/twoway/SwapPair.sol:SwapPair",
        "label": "decimalsUNIT",
        "offset": 0,
        "slot": "6",
        "type": "t_uint256"
      },
      {
        "astId": 7706,
        "contract": "contracts/twoway/SwapPair.sol:SwapPair",
        "label": "token0",
        "offset": 0,
        "slot": "7",
        "type": "t_address"
      },
      {
        "astId": 7709,
        "contract": "contracts/twoway/SwapPair.sol:SwapPair",
        "label": "token1",
        "offset": 0,
        "slot": "8",
        "type": "t_address"
      },
      {
        "astId": 7711,
        "contract": "contracts/twoway/SwapPair.sol:SwapPair",
        "label": "reserve0",
        "offset": 0,
        "slot": "9",
        "type": "t_uint256"
      },
      {
        "astId": 7713,
        "contract": "contracts/twoway/SwapPair.sol:SwapPair",
        "label": "reserve1",
        "offset": 0,
        "slot": "10",
        "type": "t_uint256"
      },
      {
        "astId": 7715,
        "contract": "contracts/twoway/SwapPair.sol:SwapPair",
        "label": "twoWay",
        "offset": 0,
        "slot": "11",
        "type": "t_address"
      },
      {
        "astId": 7718,
        "contract": "contracts/twoway/SwapPair.sol:SwapPair",
        "label": "bRatio",
        "offset": 0,
        "slot": "12",
        "type": "t_uint256"
      }
    ],
    "types": {
      "t_address": {
        "encoding": "inplace",
        "label": "address",
        "numberOfBytes": "20"
      },
      "t_mapping(t_address,t_mapping(t_address,t_uint256))": {
        "encoding": "mapping",
        "key": "t_address",
        "label": "mapping(address => mapping(address => uint256))",
        "numberOfBytes": "32",
        "value": "t_mapping(t_address,t_uint256)"
      },
      "t_mapping(t_address,t_uint256)": {
        "encoding": "mapping",
        "key": "t_address",
        "label": "mapping(address => uint256)",
        "numberOfBytes": "32",
        "value": "t_uint256"
      },
      "t_string_storage": {
        "encoding": "bytes",
        "label": "string",
        "numberOfBytes": "32"
      },
      "t_uint256": {
        "encoding": "inplace",
        "label": "uint256",
        "numberOfBytes": "32"
      },
      "t_uint8": {
        "encoding": "inplace",
        "label": "uint8",
        "numberOfBytes": "1"
      }
    }
  }
}