{
  "address": "0x2B21237BA30deF78EC551a10C99d656F90Eb10fC",
  "abi": [
    {
      "inputs": [
        {
          "internalType": "address",
          "name": "admin",
          "type": "address"
        },
        {
          "internalType": "address",
          "name": "_dispatcher",
          "type": "address"
        },
        {
          "internalType": "contract IERC20",
          "name": "_underToken",
          "type": "address"
        }
      ],
      "stateMutability": "nonpayable",
      "type": "constructor"
    },
    {
      "anonymous": false,
      "inputs": [
        {
          "indexed": true,
          "internalType": "address",
          "name": "owner",
          "type": "address"
        },
        {
          "indexed": true,
          "internalType": "address",
          "name": "spender",
          "type": "address"
        },
        {
          "indexed": false,
          "internalType": "uint256",
          "name": "value",
          "type": "uint256"
        }
      ],
      "name": "Approval",
      "type": "event"
    },
    {
      "anonymous": false,
      "inputs": [
        {
          "indexed": true,
          "internalType": "bytes32",
          "name": "role",
          "type": "bytes32"
        },
        {
          "indexed": true,
          "internalType": "bytes32",
          "name": "previousAdminRole",
          "type": "bytes32"
        },
        {
          "indexed": true,
          "internalType": "bytes32",
          "name": "newAdminRole",
          "type": "bytes32"
        }
      ],
      "name": "RoleAdminChanged",
      "type": "event"
    },
    {
      "anonymous": false,
      "inputs": [
        {
          "indexed": true,
          "internalType": "bytes32",
          "name": "role",
          "type": "bytes32"
        },
        {
          "indexed": true,
          "internalType": "address",
          "name": "account",
          "type": "address"
        },
        {
          "indexed": true,
          "internalType": "address",
          "name": "sender",
          "type": "address"
        }
      ],
      "name": "RoleGranted",
      "type": "event"
    },
    {
      "anonymous": false,
      "inputs": [
        {
          "indexed": true,
          "internalType": "bytes32",
          "name": "role",
          "type": "bytes32"
        },
        {
          "indexed": true,
          "internalType": "address",
          "name": "account",
          "type": "address"
        },
        {
          "indexed": true,
          "internalType": "address",
          "name": "sender",
          "type": "address"
        }
      ],
      "name": "RoleRevoked",
      "type": "event"
    },
    {
      "anonymous": false,
      "inputs": [
        {
          "indexed": true,
          "internalType": "address",
          "name": "from",
          "type": "address"
        },
        {
          "indexed": true,
          "internalType": "address",
          "name": "to",
          "type": "address"
        },
        {
          "indexed": false,
          "internalType": "uint256",
          "name": "value",
          "type": "uint256"
        }
      ],
      "name": "Transfer",
      "type": "event"
    },
    {
      "inputs": [],
      "name": "BURNER_ROLE",
      "outputs": [
        {
          "internalType": "bytes32",
          "name": "",
          "type": "bytes32"
        }
      ],
      "stateMutability": "view",
      "type": "function"
    },
    {
      "inputs": [],
      "name": "DEFAULT_ADMIN_ROLE",
      "outputs": [
        {
          "internalType": "bytes32",
          "name": "",
          "type": "bytes32"
        }
      ],
      "stateMutability": "view",
      "type": "function"
    },
    {
      "inputs": [],
      "name": "MINTER_ROLE",
      "outputs": [
        {
          "internalType": "bytes32",
          "name": "",
          "type": "bytes32"
        }
      ],
      "stateMutability": "view",
      "type": "function"
    },
    {
      "inputs": [
        {
          "internalType": "address",
          "name": "owner",
          "type": "address"
        },
        {
          "internalType": "address",
          "name": "spender",
          "type": "address"
        }
      ],
      "name": "allowance",
      "outputs": [
        {
          "internalType": "uint256",
          "name": "",
          "type": "uint256"
        }
      ],
      "stateMutability": "view",
      "type": "function"
    },
    {
      "inputs": [
        {
          "internalType": "address",
          "name": "spender",
          "type": "address"
        },
        {
          "internalType": "uint256",
          "name": "amount",
          "type": "uint256"
        }
      ],
      "name": "approve",
      "outputs": [
        {
          "internalType": "bool",
          "name": "",
          "type": "bool"
        }
      ],
      "stateMutability": "nonpayable",
      "type": "function"
    },
    {
      "inputs": [
        {
          "internalType": "address",
          "name": "account",
          "type": "address"
        }
      ],
      "name": "balanceOf",
      "outputs": [
        {
          "internalType": "uint256",
          "name": "",
          "type": "uint256"
        }
      ],
      "stateMutability": "view",
      "type": "function"
    },
    {
      "inputs": [
        {
          "internalType": "address",
          "name": "to",
          "type": "address"
        },
        {
          "internalType": "uint256",
          "name": "amount",
          "type": "uint256"
        }
      ],
      "name": "burn",
      "outputs": [
        {
          "internalType": "bool",
          "name": "",
          "type": "bool"
        }
      ],
      "stateMutability": "nonpayable",
      "type": "function"
    },
    {
      "inputs": [],
      "name": "decimals",
      "outputs": [
        {
          "internalType": "uint8",
          "name": "",
          "type": "uint8"
        }
      ],
      "stateMutability": "view",
      "type": "function"
    },
    {
      "inputs": [],
      "name": "dispatcher",
      "outputs": [
        {
          "internalType": "address",
          "name": "",
          "type": "address"
        }
      ],
      "stateMutability": "view",
      "type": "function"
    },
    {
      "inputs": [
        {
          "internalType": "bytes32",
          "name": "role",
          "type": "bytes32"
        }
      ],
      "name": "getRoleAdmin",
      "outputs": [
        {
          "internalType": "bytes32",
          "name": "",
          "type": "bytes32"
        }
      ],
      "stateMutability": "view",
      "type": "function"
    },
    {
      "inputs": [
        {
          "internalType": "bytes32",
          "name": "role",
          "type": "bytes32"
        },
        {
          "internalType": "address",
          "name": "account",
          "type": "address"
        }
      ],
      "name": "grantRole",
      "outputs": [],
      "stateMutability": "nonpayable",
      "type": "function"
    },
    {
      "inputs": [
        {
          "internalType": "bytes32",
          "name": "role",
          "type": "bytes32"
        },
        {
          "internalType": "address",
          "name": "account",
          "type": "address"
        }
      ],
      "name": "hasRole",
      "outputs": [
        {
          "internalType": "bool",
          "name": "",
          "type": "bool"
        }
      ],
      "stateMutability": "view",
      "type": "function"
    },
    {
      "inputs": [
        {
          "internalType": "address",
          "name": "to",
          "type": "address"
        },
        {
          "internalType": "uint256",
          "name": "amount",
          "type": "uint256"
        }
      ],
      "name": "mint",
      "outputs": [
        {
          "internalType": "bool",
          "name": "",
          "type": "bool"
        }
      ],
      "stateMutability": "nonpayable",
      "type": "function"
    },
    {
      "inputs": [],
      "name": "name",
      "outputs": [
        {
          "internalType": "string",
          "name": "",
          "type": "string"
        }
      ],
      "stateMutability": "view",
      "type": "function"
    },
    {
      "inputs": [
        {
          "internalType": "bytes32",
          "name": "role",
          "type": "bytes32"
        },
        {
          "internalType": "address",
          "name": "account",
          "type": "address"
        }
      ],
      "name": "renounceRole",
      "outputs": [],
      "stateMutability": "nonpayable",
      "type": "function"
    },
    {
      "inputs": [
        {
          "internalType": "bytes32",
          "name": "role",
          "type": "bytes32"
        },
        {
          "internalType": "address",
          "name": "account",
          "type": "address"
        }
      ],
      "name": "revokeRole",
      "outputs": [],
      "stateMutability": "nonpayable",
      "type": "function"
    },
    {
      "inputs": [
        {
          "internalType": "address",
          "name": "_dispatcher",
          "type": "address"
        }
      ],
      "name": "setDispatcher",
      "outputs": [],
      "stateMutability": "nonpayable",
      "type": "function"
    },
    {
      "inputs": [
        {
          "internalType": "bytes4",
          "name": "interfaceId",
          "type": "bytes4"
        }
      ],
      "name": "supportsInterface",
      "outputs": [
        {
          "internalType": "bool",
          "name": "",
          "type": "bool"
        }
      ],
      "stateMutability": "view",
      "type": "function"
    },
    {
      "inputs": [],
      "name": "symbol",
      "outputs": [
        {
          "internalType": "string",
          "name": "",
          "type": "string"
        }
      ],
      "stateMutability": "view",
      "type": "function"
    },
    {
      "inputs": [],
      "name": "totalSupply",
      "outputs": [
        {
          "internalType": "uint256",
          "name": "",
          "type": "uint256"
        }
      ],
      "stateMutability": "view",
      "type": "function"
    },
    {
      "inputs": [
        {
          "internalType": "address",
          "name": "recipient",
          "type": "address"
        },
        {
          "internalType": "uint256",
          "name": "amount",
          "type": "uint256"
        }
      ],
      "name": "transfer",
      "outputs": [
        {
          "internalType": "bool",
          "name": "",
          "type": "bool"
        }
      ],
      "stateMutability": "nonpayable",
      "type": "function"
    },
    {
      "inputs": [
        {
          "internalType": "address",
          "name": "sender",
          "type": "address"
        },
        {
          "internalType": "address",
          "name": "recipient",
          "type": "address"
        },
        {
          "internalType": "uint256",
          "name": "amount",
          "type": "uint256"
        }
      ],
      "name": "transferFrom",
      "outputs": [
        {
          "internalType": "bool",
          "name": "",
          "type": "bool"
        }
      ],
      "stateMutability": "nonpayable",
      "type": "function"
    },
    {
      "inputs": [],
      "name": "underToken",
      "outputs": [
        {
          "internalType": "contract IERC20",
          "name": "",
          "type": "address"
        }
      ],
      "stateMutability": "view",
      "type": "function"
    }
  ],
  "transactionHash": "0xa542507ef06692158c4a630c5218ae502098df21117f6ac4dd2c0d463cd9c469",
  "args": [
    "0x0E04597D3397C9cA39C1B9f6907004Df507463d7",
    "0x0E04597D3397C9cA39C1B9f6907004Df507463d7",
    "0x8D3573f24c0aa3819A2f5b02b2985dD82B487715"
  ],
  "solcInputHash": "7387088665e79eccf03416e0be9277c8",
  "bytecode": "0x60806040526a4d494e5445525f524f4c4560a81b6001556a4255524e45525f524f4c4560a81b6002553480156200003557600080fd5b50604051620014fe380380620014fe833981016040819052620000589162000148565b6200006560008462000098565b600480546001600160a01b039384166001600160a01b0319918216179091556003805492909316911617905550620001b4565b620000a48282620000a8565b5050565b6000828152602081815260408083206001600160a01b038516845290915290205460ff16620000a4576000828152602081815260408083206001600160a01b03851684529091529020805460ff19166001179055620001043390565b6001600160a01b0316816001600160a01b0316837f2f8788117e7eff1d82e926ec794901d17c78024a50270940304540a733656f0d60405160405180910390a45050565b6000806000606084860312156200015d578283fd5b83516200016a816200019b565b60208501519093506200017d816200019b565b604085015190925062000190816200019b565b809150509250925092565b6001600160a01b0381168114620001b157600080fd5b50565b61133a80620001c46000396000f3fe608060405234801561001057600080fd5b506004361061014d5760003560e01c806370a08231116100c3578063ba22bd761161007c578063ba22bd76146102a8578063cb7e9057146102bb578063d5391393146102e6578063d547741f146102ef578063dd62ed3e14610302578063eed33fc21461031557600080fd5b806370a082311461024c57806391d148541461025f57806395d89b41146102725780639dc29fac1461027a578063a217fddf1461028d578063a9059cbb1461029557600080fd5b8063248a9ca311610115578063248a9ca3146101cb578063282c51f3146101ee5780632f2ff15d146101f7578063313ce5671461020c57806336568abe1461022657806340c10f191461023957600080fd5b806301ffc9a71461015257806306fdde031461017a578063095ea7b31461018f57806318160ddd146101a257806323b872dd146101b8575b600080fd5b61016561016036600461109b565b610328565b60405190151581526020015b60405180910390f35b61018261035f565b604051610171919061122b565b61016561019d366004611018565b6103e5565b6101aa610474565b604051908152602001610171565b6101656101c6366004610fdd565b6104f1565b6101aa6101d9366004611061565b60009081526020819052604090206001015490565b6101aa60025481565b61020a610205366004611079565b610588565b005b6102146105b3565b60405160ff9091168152602001610171565b61020a610234366004611079565b610630565b610165610247366004611018565b6106b3565b6101aa61025a366004610f91565b610734565b61016561026d366004611079565b6107b2565b6101826107db565b610165610288366004611018565b610820565b6101aa600081565b6101656102a3366004611018565b610899565b61020a6102b6366004610f91565b6108d3565b6004546102ce906001600160a01b031681565b6040516001600160a01b039091168152602001610171565b6101aa60015481565b61020a6102fd366004611079565b61095d565b6101aa610310366004610fab565b610983565b6003546102ce906001600160a01b031681565b60006001600160e01b03198216637965db0b60e01b148061035957506301ffc9a760e01b6001600160e01b03198316145b92915050565b600354604080516306fdde0360e01b815290516060926001600160a01b0316916306fdde03916004808301926000929190829003018186803b1580156103a457600080fd5b505afa1580156103b8573d6000803e3d6000fd5b505050506040513d6000823e601f3d908101601f191682016040526103e091908101906110c3565b905090565b60035460405163095ea7b360e01b81526001600160a01b03848116600483015260248201849052600092169063095ea7b3906044015b602060405180830381600087803b15801561043557600080fd5b505af1158015610449573d6000803e3d6000fd5b505050506040513d601f19601f8201168201806040525081019061046d9190611041565b9392505050565b600354604080516318160ddd60e01b815290516000926001600160a01b0316916318160ddd916004808301926020929190829003018186803b1580156104b957600080fd5b505afa1580156104cd573d6000803e3d6000fd5b505050506040513d601f19601f820116820180604052508101906103e09190611161565b6003546040516323b872dd60e01b81526001600160a01b03858116600483015284811660248301526044820184905260009216906323b872dd90606401602060405180830381600087803b15801561054857600080fd5b505af115801561055c573d6000803e3d6000fd5b505050506040513d601f19601f820116820180604052508101906105809190611041565b949350505050565b6000828152602081905260409020600101546105a48133610a09565b6105ae8383610a6d565b505050565b6003546040805163313ce56760e01b815290516000926001600160a01b03169163313ce567916004808301926020929190829003018186803b1580156105f857600080fd5b505afa15801561060c573d6000803e3d6000fd5b505050506040513d601f19601f820116820180604052508101906103e09190611179565b6001600160a01b03811633146106a55760405162461bcd60e51b815260206004820152602f60248201527f416363657373436f6e74726f6c3a2063616e206f6e6c792072656e6f756e636560448201526e103937b632b9903337b91039b2b63360891b60648201526084015b60405180910390fd5b6106af8282610af1565b5050565b60006106c1600154336107b2565b61070d5760405162461bcd60e51b815260206004820152601b60248201527f546f6b656e3a3a63616c6c6572206973206e6f74206d696e7465720000000000604482015260640161069c565b60045460035461072b916001600160a01b0391821691168585610b56565b50600192915050565b6003546040516370a0823160e01b81526001600160a01b03838116600483015260009216906370a082319060240160206040518083038186803b15801561077a57600080fd5b505afa15801561078e573d6000803e3d6000fd5b505050506040513d601f19601f820116820180604052508101906103599190611161565b6000918252602082815260408084206001600160a01b0393909316845291905290205460ff1690565b600354604080516395d89b4160e01b815290516060926001600160a01b0316916395d89b41916004808301926000929190829003018186803b1580156103a457600080fd5b600061082e600254336107b2565b61087a5760405162461bcd60e51b815260206004820152601b60248201527f546f6b656e3a3a63616c6c6572206973206e6f74206275726e65720000000000604482015260640161069c565b60045460035461072b916001600160a01b039182169186911685610b56565b60035460405163a9059cbb60e01b81526001600160a01b03848116600483015260248201849052600092169063a9059cbb9060440161041b565b6108de6000336107b2565b61093b5760405162461bcd60e51b815260206004820152602860248201527f57726170546f6b656e3a3a6f6e6c7941646d696e206f6e6c792061646d696e2060448201526718d85b8818d85b1b60c21b606482015260840161069c565b600480546001600160a01b0319166001600160a01b0392909216919091179055565b6000828152602081905260409020600101546109798133610a09565b6105ae8383610af1565b600354604051636eb1769f60e11b81526001600160a01b0384811660048301528381166024830152600092169063dd62ed3e9060440160206040518083038186803b1580156109d157600080fd5b505afa1580156109e5573d6000803e3d6000fd5b505050506040513d601f19601f8201168201806040525081019061046d9190611161565b610a1382826107b2565b6106af57610a2b816001600160a01b03166014610bb6565b610a36836020610bb6565b604051602001610a479291906111b6565b60408051601f198184030181529082905262461bcd60e51b825261069c9160040161122b565b610a7782826107b2565b6106af576000828152602081815260408083206001600160a01b03851684529091529020805460ff19166001179055610aad3390565b6001600160a01b0316816001600160a01b0316837f2f8788117e7eff1d82e926ec794901d17c78024a50270940304540a733656f0d60405160405180910390a45050565b610afb82826107b2565b156106af576000828152602081815260408083206001600160a01b0385168085529252808320805460ff1916905551339285917ff6391f5c32d9c69d2a47ea670b442974b53935d1edc7fd64eb21e047a839171b9190a45050565b604080516001600160a01b0385811660248301528416604482015260648082018490528251808303909101815260849091019091526020810180516001600160e01b03166323b872dd60e01b179052610bb0908590610d98565b50505050565b60606000610bc5836002611276565b610bd090600261125e565b67ffffffffffffffff811115610bf657634e487b7160e01b600052604160045260246000fd5b6040519080825280601f01601f191660200182016040528015610c20576020820181803683370190505b509050600360fc1b81600081518110610c4957634e487b7160e01b600052603260045260246000fd5b60200101906001600160f81b031916908160001a905350600f60fb1b81600181518110610c8657634e487b7160e01b600052603260045260246000fd5b60200101906001600160f81b031916908160001a9053506000610caa846002611276565b610cb590600161125e565b90505b6001811115610d49576f181899199a1a9b1b9c1cb0b131b232b360811b85600f1660108110610cf757634e487b7160e01b600052603260045260246000fd5b1a60f81b828281518110610d1b57634e487b7160e01b600052603260045260246000fd5b60200101906001600160f81b031916908160001a90535060049490941c93610d42816112c1565b9050610cb8565b50831561046d5760405162461bcd60e51b815260206004820181905260248201527f537472696e67733a20686578206c656e67746820696e73756666696369656e74604482015260640161069c565b6000610ded826040518060400160405280602081526020017f5361666545524332303a206c6f772d6c6576656c2063616c6c206661696c6564815250856001600160a01b0316610e6a9092919063ffffffff16565b8051909150156105ae5780806020019051810190610e0b9190611041565b6105ae5760405162461bcd60e51b815260206004820152602a60248201527f5361666545524332303a204552433230206f7065726174696f6e20646964206e6044820152691bdd081cdd58d8d9595960b21b606482015260840161069c565b6060610580848460008585843b610ec35760405162461bcd60e51b815260206004820152601d60248201527f416464726573733a2063616c6c20746f206e6f6e2d636f6e7472616374000000604482015260640161069c565b600080866001600160a01b03168587604051610edf919061119a565b60006040518083038185875af1925050503d8060008114610f1c576040519150601f19603f3d011682016040523d82523d6000602084013e610f21565b606091505b5091509150610f31828286610f3c565b979650505050505050565b60608315610f4b57508161046d565b825115610f5b5782518084602001fd5b8160405162461bcd60e51b815260040161069c919061122b565b80356001600160a01b0381168114610f8c57600080fd5b919050565b600060208284031215610fa2578081fd5b61046d82610f75565b60008060408385031215610fbd578081fd5b610fc683610f75565b9150610fd460208401610f75565b90509250929050565b600080600060608486031215610ff1578081fd5b610ffa84610f75565b925061100860208501610f75565b9150604084013590509250925092565b6000806040838503121561102a578182fd5b61103383610f75565b946020939093013593505050565b600060208284031215611052578081fd5b8151801515811461046d578182fd5b600060208284031215611072578081fd5b5035919050565b6000806040838503121561108b578182fd5b82359150610fd460208401610f75565b6000602082840312156110ac578081fd5b81356001600160e01b03198116811461046d578182fd5b6000602082840312156110d4578081fd5b815167ffffffffffffffff808211156110eb578283fd5b818401915084601f8301126110fe578283fd5b815181811115611110576111106112ee565b604051601f8201601f19908116603f01168101908382118183101715611138576111386112ee565b81604052828152876020848701011115611150578586fd5b610f31836020830160208801611295565b600060208284031215611172578081fd5b5051919050565b60006020828403121561118a578081fd5b815160ff8116811461046d578182fd5b600082516111ac818460208701611295565b9190910192915050565b7f416363657373436f6e74726f6c3a206163636f756e74200000000000000000008152600083516111ee816017850160208801611295565b7001034b99036b4b9b9b4b733903937b6329607d1b601791840191820152835161121f816028840160208801611295565b01602801949350505050565b602081526000825180602084015261124a816040850160208701611295565b601f01601f19169190910160400192915050565b60008219821115611271576112716112d8565b500190565b6000816000190483118215151615611290576112906112d8565b500290565b60005b838110156112b0578181015183820152602001611298565b83811115610bb05750506000910152565b6000816112d0576112d06112d8565b506000190190565b634e487b7160e01b600052601160045260246000fd5b634e487b7160e01b600052604160045260246000fdfea26469706673582212205352abbdb13215c063f4e7ce1d165cdaf26f8bcba375547689a91e252a23faf564736f6c63430008040033",
  "devdoc": {
    "kind": "dev",
    "methods": {
      "allowance(address,address)": {
        "details": "Returns the remaining number of tokens that `spender` will be allowed to spend on behalf of `owner` through {transferFrom}. This is zero by default. This value changes when {approve} or {transferFrom} are called."
      },
      "approve(address,uint256)": {
        "details": "Sets `amount` as the allowance of `spender` over the caller's tokens. Returns a boolean value indicating whether the operation succeeded. IMPORTANT: Beware that changing an allowance with this method brings the risk that someone may use both the old and the new allowance by unfortunate transaction ordering. One possible solution to mitigate this race condition is to first reduce the spender's allowance to 0 and set the desired value afterwards: https://github.com/ethereum/EIPs/issues/20#issuecomment-263524729 Emits an {Approval} event."
      },
      "balanceOf(address)": {
        "details": "Returns the amount of tokens owned by `account`."
      },
      "decimals()": {
        "details": "Returns the decimals places of the token."
      },
      "getRoleAdmin(bytes32)": {
        "details": "Returns the admin role that controls `role`. See {grantRole} and {revokeRole}. To change a role's admin, use {_setRoleAdmin}."
      },
      "grantRole(bytes32,address)": {
        "details": "Grants `role` to `account`. If `account` had not been already granted `role`, emits a {RoleGranted} event. Requirements: - the caller must have ``role``'s admin role."
      },
      "hasRole(bytes32,address)": {
        "details": "Returns `true` if `account` has been granted `role`."
      },
      "name()": {
        "details": "Returns the name of the token."
      },
      "renounceRole(bytes32,address)": {
        "details": "Revokes `role` from the calling account. Roles are often managed via {grantRole} and {revokeRole}: this function's purpose is to provide a mechanism for accounts to lose their privileges if they are compromised (such as when a trusted device is misplaced). If the calling account had been granted `role`, emits a {RoleRevoked} event. Requirements: - the caller must be `account`."
      },
      "revokeRole(bytes32,address)": {
        "details": "Revokes `role` from `account`. If `account` had been granted `role`, emits a {RoleRevoked} event. Requirements: - the caller must have ``role``'s admin role."
      },
      "supportsInterface(bytes4)": {
        "details": "See {IERC165-supportsInterface}."
      },
      "symbol()": {
        "details": "Returns the symbol of the token."
      },
      "totalSupply()": {
        "details": "Returns the amount of tokens in existence."
      },
      "transfer(address,uint256)": {
        "details": "Moves `amount` tokens from the caller's account to `recipient`. Returns a boolean value indicating whether the operation succeeded. Emits a {Transfer} event."
      },
      "transferFrom(address,address,uint256)": {
        "details": "Moves `amount` tokens from `sender` to `recipient` using the allowance mechanism. `amount` is then deducted from the caller's allowance. Returns a boolean value indicating whether the operation succeeded. Emits a {Transfer} event."
      }
    },
    "version": 1
  },
  "userdoc": {
    "kind": "user",
    "methods": {},
    "version": 1
  },
  "storageLayout": {
    "storage": [
      {
        "astId": 2447,
        "contract": "contracts/WrapToken.sol:WrapToken",
        "label": "_roles",
        "offset": 0,
        "slot": "0",
        "type": "t_mapping(t_bytes32,t_struct(RoleData)2442_storage)"
      },
      {
        "astId": 6623,
        "contract": "contracts/WrapToken.sol:WrapToken",
        "label": "MINTER_ROLE",
        "offset": 0,
        "slot": "1",
        "type": "t_bytes32"
      },
      {
        "astId": 6626,
        "contract": "contracts/WrapToken.sol:WrapToken",
        "label": "BURNER_ROLE",
        "offset": 0,
        "slot": "2",
        "type": "t_bytes32"
      },
      {
        "astId": 6629,
        "contract": "contracts/WrapToken.sol:WrapToken",
        "label": "underToken",
        "offset": 0,
        "slot": "3",
        "type": "t_contract(IERC20)3447"
      },
      {
        "astId": 6631,
        "contract": "contracts/WrapToken.sol:WrapToken",
        "label": "dispatcher",
        "offset": 0,
        "slot": "4",
        "type": "t_address"
      }
    ],
    "types": {
      "t_address": {
        "encoding": "inplace",
        "label": "address",
        "numberOfBytes": "20"
      },
      "t_bool": {
        "encoding": "inplace",
        "label": "bool",
        "numberOfBytes": "1"
      },
      "t_bytes32": {
        "encoding": "inplace",
        "label": "bytes32",
        "numberOfBytes": "32"
      },
      "t_contract(IERC20)3447": {
        "encoding": "inplace",
        "label": "contract IERC20",
        "numberOfBytes": "20"
      },
      "t_mapping(t_address,t_bool)": {
        "encoding": "mapping",
        "key": "t_address",
        "label": "mapping(address => bool)",
        "numberOfBytes": "32",
        "value": "t_bool"
      },
      "t_mapping(t_bytes32,t_struct(RoleData)2442_storage)": {
        "encoding": "mapping",
        "key": "t_bytes32",
        "label": "mapping(bytes32 => struct AccessControl.RoleData)",
        "numberOfBytes": "32",
        "value": "t_struct(RoleData)2442_storage"
      },
      "t_struct(RoleData)2442_storage": {
        "encoding": "inplace",
        "label": "struct AccessControl.RoleData",
        "members": [
          {
            "astId": 2439,
            "contract": "contracts/WrapToken.sol:WrapToken",
            "label": "members",
            "offset": 0,
            "slot": "0",
            "type": "t_mapping(t_address,t_bool)"
          },
          {
            "astId": 2441,
            "contract": "contracts/WrapToken.sol:WrapToken",
            "label": "adminRole",
            "offset": 0,
            "slot": "1",
            "type": "t_bytes32"
          }
        ],
        "numberOfBytes": "64"
      }
    }
  }
}