{
  "address": "0x2E89C8972190Cc8d28B7EBE2a019d226b23352bb",
  "abi": [
    {
      "inputs": [
        {
          "internalType": "string",
          "name": "_name",
          "type": "string"
        },
        {
          "internalType": "string",
          "name": "_symbol",
          "type": "string"
        },
        {
          "internalType": "uint8",
          "name": "decimals_",
          "type": "uint8"
        },
        {
          "internalType": "address",
          "name": "_token0",
          "type": "address"
        },
        {
          "internalType": "address",
          "name": "_token1",
          "type": "address"
        }
      ],
      "stateMutability": "nonpayable",
      "type": "constructor"
    },
    {
      "anonymous": false,
      "inputs": [
        {
          "indexed": true,
          "internalType": "address",
          "name": "owner",
          "type": "address"
        },
        {
          "indexed": true,
          "internalType": "address",
          "name": "spender",
          "type": "address"
        },
        {
          "indexed": false,
          "internalType": "uint256",
          "name": "value",
          "type": "uint256"
        }
      ],
      "name": "Approval",
      "type": "event"
    },
    {
      "anonymous": false,
      "inputs": [
        {
          "indexed": true,
          "internalType": "address",
          "name": "sender",
          "type": "address"
        },
        {
          "indexed": false,
          "internalType": "uint256",
          "name": "amount0",
          "type": "uint256"
        },
        {
          "indexed": false,
          "internalType": "uint256",
          "name": "amount1",
          "type": "uint256"
        },
        {
          "indexed": true,
          "internalType": "address",
          "name": "to",
          "type": "address"
        }
      ],
      "name": "Burn",
      "type": "event"
    },
    {
      "anonymous": false,
      "inputs": [
        {
          "indexed": true,
          "internalType": "address",
          "name": "sender",
          "type": "address"
        },
        {
          "indexed": false,
          "internalType": "uint256",
          "name": "amount",
          "type": "uint256"
        }
      ],
      "name": "Mint",
      "type": "event"
    },
    {
      "anonymous": false,
      "inputs": [
        {
          "indexed": true,
          "internalType": "address",
          "name": "previousOwner",
          "type": "address"
        },
        {
          "indexed": true,
          "internalType": "address",
          "name": "newOwner",
          "type": "address"
        }
      ],
      "name": "OwnershipTransferred",
      "type": "event"
    },
    {
      "anonymous": false,
      "inputs": [
        {
          "indexed": true,
          "internalType": "address",
          "name": "sender",
          "type": "address"
        },
        {
          "indexed": false,
          "internalType": "uint256",
          "name": "amountIn",
          "type": "uint256"
        },
        {
          "indexed": false,
          "internalType": "uint256",
          "name": "amountOut",
          "type": "uint256"
        },
        {
          "indexed": true,
          "internalType": "address",
          "name": "to",
          "type": "address"
        }
      ],
      "name": "Swap",
      "type": "event"
    },
    {
      "anonymous": false,
      "inputs": [
        {
          "indexed": true,
          "internalType": "address",
          "name": "from",
          "type": "address"
        },
        {
          "indexed": true,
          "internalType": "address",
          "name": "to",
          "type": "address"
        },
        {
          "indexed": false,
          "internalType": "uint256",
          "name": "value",
          "type": "uint256"
        }
      ],
      "name": "Transfer",
      "type": "event"
    },
    {
      "inputs": [],
      "name": "MINIMUM_LIQUIDITY",
      "outputs": [
        {
          "internalType": "uint256",
          "name": "",
          "type": "uint256"
        }
      ],
      "stateMutability": "view",
      "type": "function"
    },
    {
      "inputs": [
        {
          "internalType": "address",
          "name": "owner",
          "type": "address"
        },
        {
          "internalType": "address",
          "name": "spender",
          "type": "address"
        }
      ],
      "name": "allowance",
      "outputs": [
        {
          "internalType": "uint256",
          "name": "",
          "type": "uint256"
        }
      ],
      "stateMutability": "view",
      "type": "function"
    },
    {
      "inputs": [
        {
          "internalType": "address",
          "name": "spender",
          "type": "address"
        },
        {
          "internalType": "uint256",
          "name": "amount",
          "type": "uint256"
        }
      ],
      "name": "approve",
      "outputs": [
        {
          "internalType": "bool",
          "name": "",
          "type": "bool"
        }
      ],
      "stateMutability": "nonpayable",
      "type": "function"
    },
    {
      "inputs": [
        {
          "internalType": "address",
          "name": "account",
          "type": "address"
        }
      ],
      "name": "balanceOf",
      "outputs": [
        {
          "internalType": "uint256",
          "name": "",
          "type": "uint256"
        }
      ],
      "stateMutability": "view",
      "type": "function"
    },
    {
      "inputs": [
        {
          "internalType": "address",
          "name": "to",
          "type": "address"
        }
      ],
      "name": "burn",
      "outputs": [
        {
          "internalType": "uint256",
          "name": "amount0",
          "type": "uint256"
        },
        {
          "internalType": "uint256",
          "name": "amount1",
          "type": "uint256"
        }
      ],
      "stateMutability": "nonpayable",
      "type": "function"
    },
    {
      "inputs": [],
      "name": "decimals",
      "outputs": [
        {
          "internalType": "uint8",
          "name": "",
          "type": "uint8"
        }
      ],
      "stateMutability": "view",
      "type": "function"
    },
    {
      "inputs": [
        {
          "internalType": "address",
          "name": "spender",
          "type": "address"
        },
        {
          "internalType": "uint256",
          "name": "subtractedValue",
          "type": "uint256"
        }
      ],
      "name": "decreaseAllowance",
      "outputs": [
        {
          "internalType": "bool",
          "name": "",
          "type": "bool"
        }
      ],
      "stateMutability": "nonpayable",
      "type": "function"
    },
    {
      "inputs": [],
      "name": "getReserves",
      "outputs": [
        {
          "internalType": "uint256",
          "name": "",
          "type": "uint256"
        },
        {
          "internalType": "uint256",
          "name": "",
          "type": "uint256"
        }
      ],
      "stateMutability": "view",
      "type": "function"
    },
    {
      "inputs": [
        {
          "internalType": "address",
          "name": "spender",
          "type": "address"
        },
        {
          "internalType": "uint256",
          "name": "addedValue",
          "type": "uint256"
        }
      ],
      "name": "increaseAllowance",
      "outputs": [
        {
          "internalType": "bool",
          "name": "",
          "type": "bool"
        }
      ],
      "stateMutability": "nonpayable",
      "type": "function"
    },
    {
      "inputs": [
        {
          "internalType": "address",
          "name": "to",
          "type": "address"
        }
      ],
      "name": "mint",
      "outputs": [
        {
          "internalType": "uint256",
          "name": "liquidity",
          "type": "uint256"
        }
      ],
      "stateMutability": "nonpayable",
      "type": "function"
    },
    {
      "inputs": [],
      "name": "name",
      "outputs": [
        {
          "internalType": "string",
          "name": "",
          "type": "string"
        }
      ],
      "stateMutability": "view",
      "type": "function"
    },
    {
      "inputs": [],
      "name": "owner",
      "outputs": [
        {
          "internalType": "address",
          "name": "",
          "type": "address"
        }
      ],
      "stateMutability": "view",
      "type": "function"
    },
    {
      "inputs": [],
      "name": "renounceOwnership",
      "outputs": [],
      "stateMutability": "nonpayable",
      "type": "function"
    },
    {
      "inputs": [
        {
          "internalType": "address",
          "name": "_twoWay",
          "type": "address"
        }
      ],
      "name": "setTwoWay",
      "outputs": [],
      "stateMutability": "nonpayable",
      "type": "function"
    },
    {
      "inputs": [
        {
          "internalType": "address",
          "name": "to",
          "type": "address"
        },
        {
          "internalType": "bool",
          "name": "direction",
          "type": "bool"
        }
      ],
      "name": "swap",
      "outputs": [],
      "stateMutability": "nonpayable",
      "type": "function"
    },
    {
      "inputs": [],
      "name": "symbol",
      "outputs": [
        {
          "internalType": "string",
          "name": "",
          "type": "string"
        }
      ],
      "stateMutability": "view",
      "type": "function"
    },
    {
      "inputs": [],
      "name": "token0",
      "outputs": [
        {
          "internalType": "address",
          "name": "",
          "type": "address"
        }
      ],
      "stateMutability": "view",
      "type": "function"
    },
    {
      "inputs": [],
      "name": "token1",
      "outputs": [
        {
          "internalType": "address",
          "name": "",
          "type": "address"
        }
      ],
      "stateMutability": "view",
      "type": "function"
    },
    {
      "inputs": [],
      "name": "totalSupply",
      "outputs": [
        {
          "internalType": "uint256",
          "name": "",
          "type": "uint256"
        }
      ],
      "stateMutability": "view",
      "type": "function"
    },
    {
      "inputs": [
        {
          "internalType": "address",
          "name": "recipient",
          "type": "address"
        },
        {
          "internalType": "uint256",
          "name": "amount",
          "type": "uint256"
        }
      ],
      "name": "transfer",
      "outputs": [
        {
          "internalType": "bool",
          "name": "",
          "type": "bool"
        }
      ],
      "stateMutability": "nonpayable",
      "type": "function"
    },
    {
      "inputs": [
        {
          "internalType": "address",
          "name": "sender",
          "type": "address"
        },
        {
          "internalType": "address",
          "name": "recipient",
          "type": "address"
        },
        {
          "internalType": "uint256",
          "name": "amount",
          "type": "uint256"
        }
      ],
      "name": "transferFrom",
      "outputs": [
        {
          "internalType": "bool",
          "name": "",
          "type": "bool"
        }
      ],
      "stateMutability": "nonpayable",
      "type": "function"
    },
    {
      "inputs": [
        {
          "internalType": "address",
          "name": "newOwner",
          "type": "address"
        }
      ],
      "name": "transferOwnership",
      "outputs": [],
      "stateMutability": "nonpayable",
      "type": "function"
    },
    {
      "inputs": [],
      "name": "twoWay",
      "outputs": [
        {
          "internalType": "address",
          "name": "",
          "type": "address"
        }
      ],
      "stateMutability": "view",
      "type": "function"
    }
  ],
  "transactionHash": "0x05172b7f440b744ca01865ef98a9ec0d94cea38511d51b115a196e3535919cf6",
  "args": [
    "TwoWay LP",
    "TLP",
    6,
    "0x1Da3F386115fD780Aa9A928B1965dE6a7514EAE8",
    "0xAe8234563e2B07E5cB89c6B0d81Fe54CF7667769"
  ],
  "solcInputHash": "c2aa850b1a3381226981cb5e4976532c",
  "bytecode": "0x60806040523480156200001157600080fd5b5060405162001d6338038062001d6383398101604081905262000034916200029f565b8451859085906200004d90600390602085019062000129565b5080516200006390600490602084019062000129565b505050620000806200007a620000d360201b60201c565b620000d7565b600680546001600160a01b039384166001600160a01b031991821617909155600780549290931691161790556005805460ff909216600160a01b0260ff60a01b1990921691909117905550620003979050565b3390565b600580546001600160a01b038381166001600160a01b0319831681179093556040519116919082907f8be0079c531659141344cd1fd0a4f28419497f9722a3daafe3b4186f6b6457e090600090a35050565b828054620001379062000344565b90600052602060002090601f0160209004810192826200015b5760008555620001a6565b82601f106200017657805160ff1916838001178555620001a6565b82800160010185558215620001a6579182015b82811115620001a657825182559160200191906001019062000189565b50620001b4929150620001b8565b5090565b5b80821115620001b45760008155600101620001b9565b80516001600160a01b0381168114620001e757600080fd5b919050565b600082601f830112620001fd578081fd5b81516001600160401b03808211156200021a576200021a62000381565b604051601f8301601f19908116603f0116810190828211818310171562000245576200024562000381565b8160405283815260209250868385880101111562000261578485fd5b8491505b8382101562000284578582018301518183018401529082019062000265565b838211156200029557848385830101525b9695505050505050565b600080600080600060a08688031215620002b7578081fd5b85516001600160401b0380821115620002ce578283fd5b620002dc89838a01620001ec565b96506020880151915080821115620002f2578283fd5b506200030188828901620001ec565b945050604086015160ff8116811462000318578182fd5b92506200032860608701620001cf565b91506200033860808701620001cf565b90509295509295909350565b600181811c908216806200035957607f821691505b602082108114156200037b57634e487b7160e01b600052602260045260246000fd5b50919050565b634e487b7160e01b600052604160045260246000fd5b6119bc80620003a76000396000f3fe608060405234801561001057600080fd5b506004361061014d5760003560e01c806370a08231116100c3578063a457c2d71161007c578063a457c2d7146102dc578063a9059cbb146102ef578063ba9a7a5614610302578063d21220a71461030b578063dd62ed3e1461031e578063f2fde38b1461035757600080fd5b806370a082311461026c578063715018a61461029557806389afcb441461029d5780638da5cb5b146102b057806395d89b41146102c1578063a278d036146102c957600080fd5b806318160ddd1161011557806318160ddd146101ef57806323b872dd14610201578063313ce56714610214578063395093511461023357806342baeb84146102465780636a6278421461025957600080fd5b806306fdde03146101525780630902f1ac14610170578063095ea7b31461018c5780630cf5bf1a146101af5780630dfe1681146101c4575b600080fd5b61015a61036a565b60405161016791906117eb565b60405180910390f35b6008546009545b60408051928352602083019190915201610167565b61019f61019a36600461178e565b6103fc565b6040519015158152602001610167565b6101c26101bd3660046116d1565b610412565b005b6006546101d7906001600160a01b031681565b6040516001600160a01b039091168152602001610167565b6002545b604051908152602001610167565b61019f61020f36600461171d565b610467565b600554600160a01b900460ff1660405160ff9091168152602001610167565b61019f61024136600461178e565b610511565b600a546101d7906001600160a01b031681565b6101f36102673660046116d1565b61054d565b6101f361027a3660046116d1565b6001600160a01b031660009081526020819052604090205490565b6101c26106ca565b6101776102ab3660046116d1565b610700565b6005546001600160a01b03166101d7565b61015a610a22565b6101c26102d7366004611758565b610a31565b61019f6102ea36600461178e565b610a77565b61019f6102fd36600461178e565b610b10565b6101f36103e881565b6007546101d7906001600160a01b031681565b6101f361032c3660046116eb565b6001600160a01b03918216600090815260016020908152604080832093909416825291909152205490565b6101c26103653660046116d1565b610b1d565b60606003805461037990611927565b80601f01602080910402602001604051908101604052809291908181526020018280546103a590611927565b80156103f25780601f106103c7576101008083540402835291602001916103f2565b820191906000526020600020905b8154815290600101906020018083116103d557829003601f168201915b5050505050905090565b6000610409338484610bb8565b50600192915050565b6005546001600160a01b031633146104455760405162461bcd60e51b815260040161043c9061183e565b60405180910390fd5b600a80546001600160a01b0319166001600160a01b0392909216919091179055565b6000610474848484610cdd565b6001600160a01b0384166000908152600160209081526040808320338452909152902054828110156104f95760405162461bcd60e51b815260206004820152602860248201527f45524332303a207472616e7366657220616d6f756e74206578636565647320616044820152676c6c6f77616e636560c01b606482015260840161043c565b6105068533858403610bb8565b506001949350505050565b3360008181526001602090815260408083206001600160a01b038716845290915281205490916104099185906105489086906118b9565b610bb8565b600a546000906001600160a01b0316331461057a5760405162461bcd60e51b815260040161043c90611873565b60006105896008546009549091565b506006546040516370a0823160e01b81523060048201529192506000916001600160a01b03909116906370a082319060240160206040518083038186803b1580156105d357600080fd5b505afa1580156105e7573d6000803e3d6000fd5b505050506040513d601f19601f8201168201806040525081019061060b91906117d3565b905060006106198284610eac565b90508093506000841161067e5760405162461bcd60e51b815260206004820152602760248201527f53776170506169723a20696e73756666696369656e74206c6971756964697479604482015266081b5a5b9d195960ca1b606482015260840161043c565b6106888585610ebf565b600882905560405181815233907f0f6798a560793a54c3bcfe86a93cde1e73087d944c0ea20544137d41213968859060200160405180910390a2505050919050565b6005546001600160a01b031633146106f45760405162461bcd60e51b815260040161043c9061183e565b6106fe6000610f9e565b565b600a5460009081906001600160a01b0316331461072f5760405162461bcd60e51b815260040161043c90611873565b60008061073f6008546009549091565b6006546007549294509092506001600160a01b039081169116600061076360025490565b3060009081526020819052604090205490915085610782866003610ff0565b101561079457809750600096506107bb565b6107a8826107a28389610ff0565b90610ffc565b97506107b8826107a28388610ff0565b96505b60405163a9059cbb60e01b81526001600160a01b038a81166004830152602482018a905285169063a9059cbb90604401602060405180830381600087803b15801561080557600080fd5b505af1158015610819573d6000803e3d6000fd5b505050506040513d601f19601f8201168201806040525081019061083d91906117b7565b5060405163a9059cbb60e01b81526001600160a01b038a811660048301526024820189905284169063a9059cbb90604401602060405180830381600087803b15801561088857600080fd5b505af115801561089c573d6000803e3d6000fd5b505050506040513d601f19601f820116820180604052508101906108c091906117b7565b506108cb3082611008565b6040516370a0823160e01b81523060048201526000906001600160a01b038616906370a082319060240160206040518083038186803b15801561090d57600080fd5b505afa158015610921573d6000803e3d6000fd5b505050506040513d601f19601f8201168201806040525081019061094591906117d3565b6040516370a0823160e01b81523060048201529091506000906001600160a01b038616906370a082319060240160206040518083038186803b15801561098a57600080fd5b505afa15801561099e573d6000803e3d6000fd5b505050506040513d601f19601f820116820180604052508101906109c291906117d3565b60088390556009819055604080518c8152602081018c90529192506001600160a01b038d169133917fdccd412f0b1252819cb1fd330b93224ca42612892bb3f4f789976e6d81936496910160405180910390a35050505050505050915091565b60606004805461037990611927565b600a546001600160a01b03163314610a5b5760405162461bcd60e51b815260040161043c90611873565b8015610a6e57610a6a8261114e565b5050565b610a6a82611419565b3360009081526001602090815260408083206001600160a01b038616845290915281205482811015610af95760405162461bcd60e51b815260206004820152602560248201527f45524332303a2064656372656173656420616c6c6f77616e63652062656c6f77604482015264207a65726f60d81b606482015260840161043c565b610b063385858403610bb8565b5060019392505050565b6000610409338484610cdd565b6005546001600160a01b03163314610b475760405162461bcd60e51b815260040161043c9061183e565b6001600160a01b038116610bac5760405162461bcd60e51b815260206004820152602660248201527f4f776e61626c653a206e6577206f776e657220697320746865207a65726f206160448201526564647265737360d01b606482015260840161043c565b610bb581610f9e565b50565b6001600160a01b038316610c1a5760405162461bcd60e51b8152602060048201526024808201527f45524332303a20617070726f76652066726f6d20746865207a65726f206164646044820152637265737360e01b606482015260840161043c565b6001600160a01b038216610c7b5760405162461bcd60e51b815260206004820152602260248201527f45524332303a20617070726f766520746f20746865207a65726f206164647265604482015261737360f01b606482015260840161043c565b6001600160a01b0383811660008181526001602090815260408083209487168084529482529182902085905590518481527f8c5be1e5ebec7d5bd14f71427d1e84f3dd0314c0f7b2291e5b200ac8c7c3b92591015b60405180910390a3505050565b6001600160a01b038316610d415760405162461bcd60e51b815260206004820152602560248201527f45524332303a207472616e736665722066726f6d20746865207a65726f206164604482015264647265737360d81b606482015260840161043c565b6001600160a01b038216610da35760405162461bcd60e51b815260206004820152602360248201527f45524332303a207472616e7366657220746f20746865207a65726f206164647260448201526265737360e81b606482015260840161043c565b6001600160a01b03831660009081526020819052604090205481811015610e1b5760405162461bcd60e51b815260206004820152602660248201527f45524332303a207472616e7366657220616d6f756e7420657863656564732062604482015265616c616e636560d01b606482015260840161043c565b6001600160a01b03808516600090815260208190526040808220858503905591851681529081208054849290610e529084906118b9565b92505081905550826001600160a01b0316846001600160a01b03167fddf252ad1be2c89b69c2b068fc378daa952ba7f163c4a11628f55a4df523b3ef84604051610e9e91815260200190565b60405180910390a350505050565b6000610eb88284611910565b9392505050565b6001600160a01b038216610f155760405162461bcd60e51b815260206004820152601f60248201527f45524332303a206d696e7420746f20746865207a65726f206164647265737300604482015260640161043c565b8060026000828254610f2791906118b9565b90915550506001600160a01b03821660009081526020819052604081208054839290610f549084906118b9565b90915550506040518181526001600160a01b038316906000907fddf252ad1be2c89b69c2b068fc378daa952ba7f163c4a11628f55a4df523b3ef9060200160405180910390a35050565b600580546001600160a01b038381166001600160a01b0319831681179093556040519116919082907f8be0079c531659141344cd1fd0a4f28419497f9722a3daafe3b4186f6b6457e090600090a35050565b6000610eb882846118f1565b6000610eb882846118d1565b6001600160a01b0382166110685760405162461bcd60e51b815260206004820152602160248201527f45524332303a206275726e2066726f6d20746865207a65726f206164647265736044820152607360f81b606482015260840161043c565b6001600160a01b038216600090815260208190526040902054818110156110dc5760405162461bcd60e51b815260206004820152602260248201527f45524332303a206275726e20616d6f756e7420657863656564732062616c616e604482015261636560f01b606482015260840161043c565b6001600160a01b038316600090815260208190526040812083830390556002805484929061110b908490611910565b90915550506040518281526000906001600160a01b038516907fddf252ad1be2c89b69c2b068fc378daa952ba7f163c4a11628f55a4df523b3ef90602001610cd0565b60008061115e6008546009549091565b6006546007546040516370a0823160e01b81523060048201529395509193506001600160a01b039081169291169060009083906370a082319060240160206040518083038186803b1580156111b257600080fd5b505afa1580156111c6573d6000803e3d6000fd5b505050506040513d601f19601f820116820180604052508101906111ea91906117d3565b905060006111f88287610eac565b9050600081116112645760405162461bcd60e51b815260206004820152603160248201527f50656753776170506169723a207377617020616d6f756e742073686f756c6420604482015270062652067726561746572207468616e203607c1b606482015260840161043c565b808510156112be5760405162461bcd60e51b815260206004820152602160248201527f50656753776170506169723a20696e7375666669656e74206c697175696469746044820152607960f81b606482015260840161043c565b60405163a9059cbb60e01b81526001600160a01b0388811660048301526024820183905284169063a9059cbb90604401602060405180830381600087803b15801561130857600080fd5b505af115801561131c573d6000803e3d6000fd5b505050506040513d601f19601f8201168201806040525081019061134091906117b7565b506040516370a0823160e01b81523060048201526000906001600160a01b038516906370a082319060240160206040518083038186803b15801561138357600080fd5b505afa158015611397573d6000803e3d6000fd5b505050506040513d601f19601f820116820180604052508101906113bb91906117d3565b6008849055600981905560408051848152602081018590529192506001600160a01b038a169133917f2a9237ff5aa599ef4c5ee4b1142b53429d5755e2685fe6288b2e3320202115f591015b60405180910390a35050505050505050565b6000806114296008546009549091565b6006546007546040516370a0823160e01b81523060048201529395509193506001600160a01b039081169291169060009082906370a082319060240160206040518083038186803b15801561147d57600080fd5b505afa158015611491573d6000803e3d6000fd5b505050506040513d601f19601f820116820180604052508101906114b591906117d3565b905060006114c38286610eac565b90508086101561150c5760405162461bcd60e51b8152602060048201526014602482015273496e7375666669656e74206c697175696469747960601b604482015260640161043c565b600081116115685760405162461bcd60e51b8152602060048201526024808201527f5377617020616d6f756e742073686f756c6420626520677265617465722074686044820152630616e20360e41b606482015260840161043c565b60405163a9059cbb60e01b81526001600160a01b0388811660048301526024820183905285169063a9059cbb90604401602060405180830381600087803b1580156115b257600080fd5b505af11580156115c6573d6000803e3d6000fd5b505050506040513d601f19601f820116820180604052508101906115ea91906117b7565b506040516370a0823160e01b81523060048201526000906001600160a01b038616906370a082319060240160206040518083038186803b15801561162d57600080fd5b505afa158015611641573d6000803e3d6000fd5b505050506040513d601f19601f8201168201806040525081019061166591906117d3565b6008819055600984905560408051848152602081018590529192506001600160a01b038a169133917f2a9237ff5aa599ef4c5ee4b1142b53429d5755e2685fe6288b2e3320202115f59101611407565b80356001600160a01b03811681146116cc57600080fd5b919050565b6000602082840312156116e2578081fd5b610eb8826116b5565b600080604083850312156116fd578081fd5b611706836116b5565b9150611714602084016116b5565b90509250929050565b600080600060608486031215611731578081fd5b61173a846116b5565b9250611748602085016116b5565b9150604084013590509250925092565b6000806040838503121561176a578182fd5b611773836116b5565b9150602083013561178381611978565b809150509250929050565b600080604083850312156117a0578182fd5b6117a9836116b5565b946020939093013593505050565b6000602082840312156117c8578081fd5b8151610eb881611978565b6000602082840312156117e4578081fd5b5051919050565b6000602080835283518082850152825b81811015611817578581018301518582016040015282016117fb565b818111156118285783604083870101525b50601f01601f1916929092016040019392505050565b6020808252818101527f4f776e61626c653a2063616c6c6572206973206e6f7420746865206f776e6572604082015260600190565b60208082526026908201527f50656753776170506169723a206f6e6c792074776f5761792063616e20696e766040820152651bdad9481a5d60d21b606082015260800190565b600082198211156118cc576118cc611962565b500190565b6000826118ec57634e487b7160e01b81526012600452602481fd5b500490565b600081600019048311821515161561190b5761190b611962565b500290565b60008282101561192257611922611962565b500390565b600181811c9082168061193b57607f821691505b6020821081141561195c57634e487b7160e01b600052602260045260246000fd5b50919050565b634e487b7160e01b600052601160045260246000fd5b8015158114610bb557600080fdfea26469706673582212204dcb2c28f9ab64b0b3d19539938e7539718c76ac9dc337149298cd03cc1bcf5564736f6c63430008040033",
  "devdoc": {
    "kind": "dev",
    "methods": {
      "allowance(address,address)": {
        "details": "See {IERC20-allowance}."
      },
      "approve(address,uint256)": {
        "details": "See {IERC20-approve}. Requirements: - `spender` cannot be the zero address."
      },
      "balanceOf(address)": {
        "details": "See {IERC20-balanceOf}."
      },
      "decimals()": {
        "details": "Returns the number of decimals used to get its user representation. For example, if `decimals` equals `2`, a balance of `505` tokens should be displayed to a user as `5,05` (`505 / 10 ** 2`). Tokens usually opt for a value of 18, imitating the relationship between Ether and Wei. This is the value {ERC20} uses, unless this function is overridden; NOTE: This information is only used for _display_ purposes: it in no way affects any of the arithmetic of the contract, including {IERC20-balanceOf} and {IERC20-transfer}."
      },
      "decreaseAllowance(address,uint256)": {
        "details": "Atomically decreases the allowance granted to `spender` by the caller. This is an alternative to {approve} that can be used as a mitigation for problems described in {IERC20-approve}. Emits an {Approval} event indicating the updated allowance. Requirements: - `spender` cannot be the zero address. - `spender` must have allowance for the caller of at least `subtractedValue`."
      },
      "increaseAllowance(address,uint256)": {
        "details": "Atomically increases the allowance granted to `spender` by the caller. This is an alternative to {approve} that can be used as a mitigation for problems described in {IERC20-approve}. Emits an {Approval} event indicating the updated allowance. Requirements: - `spender` cannot be the zero address."
      },
      "name()": {
        "details": "Returns the name of the token."
      },
      "owner()": {
        "details": "Returns the address of the current owner."
      },
      "renounceOwnership()": {
        "details": "Leaves the contract without owner. It will not be possible to call `onlyOwner` functions anymore. Can only be called by the current owner. NOTE: Renouncing ownership will leave the contract without an owner, thereby removing any functionality that is only available to the owner."
      },
      "symbol()": {
        "details": "Returns the symbol of the token, usually a shorter version of the name."
      },
      "totalSupply()": {
        "details": "See {IERC20-totalSupply}."
      },
      "transfer(address,uint256)": {
        "details": "See {IERC20-transfer}. Requirements: - `recipient` cannot be the zero address. - the caller must have a balance of at least `amount`."
      },
      "transferFrom(address,address,uint256)": {
        "details": "See {IERC20-transferFrom}. Emits an {Approval} event indicating the updated allowance. This is not required by the EIP. See the note at the beginning of {ERC20}. Requirements: - `sender` and `recipient` cannot be the zero address. - `sender` must have a balance of at least `amount`. - the caller must have allowance for ``sender``'s tokens of at least `amount`."
      },
      "transferOwnership(address)": {
        "details": "Transfers ownership of the contract to a new account (`newOwner`). Can only be called by the current owner."
      }
    },
    "version": 1
  },
  "userdoc": {
    "kind": "user",
    "methods": {},
    "version": 1
  },
  "storageLayout": {
    "storage": [
      {
        "astId": 2862,
        "contract": "contracts/twoway/SwapPair.sol:SwapPair",
        "label": "_balances",
        "offset": 0,
        "slot": "0",
        "type": "t_mapping(t_address,t_uint256)"
      },
      {
        "astId": 2868,
        "contract": "contracts/twoway/SwapPair.sol:SwapPair",
        "label": "_allowances",
        "offset": 0,
        "slot": "1",
        "type": "t_mapping(t_address,t_mapping(t_address,t_uint256))"
      },
      {
        "astId": 2870,
        "contract": "contracts/twoway/SwapPair.sol:SwapPair",
        "label": "_totalSupply",
        "offset": 0,
        "slot": "2",
        "type": "t_uint256"
      },
      {
        "astId": 2872,
        "contract": "contracts/twoway/SwapPair.sol:SwapPair",
        "label": "_name",
        "offset": 0,
        "slot": "3",
        "type": "t_string_storage"
      },
      {
        "astId": 2874,
        "contract": "contracts/twoway/SwapPair.sol:SwapPair",
        "label": "_symbol",
        "offset": 0,
        "slot": "4",
        "type": "t_string_storage"
      },
      {
        "astId": 2750,
        "contract": "contracts/twoway/SwapPair.sol:SwapPair",
        "label": "_owner",
        "offset": 0,
        "slot": "5",
        "type": "t_address"
      },
      {
        "astId": 7680,
        "contract": "contracts/twoway/SwapPair.sol:SwapPair",
        "label": "_decimals",
        "offset": 20,
        "slot": "5",
        "type": "t_uint8"
      },
      {
        "astId": 7687,
        "contract": "contracts/twoway/SwapPair.sol:SwapPair",
        "label": "token0",
        "offset": 0,
        "slot": "6",
        "type": "t_address"
      },
      {
        "astId": 7689,
        "contract": "contracts/twoway/SwapPair.sol:SwapPair",
        "label": "token1",
        "offset": 0,
        "slot": "7",
        "type": "t_address"
      },
      {
        "astId": 7691,
        "contract": "contracts/twoway/SwapPair.sol:SwapPair",
        "label": "reserve0",
        "offset": 0,
        "slot": "8",
        "type": "t_uint256"
      },
      {
        "astId": 7693,
        "contract": "contracts/twoway/SwapPair.sol:SwapPair",
        "label": "reserve1",
        "offset": 0,
        "slot": "9",
        "type": "t_uint256"
      },
      {
        "astId": 7695,
        "contract": "contracts/twoway/SwapPair.sol:SwapPair",
        "label": "twoWay",
        "offset": 0,
        "slot": "10",
        "type": "t_address"
      }
    ],
    "types": {
      "t_address": {
        "encoding": "inplace",
        "label": "address",
        "numberOfBytes": "20"
      },
      "t_mapping(t_address,t_mapping(t_address,t_uint256))": {
        "encoding": "mapping",
        "key": "t_address",
        "label": "mapping(address => mapping(address => uint256))",
        "numberOfBytes": "32",
        "value": "t_mapping(t_address,t_uint256)"
      },
      "t_mapping(t_address,t_uint256)": {
        "encoding": "mapping",
        "key": "t_address",
        "label": "mapping(address => uint256)",
        "numberOfBytes": "32",
        "value": "t_uint256"
      },
      "t_string_storage": {
        "encoding": "bytes",
        "label": "string",
        "numberOfBytes": "32"
      },
      "t_uint256": {
        "encoding": "inplace",
        "label": "uint256",
        "numberOfBytes": "32"
      },
      "t_uint8": {
        "encoding": "inplace",
        "label": "uint8",
        "numberOfBytes": "1"
      }
    }
  }
}