{
  "address": "0x45B126397189101e9Cf3B7BD4De0a847BaA9D442",
  "abi": [
    {
      "inputs": [
        {
          "internalType": "address",
          "name": "_feeToDev",
          "type": "address"
        }
      ],
      "stateMutability": "nonpayable",
      "type": "constructor"
    },
    {
      "anonymous": false,
      "inputs": [
        {
          "indexed": false,
          "internalType": "address",
          "name": "token0",
          "type": "address"
        },
        {
          "indexed": false,
          "internalType": "address",
          "name": "token1",
          "type": "address"
        },
        {
          "indexed": false,
          "internalType": "uint256",
          "name": "chainID0",
          "type": "uint256"
        },
        {
          "indexed": false,
          "internalType": "uint256",
          "name": "chainID1",
          "type": "uint256"
        },
        {
          "indexed": false,
          "internalType": "address",
          "name": "from",
          "type": "address"
        },
        {
          "indexed": false,
          "internalType": "address",
          "name": "to",
          "type": "address"
        },
        {
          "indexed": false,
          "internalType": "uint256",
          "name": "amount",
          "type": "uint256"
        }
      ],
      "name": "CrossBurn",
      "type": "event"
    },
    {
      "anonymous": false,
      "inputs": [
        {
          "indexed": false,
          "internalType": "address",
          "name": "token",
          "type": "address"
        },
        {
          "indexed": false,
          "internalType": "uint256",
          "name": "chainID",
          "type": "uint256"
        },
        {
          "indexed": false,
          "internalType": "uint256",
          "name": "feeAmount",
          "type": "uint256"
        },
        {
          "indexed": false,
          "internalType": "uint256",
          "name": "feeRatio",
          "type": "uint256"
        }
      ],
      "name": "FeeChange",
      "type": "event"
    },
    {
      "anonymous": false,
      "inputs": [
        {
          "indexed": false,
          "internalType": "address",
          "name": "token",
          "type": "address"
        },
        {
          "indexed": false,
          "internalType": "uint256",
          "name": "chainID",
          "type": "uint256"
        },
        {
          "indexed": false,
          "internalType": "address",
          "name": "account",
          "type": "address"
        }
      ],
      "name": "FeeToChanged",
      "type": "event"
    },
    {
      "anonymous": false,
      "inputs": [
        {
          "indexed": false,
          "internalType": "address",
          "name": "token",
          "type": "address"
        },
        {
          "indexed": false,
          "internalType": "uint256",
          "name": "chainID",
          "type": "uint256"
        },
        {
          "indexed": false,
          "internalType": "address",
          "name": "account",
          "type": "address"
        }
      ],
      "name": "FeeToRemoved",
      "type": "event"
    },
    {
      "anonymous": false,
      "inputs": [
        {
          "indexed": false,
          "internalType": "address",
          "name": "token0",
          "type": "address"
        },
        {
          "indexed": false,
          "internalType": "address",
          "name": "token1",
          "type": "address"
        },
        {
          "indexed": false,
          "internalType": "uint256",
          "name": "chainID0",
          "type": "uint256"
        },
        {
          "indexed": false,
          "internalType": "uint256",
          "name": "chainID1",
          "type": "uint256"
        },
        {
          "indexed": false,
          "internalType": "address",
          "name": "from",
          "type": "address"
        },
        {
          "indexed": false,
          "internalType": "address",
          "name": "to",
          "type": "address"
        },
        {
          "indexed": false,
          "internalType": "uint256",
          "name": "amount",
          "type": "uint256"
        }
      ],
      "name": "Lock",
      "type": "event"
    },
    {
      "anonymous": false,
      "inputs": [
        {
          "indexed": false,
          "internalType": "address",
          "name": "token",
          "type": "address"
        },
        {
          "indexed": false,
          "internalType": "address",
          "name": "from",
          "type": "address"
        },
        {
          "indexed": false,
          "internalType": "address",
          "name": "to",
          "type": "address"
        },
        {
          "indexed": false,
          "internalType": "uint256",
          "name": "amount",
          "type": "uint256"
        },
        {
          "indexed": false,
          "internalType": "address",
          "name": "proposer",
          "type": "address"
        },
        {
          "indexed": false,
          "internalType": "uint256",
          "name": "count",
          "type": "uint256"
        },
        {
          "indexed": false,
          "internalType": "uint256",
          "name": "threshold",
          "type": "uint256"
        }
      ],
      "name": "ProposalVoted",
      "type": "event"
    },
    {
      "anonymous": false,
      "inputs": [
        {
          "indexed": true,
          "internalType": "bytes32",
          "name": "role",
          "type": "bytes32"
        },
        {
          "indexed": true,
          "internalType": "bytes32",
          "name": "previousAdminRole",
          "type": "bytes32"
        },
        {
          "indexed": true,
          "internalType": "bytes32",
          "name": "newAdminRole",
          "type": "bytes32"
        }
      ],
      "name": "RoleAdminChanged",
      "type": "event"
    },
    {
      "anonymous": false,
      "inputs": [
        {
          "indexed": true,
          "internalType": "bytes32",
          "name": "role",
          "type": "bytes32"
        },
        {
          "indexed": true,
          "internalType": "address",
          "name": "account",
          "type": "address"
        },
        {
          "indexed": true,
          "internalType": "address",
          "name": "sender",
          "type": "address"
        }
      ],
      "name": "RoleGranted",
      "type": "event"
    },
    {
      "anonymous": false,
      "inputs": [
        {
          "indexed": true,
          "internalType": "bytes32",
          "name": "role",
          "type": "bytes32"
        },
        {
          "indexed": true,
          "internalType": "address",
          "name": "account",
          "type": "address"
        },
        {
          "indexed": true,
          "internalType": "address",
          "name": "sender",
          "type": "address"
        }
      ],
      "name": "RoleRevoked",
      "type": "event"
    },
    {
      "anonymous": false,
      "inputs": [
        {
          "indexed": false,
          "internalType": "address",
          "name": "token0",
          "type": "address"
        },
        {
          "indexed": false,
          "internalType": "address",
          "name": "token1",
          "type": "address"
        },
        {
          "indexed": false,
          "internalType": "uint256",
          "name": "chainID0",
          "type": "uint256"
        },
        {
          "indexed": false,
          "internalType": "uint256",
          "name": "chainID1",
          "type": "uint256"
        },
        {
          "indexed": false,
          "internalType": "address",
          "name": "from",
          "type": "address"
        },
        {
          "indexed": false,
          "internalType": "address",
          "name": "to",
          "type": "address"
        },
        {
          "indexed": false,
          "internalType": "uint256",
          "name": "amount",
          "type": "uint256"
        },
        {
          "indexed": false,
          "internalType": "string",
          "name": "txid",
          "type": "string"
        }
      ],
      "name": "Rollback",
      "type": "event"
    },
    {
      "anonymous": false,
      "inputs": [
        {
          "indexed": false,
          "internalType": "address",
          "name": "token0",
          "type": "address"
        },
        {
          "indexed": false,
          "internalType": "address",
          "name": "from",
          "type": "address"
        },
        {
          "indexed": false,
          "internalType": "uint256",
          "name": "amount",
          "type": "uint256"
        },
        {
          "indexed": false,
          "internalType": "string",
          "name": "txid",
          "type": "string"
        }
      ],
      "name": "Rollbacked",
      "type": "event"
    },
    {
      "anonymous": false,
      "inputs": [
        {
          "indexed": false,
          "internalType": "address",
          "name": "token",
          "type": "address"
        },
        {
          "indexed": false,
          "internalType": "uint256",
          "name": "oldThreshold",
          "type": "uint256"
        },
        {
          "indexed": false,
          "internalType": "uint256",
          "name": "newThreshold",
          "type": "uint256"
        }
      ],
      "name": "ThresholdChanged",
      "type": "event"
    },
    {
      "anonymous": false,
      "inputs": [
        {
          "indexed": false,
          "internalType": "address",
          "name": "token0",
          "type": "address"
        },
        {
          "indexed": false,
          "internalType": "address",
          "name": "token1",
          "type": "address"
        },
        {
          "indexed": false,
          "internalType": "uint256",
          "name": "chianID0",
          "type": "uint256"
        },
        {
          "indexed": false,
          "internalType": "uint256",
          "name": "chainID1",
          "type": "uint256"
        },
        {
          "indexed": false,
          "internalType": "address",
          "name": "from",
          "type": "address"
        },
        {
          "indexed": false,
          "internalType": "address",
          "name": "to",
          "type": "address"
        },
        {
          "indexed": false,
          "internalType": "uint256",
          "name": "amount",
          "type": "uint256"
        },
        {
          "indexed": false,
          "internalType": "string",
          "name": "txid",
          "type": "string"
        }
      ],
      "name": "Unlock",
      "type": "event"
    },
    {
      "inputs": [],
      "name": "CROSSER_ROLE",
      "outputs": [
        {
          "internalType": "bytes32",
          "name": "",
          "type": "bytes32"
        }
      ],
      "stateMutability": "view",
      "type": "function"
    },
    {
      "inputs": [],
      "name": "DEFAULT_ADMIN_ROLE",
      "outputs": [
        {
          "internalType": "bytes32",
          "name": "",
          "type": "bytes32"
        }
      ],
      "stateMutability": "view",
      "type": "function"
    },
    {
      "inputs": [
        {
          "internalType": "address",
          "name": "token0",
          "type": "address"
        },
        {
          "internalType": "uint256",
          "name": "chainID",
          "type": "uint256"
        },
        {
          "internalType": "uint256",
          "name": "amount",
          "type": "uint256"
        },
        {
          "internalType": "address",
          "name": "to",
          "type": "address"
        }
      ],
      "name": "addLiquidity",
      "outputs": [
        {
          "internalType": "uint256",
          "name": "liquidity",
          "type": "uint256"
        }
      ],
      "stateMutability": "nonpayable",
      "type": "function"
    },
    {
      "inputs": [
        {
          "internalType": "address",
          "name": "token",
          "type": "address"
        },
        {
          "internalType": "address",
          "name": "pair",
          "type": "address"
        },
        {
          "internalType": "uint256",
          "name": "chainID",
          "type": "uint256"
        }
      ],
      "name": "addPair",
      "outputs": [],
      "stateMutability": "nonpayable",
      "type": "function"
    },
    {
      "inputs": [
        {
          "internalType": "address",
          "name": "token0",
          "type": "address"
        },
        {
          "internalType": "address",
          "name": "token1",
          "type": "address"
        },
        {
          "internalType": "uint256",
          "name": "chainID",
          "type": "uint256"
        }
      ],
      "name": "addSupportToken",
      "outputs": [],
      "stateMutability": "nonpayable",
      "type": "function"
    },
    {
      "inputs": [
        {
          "internalType": "address[]",
          "name": "token0s",
          "type": "address[]"
        },
        {
          "internalType": "address[]",
          "name": "token1s",
          "type": "address[]"
        },
        {
          "internalType": "uint256[]",
          "name": "chainIDs",
          "type": "uint256[]"
        }
      ],
      "name": "addSupportTokens",
      "outputs": [],
      "stateMutability": "nonpayable",
      "type": "function"
    },
    {
      "inputs": [
        {
          "internalType": "address",
          "name": "sender",
          "type": "address"
        },
        {
          "internalType": "address",
          "name": "token0",
          "type": "address"
        },
        {
          "internalType": "uint256",
          "name": "chainID",
          "type": "uint256"
        },
        {
          "internalType": "address",
          "name": "to",
          "type": "address"
        },
        {
          "internalType": "uint256",
          "name": "amount",
          "type": "uint256"
        }
      ],
      "name": "burnBoringToken",
      "outputs": [],
      "stateMutability": "nonpayable",
      "type": "function"
    },
    {
      "inputs": [
        {
          "internalType": "address",
          "name": "token",
          "type": "address"
        },
        {
          "internalType": "uint256",
          "name": "chainID",
          "type": "uint256"
        },
        {
          "internalType": "uint256",
          "name": "amount",
          "type": "uint256"
        }
      ],
      "name": "calculateFee",
      "outputs": [
        {
          "internalType": "uint256",
          "name": "feeAmountFix",
          "type": "uint256"
        },
        {
          "internalType": "uint256",
          "name": "feeAmountRatio",
          "type": "uint256"
        },
        {
          "internalType": "uint256",
          "name": "remainAmount",
          "type": "uint256"
        }
      ],
      "stateMutability": "view",
      "type": "function"
    },
    {
      "inputs": [
        {
          "internalType": "address",
          "name": "token",
          "type": "address"
        },
        {
          "internalType": "uint256",
          "name": "chainID",
          "type": "uint256"
        },
        {
          "internalType": "uint256",
          "name": "amount",
          "type": "uint256"
        }
      ],
      "name": "calculateRemoveFee",
      "outputs": [
        {
          "internalType": "uint256",
          "name": "feeAmount",
          "type": "uint256"
        },
        {
          "internalType": "uint256",
          "name": "remainAmount",
          "type": "uint256"
        }
      ],
      "stateMutability": "view",
      "type": "function"
    },
    {
      "inputs": [
        {
          "internalType": "address",
          "name": "token0",
          "type": "address"
        },
        {
          "internalType": "uint256",
          "name": "chainID",
          "type": "uint256"
        },
        {
          "internalType": "address",
          "name": "from",
          "type": "address"
        },
        {
          "internalType": "address",
          "name": "to",
          "type": "address"
        },
        {
          "internalType": "uint256",
          "name": "amount",
          "type": "uint256"
        },
        {
          "internalType": "string",
          "name": "txid",
          "type": "string"
        }
      ],
      "name": "crossIn",
      "outputs": [],
      "stateMutability": "nonpayable",
      "type": "function"
    },
    {
      "inputs": [
        {
          "internalType": "address",
          "name": "token0",
          "type": "address"
        },
        {
          "internalType": "uint256",
          "name": "chainID",
          "type": "uint256"
        },
        {
          "internalType": "address",
          "name": "to",
          "type": "address"
        },
        {
          "internalType": "uint256",
          "name": "amount",
          "type": "uint256"
        }
      ],
      "name": "crossOut",
      "outputs": [],
      "stateMutability": "nonpayable",
      "type": "function"
    },
    {
      "inputs": [
        {
          "internalType": "address",
          "name": "",
          "type": "address"
        },
        {
          "internalType": "uint256",
          "name": "",
          "type": "uint256"
        }
      ],
      "name": "feeAmountM",
      "outputs": [
        {
          "internalType": "uint256",
          "name": "",
          "type": "uint256"
        }
      ],
      "stateMutability": "view",
      "type": "function"
    },
    {
      "inputs": [
        {
          "internalType": "address",
          "name": "",
          "type": "address"
        },
        {
          "internalType": "uint256",
          "name": "",
          "type": "uint256"
        }
      ],
      "name": "feeRatioM",
      "outputs": [
        {
          "internalType": "uint256",
          "name": "",
          "type": "uint256"
        }
      ],
      "stateMutability": "view",
      "type": "function"
    },
    {
      "inputs": [
        {
          "internalType": "address",
          "name": "",
          "type": "address"
        },
        {
          "internalType": "uint256",
          "name": "",
          "type": "uint256"
        }
      ],
      "name": "feeTo",
      "outputs": [
        {
          "internalType": "address",
          "name": "",
          "type": "address"
        }
      ],
      "stateMutability": "view",
      "type": "function"
    },
    {
      "inputs": [],
      "name": "feeToDev",
      "outputs": [
        {
          "internalType": "address",
          "name": "",
          "type": "address"
        }
      ],
      "stateMutability": "view",
      "type": "function"
    },
    {
      "inputs": [
        {
          "internalType": "address",
          "name": "token0",
          "type": "address"
        },
        {
          "internalType": "uint256",
          "name": "chainID",
          "type": "uint256"
        }
      ],
      "name": "getMaxToken0AmountOut",
      "outputs": [
        {
          "internalType": "uint256",
          "name": "",
          "type": "uint256"
        }
      ],
      "stateMutability": "view",
      "type": "function"
    },
    {
      "inputs": [
        {
          "internalType": "address",
          "name": "token0",
          "type": "address"
        },
        {
          "internalType": "uint256",
          "name": "chainID",
          "type": "uint256"
        }
      ],
      "name": "getMaxToken1AmountOut",
      "outputs": [
        {
          "internalType": "uint256",
          "name": "",
          "type": "uint256"
        }
      ],
      "stateMutability": "view",
      "type": "function"
    },
    {
      "inputs": [
        {
          "internalType": "address",
          "name": "token",
          "type": "address"
        },
        {
          "internalType": "uint256",
          "name": "chainID",
          "type": "uint256"
        }
      ],
      "name": "getPair",
      "outputs": [
        {
          "internalType": "address",
          "name": "",
          "type": "address"
        }
      ],
      "stateMutability": "view",
      "type": "function"
    },
    {
      "inputs": [
        {
          "internalType": "bytes32",
          "name": "role",
          "type": "bytes32"
        }
      ],
      "name": "getRoleAdmin",
      "outputs": [
        {
          "internalType": "bytes32",
          "name": "",
          "type": "bytes32"
        }
      ],
      "stateMutability": "view",
      "type": "function"
    },
    {
      "inputs": [
        {
          "internalType": "bytes32",
          "name": "role",
          "type": "bytes32"
        },
        {
          "internalType": "address",
          "name": "account",
          "type": "address"
        }
      ],
      "name": "grantRole",
      "outputs": [],
      "stateMutability": "nonpayable",
      "type": "function"
    },
    {
      "inputs": [
        {
          "internalType": "bytes32",
          "name": "role",
          "type": "bytes32"
        },
        {
          "internalType": "address",
          "name": "account",
          "type": "address"
        }
      ],
      "name": "hasRole",
      "outputs": [
        {
          "internalType": "bool",
          "name": "",
          "type": "bool"
        }
      ],
      "stateMutability": "view",
      "type": "function"
    },
    {
      "inputs": [
        {
          "internalType": "address",
          "name": "",
          "type": "address"
        },
        {
          "internalType": "uint256",
          "name": "",
          "type": "uint256"
        }
      ],
      "name": "pairs",
      "outputs": [
        {
          "internalType": "address",
          "name": "",
          "type": "address"
        }
      ],
      "stateMutability": "view",
      "type": "function"
    },
    {
      "inputs": [
        {
          "internalType": "address",
          "name": "",
          "type": "address"
        },
        {
          "internalType": "uint256",
          "name": "",
          "type": "uint256"
        }
      ],
      "name": "removeFeeAmount",
      "outputs": [
        {
          "internalType": "uint256",
          "name": "",
          "type": "uint256"
        }
      ],
      "stateMutability": "view",
      "type": "function"
    },
    {
      "inputs": [
        {
          "internalType": "address",
          "name": "token0",
          "type": "address"
        },
        {
          "internalType": "uint256",
          "name": "chainID",
          "type": "uint256"
        },
        {
          "internalType": "uint256",
          "name": "liquidity",
          "type": "uint256"
        },
        {
          "internalType": "address",
          "name": "to",
          "type": "address"
        }
      ],
      "name": "removeLiquidity",
      "outputs": [
        {
          "internalType": "uint256",
          "name": "amount0",
          "type": "uint256"
        },
        {
          "internalType": "uint256",
          "name": "amount1",
          "type": "uint256"
        }
      ],
      "stateMutability": "nonpayable",
      "type": "function"
    },
    {
      "inputs": [
        {
          "internalType": "address",
          "name": "token",
          "type": "address"
        },
        {
          "internalType": "uint256",
          "name": "chainID",
          "type": "uint256"
        }
      ],
      "name": "removePair",
      "outputs": [],
      "stateMutability": "nonpayable",
      "type": "function"
    },
    {
      "inputs": [
        {
          "internalType": "address",
          "name": "token0",
          "type": "address"
        },
        {
          "internalType": "uint256",
          "name": "chainID",
          "type": "uint256"
        }
      ],
      "name": "removeSupportToken",
      "outputs": [],
      "stateMutability": "nonpayable",
      "type": "function"
    },
    {
      "inputs": [
        {
          "internalType": "address[]",
          "name": "token0s",
          "type": "address[]"
        },
        {
          "internalType": "uint256[]",
          "name": "chainIDs",
          "type": "uint256[]"
        }
      ],
      "name": "removeSupportTokens",
      "outputs": [],
      "stateMutability": "nonpayable",
      "type": "function"
    },
    {
      "inputs": [
        {
          "internalType": "bytes32",
          "name": "role",
          "type": "bytes32"
        },
        {
          "internalType": "address",
          "name": "account",
          "type": "address"
        }
      ],
      "name": "renounceRole",
      "outputs": [],
      "stateMutability": "nonpayable",
      "type": "function"
    },
    {
      "inputs": [
        {
          "internalType": "bytes32",
          "name": "role",
          "type": "bytes32"
        },
        {
          "internalType": "address",
          "name": "account",
          "type": "address"
        }
      ],
      "name": "revokeRole",
      "outputs": [],
      "stateMutability": "nonpayable",
      "type": "function"
    },
    {
      "inputs": [
        {
          "internalType": "address",
          "name": "token0",
          "type": "address"
        },
        {
          "internalType": "uint256",
          "name": "chainID",
          "type": "uint256"
        },
        {
          "internalType": "address",
          "name": "from",
          "type": "address"
        },
        {
          "internalType": "uint256",
          "name": "amount",
          "type": "uint256"
        },
        {
          "internalType": "string",
          "name": "txid",
          "type": "string"
        }
      ],
      "name": "rollback",
      "outputs": [],
      "stateMutability": "nonpayable",
      "type": "function"
    },
    {
      "inputs": [
        {
          "internalType": "address",
          "name": "token0",
          "type": "address"
        },
        {
          "internalType": "uint256",
          "name": "chainID",
          "type": "uint256"
        },
        {
          "internalType": "uint256",
          "name": "feeAmount",
          "type": "uint256"
        },
        {
          "internalType": "uint256",
          "name": "feeRatio",
          "type": "uint256"
        }
      ],
      "name": "setFee",
      "outputs": [],
      "stateMutability": "nonpayable",
      "type": "function"
    },
    {
      "inputs": [
        {
          "internalType": "address",
          "name": "token0",
          "type": "address"
        },
        {
          "internalType": "uint256",
          "name": "chainID",
          "type": "uint256"
        },
        {
          "internalType": "address",
          "name": "account",
          "type": "address"
        }
      ],
      "name": "setFeeTo",
      "outputs": [],
      "stateMutability": "nonpayable",
      "type": "function"
    },
    {
      "inputs": [
        {
          "internalType": "address",
          "name": "account",
          "type": "address"
        }
      ],
      "name": "setFeeToDev",
      "outputs": [],
      "stateMutability": "nonpayable",
      "type": "function"
    },
    {
      "inputs": [
        {
          "internalType": "address",
          "name": "token0",
          "type": "address"
        },
        {
          "internalType": "uint256",
          "name": "minimum",
          "type": "uint256"
        }
      ],
      "name": "setRemovalMinimum",
      "outputs": [],
      "stateMutability": "nonpayable",
      "type": "function"
    },
    {
      "inputs": [
        {
          "internalType": "address",
          "name": "token0",
          "type": "address"
        },
        {
          "internalType": "uint256",
          "name": "chainID",
          "type": "uint256"
        },
        {
          "internalType": "uint256",
          "name": "_feeAmount",
          "type": "uint256"
        }
      ],
      "name": "setRemoveFee",
      "outputs": [],
      "stateMutability": "nonpayable",
      "type": "function"
    },
    {
      "inputs": [
        {
          "internalType": "address",
          "name": "token",
          "type": "address"
        },
        {
          "internalType": "uint256",
          "name": "_threshold",
          "type": "uint256"
        }
      ],
      "name": "setThreshold",
      "outputs": [],
      "stateMutability": "nonpayable",
      "type": "function"
    },
    {
      "inputs": [
        {
          "internalType": "address",
          "name": "",
          "type": "address"
        },
        {
          "internalType": "uint256",
          "name": "",
          "type": "uint256"
        }
      ],
      "name": "supportToken",
      "outputs": [
        {
          "internalType": "address",
          "name": "",
          "type": "address"
        }
      ],
      "stateMutability": "view",
      "type": "function"
    },
    {
      "inputs": [
        {
          "internalType": "bytes4",
          "name": "interfaceId",
          "type": "bytes4"
        }
      ],
      "name": "supportsInterface",
      "outputs": [
        {
          "internalType": "bool",
          "name": "",
          "type": "bool"
        }
      ],
      "stateMutability": "view",
      "type": "function"
    },
    {
      "inputs": [
        {
          "internalType": "address",
          "name": "",
          "type": "address"
        }
      ],
      "name": "threshold",
      "outputs": [
        {
          "internalType": "uint256",
          "name": "",
          "type": "uint256"
        }
      ],
      "stateMutability": "view",
      "type": "function"
    },
    {
      "inputs": [],
      "name": "twoWayFeePool",
      "outputs": [
        {
          "internalType": "contract ITwoWayFeePool",
          "name": "",
          "type": "address"
        }
      ],
      "stateMutability": "view",
      "type": "function"
    },
    {
      "inputs": [
        {
          "internalType": "string",
          "name": "",
          "type": "string"
        }
      ],
      "name": "txMinted",
      "outputs": [
        {
          "internalType": "bool",
          "name": "",
          "type": "bool"
        }
      ],
      "stateMutability": "view",
      "type": "function"
    },
    {
      "inputs": [
        {
          "internalType": "string",
          "name": "",
          "type": "string"
        }
      ],
      "name": "txRollbacked",
      "outputs": [
        {
          "internalType": "bool",
          "name": "",
          "type": "bool"
        }
      ],
      "stateMutability": "view",
      "type": "function"
    },
    {
      "inputs": [
        {
          "internalType": "string",
          "name": "",
          "type": "string"
        }
      ],
      "name": "txUnlocked",
      "outputs": [
        {
          "internalType": "bool",
          "name": "",
          "type": "bool"
        }
      ],
      "stateMutability": "view",
      "type": "function"
    },
    {
      "inputs": [
        {
          "internalType": "address",
          "name": "token0",
          "type": "address"
        },
        {
          "internalType": "uint256",
          "name": "chainID",
          "type": "uint256"
        },
        {
          "internalType": "address",
          "name": "from",
          "type": "address"
        },
        {
          "internalType": "address",
          "name": "to",
          "type": "address"
        },
        {
          "internalType": "uint256",
          "name": "amount",
          "type": "uint256"
        },
        {
          "internalType": "string",
          "name": "txid",
          "type": "string"
        }
      ],
      "name": "unlock",
      "outputs": [],
      "stateMutability": "nonpayable",
      "type": "function"
    }
  ],
  "transactionHash": "0x39086bd201fa43b756ad9c242ded5e53b11849a3e81ede486994e70fb6565bc5",
  "args": [
    "0x2353178C6c05378812f024A783541857634A1e82"
  ],
  "solcInputHash": "c2aa850b1a3381226981cb5e4976532c",
  "bytecode": "0x60806040523480156200001157600080fd5b5060405162003aea38038062003aea833981016040819052620000349162000117565b600980546001600160a01b0319166001600160a01b0383161790556200005c60003362000063565b5062000147565b6200006f828262000073565b5050565b60008281526004602090815260408083206001600160a01b038516845290915290205460ff166200006f5760008281526004602090815260408083206001600160a01b03851684529091529020805460ff19166001179055620000d33390565b6001600160a01b0316816001600160a01b0316837f2f8788117e7eff1d82e926ec794901d17c78024a50270940304540a733656f0d60405160405180910390a45050565b60006020828403121562000129578081fd5b81516001600160a01b038116811462000140578182fd5b9392505050565b61399380620001576000396000f3fe608060405234801561001057600080fd5b50600436106102735760003560e01c806391d1485411610151578063c369c773116100c3578063d692f4c511610087578063d692f4c51461069f578063db697be4146106d3578063df7e600a14610707578063ee8a6acf1461071a578063f06410f81461072d578063f8f8d5c01461074057600080fd5b8063c369c7731461061a578063c86ec2bf14610646578063cf28f67c14610666578063d547741f14610679578063d5e04b761461068c57600080fd5b8063a217fddf11610115578063a217fddf146105b3578063a5597a94146105bb578063af78881f146105ce578063b33efbd5146105e1578063b5acfa62146105f4578063be90c71b1461060757600080fd5b806391d1485414610521578063934ac70714610534578063967145af146105475780639c8d70be146105755780639d879990146105a057600080fd5b80632f2ff15d116101ea57806356ecaeb7116101ae57806356ecaeb71461046a5780635cb0c1fb1461047d57806364078943146104a8578063715ec45c146104d357806381660f5d146104e65780638fed0b2c146104f957600080fd5b80632f2ff15d146103ed57806336568abe146104005780633f3c64761461041357806353ad72e51461042657806356cf02d91461045457600080fd5b8063100be3bd1161023c578063100be3bd1461034257806310c274021461035557806312fef692146103835780631b322be4146103a4578063248a9ca3146103b75780632599c037146103da57600080fd5b80626349fb1461027857806301ffc9a7146102a85780630324ef9c146102cb57806303507ba5146102f957806303d405131461030e575b600080fd5b61028b610286366004612fe6565b610753565b6040516001600160a01b0390911681526020015b60405180910390f35b6102bb6102b6366004613395565b6107cf565b604051901515815260200161029f565b6102de6102d9366004613192565b610806565b6040805193845260208401929092529082015260600161029f565b61030c6103073660046132cd565b61086c565b005b61028b61031c366004612fe6565b600f6020908152600092835260408084209091529082529020546001600160a01b031681565b60095461028b906001600160a01b031681565b6102bb6103633660046133bd565b8051602081830181018051600b8252928201919093012091525460ff1681565b6103966103913660046131c6565b610908565b60405190815260200161029f565b61030c6103b2366004612f4c565b610a0c565b6103966103c536600461334e565b60009081526004602052604090206001015490565b61030c6103e8366004612fe6565b610ade565b61030c6103fb366004613366565b610ba0565b61030c61040e366004613366565b610bc6565b61030c610421366004613011565b610c44565b6102bb6104343660046133bd565b8051602081830181018051600d8252928201919093012091525460ff1681565b6103966b43524f535345525f524f4c4560a01b81565b610396610478366004612fe6565b610c76565b61039661048b366004612fe6565b600760209081526000928352604080842090915290825290205481565b6103966104b6366004612fe6565b600560209081526000928352604080842090915290825290205481565b61030c6104e1366004613052565b610d18565b61030c6104f436600461311e565b610ed3565b61050c6105073660046131c6565b611065565b6040805192835260208301919091520161029f565b6102bb61052f366004613366565b61128d565b610396610542366004612fe6565b6112b8565b6102bb6105553660046133bd565b8051602081830181018051600c8252928201919093012091525460ff1681565b610396610583366004612fe6565b600660209081526000928352604080842090915290825290205481565b61030c6105ae366004612fe6565b61135a565b610396600081565b61030c6105c9366004613192565b61138b565b600e5461028b906001600160a01b031681565b61030c6105ef366004612f8c565b6113d9565b61030c610602366004612f4c565b611435565b61050c610615366004613192565b611507565b61030c610628366004612f14565b600980546001600160a01b0319166001600160a01b03831617905550565b610396610654366004612f14565b60006020819052908152604090205481565b61030c610674366004613052565b6115ab565b61030c610687366004613366565b611825565b61030c61069a366004612fe6565b61184b565b61028b6106ad366004612fe6565b600a6020908152600092835260408084209091529082529020546001600160a01b031681565b61028b6106e1366004612fe6565b60086020908152600092835260408084209091529082529020546001600160a01b031681565b61030c6107153660046130d7565b61188e565b61030c610728366004613249565b611b84565b61030c61073b36600461320f565b611c9a565b61030c61074e366004612fe6565b611ccd565b6001600160a01b038083166000908152600a60209081526040808320858452909152812054909184918491166107a45760405162461bcd60e51b815260040161079b90613661565b60405180910390fd5b5050506001600160a01b039182166000908152600f6020908152604080832093835292905220541690565b60006001600160e01b03198216637965db0b60e01b148061080057506301ffc9a760e01b6001600160e01b03198316145b92915050565b6001600160a01b03831660008181526005602090815260408083208684528252808320549383526006825280832086845290915281205481906108498582611d99565b92508261085685876138a7565b61086091906138a7565b91505093509350939050565b805182511461088d5760405162461bcd60e51b815260040161079b90613696565b60005b8251811015610903576108f18382815181106108bc57634e487b7160e01b600052603260045260246000fd5b60200260200101518383815181106108e457634e487b7160e01b600052603260045260246000fd5b6020026020010151611ccd565b806108fb81613901565b915050610890565b505050565b6001600160a01b038085166000908152600a60209081526040808320878452909152812054909186918691166109505760405162461bcd60e51b815260040161079b90613661565b6001600160a01b038088166000818152600f602090815260408083208b84529091529020549091169061098590338389611dc2565b6040516335313c2160e11b81526001600160a01b038681166004830152821690636a62784290602401602060405180830381600087803b1580156109c857600080fd5b505af11580156109dc573d6000803e3d6000fd5b505050506040513d601f19601f82011682018060405250810190610a0091906133f0565b98975050505050505050565b610a1760003361128d565b610a335760405162461bcd60e51b815260040161079b906136d9565b6001600160a01b038381166000908152600a602090815260408083208584529091529020541615610aa65760405162461bcd60e51b815260206004820181905260248201527f50656750726f78793a20546f6b6520616c726561647920537570706f72746564604482015260640161079b565b6001600160a01b039283166000908152600a602090815260408083209383529290522080546001600160a01b03191691909216179055565b610ae960003361128d565b610b055760405162461bcd60e51b815260040161079b906136d9565b6001600160a01b038281166000908152600f6020908152604080832085845290915290205416610b6d5760405162461bcd60e51b81526020600482015260136024820152721d1bdad95b881b9bdd081cdd5c1c1bdc9d1959606a1b604482015260640161079b565b6001600160a01b039091166000908152600f602090815260408083209383529290522080546001600160a01b0319169055565b600082815260046020526040902060010154610bbc8133611e2d565b6109038383611e91565b6001600160a01b0381163314610c365760405162461bcd60e51b815260206004820152602f60248201527f416363657373436f6e74726f6c3a2063616e206f6e6c792072656e6f756e636560448201526e103937b632b9903337b91039b2b63360891b606482015260840161079b565b610c408282611f17565b5050565b610c4f60003361128d565b610c6b5760405162461bcd60e51b815260040161079b906136d9565b610903838383611f7e565b6001600160a01b038083166000908152600f60209081526040808320858452909152808220548151630240bc6b60e21b815282519394919091169284928492630902f1ac9260048083019392829003018186803b158015610cd657600080fd5b505afa158015610cea573d6000803e3d6000fd5b505050506040513d601f19601f82011682018060405250810190610d0e9190613408565b9695505050505050565b6001600160a01b038087166000908152600a602090815260408083208984529091529020548791879116610d5e5760405162461bcd60e51b815260040161079b90613661565b610d776b43524f535345525f524f4c4560a01b3361128d565b610d935760405162461bcd60e51b815260040161079b9061362a565b82600c81604051610da491906134b0565b9081526040519081900360200190205460ff1615610dfc5760405162461bcd60e51b8152602060048201526015602482015274141959d41c9bde1e4e881d1e081d5b9b1bd8dad959605a1b604482015260640161079b565b6000610e0b8a89898989612072565b90508015610ec7576001600c86604051610e2591906134b0565b908152604051908190036020019020805491151560ff19909216919091179055610e596001600160a01b038b1688886122fa565b6001600160a01b03808b166000908152600a602090815260408083208d8452909152908190205490517fe8a9cddb11d86358ad5c2fdd6359f0a6f41de0d399033319becf1364409dacbc92610ebe928e9291169046908e908e908e908e908e906135b6565b60405180910390a15b50505050505050505050565b6001600160a01b038086166000908152600a602090815260408083208884529091529020548691869116610f195760405162461bcd60e51b815260040161079b90613661565b610f326b43524f535345525f524f4c4560a01b3361128d565b610f4e5760405162461bcd60e51b815260040161079b9061362a565b82600d81604051610f5f91906134b0565b9081526040519081900360200190205460ff1615610fbf5760405162461bcd60e51b815260206004820152601760248201527f50656750726f78793a20747820726f6c6c6261636b6564000000000000000000604482015260640161079b565b6000610fce8988898989612072565b9050801561105a576001600d86604051610fe891906134b0565b908152604051908190036020019020805491151560ff1990921691909117905561101c6001600160a01b038a1688886122fa565b7f9420db1a0c5e4f45cc0dac05f17e8eb893645981e3c01e8d14120353a487d9e9898888886040516110519493929190613541565b60405180910390a15b505050505050505050565b6001600160a01b038085166000908152600a602090815260408083208784529091528120549091829187918791166110af5760405162461bcd60e51b815260040161079b90613661565b6001600160a01b03881660009081526010602052604090205486116111165760405162461bcd60e51b815260206004820152601e60248201527f6c6971756964697479206973206c657373207468616e206d696e696d756d0000604482015260640161079b565b6001600160a01b038881166000908152600f602090815260408083208b8452909152908190205490516323b872dd60e01b8152336004820152911660248201819052604482018890529081906323b872dd90606401602060405180830381600087803b15801561118557600080fd5b505af1158015611199573d6000803e3d6000fd5b505050506040513d601f19601f820116820180604052508101906111bd919061332e565b5060405163226bf2d160e21b81523360048201526001600160a01b038216906389afcb44906024016040805180830381600087803b1580156111fe57600080fd5b505af1158015611212573d6000803e3d6000fd5b505050506040513d601f19601f820116820180604052508101906112369190613408565b909550935060006112488a8a88611507565b509050801561126d5760095461126d906001600160a01b038c81169133911684611dc2565b841561128057611280338b8b8a896113d9565b5050505094509492505050565b60009182526004602090815260408084206001600160a01b0393909316845291905290205460ff1690565b6001600160a01b038083166000908152600f60209081526040808320858452909152808220548151630240bc6b60e21b815282519394919091169284928492630902f1ac9260048083019392829003018186803b15801561131857600080fd5b505afa15801561132c573d6000803e3d6000fd5b505050506040513d601f19601f820116820180604052508101906113509190613408565b5095945050505050565b61136560003361128d565b6113815760405162461bcd60e51b815260040161079b906136d9565b610c40828261232a565b61139660003361128d565b6113b25760405162461bcd60e51b815260040161079b906136d9565b6001600160a01b039290921660009081526007602090815260408083209383529290522055565b6001600160a01b038085166000908152600a60209081526040808320878452909152902054859185911661141f5760405162461bcd60e51b815260040161079b90613661565b61142c8787878787612386565b50505050505050565b61144060003361128d565b61145c5760405162461bcd60e51b815260040161079b906136d9565b6001600160a01b038381166000908152600f6020908152604080832085845290915290205416156114cf5760405162461bcd60e51b815260206004820152601760248201527f746f6b656e20616c726561647920737570706f72746564000000000000000000604482015260640161079b565b6001600160a01b039283166000908152600f602090815260408083209383529290522080546001600160a01b03191691909216179055565b6001600160a01b03831660009081526007602090815260408083208584529091528120548190831161156e5760405162461bcd60e51b815260206004820152601060248201526f3737ba1032b737bab3b4103a37b5b2b760811b604482015260640161079b565b6001600160a01b0385166000908152600760209081526040808320878452909152902054915061159e82846138a7565b9050935093915050565b50565b6115c46b43524f535345525f524f4c4560a01b3361128d565b6115e05760405162461bcd60e51b815260040161079b9061362a565b80600b816040516115f191906134b0565b9081526040519081900360200190205460ff16156116475760405162461bcd60e51b8152602060048201526013602482015272141959d41c9bde1e4e881d1e081b5a5b9d1959606a1b604482015260640161079b565b60006116568887878787612072565b9050801561181b576001600b8460405161167091906134b0565b9081526040805160209281900383018120805460ff1916941515949094179093556001600160a01b038b81166000908152600f84528281208c825284528281205463d21220a760e01b8652925192909116939092849263d21220a792600480820193929182900301818787803b1580156116e957600080fd5b505af11580156116fd573d6000803e3d6000fd5b505050506040513d601f19601f820116820180604052508101906117219190612f30565b9050600061172f8b8b6112b8565b9050808711156117ab576001600160a01b03808c166000908152600a602090815260408083208e8452909152908190205490517f56a316ee63540abb5f8fd44be7a6eb2016a90fc9bb3a34ffe13948a44c49a6169261179e928f9291169046908f908f908f908f908f906135b6565b60405180910390a1611817565b6040516340c10f1960e01b8152306004820152602481018890526001600160a01b038316906340c10f1990604401600060405180830381600087803b1580156117f357600080fd5b505af1158015611807573d6000803e3d6000fd5b505050506118178b8b898b6125c5565b5050505b5050505050505050565b6000828152600460205260409020600101546118418133611e2d565b6109038383611f17565b61185660003361128d565b6118725760405162461bcd60e51b815260040161079b906136d9565b6001600160a01b03909116600090815260106020526040902055565b6001600160a01b038085166000908152600a6020908152604080832087845290915290205485918591166118d45760405162461bcd60e51b815260040161079b90613661565b600083116119345760405162461bcd60e51b815260206004820152602760248201527f50656750726f78793a20616d6f756e74206d75737420626520677265617465726044820152660207468616e20360cc1b606482015260840161079b565b6001600160a01b0384166119825760405162461bcd60e51b815260206004820152601560248201527450656750726f78793a20746f20697320656d70747960581b604482015260640161079b565b6000806000611992898988610806565b925092509250611a0133600860008c6001600160a01b03166001600160a01b0316815260200190815260200160002060008b815260200190815260200160002060009054906101000a90046001600160a01b0316848c6001600160a01b0316611dc2909392919063ffffffff16565b600e546040516326341e2d60e21b8152600481018490526001600160a01b03909116906398d078b490602401600060405180830381600087803b158015611a4757600080fd5b505af1158015611a5b573d6000803e3d6000fd5b505050506000831115611a8457600954611a84906001600160a01b038b81169133911686611dc2565b611a996001600160a01b038a16333084611dc2565b6000611aa58a8a610c76565b90506000611ab38383612770565b90508015611ad457611ac78b8b8333612786565b611ad4338c8c8c85612386565b81881115611817576000611ae884836128af565b90507f7cb5e2d54d5587c3a3448631884061009b0e2c30e37922a4dd4aed50e11dd7f38c600a60008f6001600160a01b03166001600160a01b0316815260200190815260200160002060008e815260200190815260200160002060009054906101000a90046001600160a01b0316468e338f87604051611b6e9796959493929190613574565b60405180910390a1505050505050505050505050565b8151835114611bd55760405162461bcd60e51b815260206004820181905260248201527f50656750726f78793a20746f6b656e206c656e677468206e6f74206d61746368604482015260640161079b565b8051835114611bf65760405162461bcd60e51b815260040161079b90613696565b60005b8351811015611c9457611c82848281518110611c2557634e487b7160e01b600052603260045260246000fd5b6020026020010151848381518110611c4d57634e487b7160e01b600052603260045260246000fd5b6020026020010151848481518110611c7557634e487b7160e01b600052603260045260246000fd5b6020026020010151610a0c565b80611c8c81613901565b915050611bf9565b50505050565b611ca560003361128d565b611cc15760405162461bcd60e51b815260040161079b906136d9565b611c94848484846128bb565b611cd860003361128d565b611cf45760405162461bcd60e51b815260040161079b906136d9565b6001600160a01b038281166000908152600a6020908152604080832085845290915290205416611d665760405162461bcd60e51b815260206004820152601c60248201527f50656750726f78793a20746f6b65206e6f7420737570706f7274656400000000604482015260640161079b565b6001600160a01b039091166000908152600a602090815260408083209383529290522080546001600160a01b0319169055565b6000611da76012600a6137e0565b611db18484612990565b611dbb919061377d565b9392505050565b6040516001600160a01b0380851660248301528316604482015260648101829052611c949085906323b872dd60e01b906084015b60408051601f198184030181529190526020810180516001600160e01b03166001600160e01b03199093169290921790915261299c565b611e37828261128d565b610c4057611e4f816001600160a01b03166014612a6e565b611e5a836020612a6e565b604051602001611e6b9291906134cc565b60408051601f198184030181529082905262461bcd60e51b825261079b91600401613617565b611e9b828261128d565b610c405760008281526004602090815260408083206001600160a01b03851684529091529020805460ff19166001179055611ed33390565b6001600160a01b0316816001600160a01b0316837f2f8788117e7eff1d82e926ec794901d17c78024a50270940304540a733656f0d60405160405180910390a45050565b611f21828261128d565b15610c405760008281526004602090815260408083206001600160a01b0385168085529252808320805460ff1916905551339285917ff6391f5c32d9c69d2a47ea670b442974b53935d1edc7fd64eb21e047a839171b9190a45050565b6001600160a01b03838116600090815260086020908152604080832086845290915290205481169082161415611ff65760405162461bcd60e51b815260206004820152601f60248201527f546f6c6c3a3a6163636f756e742077617320666565546f20616c726561647900604482015260640161079b565b6001600160a01b03838116600081815260086020908152604080832087845282529182902080546001600160a01b0319169486169485179055815192835282018590528101919091527f9963d2a39ea3765553bdc18f1222f7791b9c625670d73a9feb41fdf53158e4a4906060015b60405180910390a1505050565b6001600160a01b0385166000908152602081905260408120546120f05760405162461bcd60e51b815260206004820152603060248201527f50726f706f73616c566f74653a207468726573686f6c642073686f756c64206260448201526f0652067726561746572207468616e20360841b606482015260840161079b565b6001600160a01b038616600090815260208181526040808320549051909291612123918a918a918a918a918a9101613457565b60408051601f1981840301815291815281516020928301206000818152600190935291205490915060ff161561219b5760405162461bcd60e51b815260206004820152601860248201527f5f766f74653a3a70726f706f73616c2066696e69736865640000000000000000604482015260640161079b565b600081815260026020908152604080832033845290915290205460ff16156122055760405162461bcd60e51b815260206004820152601760248201527f5f766f74653a3a6d73672e73656e64657220766f746564000000000000000000604482015260640161079b565b60008181526003602052604090205461221f906001612c50565b60008281526003602081815260408084209485556002825280842033855282528320805460ff19166001179055918490529052548211612277576000818152600160208190526040909120805460ff19168217905592505b6000818152600360209081526040918290205482516001600160a01b038c811682528b811693820193909352918916828401526060820188905233608083015260a082015260c0810184905290517fe458477b94285c9f254a407e2614c39f55230b527ff7f51d76fdf33e251ae9369181900360e00190a1505095945050505050565b6040516001600160a01b03831660248201526044810182905261090390849063a9059cbb60e01b90606401611df6565b6001600160a01b038216600081815260208181526040918290208054908590558251938452908301819052908201839052907fb18e91516e037486aa6fa38f56a8aac933fd127180efe9c9745ecbf660a78e4490606001612065565b6001600160a01b038085166000908152600f60209081526040808320878452825280832054815163d21220a760e01b81529151941693849263d21220a7926004808201939182900301818787803b1580156123e057600080fd5b505af11580156123f4573d6000803e3d6000fd5b505050506040513d601f19601f820116820180604052508101906124189190612f30565b6040516370a0823160e01b81526001600160a01b03898116600483015291925084918316906370a082319060240160206040518083038186803b15801561245e57600080fd5b505afa158015612472573d6000803e3d6000fd5b505050506040513d601f19601f8201168201806040525081019061249691906133f0565b10156124f05760405162461bcd60e51b815260206004820152602360248201527f6d73672e73656e646572206e6f7420656e6f75676820746f6b656e20746f20626044820152623ab93760e91b606482015260840161079b565b604051632770a7eb60e21b81526001600160a01b03888116600483015260248201859052821690639dc29fac90604401600060405180830381600087803b15801561253a57600080fd5b505af115801561254e573d6000803e3d6000fd5b5050506001600160a01b038088166000908152600a602090815260408083208a8452909152908190205490517f79aee25f54411be6ea1ab53c9d3cc3e245c301d481091deda6343da926932c0c93506125b4928a92169046908a908d908b908b90613574565b60405180910390a150505050505050565b6001600160a01b038085166000908152600a60209081526040808320878452909152902054859185911661260b5760405162461bcd60e51b815260040161079b90613661565b6000841161265b5760405162461bcd60e51b815260206004820152601c60248201527f696e707574206d7573742062652067726561746572207468616e203000000000604482015260640161079b565b6001600160a01b038087166000908152600f60209081526040808320898452825280832054815163d21220a760e01b81529151941693849263d21220a7926004808201939182900301818787803b1580156126b557600080fd5b505af11580156126c9573d6000803e3d6000fd5b505050506040513d601f19601f820116820180604052508101906126ed9190612f30565b90506127046001600160a01b038216338489611dc2565b60405163513c681b60e11b81526001600160a01b0386811660048301526000602483015283169063a278d03690604401600060405180830381600087803b15801561274e57600080fd5b505af1158015612762573d6000803e3d6000fd5b505050505050505050505050565b600081831061277f5781611dbb565b5090919050565b6001600160a01b038085166000908152600a6020908152604080832087845290915290205485918591166127cc5760405162461bcd60e51b815260040161079b90613661565b6000841161281c5760405162461bcd60e51b815260206004820152601c60248201527f696e707574206d7573742062652067726561746572207468616e203000000000604482015260640161079b565b6001600160a01b038087166000818152600f602090815260408083208a84529091529020549091169061285190338388611dc2565b60405163513c681b60e11b81526001600160a01b0385811660048301526001602483015282169063a278d03690604401600060405180830381600087803b15801561289b57600080fd5b505af1158015611817573d6000803e3d6000fd5b6000611dbb82846138a7565b670de0b6b3a764000081111561290b5760405162461bcd60e51b8152602060048201526015602482015274199959481c985d1a5bc81b9bdd0818dbdc9c9958dd605a1b604482015260640161079b565b6001600160a01b0384166000818152600560209081526040808320878452825280832086905583835260068252808320878452825291829020849055815192835282018590528101839052606081018290527fe7de0268825882caac9be515100046b260e4bb88ef28dcf7e4d99a3b9b7537829060800160405180910390a150505050565b6000611dbb8284613888565b60006129f1826040518060400160405280602081526020017f5361666545524332303a206c6f772d6c6576656c2063616c6c206661696c6564815250856001600160a01b0316612c5c9092919063ffffffff16565b8051909150156109035780806020019051810190612a0f919061332e565b6109035760405162461bcd60e51b815260206004820152602a60248201527f5361666545524332303a204552433230206f7065726174696f6e20646964206e6044820152691bdd081cdd58d8d9595960b21b606482015260840161079b565b60606000612a7d836002613888565b612a88906002613765565b67ffffffffffffffff811115612aae57634e487b7160e01b600052604160045260246000fd5b6040519080825280601f01601f191660200182016040528015612ad8576020820181803683370190505b509050600360fc1b81600081518110612b0157634e487b7160e01b600052603260045260246000fd5b60200101906001600160f81b031916908160001a905350600f60fb1b81600181518110612b3e57634e487b7160e01b600052603260045260246000fd5b60200101906001600160f81b031916908160001a9053506000612b62846002613888565b612b6d906001613765565b90505b6001811115612c01576f181899199a1a9b1b9c1cb0b131b232b360811b85600f1660108110612baf57634e487b7160e01b600052603260045260246000fd5b1a60f81b828281518110612bd357634e487b7160e01b600052603260045260246000fd5b60200101906001600160f81b031916908160001a90535060049490941c93612bfa816138ea565b9050612b70565b508315611dbb5760405162461bcd60e51b815260206004820181905260248201527f537472696e67733a20686578206c656e67746820696e73756666696369656e74604482015260640161079b565b6000611dbb8284613765565b6060612c6b8484600085612c73565b949350505050565b606082471015612cd45760405162461bcd60e51b815260206004820152602660248201527f416464726573733a20696e73756666696369656e742062616c616e636520666f6044820152651c8818d85b1b60d21b606482015260840161079b565b843b612d225760405162461bcd60e51b815260206004820152601d60248201527f416464726573733a2063616c6c20746f206e6f6e2d636f6e7472616374000000604482015260640161079b565b600080866001600160a01b03168587604051612d3e91906134b0565b60006040518083038185875af1925050503d8060008114612d7b576040519150601f19603f3d011682016040523d82523d6000602084013e612d80565b606091505b5091509150612d90828286612d9b565b979650505050505050565b60608315612daa575081611dbb565b825115612dba5782518084602001fd5b8160405162461bcd60e51b815260040161079b9190613617565b600082601f830112612de4578081fd5b81356020612df9612df483613741565b613710565b80838252828201915082860187848660051b8901011115612e18578586fd5b855b85811015612e3f578135612e2d81613948565b84529284019290840190600101612e1a565b5090979650505050505050565b600082601f830112612e5c578081fd5b81356020612e6c612df483613741565b80838252828201915082860187848660051b8901011115612e8b578586fd5b855b85811015612e3f57813584529284019290840190600101612e8d565b600082601f830112612eb9578081fd5b813567ffffffffffffffff811115612ed357612ed3613932565b612ee6601f8201601f1916602001613710565b818152846020838601011115612efa578283fd5b816020850160208301379081016020019190915292915050565b600060208284031215612f25578081fd5b8135611dbb81613948565b600060208284031215612f41578081fd5b8151611dbb81613948565b600080600060608486031215612f60578182fd5b8335612f6b81613948565b92506020840135612f7b81613948565b929592945050506040919091013590565b600080600080600060a08688031215612fa3578081fd5b8535612fae81613948565b94506020860135612fbe81613948565b9350604086013592506060860135612fd581613948565b949793965091946080013592915050565b60008060408385031215612ff8578182fd5b823561300381613948565b946020939093013593505050565b600080600060608486031215613025578283fd5b833561303081613948565b925060208401359150604084013561304781613948565b809150509250925092565b60008060008060008060c0878903121561306a578081fd5b863561307581613948565b955060208701359450604087013561308c81613948565b9350606087013561309c81613948565b92506080870135915060a087013567ffffffffffffffff8111156130be578182fd5b6130ca89828a01612ea9565b9150509295509295509295565b600080600080608085870312156130ec578384fd5b84356130f781613948565b935060208501359250604085013561310e81613948565b9396929550929360600135925050565b600080600080600060a08688031215613135578283fd5b853561314081613948565b945060208601359350604086013561315781613948565b925060608601359150608086013567ffffffffffffffff811115613179578182fd5b61318588828901612ea9565b9150509295509295909350565b6000806000606084860312156131a6578081fd5b83356131b181613948565b95602085013595506040909401359392505050565b600080600080608085870312156131db578182fd5b84356131e681613948565b93506020850135925060408501359150606085013561320481613948565b939692955090935050565b60008060008060808587031215613224578182fd5b843561322f81613948565b966020860135965060408601359560600135945092505050565b60008060006060848603121561325d578081fd5b833567ffffffffffffffff80821115613274578283fd5b61328087838801612dd4565b94506020860135915080821115613295578283fd5b6132a187838801612dd4565b935060408601359150808211156132b6578283fd5b506132c386828701612e4c565b9150509250925092565b600080604083850312156132df578182fd5b823567ffffffffffffffff808211156132f6578384fd5b61330286838701612dd4565b93506020850135915080821115613317578283fd5b5061332485828601612e4c565b9150509250929050565b60006020828403121561333f578081fd5b81518015158114611dbb578182fd5b60006020828403121561335f578081fd5b5035919050565b60008060408385031215613378578182fd5b82359150602083013561338a81613948565b809150509250929050565b6000602082840312156133a6578081fd5b81356001600160e01b031981168114611dbb578182fd5b6000602082840312156133ce578081fd5b813567ffffffffffffffff8111156133e4578182fd5b612c6b84828501612ea9565b600060208284031215613401578081fd5b5051919050565b6000806040838503121561341a578182fd5b505080516020909101519092909150565b600081518084526134438160208601602086016138be565b601f01601f19169290920160200192915050565b60006bffffffffffffffffffffffff19808860601b168352808760601b166014840152808660601b1660288401525083603c830152825161349f81605c8501602087016138be565b91909101605c019695505050505050565b600082516134c28184602087016138be565b9190910192915050565b7f416363657373436f6e74726f6c3a206163636f756e74200000000000000000008152600083516135048160178501602088016138be565b7001034b99036b4b9b9b4b733903937b6329607d1b60179184019182015283516135358160288401602088016138be565b01602801949350505050565b6001600160a01b0385811682528416602082015260408101839052608060608201819052600090610d0e9083018461342b565b6001600160a01b0397881681529587166020870152604086019490945260608501929092528416608084015290921660a082015260c081019190915260e00190565b6001600160a01b038981168252888116602083015260408201889052606082018790528581166080830152841660a082015260c0810183905261010060e082018190526000906136088382018561342b565b9b9a5050505050505050505050565b602081526000611dbb602083018461342b565b6020808252601f908201527f50656750726f78793a2063616c6c6572206973206e6f742063726f7373657200604082015260600190565b6020808252818101527f50656750726f78793a206e6f7420737570706f7274207468697320746f6b656e604082015260600190565b60208082526023908201527f50656750726f78793a20636861696e494473206c656e677468206e6f74206d616040820152620e8c6d60eb1b606082015260800190565b6020808252601d908201527f50656750726f78793a2063616c6c6572206973206e6f742061646d696e000000604082015260600190565b604051601f8201601f1916810167ffffffffffffffff8111828210171561373957613739613932565b604052919050565b600067ffffffffffffffff82111561375b5761375b613932565b5060051b60200190565b600082198211156137785761377861391c565b500190565b60008261379857634e487b7160e01b81526012600452602481fd5b500490565b600181815b808511156137d85781600019048211156137be576137be61391c565b808516156137cb57918102915b93841c93908002906137a2565b509250929050565b6000611dbb83836000826137f657506001610800565b8161380357506000610800565b816001811461381957600281146138235761383f565b6001915050610800565b60ff8411156138345761383461391c565b50506001821b610800565b5060208310610133831016604e8410600b8410161715613862575081810a610800565b61386c838361379d565b80600019048211156138805761388061391c565b029392505050565b60008160001904831182151516156138a2576138a261391c565b500290565b6000828210156138b9576138b961391c565b500390565b60005b838110156138d95781810151838201526020016138c1565b83811115611c945750506000910152565b6000816138f9576138f961391c565b506000190190565b60006000198214156139155761391561391c565b5060010190565b634e487b7160e01b600052601160045260246000fd5b634e487b7160e01b600052604160045260246000fd5b6001600160a01b03811681146115a857600080fdfea2646970667358221220e74b151a08544d7012b343aa1e0b7aa452b49f2d0d67cff85855b5f1b381047664736f6c63430008040033",
  "devdoc": {
    "kind": "dev",
    "methods": {
      "getRoleAdmin(bytes32)": {
        "details": "Returns the admin role that controls `role`. See {grantRole} and {revokeRole}. To change a role's admin, use {_setRoleAdmin}."
      },
      "grantRole(bytes32,address)": {
        "details": "Grants `role` to `account`. If `account` had not been already granted `role`, emits a {RoleGranted} event. Requirements: - the caller must have ``role``'s admin role."
      },
      "hasRole(bytes32,address)": {
        "details": "Returns `true` if `account` has been granted `role`."
      },
      "renounceRole(bytes32,address)": {
        "details": "Revokes `role` from the calling account. Roles are often managed via {grantRole} and {revokeRole}: this function's purpose is to provide a mechanism for accounts to lose their privileges if they are compromised (such as when a trusted device is misplaced). If the calling account had been granted `role`, emits a {RoleRevoked} event. Requirements: - the caller must be `account`."
      },
      "revokeRole(bytes32,address)": {
        "details": "Revokes `role` from `account`. If `account` had been granted `role`, emits a {RoleRevoked} event. Requirements: - the caller must have ``role``'s admin role."
      },
      "supportsInterface(bytes4)": {
        "details": "See {IERC165-supportsInterface}."
      }
    },
    "version": 1
  },
  "userdoc": {
    "kind": "user",
    "methods": {},
    "version": 1
  },
  "storageLayout": {
    "storage": [
      {
        "astId": 6047,
        "contract": "contracts/twoway/TwoWay.sol:TwoWay",
        "label": "threshold",
        "offset": 0,
        "slot": "0",
        "type": "t_mapping(t_address,t_uint256)"
      },
      {
        "astId": 6051,
        "contract": "contracts/twoway/TwoWay.sol:TwoWay",
        "label": "isFinished",
        "offset": 0,
        "slot": "1",
        "type": "t_mapping(t_bytes32,t_bool)"
      },
      {
        "astId": 6057,
        "contract": "contracts/twoway/TwoWay.sol:TwoWay",
        "label": "isVoted",
        "offset": 0,
        "slot": "2",
        "type": "t_mapping(t_bytes32,t_mapping(t_address,t_bool))"
      },
      {
        "astId": 6061,
        "contract": "contracts/twoway/TwoWay.sol:TwoWay",
        "label": "counter",
        "offset": 0,
        "slot": "3",
        "type": "t_mapping(t_bytes32,t_uint256)"
      },
      {
        "astId": 2437,
        "contract": "contracts/twoway/TwoWay.sol:TwoWay",
        "label": "_roles",
        "offset": 0,
        "slot": "4",
        "type": "t_mapping(t_bytes32,t_struct(RoleData)2432_storage)"
      },
      {
        "astId": 9911,
        "contract": "contracts/twoway/TwoWay.sol:TwoWay",
        "label": "feeAmountM",
        "offset": 0,
        "slot": "5",
        "type": "t_mapping(t_address,t_mapping(t_uint256,t_uint256))"
      },
      {
        "astId": 9917,
        "contract": "contracts/twoway/TwoWay.sol:TwoWay",
        "label": "feeRatioM",
        "offset": 0,
        "slot": "6",
        "type": "t_mapping(t_address,t_mapping(t_uint256,t_uint256))"
      },
      {
        "astId": 9923,
        "contract": "contracts/twoway/TwoWay.sol:TwoWay",
        "label": "removeFeeAmount",
        "offset": 0,
        "slot": "7",
        "type": "t_mapping(t_address,t_mapping(t_uint256,t_uint256))"
      },
      {
        "astId": 9929,
        "contract": "contracts/twoway/TwoWay.sol:TwoWay",
        "label": "feeTo",
        "offset": 0,
        "slot": "8",
        "type": "t_mapping(t_address,t_mapping(t_uint256,t_address))"
      },
      {
        "astId": 9931,
        "contract": "contracts/twoway/TwoWay.sol:TwoWay",
        "label": "feeToDev",
        "offset": 0,
        "slot": "9",
        "type": "t_address"
      },
      {
        "astId": 8294,
        "contract": "contracts/twoway/TwoWay.sol:TwoWay",
        "label": "supportToken",
        "offset": 0,
        "slot": "10",
        "type": "t_mapping(t_address,t_mapping(t_uint256,t_address))"
      },
      {
        "astId": 8298,
        "contract": "contracts/twoway/TwoWay.sol:TwoWay",
        "label": "txMinted",
        "offset": 0,
        "slot": "11",
        "type": "t_mapping(t_string_memory_ptr,t_bool)"
      },
      {
        "astId": 8302,
        "contract": "contracts/twoway/TwoWay.sol:TwoWay",
        "label": "txUnlocked",
        "offset": 0,
        "slot": "12",
        "type": "t_mapping(t_string_memory_ptr,t_bool)"
      },
      {
        "astId": 8306,
        "contract": "contracts/twoway/TwoWay.sol:TwoWay",
        "label": "txRollbacked",
        "offset": 0,
        "slot": "13",
        "type": "t_mapping(t_string_memory_ptr,t_bool)"
      },
      {
        "astId": 8309,
        "contract": "contracts/twoway/TwoWay.sol:TwoWay",
        "label": "twoWayFeePool",
        "offset": 0,
        "slot": "14",
        "type": "t_contract(ITwoWayFeePool)7081"
      },
      {
        "astId": 8315,
        "contract": "contracts/twoway/TwoWay.sol:TwoWay",
        "label": "pairs",
        "offset": 0,
        "slot": "15",
        "type": "t_mapping(t_address,t_mapping(t_uint256,t_address))"
      },
      {
        "astId": 8319,
        "contract": "contracts/twoway/TwoWay.sol:TwoWay",
        "label": "removalMinimum",
        "offset": 0,
        "slot": "16",
        "type": "t_mapping(t_address,t_uint256)"
      }
    ],
    "types": {
      "t_address": {
        "encoding": "inplace",
        "label": "address",
        "numberOfBytes": "20"
      },
      "t_bool": {
        "encoding": "inplace",
        "label": "bool",
        "numberOfBytes": "1"
      },
      "t_bytes32": {
        "encoding": "inplace",
        "label": "bytes32",
        "numberOfBytes": "32"
      },
      "t_contract(ITwoWayFeePool)7081": {
        "encoding": "inplace",
        "label": "contract ITwoWayFeePool",
        "numberOfBytes": "20"
      },
      "t_mapping(t_address,t_bool)": {
        "encoding": "mapping",
        "key": "t_address",
        "label": "mapping(address => bool)",
        "numberOfBytes": "32",
        "value": "t_bool"
      },
      "t_mapping(t_address,t_mapping(t_uint256,t_address))": {
        "encoding": "mapping",
        "key": "t_address",
        "label": "mapping(address => mapping(uint256 => address))",
        "numberOfBytes": "32",
        "value": "t_mapping(t_uint256,t_address)"
      },
      "t_mapping(t_address,t_mapping(t_uint256,t_uint256))": {
        "encoding": "mapping",
        "key": "t_address",
        "label": "mapping(address => mapping(uint256 => uint256))",
        "numberOfBytes": "32",
        "value": "t_mapping(t_uint256,t_uint256)"
      },
      "t_mapping(t_address,t_uint256)": {
        "encoding": "mapping",
        "key": "t_address",
        "label": "mapping(address => uint256)",
        "numberOfBytes": "32",
        "value": "t_uint256"
      },
      "t_mapping(t_bytes32,t_bool)": {
        "encoding": "mapping",
        "key": "t_bytes32",
        "label": "mapping(bytes32 => bool)",
        "numberOfBytes": "32",
        "value": "t_bool"
      },
      "t_mapping(t_bytes32,t_mapping(t_address,t_bool))": {
        "encoding": "mapping",
        "key": "t_bytes32",
        "label": "mapping(bytes32 => mapping(address => bool))",
        "numberOfBytes": "32",
        "value": "t_mapping(t_address,t_bool)"
      },
      "t_mapping(t_bytes32,t_struct(RoleData)2432_storage)": {
        "encoding": "mapping",
        "key": "t_bytes32",
        "label": "mapping(bytes32 => struct AccessControl.RoleData)",
        "numberOfBytes": "32",
        "value": "t_struct(RoleData)2432_storage"
      },
      "t_mapping(t_bytes32,t_uint256)": {
        "encoding": "mapping",
        "key": "t_bytes32",
        "label": "mapping(bytes32 => uint256)",
        "numberOfBytes": "32",
        "value": "t_uint256"
      },
      "t_mapping(t_string_memory_ptr,t_bool)": {
        "encoding": "mapping",
        "key": "t_string_memory_ptr",
        "label": "mapping(string => bool)",
        "numberOfBytes": "32",
        "value": "t_bool"
      },
      "t_mapping(t_uint256,t_address)": {
        "encoding": "mapping",
        "key": "t_uint256",
        "label": "mapping(uint256 => address)",
        "numberOfBytes": "32",
        "value": "t_address"
      },
      "t_mapping(t_uint256,t_uint256)": {
        "encoding": "mapping",
        "key": "t_uint256",
        "label": "mapping(uint256 => uint256)",
        "numberOfBytes": "32",
        "value": "t_uint256"
      },
      "t_string_memory_ptr": {
        "encoding": "bytes",
        "label": "string",
        "numberOfBytes": "32"
      },
      "t_struct(RoleData)2432_storage": {
        "encoding": "inplace",
        "label": "struct AccessControl.RoleData",
        "members": [
          {
            "astId": 2429,
            "contract": "contracts/twoway/TwoWay.sol:TwoWay",
            "label": "members",
            "offset": 0,
            "slot": "0",
            "type": "t_mapping(t_address,t_bool)"
          },
          {
            "astId": 2431,
            "contract": "contracts/twoway/TwoWay.sol:TwoWay",
            "label": "adminRole",
            "offset": 0,
            "slot": "1",
            "type": "t_bytes32"
          }
        ],
        "numberOfBytes": "64"
      },
      "t_uint256": {
        "encoding": "inplace",
        "label": "uint256",
        "numberOfBytes": "32"
      }
    }
  }
}