{
  "address": "0x311071F77BE1B69288C1C668c5E87a57A21e9351",
  "abi": [
    {
      "inputs": [
        {
          "internalType": "address",
          "name": "_feeToDev",
          "type": "address"
        }
      ],
      "stateMutability": "nonpayable",
      "type": "constructor"
    },
    {
      "anonymous": false,
      "inputs": [
        {
          "indexed": false,
          "internalType": "address",
          "name": "token0",
          "type": "address"
        },
        {
          "indexed": false,
          "internalType": "address",
          "name": "token1",
          "type": "address"
        },
        {
          "indexed": false,
          "internalType": "uint256",
          "name": "chainID0",
          "type": "uint256"
        },
        {
          "indexed": false,
          "internalType": "uint256",
          "name": "chainID1",
          "type": "uint256"
        },
        {
          "indexed": false,
          "internalType": "address",
          "name": "from",
          "type": "address"
        },
        {
          "indexed": false,
          "internalType": "address",
          "name": "to",
          "type": "address"
        },
        {
          "indexed": false,
          "internalType": "uint256",
          "name": "amount",
          "type": "uint256"
        }
      ],
      "name": "CrossBurn",
      "type": "event"
    },
    {
      "anonymous": false,
      "inputs": [
        {
          "indexed": false,
          "internalType": "address",
          "name": "token",
          "type": "address"
        },
        {
          "indexed": false,
          "internalType": "uint256",
          "name": "chainID",
          "type": "uint256"
        },
        {
          "indexed": false,
          "internalType": "uint256",
          "name": "feeAmount",
          "type": "uint256"
        },
        {
          "indexed": false,
          "internalType": "uint256",
          "name": "feeRatio",
          "type": "uint256"
        }
      ],
      "name": "FeeChange",
      "type": "event"
    },
    {
      "anonymous": false,
      "inputs": [
        {
          "indexed": false,
          "internalType": "address",
          "name": "token",
          "type": "address"
        },
        {
          "indexed": false,
          "internalType": "uint256",
          "name": "chainID",
          "type": "uint256"
        },
        {
          "indexed": false,
          "internalType": "address",
          "name": "account",
          "type": "address"
        }
      ],
      "name": "FeeToChanged",
      "type": "event"
    },
    {
      "anonymous": false,
      "inputs": [
        {
          "indexed": false,
          "internalType": "address",
          "name": "token",
          "type": "address"
        },
        {
          "indexed": false,
          "internalType": "uint256",
          "name": "chainID",
          "type": "uint256"
        },
        {
          "indexed": false,
          "internalType": "address",
          "name": "account",
          "type": "address"
        }
      ],
      "name": "FeeToRemoved",
      "type": "event"
    },
    {
      "anonymous": false,
      "inputs": [
        {
          "indexed": false,
          "internalType": "address",
          "name": "token0",
          "type": "address"
        },
        {
          "indexed": false,
          "internalType": "address",
          "name": "token1",
          "type": "address"
        },
        {
          "indexed": false,
          "internalType": "uint256",
          "name": "chainID0",
          "type": "uint256"
        },
        {
          "indexed": false,
          "internalType": "uint256",
          "name": "chainID1",
          "type": "uint256"
        },
        {
          "indexed": false,
          "internalType": "address",
          "name": "from",
          "type": "address"
        },
        {
          "indexed": false,
          "internalType": "address",
          "name": "to",
          "type": "address"
        },
        {
          "indexed": false,
          "internalType": "uint256",
          "name": "amount",
          "type": "uint256"
        }
      ],
      "name": "Lock",
      "type": "event"
    },
    {
      "anonymous": false,
      "inputs": [
        {
          "indexed": false,
          "internalType": "address",
          "name": "token",
          "type": "address"
        },
        {
          "indexed": false,
          "internalType": "address",
          "name": "from",
          "type": "address"
        },
        {
          "indexed": false,
          "internalType": "address",
          "name": "to",
          "type": "address"
        },
        {
          "indexed": false,
          "internalType": "uint256",
          "name": "amount",
          "type": "uint256"
        },
        {
          "indexed": false,
          "internalType": "address",
          "name": "proposer",
          "type": "address"
        },
        {
          "indexed": false,
          "internalType": "uint256",
          "name": "count",
          "type": "uint256"
        },
        {
          "indexed": false,
          "internalType": "uint256",
          "name": "threshold",
          "type": "uint256"
        }
      ],
      "name": "ProposalVoted",
      "type": "event"
    },
    {
      "anonymous": false,
      "inputs": [
        {
          "indexed": true,
          "internalType": "bytes32",
          "name": "role",
          "type": "bytes32"
        },
        {
          "indexed": true,
          "internalType": "bytes32",
          "name": "previousAdminRole",
          "type": "bytes32"
        },
        {
          "indexed": true,
          "internalType": "bytes32",
          "name": "newAdminRole",
          "type": "bytes32"
        }
      ],
      "name": "RoleAdminChanged",
      "type": "event"
    },
    {
      "anonymous": false,
      "inputs": [
        {
          "indexed": true,
          "internalType": "bytes32",
          "name": "role",
          "type": "bytes32"
        },
        {
          "indexed": true,
          "internalType": "address",
          "name": "account",
          "type": "address"
        },
        {
          "indexed": true,
          "internalType": "address",
          "name": "sender",
          "type": "address"
        }
      ],
      "name": "RoleGranted",
      "type": "event"
    },
    {
      "anonymous": false,
      "inputs": [
        {
          "indexed": true,
          "internalType": "bytes32",
          "name": "role",
          "type": "bytes32"
        },
        {
          "indexed": true,
          "internalType": "address",
          "name": "account",
          "type": "address"
        },
        {
          "indexed": true,
          "internalType": "address",
          "name": "sender",
          "type": "address"
        }
      ],
      "name": "RoleRevoked",
      "type": "event"
    },
    {
      "anonymous": false,
      "inputs": [
        {
          "indexed": false,
          "internalType": "address",
          "name": "token0",
          "type": "address"
        },
        {
          "indexed": false,
          "internalType": "address",
          "name": "token1",
          "type": "address"
        },
        {
          "indexed": false,
          "internalType": "uint256",
          "name": "chainID0",
          "type": "uint256"
        },
        {
          "indexed": false,
          "internalType": "uint256",
          "name": "chainID1",
          "type": "uint256"
        },
        {
          "indexed": false,
          "internalType": "address",
          "name": "from",
          "type": "address"
        },
        {
          "indexed": false,
          "internalType": "address",
          "name": "to",
          "type": "address"
        },
        {
          "indexed": false,
          "internalType": "uint256",
          "name": "amount",
          "type": "uint256"
        },
        {
          "indexed": false,
          "internalType": "string",
          "name": "txid",
          "type": "string"
        }
      ],
      "name": "Rollback",
      "type": "event"
    },
    {
      "anonymous": false,
      "inputs": [
        {
          "indexed": false,
          "internalType": "address",
          "name": "token0",
          "type": "address"
        },
        {
          "indexed": false,
          "internalType": "address",
          "name": "from",
          "type": "address"
        },
        {
          "indexed": false,
          "internalType": "uint256",
          "name": "amount",
          "type": "uint256"
        },
        {
          "indexed": false,
          "internalType": "string",
          "name": "txid",
          "type": "string"
        }
      ],
      "name": "Rollbacked",
      "type": "event"
    },
    {
      "anonymous": false,
      "inputs": [
        {
          "indexed": false,
          "internalType": "address",
          "name": "token",
          "type": "address"
        },
        {
          "indexed": false,
          "internalType": "uint256",
          "name": "oldThreshold",
          "type": "uint256"
        },
        {
          "indexed": false,
          "internalType": "uint256",
          "name": "newThreshold",
          "type": "uint256"
        }
      ],
      "name": "ThresholdChanged",
      "type": "event"
    },
    {
      "anonymous": false,
      "inputs": [
        {
          "indexed": false,
          "internalType": "address",
          "name": "token0",
          "type": "address"
        },
        {
          "indexed": false,
          "internalType": "address",
          "name": "token1",
          "type": "address"
        },
        {
          "indexed": false,
          "internalType": "uint256",
          "name": "chianID0",
          "type": "uint256"
        },
        {
          "indexed": false,
          "internalType": "uint256",
          "name": "chainID1",
          "type": "uint256"
        },
        {
          "indexed": false,
          "internalType": "address",
          "name": "from",
          "type": "address"
        },
        {
          "indexed": false,
          "internalType": "address",
          "name": "to",
          "type": "address"
        },
        {
          "indexed": false,
          "internalType": "uint256",
          "name": "amount",
          "type": "uint256"
        },
        {
          "indexed": false,
          "internalType": "string",
          "name": "txid",
          "type": "string"
        }
      ],
      "name": "Unlock",
      "type": "event"
    },
    {
      "inputs": [],
      "name": "CROSSER_ROLE",
      "outputs": [
        {
          "internalType": "bytes32",
          "name": "",
          "type": "bytes32"
        }
      ],
      "stateMutability": "view",
      "type": "function"
    },
    {
      "inputs": [],
      "name": "DEFAULT_ADMIN_ROLE",
      "outputs": [
        {
          "internalType": "bytes32",
          "name": "",
          "type": "bytes32"
        }
      ],
      "stateMutability": "view",
      "type": "function"
    },
    {
      "inputs": [
        {
          "internalType": "address",
          "name": "token0",
          "type": "address"
        },
        {
          "internalType": "uint256",
          "name": "chainID",
          "type": "uint256"
        },
        {
          "internalType": "uint256",
          "name": "amount",
          "type": "uint256"
        },
        {
          "internalType": "address",
          "name": "to",
          "type": "address"
        }
      ],
      "name": "addLiquidity",
      "outputs": [
        {
          "internalType": "uint256",
          "name": "liquidity",
          "type": "uint256"
        }
      ],
      "stateMutability": "nonpayable",
      "type": "function"
    },
    {
      "inputs": [
        {
          "internalType": "address",
          "name": "token",
          "type": "address"
        },
        {
          "internalType": "address",
          "name": "pair",
          "type": "address"
        },
        {
          "internalType": "uint256",
          "name": "chainID",
          "type": "uint256"
        }
      ],
      "name": "addPair",
      "outputs": [],
      "stateMutability": "nonpayable",
      "type": "function"
    },
    {
      "inputs": [
        {
          "internalType": "address",
          "name": "token0",
          "type": "address"
        },
        {
          "internalType": "address",
          "name": "token1",
          "type": "address"
        },
        {
          "internalType": "uint256",
          "name": "chainID",
          "type": "uint256"
        }
      ],
      "name": "addSupportToken",
      "outputs": [],
      "stateMutability": "nonpayable",
      "type": "function"
    },
    {
      "inputs": [
        {
          "internalType": "address[]",
          "name": "token0s",
          "type": "address[]"
        },
        {
          "internalType": "address[]",
          "name": "token1s",
          "type": "address[]"
        },
        {
          "internalType": "uint256[]",
          "name": "chainIDs",
          "type": "uint256[]"
        }
      ],
      "name": "addSupportTokens",
      "outputs": [],
      "stateMutability": "nonpayable",
      "type": "function"
    },
    {
      "inputs": [
        {
          "internalType": "address",
          "name": "token",
          "type": "address"
        },
        {
          "internalType": "uint256",
          "name": "chainID",
          "type": "uint256"
        },
        {
          "internalType": "uint256",
          "name": "amount",
          "type": "uint256"
        }
      ],
      "name": "calculateFee",
      "outputs": [
        {
          "internalType": "uint256",
          "name": "feeAmountFix",
          "type": "uint256"
        },
        {
          "internalType": "uint256",
          "name": "feeAmountRatio",
          "type": "uint256"
        },
        {
          "internalType": "uint256",
          "name": "remainAmount",
          "type": "uint256"
        }
      ],
      "stateMutability": "view",
      "type": "function"
    },
    {
      "inputs": [
        {
          "internalType": "address",
          "name": "token",
          "type": "address"
        },
        {
          "internalType": "uint256",
          "name": "chainID",
          "type": "uint256"
        },
        {
          "internalType": "uint256",
          "name": "amount",
          "type": "uint256"
        }
      ],
      "name": "calculateRemoveFee",
      "outputs": [
        {
          "internalType": "uint256",
          "name": "feeAmount",
          "type": "uint256"
        },
        {
          "internalType": "uint256",
          "name": "remainAmount",
          "type": "uint256"
        }
      ],
      "stateMutability": "view",
      "type": "function"
    },
    {
      "inputs": [
        {
          "internalType": "address",
          "name": "token0",
          "type": "address"
        },
        {
          "internalType": "uint256",
          "name": "chainID",
          "type": "uint256"
        },
        {
          "internalType": "address",
          "name": "from",
          "type": "address"
        },
        {
          "internalType": "address",
          "name": "to",
          "type": "address"
        },
        {
          "internalType": "uint256",
          "name": "amount",
          "type": "uint256"
        },
        {
          "internalType": "string",
          "name": "txid",
          "type": "string"
        }
      ],
      "name": "crossIn",
      "outputs": [],
      "stateMutability": "nonpayable",
      "type": "function"
    },
    {
      "inputs": [
        {
          "internalType": "address",
          "name": "token0",
          "type": "address"
        },
        {
          "internalType": "uint256",
          "name": "chainID",
          "type": "uint256"
        },
        {
          "internalType": "address",
          "name": "to",
          "type": "address"
        },
        {
          "internalType": "uint256",
          "name": "amount",
          "type": "uint256"
        }
      ],
      "name": "crossOut",
      "outputs": [],
      "stateMutability": "nonpayable",
      "type": "function"
    },
    {
      "inputs": [
        {
          "internalType": "address",
          "name": "",
          "type": "address"
        },
        {
          "internalType": "uint256",
          "name": "",
          "type": "uint256"
        }
      ],
      "name": "feeAmountM",
      "outputs": [
        {
          "internalType": "uint256",
          "name": "",
          "type": "uint256"
        }
      ],
      "stateMutability": "view",
      "type": "function"
    },
    {
      "inputs": [
        {
          "internalType": "address",
          "name": "",
          "type": "address"
        },
        {
          "internalType": "uint256",
          "name": "",
          "type": "uint256"
        }
      ],
      "name": "feeRatioM",
      "outputs": [
        {
          "internalType": "uint256",
          "name": "",
          "type": "uint256"
        }
      ],
      "stateMutability": "view",
      "type": "function"
    },
    {
      "inputs": [
        {
          "internalType": "address",
          "name": "",
          "type": "address"
        },
        {
          "internalType": "uint256",
          "name": "",
          "type": "uint256"
        }
      ],
      "name": "feeTo",
      "outputs": [
        {
          "internalType": "address",
          "name": "",
          "type": "address"
        }
      ],
      "stateMutability": "view",
      "type": "function"
    },
    {
      "inputs": [],
      "name": "feeToDev",
      "outputs": [
        {
          "internalType": "address",
          "name": "",
          "type": "address"
        }
      ],
      "stateMutability": "view",
      "type": "function"
    },
    {
      "inputs": [
        {
          "internalType": "address",
          "name": "token0",
          "type": "address"
        },
        {
          "internalType": "uint256",
          "name": "chainID",
          "type": "uint256"
        }
      ],
      "name": "getMaxToken0AmountOut",
      "outputs": [
        {
          "internalType": "uint256",
          "name": "",
          "type": "uint256"
        }
      ],
      "stateMutability": "view",
      "type": "function"
    },
    {
      "inputs": [
        {
          "internalType": "address",
          "name": "token0",
          "type": "address"
        },
        {
          "internalType": "uint256",
          "name": "chainID",
          "type": "uint256"
        }
      ],
      "name": "getMaxToken1AmountOut",
      "outputs": [
        {
          "internalType": "uint256",
          "name": "",
          "type": "uint256"
        }
      ],
      "stateMutability": "view",
      "type": "function"
    },
    {
      "inputs": [
        {
          "internalType": "bytes32",
          "name": "role",
          "type": "bytes32"
        }
      ],
      "name": "getRoleAdmin",
      "outputs": [
        {
          "internalType": "bytes32",
          "name": "",
          "type": "bytes32"
        }
      ],
      "stateMutability": "view",
      "type": "function"
    },
    {
      "inputs": [
        {
          "internalType": "bytes32",
          "name": "role",
          "type": "bytes32"
        },
        {
          "internalType": "address",
          "name": "account",
          "type": "address"
        }
      ],
      "name": "grantRole",
      "outputs": [],
      "stateMutability": "nonpayable",
      "type": "function"
    },
    {
      "inputs": [
        {
          "internalType": "bytes32",
          "name": "role",
          "type": "bytes32"
        },
        {
          "internalType": "address",
          "name": "account",
          "type": "address"
        }
      ],
      "name": "hasRole",
      "outputs": [
        {
          "internalType": "bool",
          "name": "",
          "type": "bool"
        }
      ],
      "stateMutability": "view",
      "type": "function"
    },
    {
      "inputs": [
        {
          "internalType": "address",
          "name": "",
          "type": "address"
        },
        {
          "internalType": "uint256",
          "name": "",
          "type": "uint256"
        }
      ],
      "name": "pairs",
      "outputs": [
        {
          "internalType": "address",
          "name": "",
          "type": "address"
        }
      ],
      "stateMutability": "view",
      "type": "function"
    },
    {
      "inputs": [
        {
          "internalType": "address",
          "name": "",
          "type": "address"
        },
        {
          "internalType": "uint256",
          "name": "",
          "type": "uint256"
        }
      ],
      "name": "removeFeeAmount",
      "outputs": [
        {
          "internalType": "uint256",
          "name": "",
          "type": "uint256"
        }
      ],
      "stateMutability": "view",
      "type": "function"
    },
    {
      "inputs": [
        {
          "internalType": "address",
          "name": "token0",
          "type": "address"
        },
        {
          "internalType": "uint256",
          "name": "chainID",
          "type": "uint256"
        },
        {
          "internalType": "uint256",
          "name": "lpAmount",
          "type": "uint256"
        },
        {
          "internalType": "address",
          "name": "to",
          "type": "address"
        }
      ],
      "name": "removeLiquidity",
      "outputs": [
        {
          "internalType": "uint256",
          "name": "amount0",
          "type": "uint256"
        },
        {
          "internalType": "uint256",
          "name": "amount1",
          "type": "uint256"
        }
      ],
      "stateMutability": "nonpayable",
      "type": "function"
    },
    {
      "inputs": [
        {
          "internalType": "address",
          "name": "token",
          "type": "address"
        },
        {
          "internalType": "uint256",
          "name": "chainID",
          "type": "uint256"
        }
      ],
      "name": "removePair",
      "outputs": [],
      "stateMutability": "nonpayable",
      "type": "function"
    },
    {
      "inputs": [
        {
          "internalType": "address",
          "name": "token0",
          "type": "address"
        },
        {
          "internalType": "uint256",
          "name": "chainID",
          "type": "uint256"
        }
      ],
      "name": "removeSupportToken",
      "outputs": [],
      "stateMutability": "nonpayable",
      "type": "function"
    },
    {
      "inputs": [
        {
          "internalType": "address[]",
          "name": "token0s",
          "type": "address[]"
        },
        {
          "internalType": "uint256[]",
          "name": "chainIDs",
          "type": "uint256[]"
        }
      ],
      "name": "removeSupportTokens",
      "outputs": [],
      "stateMutability": "nonpayable",
      "type": "function"
    },
    {
      "inputs": [
        {
          "internalType": "bytes32",
          "name": "role",
          "type": "bytes32"
        },
        {
          "internalType": "address",
          "name": "account",
          "type": "address"
        }
      ],
      "name": "renounceRole",
      "outputs": [],
      "stateMutability": "nonpayable",
      "type": "function"
    },
    {
      "inputs": [
        {
          "internalType": "bytes32",
          "name": "role",
          "type": "bytes32"
        },
        {
          "internalType": "address",
          "name": "account",
          "type": "address"
        }
      ],
      "name": "revokeRole",
      "outputs": [],
      "stateMutability": "nonpayable",
      "type": "function"
    },
    {
      "inputs": [
        {
          "internalType": "address",
          "name": "token0",
          "type": "address"
        },
        {
          "internalType": "uint256",
          "name": "chainID",
          "type": "uint256"
        },
        {
          "internalType": "address",
          "name": "from",
          "type": "address"
        },
        {
          "internalType": "uint256",
          "name": "amount",
          "type": "uint256"
        },
        {
          "internalType": "string",
          "name": "txid",
          "type": "string"
        }
      ],
      "name": "rollback",
      "outputs": [],
      "stateMutability": "nonpayable",
      "type": "function"
    },
    {
      "inputs": [
        {
          "internalType": "address",
          "name": "token0",
          "type": "address"
        },
        {
          "internalType": "uint256",
          "name": "chainID",
          "type": "uint256"
        },
        {
          "internalType": "uint256",
          "name": "feeAmount",
          "type": "uint256"
        },
        {
          "internalType": "uint256",
          "name": "feeRatio",
          "type": "uint256"
        }
      ],
      "name": "setFee",
      "outputs": [],
      "stateMutability": "nonpayable",
      "type": "function"
    },
    {
      "inputs": [
        {
          "internalType": "address",
          "name": "account",
          "type": "address"
        }
      ],
      "name": "setFeeToDev",
      "outputs": [],
      "stateMutability": "nonpayable",
      "type": "function"
    },
    {
      "inputs": [
        {
          "internalType": "address",
          "name": "token0",
          "type": "address"
        },
        {
          "internalType": "uint256",
          "name": "chainID",
          "type": "uint256"
        },
        {
          "internalType": "uint256",
          "name": "_feeAmount",
          "type": "uint256"
        }
      ],
      "name": "setRemoveFee",
      "outputs": [],
      "stateMutability": "nonpayable",
      "type": "function"
    },
    {
      "inputs": [
        {
          "internalType": "address",
          "name": "token",
          "type": "address"
        },
        {
          "internalType": "uint256",
          "name": "_threshold",
          "type": "uint256"
        }
      ],
      "name": "setThreshold",
      "outputs": [],
      "stateMutability": "nonpayable",
      "type": "function"
    },
    {
      "inputs": [
        {
          "internalType": "address",
          "name": "",
          "type": "address"
        },
        {
          "internalType": "uint256",
          "name": "",
          "type": "uint256"
        }
      ],
      "name": "supportToken",
      "outputs": [
        {
          "internalType": "address",
          "name": "",
          "type": "address"
        }
      ],
      "stateMutability": "view",
      "type": "function"
    },
    {
      "inputs": [
        {
          "internalType": "bytes4",
          "name": "interfaceId",
          "type": "bytes4"
        }
      ],
      "name": "supportsInterface",
      "outputs": [
        {
          "internalType": "bool",
          "name": "",
          "type": "bool"
        }
      ],
      "stateMutability": "view",
      "type": "function"
    },
    {
      "inputs": [
        {
          "internalType": "address",
          "name": "",
          "type": "address"
        }
      ],
      "name": "threshold",
      "outputs": [
        {
          "internalType": "uint256",
          "name": "",
          "type": "uint256"
        }
      ],
      "stateMutability": "view",
      "type": "function"
    },
    {
      "inputs": [
        {
          "internalType": "string",
          "name": "",
          "type": "string"
        }
      ],
      "name": "txMinted",
      "outputs": [
        {
          "internalType": "bool",
          "name": "",
          "type": "bool"
        }
      ],
      "stateMutability": "view",
      "type": "function"
    },
    {
      "inputs": [
        {
          "internalType": "string",
          "name": "",
          "type": "string"
        }
      ],
      "name": "txRollbacked",
      "outputs": [
        {
          "internalType": "bool",
          "name": "",
          "type": "bool"
        }
      ],
      "stateMutability": "view",
      "type": "function"
    },
    {
      "inputs": [
        {
          "internalType": "string",
          "name": "",
          "type": "string"
        }
      ],
      "name": "txUnlocked",
      "outputs": [
        {
          "internalType": "bool",
          "name": "",
          "type": "bool"
        }
      ],
      "stateMutability": "view",
      "type": "function"
    },
    {
      "inputs": [
        {
          "internalType": "address",
          "name": "token0",
          "type": "address"
        },
        {
          "internalType": "uint256",
          "name": "chainID",
          "type": "uint256"
        },
        {
          "internalType": "address",
          "name": "from",
          "type": "address"
        },
        {
          "internalType": "address",
          "name": "to",
          "type": "address"
        },
        {
          "internalType": "uint256",
          "name": "amount",
          "type": "uint256"
        },
        {
          "internalType": "string",
          "name": "txid",
          "type": "string"
        }
      ],
      "name": "unlock",
      "outputs": [],
      "stateMutability": "nonpayable",
      "type": "function"
    }
  ],
  "transactionHash": "0xb528a4d5465a74f127da79019be9b9694f8b51feef3b2c2eab80f4fab6a38ae8",
  "args": [
    "0x2353178C6c05378812f024A783541857634A1e82"
  ],
  "solcInputHash": "0593b07f0b530027b98268e6acc2a7ec",
  "bytecode": "0x60806040523480156200001157600080fd5b506040516200322338038062003223833981016040819052620000349162000117565b600980546001600160a01b0319166001600160a01b0383161790556200005c60003362000063565b5062000147565b6200006f828262000073565b5050565b60008281526004602090815260408083206001600160a01b038516845290915290205460ff166200006f5760008281526004602090815260408083206001600160a01b03851684529091529020805460ff19166001179055620000d33390565b6001600160a01b0316816001600160a01b0316837f2f8788117e7eff1d82e926ec794901d17c78024a50270940304540a733656f0d60405160405180910390a45050565b60006020828403121562000129578081fd5b81516001600160a01b038116811462000140578182fd5b9392505050565b6130cc80620001576000396000f3fe608060405234801561001057600080fd5b506004361061023d5760003560e01c80638fed0b2c1161013b578063c369c773116100b8578063db697be41161007c578063db697be41461063e578063df7e600a14610672578063ee8a6acf14610685578063f06410f814610698578063f8f8d5c0146106ab57600080fd5b8063c369c77314610598578063c86ec2bf146105c4578063cf28f67c146105e4578063d547741f146105f7578063d692f4c51461060a57600080fd5b80639d879990116100ff5780639d87999014610544578063a217fddf14610557578063a5597a941461055f578063b5acfa6214610572578063be90c71b1461058557600080fd5b80638fed0b2c1461049d57806391d14854146104c5578063934ac707146104d8578063967145af146104eb5780639c8d70be1461051957600080fd5b80632599c037116101c957806356ecaeb71161018d57806356ecaeb71461040e5780635cb0c1fb14610421578063640789431461044c578063715ec45c1461047757806381660f5d1461048a57600080fd5b80632599c037146103915780632f2ff15d146103a457806336568abe146103b757806353ad72e5146103ca57806356cf02d9146103f857600080fd5b8063100be3bd11610210578063100be3bd146102f957806310c274021461030c57806312fef6921461033a5780631b322be41461035b578063248a9ca31461036e57600080fd5b806301ffc9a7146102425780630324ef9c1461026a57806303507ba51461029857806303d40513146102ad575b600080fd5b610255610250366004612ae3565b6106be565b60405190151581526020015b60405180910390f35b61027d6102783660046128ec565b6106f5565b60408051938452602084019290925290820152606001610261565b6102ab6102a6366004612a1f565b61075b565b005b6102e16102bb366004612791565b600e6020908152600092835260408084209091529082529020546001600160a01b031681565b6040516001600160a01b039091168152602001610261565b6009546102e1906001600160a01b031681565b61025561031a366004612b0b565b8051602081830181018051600b8252928201919093012091525460ff1681565b61034d61034836600461291e565b610800565b604051908152602001610261565b6102ab610369366004612756565b610904565b61034d61037c366004612aa0565b60009081526004602052604090206001015490565b6102ab61039f366004612791565b6109d6565b6102ab6103b2366004612ab8565b610a98565b6102ab6103c5366004612ab8565b610abe565b6102556103d8366004612b0b565b8051602081830181018051600d8252928201919093012091525460ff1681565b61034d6b43524f535345525f524f4c4560a01b81565b61034d61041c366004612791565b610b3c565b61034d61042f366004612791565b600760209081526000928352604080842090915290825290205481565b61034d61045a366004612791565b600560209081526000928352604080842090915290825290205481565b6102ab6104853660046127ba565b610bde565b6102ab61049836600461287c565b610d97565b6104b06104ab36600461291e565b610f21565b60408051928352602083019190915201610261565b6102556104d3366004612ab8565b6111ba565b61034d6104e6366004612791565b6111e5565b6102556104f9366004612b0b565b8051602081830181018051600c8252928201919093012091525460ff1681565b61034d610527366004612791565b600660209081526000928352604080842090915290825290205481565b6102ab610552366004612791565b611287565b61034d600081565b6102ab61056d3660046128ec565b6112b8565b6102ab610580366004612756565b611306565b6104b06105933660046128ec565b6113d8565b6102ab6105a636600461273c565b600980546001600160a01b0319166001600160a01b03831617905550565b61034d6105d236600461273c565b60006020819052908152604090205481565b6102ab6105f23660046127ba565b611479565b6102ab610605366004612ab8565b6116c8565b6102e1610618366004612791565b600a6020908152600092835260408084209091529082529020546001600160a01b031681565b6102e161064c366004612791565b60086020908152600092835260408084209091529082529020546001600160a01b031681565b6102ab610680366004612839565b6116ee565b6102ab61069336600461299b565b61199d565b6102ab6106a6366004612963565b611ab3565b6102ab6106b9366004612791565b611ae6565b60006001600160e01b03198216637965db0b60e01b14806106ef57506301ffc9a760e01b6001600160e01b03198316145b92915050565b6001600160a01b03831660008181526005602090815260408083208684528252808320549383526006825280832086845290915281205481906107388582611bb2565b9250826107458587612ff5565b61074f9190612ff5565b91505093509350939050565b80518251146107855760405162461bcd60e51b815260040161077c90612d78565b60405180910390fd5b60005b82518110156107fb576107e98382815181106107b457634e487b7160e01b600052603260045260246000fd5b60200260200101518383815181106107dc57634e487b7160e01b600052603260045260246000fd5b6020026020010151611ae6565b806107f38161304f565b915050610788565b505050565b6001600160a01b038085166000908152600a60209081526040808320878452909152812054909186918691166108485760405162461bcd60e51b815260040161077c90612e27565b6001600160a01b038088166000818152600e602090815260408083208b84529091529020549091169061087d90338389611bdb565b6040516335313c2160e11b81526001600160a01b038681166004830152821690636a62784290602401602060405180830381600087803b1580156108c057600080fd5b505af11580156108d4573d6000803e3d6000fd5b505050506040513d601f19601f820116820180604052508101906108f89190612b3e565b98975050505050505050565b61090f6000336111ba565b61092b5760405162461bcd60e51b815260040161077c90612df0565b6001600160a01b038381166000908152600a60209081526040808320858452909152902054161561099e5760405162461bcd60e51b815260206004820152601e60248201527f54776f5761793a20546f6b6520616c726561647920537570706f727465640000604482015260640161077c565b6001600160a01b039283166000908152600a602090815260408083209383529290522080546001600160a01b03191691909216179055565b6109e16000336111ba565b6109fd5760405162461bcd60e51b815260040161077c90612df0565b6001600160a01b038281166000908152600e6020908152604080832085845290915290205416610a655760405162461bcd60e51b81526020600482015260136024820152721d1bdad95b881b9bdd081cdd5c1c1bdc9d1959606a1b604482015260640161077c565b6001600160a01b039091166000908152600e602090815260408083209383529290522080546001600160a01b0319169055565b600082815260046020526040902060010154610ab48133611c46565b6107fb8383611caa565b6001600160a01b0381163314610b2e5760405162461bcd60e51b815260206004820152602f60248201527f416363657373436f6e74726f6c3a2063616e206f6e6c792072656e6f756e636560448201526e103937b632b9903337b91039b2b63360891b606482015260840161077c565b610b388282611d30565b5050565b6001600160a01b038083166000908152600e60209081526040808320858452909152808220548151630240bc6b60e21b815282519394919091169284928492630902f1ac9260048083019392829003018186803b158015610b9c57600080fd5b505afa158015610bb0573d6000803e3d6000fd5b505050506040513d601f19601f82011682018060405250810190610bd49190612b56565b9695505050505050565b6001600160a01b038087166000908152600a602090815260408083208984529091529020548791879116610c245760405162461bcd60e51b815260040161077c90612e27565b610c3d6b43524f535345525f524f4c4560a01b336111ba565b610c595760405162461bcd60e51b815260040161077c90612db9565b82600c81604051610c6a9190612bfe565b9081526040519081900360200190205460ff1615610cc05760405162461bcd60e51b8152602060048201526013602482015272151ddbd5d85e4e881d1e081d5b9b1bd8dad959606a1b604482015260640161077c565b6000610ccf8a89898989611d97565b90508015610d8b576001600c86604051610ce99190612bfe565b908152604051908190036020019020805491151560ff19909216919091179055610d1d6001600160a01b038b16888861201f565b6001600160a01b03808b166000908152600a602090815260408083208d8452909152908190205490517fe8a9cddb11d86358ad5c2fdd6359f0a6f41de0d399033319becf1364409dacbc92610d82928e9291169046908e908e908e908e908e90612d04565b60405180910390a15b50505050505050505050565b6001600160a01b038086166000908152600a602090815260408083208884529091529020548691869116610ddd5760405162461bcd60e51b815260040161077c90612e27565b610df66b43524f535345525f524f4c4560a01b336111ba565b610e125760405162461bcd60e51b815260040161077c90612db9565b82600d81604051610e239190612bfe565b9081526040519081900360200190205460ff1615610e7b5760405162461bcd60e51b8152602060048201526015602482015274151ddbd5d85e4e881d1e081c9bdb1b189858dad959605a1b604482015260640161077c565b6000610e8a8988898989611d97565b90508015610f16576001600d86604051610ea49190612bfe565b908152604051908190036020019020805491151560ff19909216919091179055610ed86001600160a01b038a16888861201f565b7f9420db1a0c5e4f45cc0dac05f17e8eb893645981e3c01e8d14120353a487d9e989888888604051610f0d9493929190612c8f565b60405180910390a15b505050505050505050565b6001600160a01b038085166000908152600a60209081526040808320878452909152812054909182918791879116610f6b5760405162461bcd60e51b815260040161077c90612e27565b60008611610fa55760405162461bcd60e51b815260206004820152600760248201526607a65726f206c760cc1b604482015260640161077c565b6001600160a01b038881166000908152600e602090815260408083208b84529091528082205490516370a0823160e01b815233600482015292169182906370a082319060240160206040518083038186803b15801561100357600080fd5b505afa158015611017573d6000803e3d6000fd5b505050506040513d601f19601f8201168201806040525081019061103b9190612b3e565b90508781101561107d5760405162461bcd60e51b815260206004820152600d60248201526c04e6f7420656e6f756768206c7609c1b604482015260640161077c565b6001600160a01b03808b1660009081526007602090815260408083208d84529091529081902054600954915163779afa3760e01b81523360048201528a84166024820152604481018c90529183166064830152608482018190529184169063779afa379060a4016040805180830381600087803b1580156110fd57600080fd5b505af1158015611111573d6000803e3d6000fd5b505050506040513d601f19601f820116820180604052508101906111359190612b56565b909750955085156111ac576001600160a01b03808c166000908152600a602090815260408083208e8452909152908190205490517f79aee25f54411be6ea1ab53c9d3cc3e245c301d481091deda6343da926932c0c926111a3928f9291169046908f9033908f908e90612cc2565b60405180910390a15b505050505094509492505050565b60009182526004602090815260408084206001600160a01b0393909316845291905290205460ff1690565b6001600160a01b038083166000908152600e60209081526040808320858452909152808220548151630240bc6b60e21b815282519394919091169284928492630902f1ac9260048083019392829003018186803b15801561124557600080fd5b505afa158015611259573d6000803e3d6000fd5b505050506040513d601f19601f8201168201806040525081019061127d9190612b56565b5095945050505050565b6112926000336111ba565b6112ae5760405162461bcd60e51b815260040161077c90612df0565b610b38828261204f565b6112c36000336111ba565b6112df5760405162461bcd60e51b815260040161077c90612df0565b6001600160a01b039290921660009081526007602090815260408083209383529290522055565b6113116000336111ba565b61132d5760405162461bcd60e51b815260040161077c90612df0565b6001600160a01b038381166000908152600e6020908152604080832085845290915290205416156113a05760405162461bcd60e51b815260206004820152601760248201527f746f6b656e20616c726561647920737570706f72746564000000000000000000604482015260640161077c565b6001600160a01b039283166000908152600e602090815260408083209383529290522080546001600160a01b03191691909216179055565b6001600160a01b03831660009081526007602090815260408083208584529091528120548190831161143f5760405162461bcd60e51b815260206004820152601060248201526f3737ba1032b737bab3b4103a37b5b2b760811b604482015260640161077c565b6001600160a01b0385166000908152600760209081526040808320878452909152902054915061146f8284612ff5565b9050935093915050565b6114926b43524f535345525f524f4c4560a01b336111ba565b6114ae5760405162461bcd60e51b815260040161077c90612db9565b80600b816040516114bf9190612bfe565b9081526040519081900360200190205460ff16156115135760405162461bcd60e51b8152602060048201526011602482015270151ddbd5d85e4e881d1e081b5a5b9d1959607a1b604482015260640161077c565b60006115228887878787611d97565b905080156116be576001600b8460405161153c9190612bfe565b9081526040805160209281900383019020805460ff1916931515939093179092556001600160a01b038a81166000908152600e83528381208b825290925291812054909116908061158e8b8b896106f5565b9250509150600061159f8c8c6111e5565b90508088111561163c577f56a316ee63540abb5f8fd44be7a6eb2016a90fc9bb3a34ffe13948a44c49a6168c600a60008f6001600160a01b03166001600160a01b0316815260200190815260200160002060008e815260200190815260200160002060009054906101000a90046001600160a01b0316468e8e8e8e8e60405161162f989796959493929190612d04565b60405180910390a16116b9565b600954604051637d01538560e11b81526001600160a01b038b81166004830152602482018b9052604482018690526064820185905291821660848201529085169063fa02a70a9060a401600060405180830381600087803b1580156116a057600080fd5b505af11580156116b4573d6000803e3d6000fd5b505050505b505050505b5050505050505050565b6000828152600460205260409020600101546116e48133611c46565b6107fb8383611d30565b6001600160a01b038085166000908152600a6020908152604080832087845290915290205485918591166117345760405162461bcd60e51b815260040161077c90612e27565b600083116117925760405162461bcd60e51b815260206004820152602560248201527f54776f5761793a20616d6f756e74206d75737420626520677265617465722074604482015264068616e20360dc1b606482015260840161077c565b6001600160a01b0384166117de5760405162461bcd60e51b815260206004820152601360248201527254776f5761793a20746f20697320656d70747960681b604482015260640161077c565b6001600160a01b038087166000908152600e60209081526040808320898452909152812054909116906118118888610b3c565b9050600061181f86836120b3565b905080156119095761183c6001600160a01b038a16338584611bdb565b60405163086cba5760e11b81526001600160a01b038881166004830152602482018390528416906310d974ae90604401600060405180830381600087803b15801561188657600080fd5b505af115801561189a573d6000803e3d6000fd5b5050506001600160a01b03808b166000908152600a602090815260408083208d8452909152908190205490517f79aee25f54411be6ea1ab53c9d3cc3e245c301d481091deda6343da926932c0c9350611900928d92169046908d9033908e908990612cc2565b60405180910390a15b81861115610f16576119323330611920848a612ff5565b6001600160a01b038d16929190611bdb565b6001600160a01b03808a166000908152600a602090815260408083208c84529091529020547f7cb5e2d54d5587c3a3448631884061009b0e2c30e37922a4dd4aed50e11dd7f3918b9116468b338c61198a888e612ff5565b604051610f0d9796959493929190612cc2565b81518351146119ee5760405162461bcd60e51b815260206004820152601e60248201527f54776f5761793a20746f6b656e206c656e677468206e6f74206d617463680000604482015260640161077c565b8051835114611a0f5760405162461bcd60e51b815260040161077c90612d78565b60005b8351811015611aad57611a9b848281518110611a3e57634e487b7160e01b600052603260045260246000fd5b6020026020010151848381518110611a6657634e487b7160e01b600052603260045260246000fd5b6020026020010151848481518110611a8e57634e487b7160e01b600052603260045260246000fd5b6020026020010151610904565b80611aa58161304f565b915050611a12565b50505050565b611abe6000336111ba565b611ada5760405162461bcd60e51b815260040161077c90612df0565b611aad848484846120c9565b611af16000336111ba565b611b0d5760405162461bcd60e51b815260040161077c90612df0565b6001600160a01b038281166000908152600a6020908152604080832085845290915290205416611b7f5760405162461bcd60e51b815260206004820152601a60248201527f54776f5761793a20746f6b65206e6f7420737570706f72746564000000000000604482015260640161077c565b6001600160a01b039091166000908152600a602090815260408083209383529290522080546001600160a01b0319169055565b6000611bc06012600a612f2e565b611bca848461219e565b611bd49190612ecb565b9392505050565b6040516001600160a01b0380851660248301528316604482015260648101829052611aad9085906323b872dd60e01b906084015b60408051601f198184030181529190526020810180516001600160e01b03166001600160e01b0319909316929092179091526121aa565b611c5082826111ba565b610b3857611c68816001600160a01b0316601461227c565b611c7383602061227c565b604051602001611c84929190612c1a565b60408051601f198184030181529082905262461bcd60e51b825261077c91600401612d65565b611cb482826111ba565b610b385760008281526004602090815260408083206001600160a01b03851684529091529020805460ff19166001179055611cec3390565b6001600160a01b0316816001600160a01b0316837f2f8788117e7eff1d82e926ec794901d17c78024a50270940304540a733656f0d60405160405180910390a45050565b611d3a82826111ba565b15610b385760008281526004602090815260408083206001600160a01b0385168085529252808320805460ff1916905551339285917ff6391f5c32d9c69d2a47ea670b442974b53935d1edc7fd64eb21e047a839171b9190a45050565b6001600160a01b038516600090815260208190526040812054611e155760405162461bcd60e51b815260206004820152603060248201527f50726f706f73616c566f74653a207468726573686f6c642073686f756c64206260448201526f0652067726561746572207468616e20360841b606482015260840161077c565b6001600160a01b038616600090815260208181526040808320549051909291611e48918a918a918a918a918a9101612ba5565b60408051601f1981840301815291815281516020928301206000818152600190935291205490915060ff1615611ec05760405162461bcd60e51b815260206004820152601860248201527f5f766f74653a3a70726f706f73616c2066696e69736865640000000000000000604482015260640161077c565b600081815260026020908152604080832033845290915290205460ff1615611f2a5760405162461bcd60e51b815260206004820152601760248201527f5f766f74653a3a6d73672e73656e64657220766f746564000000000000000000604482015260640161077c565b600081815260036020526040902054611f4490600161245e565b60008281526003602081815260408084209485556002825280842033855282528320805460ff19166001179055918490529052548211611f9c576000818152600160208190526040909120805460ff19168217905592505b6000818152600360209081526040918290205482516001600160a01b038c811682528b811693820193909352918916828401526060820188905233608083015260a082015260c0810184905290517fe458477b94285c9f254a407e2614c39f55230b527ff7f51d76fdf33e251ae9369181900360e00190a1505095945050505050565b6040516001600160a01b0383166024820152604481018290526107fb90849063a9059cbb60e01b90606401611c0f565b6001600160a01b038216600081815260208181526040918290208054908590558251938452908301819052908201839052907fb18e91516e037486aa6fa38f56a8aac933fd127180efe9c9745ecbf660a78e449060600160405180910390a1505050565b60008183106120c25781611bd4565b5090919050565b670de0b6b3a76400008111156121195760405162461bcd60e51b8152602060048201526015602482015274199959481c985d1a5bc81b9bdd0818dbdc9c9958dd605a1b604482015260640161077c565b6001600160a01b0384166000818152600560209081526040808320878452825280832086905583835260068252808320878452825291829020849055815192835282018590528101839052606081018290527fe7de0268825882caac9be515100046b260e4bb88ef28dcf7e4d99a3b9b7537829060800160405180910390a150505050565b6000611bd48284612fd6565b60006121ff826040518060400160405280602081526020017f5361666545524332303a206c6f772d6c6576656c2063616c6c206661696c6564815250856001600160a01b031661246a9092919063ffffffff16565b8051909150156107fb578080602001905181019061221d9190612a80565b6107fb5760405162461bcd60e51b815260206004820152602a60248201527f5361666545524332303a204552433230206f7065726174696f6e20646964206e6044820152691bdd081cdd58d8d9595960b21b606482015260840161077c565b6060600061228b836002612fd6565b612296906002612eb3565b67ffffffffffffffff8111156122bc57634e487b7160e01b600052604160045260246000fd5b6040519080825280601f01601f1916602001820160405280156122e6576020820181803683370190505b509050600360fc1b8160008151811061230f57634e487b7160e01b600052603260045260246000fd5b60200101906001600160f81b031916908160001a905350600f60fb1b8160018151811061234c57634e487b7160e01b600052603260045260246000fd5b60200101906001600160f81b031916908160001a9053506000612370846002612fd6565b61237b906001612eb3565b90505b600181111561240f576f181899199a1a9b1b9c1cb0b131b232b360811b85600f16601081106123bd57634e487b7160e01b600052603260045260246000fd5b1a60f81b8282815181106123e157634e487b7160e01b600052603260045260246000fd5b60200101906001600160f81b031916908160001a90535060049490941c9361240881613038565b905061237e565b508315611bd45760405162461bcd60e51b815260206004820181905260248201527f537472696e67733a20686578206c656e67746820696e73756666696369656e74604482015260640161077c565b6000611bd48284612eb3565b60606124798484600085612481565b949350505050565b6060824710156124e25760405162461bcd60e51b815260206004820152602660248201527f416464726573733a20696e73756666696369656e742062616c616e636520666f6044820152651c8818d85b1b60d21b606482015260840161077c565b843b6125305760405162461bcd60e51b815260206004820152601d60248201527f416464726573733a2063616c6c20746f206e6f6e2d636f6e7472616374000000604482015260640161077c565b600080866001600160a01b0316858760405161254c9190612bfe565b60006040518083038185875af1925050503d8060008114612589576040519150601f19603f3d011682016040523d82523d6000602084013e61258e565b606091505b509150915061259e8282866125a9565b979650505050505050565b606083156125b8575081611bd4565b8251156125c85782518084602001fd5b8160405162461bcd60e51b815260040161077c9190612d65565b80356001600160a01b03811681146125f957600080fd5b919050565b600082601f83011261260e578081fd5b8135602061262361261e83612e8f565b612e5e565b80838252828201915082860187848660051b8901011115612642578586fd5b855b8581101561266757612655826125e2565b84529284019290840190600101612644565b5090979650505050505050565b600082601f830112612684578081fd5b8135602061269461261e83612e8f565b80838252828201915082860187848660051b89010111156126b3578586fd5b855b85811015612667578135845292840192908401906001016126b5565b600082601f8301126126e1578081fd5b813567ffffffffffffffff8111156126fb576126fb613080565b61270e601f8201601f1916602001612e5e565b818152846020838601011115612722578283fd5b816020850160208301379081016020019190915292915050565b60006020828403121561274d578081fd5b611bd4826125e2565b60008060006060848603121561276a578182fd5b612773846125e2565b9250612781602085016125e2565b9150604084013590509250925092565b600080604083850312156127a3578182fd5b6127ac836125e2565b946020939093013593505050565b60008060008060008060c087890312156127d2578182fd5b6127db876125e2565b9550602087013594506127f0604088016125e2565b93506127fe606088016125e2565b92506080870135915060a087013567ffffffffffffffff811115612820578182fd5b61282c89828a016126d1565b9150509295509295509295565b6000806000806080858703121561284e578384fd5b612857856125e2565b93506020850135925061286c604086016125e2565b9396929550929360600135925050565b600080600080600060a08688031215612893578081fd5b61289c866125e2565b9450602086013593506128b1604087016125e2565b925060608601359150608086013567ffffffffffffffff8111156128d3578182fd5b6128df888289016126d1565b9150509295509295909350565b600080600060608486031215612900578283fd5b612909846125e2565b95602085013595506040909401359392505050565b60008060008060808587031215612933578182fd5b61293c856125e2565b93506020850135925060408501359150612958606086016125e2565b905092959194509250565b60008060008060808587031215612978578182fd5b612981856125e2565b966020860135965060408601359560600135945092505050565b6000806000606084860312156129af578081fd5b833567ffffffffffffffff808211156129c6578283fd5b6129d2878388016125fe565b945060208601359150808211156129e7578283fd5b6129f3878388016125fe565b93506040860135915080821115612a08578283fd5b50612a1586828701612674565b9150509250925092565b60008060408385031215612a31578182fd5b823567ffffffffffffffff80821115612a48578384fd5b612a54868387016125fe565b93506020850135915080821115612a69578283fd5b50612a7685828601612674565b9150509250929050565b600060208284031215612a91578081fd5b81518015158114611bd4578182fd5b600060208284031215612ab1578081fd5b5035919050565b60008060408385031215612aca578182fd5b82359150612ada602084016125e2565b90509250929050565b600060208284031215612af4578081fd5b81356001600160e01b031981168114611bd4578182fd5b600060208284031215612b1c578081fd5b813567ffffffffffffffff811115612b32578182fd5b612479848285016126d1565b600060208284031215612b4f578081fd5b5051919050565b60008060408385031215612b68578182fd5b505080516020909101519092909150565b60008151808452612b9181602086016020860161300c565b601f01601f19169290920160200192915050565b60006bffffffffffffffffffffffff19808860601b168352808760601b166014840152808660601b1660288401525083603c8301528251612bed81605c85016020870161300c565b91909101605c019695505050505050565b60008251612c1081846020870161300c565b9190910192915050565b7f416363657373436f6e74726f6c3a206163636f756e7420000000000000000000815260008351612c5281601785016020880161300c565b7001034b99036b4b9b9b4b733903937b6329607d1b6017918401918201528351612c8381602884016020880161300c565b01602801949350505050565b6001600160a01b0385811682528416602082015260408101839052608060608201819052600090610bd490830184612b79565b6001600160a01b0397881681529587166020870152604086019490945260608501929092528416608084015290921660a082015260c081019190915260e00190565b6001600160a01b038981168252888116602083015260408201889052606082018790528581166080830152841660a082015260c0810183905261010060e08201819052600090612d5683820185612b79565b9b9a5050505050505050505050565b602081526000611bd46020830184612b79565b60208082526021908201527f54776f5761793a20636861696e494473206c656e677468206e6f74206d6174636040820152600d60fb1b606082015260800190565b6020808252601d908201527f54776f5761793a2063616c6c6572206973206e6f742063726f73736572000000604082015260600190565b6020808252601b908201527f54776f5761793a2063616c6c6572206973206e6f742061646d696e0000000000604082015260600190565b6020808252601e908201527f54776f5761793a206e6f7420737570706f7274207468697320746f6b656e0000604082015260600190565b604051601f8201601f1916810167ffffffffffffffff81118282101715612e8757612e87613080565b604052919050565b600067ffffffffffffffff821115612ea957612ea9613080565b5060051b60200190565b60008219821115612ec657612ec661306a565b500190565b600082612ee657634e487b7160e01b81526012600452602481fd5b500490565b600181815b80851115612f26578160001904821115612f0c57612f0c61306a565b80851615612f1957918102915b93841c9390800290612ef0565b509250929050565b6000611bd48383600082612f44575060016106ef565b81612f51575060006106ef565b8160018114612f675760028114612f7157612f8d565b60019150506106ef565b60ff841115612f8257612f8261306a565b50506001821b6106ef565b5060208310610133831016604e8410600b8410161715612fb0575081810a6106ef565b612fba8383612eeb565b8060001904821115612fce57612fce61306a565b029392505050565b6000816000190483118215151615612ff057612ff061306a565b500290565b6000828210156130075761300761306a565b500390565b60005b8381101561302757818101518382015260200161300f565b83811115611aad5750506000910152565b6000816130475761304761306a565b506000190190565b60006000198214156130635761306361306a565b5060010190565b634e487b7160e01b600052601160045260246000fd5b634e487b7160e01b600052604160045260246000fdfea26469706673582212205f732d04601450f73153f59f7dbfc78f9d94355858cea27765ec43cc180a3b8b64736f6c63430008040033",
  "devdoc": {
    "kind": "dev",
    "methods": {
      "getRoleAdmin(bytes32)": {
        "details": "Returns the admin role that controls `role`. See {grantRole} and {revokeRole}. To change a role's admin, use {_setRoleAdmin}."
      },
      "grantRole(bytes32,address)": {
        "details": "Grants `role` to `account`. If `account` had not been already granted `role`, emits a {RoleGranted} event. Requirements: - the caller must have ``role``'s admin role."
      },
      "hasRole(bytes32,address)": {
        "details": "Returns `true` if `account` has been granted `role`."
      },
      "renounceRole(bytes32,address)": {
        "details": "Revokes `role` from the calling account. Roles are often managed via {grantRole} and {revokeRole}: this function's purpose is to provide a mechanism for accounts to lose their privileges if they are compromised (such as when a trusted device is misplaced). If the calling account had been granted `role`, emits a {RoleRevoked} event. Requirements: - the caller must be `account`."
      },
      "revokeRole(bytes32,address)": {
        "details": "Revokes `role` from `account`. If `account` had been granted `role`, emits a {RoleRevoked} event. Requirements: - the caller must have ``role``'s admin role."
      },
      "supportsInterface(bytes4)": {
        "details": "See {IERC165-supportsInterface}."
      }
    },
    "version": 1
  },
  "userdoc": {
    "kind": "user",
    "methods": {},
    "version": 1
  },
  "storageLayout": {
    "storage": [
      {
        "astId": 6047,
        "contract": "contracts/twoway/TwoWay.sol:TwoWay",
        "label": "threshold",
        "offset": 0,
        "slot": "0",
        "type": "t_mapping(t_address,t_uint256)"
      },
      {
        "astId": 6051,
        "contract": "contracts/twoway/TwoWay.sol:TwoWay",
        "label": "isFinished",
        "offset": 0,
        "slot": "1",
        "type": "t_mapping(t_bytes32,t_bool)"
      },
      {
        "astId": 6057,
        "contract": "contracts/twoway/TwoWay.sol:TwoWay",
        "label": "isVoted",
        "offset": 0,
        "slot": "2",
        "type": "t_mapping(t_bytes32,t_mapping(t_address,t_bool))"
      },
      {
        "astId": 6061,
        "contract": "contracts/twoway/TwoWay.sol:TwoWay",
        "label": "counter",
        "offset": 0,
        "slot": "3",
        "type": "t_mapping(t_bytes32,t_uint256)"
      },
      {
        "astId": 2437,
        "contract": "contracts/twoway/TwoWay.sol:TwoWay",
        "label": "_roles",
        "offset": 0,
        "slot": "4",
        "type": "t_mapping(t_bytes32,t_struct(RoleData)2432_storage)"
      },
      {
        "astId": 9432,
        "contract": "contracts/twoway/TwoWay.sol:TwoWay",
        "label": "feeAmountM",
        "offset": 0,
        "slot": "5",
        "type": "t_mapping(t_address,t_mapping(t_uint256,t_uint256))"
      },
      {
        "astId": 9438,
        "contract": "contracts/twoway/TwoWay.sol:TwoWay",
        "label": "feeRatioM",
        "offset": 0,
        "slot": "6",
        "type": "t_mapping(t_address,t_mapping(t_uint256,t_uint256))"
      },
      {
        "astId": 9444,
        "contract": "contracts/twoway/TwoWay.sol:TwoWay",
        "label": "removeFeeAmount",
        "offset": 0,
        "slot": "7",
        "type": "t_mapping(t_address,t_mapping(t_uint256,t_uint256))"
      },
      {
        "astId": 9450,
        "contract": "contracts/twoway/TwoWay.sol:TwoWay",
        "label": "feeTo",
        "offset": 0,
        "slot": "8",
        "type": "t_mapping(t_address,t_mapping(t_uint256,t_address))"
      },
      {
        "astId": 9452,
        "contract": "contracts/twoway/TwoWay.sol:TwoWay",
        "label": "feeToDev",
        "offset": 0,
        "slot": "9",
        "type": "t_address"
      },
      {
        "astId": 8372,
        "contract": "contracts/twoway/TwoWay.sol:TwoWay",
        "label": "supportToken",
        "offset": 0,
        "slot": "10",
        "type": "t_mapping(t_address,t_mapping(t_uint256,t_address))"
      },
      {
        "astId": 8376,
        "contract": "contracts/twoway/TwoWay.sol:TwoWay",
        "label": "txMinted",
        "offset": 0,
        "slot": "11",
        "type": "t_mapping(t_string_memory_ptr,t_bool)"
      },
      {
        "astId": 8380,
        "contract": "contracts/twoway/TwoWay.sol:TwoWay",
        "label": "txUnlocked",
        "offset": 0,
        "slot": "12",
        "type": "t_mapping(t_string_memory_ptr,t_bool)"
      },
      {
        "astId": 8384,
        "contract": "contracts/twoway/TwoWay.sol:TwoWay",
        "label": "txRollbacked",
        "offset": 0,
        "slot": "13",
        "type": "t_mapping(t_string_memory_ptr,t_bool)"
      },
      {
        "astId": 8390,
        "contract": "contracts/twoway/TwoWay.sol:TwoWay",
        "label": "pairs",
        "offset": 0,
        "slot": "14",
        "type": "t_mapping(t_address,t_mapping(t_uint256,t_address))"
      }
    ],
    "types": {
      "t_address": {
        "encoding": "inplace",
        "label": "address",
        "numberOfBytes": "20"
      },
      "t_bool": {
        "encoding": "inplace",
        "label": "bool",
        "numberOfBytes": "1"
      },
      "t_bytes32": {
        "encoding": "inplace",
        "label": "bytes32",
        "numberOfBytes": "32"
      },
      "t_mapping(t_address,t_bool)": {
        "encoding": "mapping",
        "key": "t_address",
        "label": "mapping(address => bool)",
        "numberOfBytes": "32",
        "value": "t_bool"
      },
      "t_mapping(t_address,t_mapping(t_uint256,t_address))": {
        "encoding": "mapping",
        "key": "t_address",
        "label": "mapping(address => mapping(uint256 => address))",
        "numberOfBytes": "32",
        "value": "t_mapping(t_uint256,t_address)"
      },
      "t_mapping(t_address,t_mapping(t_uint256,t_uint256))": {
        "encoding": "mapping",
        "key": "t_address",
        "label": "mapping(address => mapping(uint256 => uint256))",
        "numberOfBytes": "32",
        "value": "t_mapping(t_uint256,t_uint256)"
      },
      "t_mapping(t_address,t_uint256)": {
        "encoding": "mapping",
        "key": "t_address",
        "label": "mapping(address => uint256)",
        "numberOfBytes": "32",
        "value": "t_uint256"
      },
      "t_mapping(t_bytes32,t_bool)": {
        "encoding": "mapping",
        "key": "t_bytes32",
        "label": "mapping(bytes32 => bool)",
        "numberOfBytes": "32",
        "value": "t_bool"
      },
      "t_mapping(t_bytes32,t_mapping(t_address,t_bool))": {
        "encoding": "mapping",
        "key": "t_bytes32",
        "label": "mapping(bytes32 => mapping(address => bool))",
        "numberOfBytes": "32",
        "value": "t_mapping(t_address,t_bool)"
      },
      "t_mapping(t_bytes32,t_struct(RoleData)2432_storage)": {
        "encoding": "mapping",
        "key": "t_bytes32",
        "label": "mapping(bytes32 => struct AccessControl.RoleData)",
        "numberOfBytes": "32",
        "value": "t_struct(RoleData)2432_storage"
      },
      "t_mapping(t_bytes32,t_uint256)": {
        "encoding": "mapping",
        "key": "t_bytes32",
        "label": "mapping(bytes32 => uint256)",
        "numberOfBytes": "32",
        "value": "t_uint256"
      },
      "t_mapping(t_string_memory_ptr,t_bool)": {
        "encoding": "mapping",
        "key": "t_string_memory_ptr",
        "label": "mapping(string => bool)",
        "numberOfBytes": "32",
        "value": "t_bool"
      },
      "t_mapping(t_uint256,t_address)": {
        "encoding": "mapping",
        "key": "t_uint256",
        "label": "mapping(uint256 => address)",
        "numberOfBytes": "32",
        "value": "t_address"
      },
      "t_mapping(t_uint256,t_uint256)": {
        "encoding": "mapping",
        "key": "t_uint256",
        "label": "mapping(uint256 => uint256)",
        "numberOfBytes": "32",
        "value": "t_uint256"
      },
      "t_string_memory_ptr": {
        "encoding": "bytes",
        "label": "string",
        "numberOfBytes": "32"
      },
      "t_struct(RoleData)2432_storage": {
        "encoding": "inplace",
        "label": "struct AccessControl.RoleData",
        "members": [
          {
            "astId": 2429,
            "contract": "contracts/twoway/TwoWay.sol:TwoWay",
            "label": "members",
            "offset": 0,
            "slot": "0",
            "type": "t_mapping(t_address,t_bool)"
          },
          {
            "astId": 2431,
            "contract": "contracts/twoway/TwoWay.sol:TwoWay",
            "label": "adminRole",
            "offset": 0,
            "slot": "1",
            "type": "t_bytes32"
          }
        ],
        "numberOfBytes": "64"
      },
      "t_uint256": {
        "encoding": "inplace",
        "label": "uint256",
        "numberOfBytes": "32"
      }
    }
  }
}