{
  "address": "0x3f9209B751e97Ea2C9ffd11bf1CA22578c270b7C",
  "abi": [
    {
      "inputs": [
        {
          "internalType": "address",
          "name": "admin",
          "type": "address"
        },
        {
          "internalType": "address",
          "name": "_dispatcher",
          "type": "address"
        },
        {
          "internalType": "contract IERC20",
          "name": "_underToken",
          "type": "address"
        }
      ],
      "stateMutability": "nonpayable",
      "type": "constructor"
    },
    {
      "anonymous": false,
      "inputs": [
        {
          "indexed": true,
          "internalType": "bytes32",
          "name": "role",
          "type": "bytes32"
        },
        {
          "indexed": true,
          "internalType": "bytes32",
          "name": "previousAdminRole",
          "type": "bytes32"
        },
        {
          "indexed": true,
          "internalType": "bytes32",
          "name": "newAdminRole",
          "type": "bytes32"
        }
      ],
      "name": "RoleAdminChanged",
      "type": "event"
    },
    {
      "anonymous": false,
      "inputs": [
        {
          "indexed": true,
          "internalType": "bytes32",
          "name": "role",
          "type": "bytes32"
        },
        {
          "indexed": true,
          "internalType": "address",
          "name": "account",
          "type": "address"
        },
        {
          "indexed": true,
          "internalType": "address",
          "name": "sender",
          "type": "address"
        }
      ],
      "name": "RoleGranted",
      "type": "event"
    },
    {
      "anonymous": false,
      "inputs": [
        {
          "indexed": true,
          "internalType": "bytes32",
          "name": "role",
          "type": "bytes32"
        },
        {
          "indexed": true,
          "internalType": "address",
          "name": "account",
          "type": "address"
        },
        {
          "indexed": true,
          "internalType": "address",
          "name": "sender",
          "type": "address"
        }
      ],
      "name": "RoleRevoked",
      "type": "event"
    },
    {
      "inputs": [],
      "name": "BURNER_ROLE",
      "outputs": [
        {
          "internalType": "bytes32",
          "name": "",
          "type": "bytes32"
        }
      ],
      "stateMutability": "view",
      "type": "function"
    },
    {
      "inputs": [],
      "name": "DEFAULT_ADMIN_ROLE",
      "outputs": [
        {
          "internalType": "bytes32",
          "name": "",
          "type": "bytes32"
        }
      ],
      "stateMutability": "view",
      "type": "function"
    },
    {
      "inputs": [],
      "name": "MINTER_ROLE",
      "outputs": [
        {
          "internalType": "bytes32",
          "name": "",
          "type": "bytes32"
        }
      ],
      "stateMutability": "view",
      "type": "function"
    },
    {
      "inputs": [
        {
          "internalType": "address",
          "name": "to",
          "type": "address"
        },
        {
          "internalType": "uint256",
          "name": "amount",
          "type": "uint256"
        }
      ],
      "name": "burn",
      "outputs": [
        {
          "internalType": "bool",
          "name": "",
          "type": "bool"
        }
      ],
      "stateMutability": "nonpayable",
      "type": "function"
    },
    {
      "inputs": [],
      "name": "dispatcher",
      "outputs": [
        {
          "internalType": "address",
          "name": "",
          "type": "address"
        }
      ],
      "stateMutability": "view",
      "type": "function"
    },
    {
      "inputs": [
        {
          "internalType": "bytes32",
          "name": "role",
          "type": "bytes32"
        }
      ],
      "name": "getRoleAdmin",
      "outputs": [
        {
          "internalType": "bytes32",
          "name": "",
          "type": "bytes32"
        }
      ],
      "stateMutability": "view",
      "type": "function"
    },
    {
      "inputs": [
        {
          "internalType": "bytes32",
          "name": "role",
          "type": "bytes32"
        },
        {
          "internalType": "address",
          "name": "account",
          "type": "address"
        }
      ],
      "name": "grantRole",
      "outputs": [],
      "stateMutability": "nonpayable",
      "type": "function"
    },
    {
      "inputs": [
        {
          "internalType": "bytes32",
          "name": "role",
          "type": "bytes32"
        },
        {
          "internalType": "address",
          "name": "account",
          "type": "address"
        }
      ],
      "name": "hasRole",
      "outputs": [
        {
          "internalType": "bool",
          "name": "",
          "type": "bool"
        }
      ],
      "stateMutability": "view",
      "type": "function"
    },
    {
      "inputs": [
        {
          "internalType": "address",
          "name": "to",
          "type": "address"
        },
        {
          "internalType": "uint256",
          "name": "amount",
          "type": "uint256"
        }
      ],
      "name": "mint",
      "outputs": [
        {
          "internalType": "bool",
          "name": "",
          "type": "bool"
        }
      ],
      "stateMutability": "nonpayable",
      "type": "function"
    },
    {
      "inputs": [
        {
          "internalType": "bytes32",
          "name": "role",
          "type": "bytes32"
        },
        {
          "internalType": "address",
          "name": "account",
          "type": "address"
        }
      ],
      "name": "renounceRole",
      "outputs": [],
      "stateMutability": "nonpayable",
      "type": "function"
    },
    {
      "inputs": [
        {
          "internalType": "bytes32",
          "name": "role",
          "type": "bytes32"
        },
        {
          "internalType": "address",
          "name": "account",
          "type": "address"
        }
      ],
      "name": "revokeRole",
      "outputs": [],
      "stateMutability": "nonpayable",
      "type": "function"
    },
    {
      "inputs": [
        {
          "internalType": "address",
          "name": "_dispatcher",
          "type": "address"
        }
      ],
      "name": "setDispatcher",
      "outputs": [],
      "stateMutability": "nonpayable",
      "type": "function"
    },
    {
      "inputs": [
        {
          "internalType": "bytes4",
          "name": "interfaceId",
          "type": "bytes4"
        }
      ],
      "name": "supportsInterface",
      "outputs": [
        {
          "internalType": "bool",
          "name": "",
          "type": "bool"
        }
      ],
      "stateMutability": "view",
      "type": "function"
    },
    {
      "inputs": [],
      "name": "underToken",
      "outputs": [
        {
          "internalType": "contract IERC20",
          "name": "",
          "type": "address"
        }
      ],
      "stateMutability": "view",
      "type": "function"
    }
  ],
  "transactionHash": "0xff276daac33e9571a4f116fa755c4e3dc8b12ae16571d8255d0b0e88fe32f5f8",
  "args": [
    "0x60E76dC9B7369293B364186EcCad993dE205d228",
    "0x60E76dC9B7369293B364186EcCad993dE205d228",
    "0x938850c1957eb81932974258d2303877fe712c4e"
  ],
  "solcInputHash": "aaba94d99228dec770d56534265acca0",
  "bytecode": "0x60806040526a4d494e5445525f524f4c4560a81b6001556a4255524e45525f524f4c4560a81b60025534801561003457600080fd5b5060405162000ee538038062000ee58339810160408190526100559161013e565b610060600084610092565b600480546001600160a01b039384166001600160a01b03199182161790915560038054929093169116179055506101a2565b61009c82826100a0565b5050565b6000828152602081815260408083206001600160a01b038516845290915290205460ff1661009c576000828152602081815260408083206001600160a01b03851684529091529020805460ff191660011790556100fa3390565b6001600160a01b0316816001600160a01b0316837f2f8788117e7eff1d82e926ec794901d17c78024a50270940304540a733656f0d60405160405180910390a45050565b600080600060608486031215610152578283fd5b835161015d8161018a565b602085015190935061016e8161018a565b604085015190925061017f8161018a565b809150509250925092565b6001600160a01b038116811461019f57600080fd5b50565b610d3380620001b26000396000f3fe608060405234801561001057600080fd5b50600436106100ea5760003560e01c80639dc29fac1161008c578063cb7e905711610066578063cb7e9057146101cd578063d5391393146101f8578063d547741f14610201578063eed33fc21461021457600080fd5b80639dc29fac1461019f578063a217fddf146101b2578063ba22bd76146101ba57600080fd5b80632f2ff15d116100c85780632f2ff15d1461015157806336568abe1461016657806340c10f191461017957806391d148541461018c57600080fd5b806301ffc9a7146100ef578063248a9ca314610117578063282c51f314610148575b600080fd5b6101026100fd366004610b81565b610227565b60405190151581526020015b60405180910390f35b61013a610125366004610b3e565b60009081526020819052604090206001015490565b60405190815260200161010e565b61013a60025481565b61016461015f366004610b56565b61025e565b005b610164610174366004610b56565b610289565b610102610187366004610af5565b61030c565b61010261019a366004610b56565b61038d565b6101026101ad366004610af5565b6103b6565b61013a600081565b6101646101c8366004610adb565b61042f565b6004546101e0906001600160a01b031681565b6040516001600160a01b03909116815260200161010e565b61013a60015481565b61016461020f366004610b56565b6104b9565b6003546101e0906001600160a01b031681565b60006001600160e01b03198216637965db0b60e01b148061025857506301ffc9a760e01b6001600160e01b03198316145b92915050565b60008281526020819052604090206001015461027a81336104df565b6102848383610543565b505050565b6001600160a01b03811633146102fe5760405162461bcd60e51b815260206004820152602f60248201527f416363657373436f6e74726f6c3a2063616e206f6e6c792072656e6f756e636560448201526e103937b632b9903337b91039b2b63360891b60648201526084015b60405180910390fd5b61030882826105c7565b5050565b600061031a6001543361038d565b6103665760405162461bcd60e51b815260206004820152601b60248201527f546f6b656e3a3a63616c6c6572206973206e6f74206d696e746572000000000060448201526064016102f5565b600454600354610384916001600160a01b039182169116858561062c565b50600192915050565b6000918252602082815260408084206001600160a01b0393909316845291905290205460ff1690565b60006103c46002543361038d565b6104105760405162461bcd60e51b815260206004820152601b60248201527f546f6b656e3a3a63616c6c6572206973206e6f74206275726e6572000000000060448201526064016102f5565b600454600354610384916001600160a01b03918216918691168561062c565b61043a60003361038d565b6104975760405162461bcd60e51b815260206004820152602860248201527f57726170546f6b656e3a3a6f6e6c7941646d696e206f6e6c792061646d696e2060448201526718d85b8818d85b1b60c21b60648201526084016102f5565b600480546001600160a01b0319166001600160a01b0392909216919091179055565b6000828152602081905260409020600101546104d581336104df565b61028483836105c7565b6104e9828261038d565b61030857610501816001600160a01b0316601461068c565b61050c83602061068c565b60405160200161051d929190610bc5565b60408051601f198184030181529082905262461bcd60e51b82526102f591600401610c3a565b61054d828261038d565b610308576000828152602081815260408083206001600160a01b03851684529091529020805460ff191660011790556105833390565b6001600160a01b0316816001600160a01b0316837f2f8788117e7eff1d82e926ec794901d17c78024a50270940304540a733656f0d60405160405180910390a45050565b6105d1828261038d565b15610308576000828152602081815260408083206001600160a01b0385168085529252808320805460ff1916905551339285917ff6391f5c32d9c69d2a47ea670b442974b53935d1edc7fd64eb21e047a839171b9190a45050565b604080516001600160a01b0385811660248301528416604482015260648082018490528251808303909101815260849091019091526020810180516001600160e01b03166323b872dd60e01b179052610686908590610875565b50505050565b6060600061069b836002610c85565b6106a6906002610c6d565b67ffffffffffffffff8111156106cc57634e487b7160e01b600052604160045260246000fd5b6040519080825280601f01601f1916602001820160405280156106f6576020820181803683370190505b509050600360fc1b8160008151811061071f57634e487b7160e01b600052603260045260246000fd5b60200101906001600160f81b031916908160001a905350600f60fb1b8160018151811061075c57634e487b7160e01b600052603260045260246000fd5b60200101906001600160f81b031916908160001a9053506000610780846002610c85565b61078b906001610c6d565b90505b600181111561081f576f181899199a1a9b1b9c1cb0b131b232b360811b85600f16601081106107cd57634e487b7160e01b600052603260045260246000fd5b1a60f81b8282815181106107f157634e487b7160e01b600052603260045260246000fd5b60200101906001600160f81b031916908160001a90535060049490941c9361081881610cd0565b905061078e565b50831561086e5760405162461bcd60e51b815260206004820181905260248201527f537472696e67733a20686578206c656e67746820696e73756666696369656e7460448201526064016102f5565b9392505050565b60006108ca826040518060400160405280602081526020017f5361666545524332303a206c6f772d6c6576656c2063616c6c206661696c6564815250856001600160a01b03166109479092919063ffffffff16565b80519091501561028457808060200190518101906108e89190610b1e565b6102845760405162461bcd60e51b815260206004820152602a60248201527f5361666545524332303a204552433230206f7065726174696f6e20646964206e6044820152691bdd081cdd58d8d9595960b21b60648201526084016102f5565b6060610956848460008561095e565b949350505050565b6060824710156109bf5760405162461bcd60e51b815260206004820152602660248201527f416464726573733a20696e73756666696369656e742062616c616e636520666f6044820152651c8818d85b1b60d21b60648201526084016102f5565b843b610a0d5760405162461bcd60e51b815260206004820152601d60248201527f416464726573733a2063616c6c20746f206e6f6e2d636f6e747261637400000060448201526064016102f5565b600080866001600160a01b03168587604051610a299190610ba9565b60006040518083038185875af1925050503d8060008114610a66576040519150601f19603f3d011682016040523d82523d6000602084013e610a6b565b606091505b5091509150610a7b828286610a86565b979650505050505050565b60608315610a9557508161086e565b825115610aa55782518084602001fd5b8160405162461bcd60e51b81526004016102f59190610c3a565b80356001600160a01b0381168114610ad657600080fd5b919050565b600060208284031215610aec578081fd5b61086e82610abf565b60008060408385031215610b07578081fd5b610b1083610abf565b946020939093013593505050565b600060208284031215610b2f578081fd5b8151801515811461086e578182fd5b600060208284031215610b4f578081fd5b5035919050565b60008060408385031215610b68578182fd5b82359150610b7860208401610abf565b90509250929050565b600060208284031215610b92578081fd5b81356001600160e01b03198116811461086e578182fd5b60008251610bbb818460208701610ca4565b9190910192915050565b7f416363657373436f6e74726f6c3a206163636f756e7420000000000000000000815260008351610bfd816017850160208801610ca4565b7001034b99036b4b9b9b4b733903937b6329607d1b6017918401918201528351610c2e816028840160208801610ca4565b01602801949350505050565b6020815260008251806020840152610c59816040850160208701610ca4565b601f01601f19169190910160400192915050565b60008219821115610c8057610c80610ce7565b500190565b6000816000190483118215151615610c9f57610c9f610ce7565b500290565b60005b83811015610cbf578181015183820152602001610ca7565b838111156106865750506000910152565b600081610cdf57610cdf610ce7565b506000190190565b634e487b7160e01b600052601160045260246000fdfea2646970667358221220b318e5070f18e600681fa3729a969833de8d95aa38a83a0a48f98a3c1cbb753a64736f6c63430008040033",
  "devdoc": {
    "kind": "dev",
    "methods": {
      "getRoleAdmin(bytes32)": {
        "details": "Returns the admin role that controls `role`. See {grantRole} and {revokeRole}. To change a role's admin, use {_setRoleAdmin}."
      },
      "grantRole(bytes32,address)": {
        "details": "Grants `role` to `account`. If `account` had not been already granted `role`, emits a {RoleGranted} event. Requirements: - the caller must have ``role``'s admin role."
      },
      "hasRole(bytes32,address)": {
        "details": "Returns `true` if `account` has been granted `role`."
      },
      "renounceRole(bytes32,address)": {
        "details": "Revokes `role` from the calling account. Roles are often managed via {grantRole} and {revokeRole}: this function's purpose is to provide a mechanism for accounts to lose their privileges if they are compromised (such as when a trusted device is misplaced). If the calling account had been granted `role`, emits a {RoleRevoked} event. Requirements: - the caller must be `account`."
      },
      "revokeRole(bytes32,address)": {
        "details": "Revokes `role` from `account`. If `account` had been granted `role`, emits a {RoleRevoked} event. Requirements: - the caller must have ``role``'s admin role."
      },
      "supportsInterface(bytes4)": {
        "details": "See {IERC165-supportsInterface}."
      }
    },
    "version": 1
  },
  "userdoc": {
    "kind": "user",
    "methods": {},
    "version": 1
  },
  "storageLayout": {
    "storage": [
      {
        "astId": 2447,
        "contract": "contracts/WrapToken.sol:WrapToken",
        "label": "_roles",
        "offset": 0,
        "slot": "0",
        "type": "t_mapping(t_bytes32,t_struct(RoleData)2442_storage)"
      },
      {
        "astId": 6618,
        "contract": "contracts/WrapToken.sol:WrapToken",
        "label": "MINTER_ROLE",
        "offset": 0,
        "slot": "1",
        "type": "t_bytes32"
      },
      {
        "astId": 6621,
        "contract": "contracts/WrapToken.sol:WrapToken",
        "label": "BURNER_ROLE",
        "offset": 0,
        "slot": "2",
        "type": "t_bytes32"
      },
      {
        "astId": 6624,
        "contract": "contracts/WrapToken.sol:WrapToken",
        "label": "underToken",
        "offset": 0,
        "slot": "3",
        "type": "t_contract(IERC20)3447"
      },
      {
        "astId": 6626,
        "contract": "contracts/WrapToken.sol:WrapToken",
        "label": "dispatcher",
        "offset": 0,
        "slot": "4",
        "type": "t_address"
      }
    ],
    "types": {
      "t_address": {
        "encoding": "inplace",
        "label": "address",
        "numberOfBytes": "20"
      },
      "t_bool": {
        "encoding": "inplace",
        "label": "bool",
        "numberOfBytes": "1"
      },
      "t_bytes32": {
        "encoding": "inplace",
        "label": "bytes32",
        "numberOfBytes": "32"
      },
      "t_contract(IERC20)3447": {
        "encoding": "inplace",
        "label": "contract IERC20",
        "numberOfBytes": "20"
      },
      "t_mapping(t_address,t_bool)": {
        "encoding": "mapping",
        "key": "t_address",
        "label": "mapping(address => bool)",
        "numberOfBytes": "32",
        "value": "t_bool"
      },
      "t_mapping(t_bytes32,t_struct(RoleData)2442_storage)": {
        "encoding": "mapping",
        "key": "t_bytes32",
        "label": "mapping(bytes32 => struct AccessControl.RoleData)",
        "numberOfBytes": "32",
        "value": "t_struct(RoleData)2442_storage"
      },
      "t_struct(RoleData)2442_storage": {
        "encoding": "inplace",
        "label": "struct AccessControl.RoleData",
        "members": [
          {
            "astId": 2439,
            "contract": "contracts/WrapToken.sol:WrapToken",
            "label": "members",
            "offset": 0,
            "slot": "0",
            "type": "t_mapping(t_address,t_bool)"
          },
          {
            "astId": 2441,
            "contract": "contracts/WrapToken.sol:WrapToken",
            "label": "adminRole",
            "offset": 0,
            "slot": "1",
            "type": "t_bytes32"
          }
        ],
        "numberOfBytes": "64"
      }
    }
  }
}