{
  "address": "0x9C07d7998812E43d3e5a34BE03c2450f59b88693",
  "abi": [
    {
      "inputs": [
        {
          "internalType": "uint256",
          "name": "_chainID",
          "type": "uint256"
        }
      ],
      "stateMutability": "nonpayable",
      "type": "constructor"
    },
    {
      "anonymous": false,
      "inputs": [
        {
          "indexed": false,
          "internalType": "address",
          "name": "token0",
          "type": "address"
        },
        {
          "indexed": false,
          "internalType": "address",
          "name": "token1",
          "type": "address"
        },
        {
          "indexed": false,
          "internalType": "uint256",
          "name": "chainID",
          "type": "uint256"
        },
        {
          "indexed": false,
          "internalType": "address",
          "name": "from",
          "type": "address"
        },
        {
          "indexed": false,
          "internalType": "address",
          "name": "to",
          "type": "address"
        },
        {
          "indexed": false,
          "internalType": "uint256",
          "name": "amount",
          "type": "uint256"
        }
      ],
      "name": "CrossBurn",
      "type": "event"
    },
    {
      "anonymous": false,
      "inputs": [
        {
          "indexed": false,
          "internalType": "address",
          "name": "token0",
          "type": "address"
        },
        {
          "indexed": false,
          "internalType": "address",
          "name": "token1",
          "type": "address"
        },
        {
          "indexed": false,
          "internalType": "uint256",
          "name": "chainID",
          "type": "uint256"
        },
        {
          "indexed": false,
          "internalType": "address",
          "name": "from",
          "type": "address"
        },
        {
          "indexed": false,
          "internalType": "address",
          "name": "to",
          "type": "address"
        },
        {
          "indexed": false,
          "internalType": "uint256",
          "name": "amount",
          "type": "uint256"
        },
        {
          "indexed": false,
          "internalType": "string",
          "name": "txid",
          "type": "string"
        }
      ],
      "name": "CrossMint",
      "type": "event"
    },
    {
      "anonymous": false,
      "inputs": [
        {
          "indexed": false,
          "internalType": "address",
          "name": "token",
          "type": "address"
        },
        {
          "indexed": false,
          "internalType": "uint256",
          "name": "lockFeeAmount",
          "type": "uint256"
        },
        {
          "indexed": false,
          "internalType": "uint256",
          "name": "lockFeeRatio",
          "type": "uint256"
        },
        {
          "indexed": false,
          "internalType": "uint256",
          "name": "unlockFeeAmount",
          "type": "uint256"
        },
        {
          "indexed": false,
          "internalType": "uint256",
          "name": "unlockFeeRatio",
          "type": "uint256"
        }
      ],
      "name": "FeeChange",
      "type": "event"
    },
    {
      "anonymous": false,
      "inputs": [
        {
          "indexed": false,
          "internalType": "address",
          "name": "token",
          "type": "address"
        },
        {
          "indexed": false,
          "internalType": "address",
          "name": "account",
          "type": "address"
        }
      ],
      "name": "FeeToAdded",
      "type": "event"
    },
    {
      "anonymous": false,
      "inputs": [
        {
          "indexed": false,
          "internalType": "address",
          "name": "token",
          "type": "address"
        },
        {
          "indexed": false,
          "internalType": "address",
          "name": "account",
          "type": "address"
        }
      ],
      "name": "FeeToRemoved",
      "type": "event"
    },
    {
      "anonymous": false,
      "inputs": [
        {
          "indexed": false,
          "internalType": "address",
          "name": "token1",
          "type": "address"
        },
        {
          "indexed": false,
          "internalType": "uint256",
          "name": "preMin",
          "type": "uint256"
        },
        {
          "indexed": false,
          "internalType": "uint256",
          "name": "nowMin",
          "type": "uint256"
        }
      ],
      "name": "MinBurnChanged",
      "type": "event"
    },
    {
      "anonymous": false,
      "inputs": [
        {
          "indexed": false,
          "internalType": "address",
          "name": "token",
          "type": "address"
        },
        {
          "indexed": false,
          "internalType": "address",
          "name": "from",
          "type": "address"
        },
        {
          "indexed": false,
          "internalType": "address",
          "name": "to",
          "type": "address"
        },
        {
          "indexed": false,
          "internalType": "uint256",
          "name": "amount",
          "type": "uint256"
        },
        {
          "indexed": false,
          "internalType": "address",
          "name": "proposer",
          "type": "address"
        },
        {
          "indexed": false,
          "internalType": "uint256",
          "name": "count",
          "type": "uint256"
        },
        {
          "indexed": false,
          "internalType": "uint256",
          "name": "threshold",
          "type": "uint256"
        }
      ],
      "name": "ProposalVoted",
      "type": "event"
    },
    {
      "anonymous": false,
      "inputs": [
        {
          "indexed": true,
          "internalType": "bytes32",
          "name": "role",
          "type": "bytes32"
        },
        {
          "indexed": true,
          "internalType": "bytes32",
          "name": "previousAdminRole",
          "type": "bytes32"
        },
        {
          "indexed": true,
          "internalType": "bytes32",
          "name": "newAdminRole",
          "type": "bytes32"
        }
      ],
      "name": "RoleAdminChanged",
      "type": "event"
    },
    {
      "anonymous": false,
      "inputs": [
        {
          "indexed": true,
          "internalType": "bytes32",
          "name": "role",
          "type": "bytes32"
        },
        {
          "indexed": true,
          "internalType": "address",
          "name": "account",
          "type": "address"
        },
        {
          "indexed": true,
          "internalType": "address",
          "name": "sender",
          "type": "address"
        }
      ],
      "name": "RoleGranted",
      "type": "event"
    },
    {
      "anonymous": false,
      "inputs": [
        {
          "indexed": true,
          "internalType": "bytes32",
          "name": "role",
          "type": "bytes32"
        },
        {
          "indexed": true,
          "internalType": "address",
          "name": "account",
          "type": "address"
        },
        {
          "indexed": true,
          "internalType": "address",
          "name": "sender",
          "type": "address"
        }
      ],
      "name": "RoleRevoked",
      "type": "event"
    },
    {
      "anonymous": false,
      "inputs": [
        {
          "indexed": false,
          "internalType": "address",
          "name": "token",
          "type": "address"
        },
        {
          "indexed": false,
          "internalType": "uint256",
          "name": "oldThreshold",
          "type": "uint256"
        },
        {
          "indexed": false,
          "internalType": "uint256",
          "name": "newThreshold",
          "type": "uint256"
        }
      ],
      "name": "ThresholdChanged",
      "type": "event"
    },
    {
      "inputs": [],
      "name": "DEFAULT_ADMIN_ROLE",
      "outputs": [
        {
          "internalType": "bytes32",
          "name": "",
          "type": "bytes32"
        }
      ],
      "stateMutability": "view",
      "type": "function"
    },
    {
      "inputs": [
        {
          "internalType": "address",
          "name": "token0",
          "type": "address"
        },
        {
          "internalType": "address",
          "name": "account",
          "type": "address"
        }
      ],
      "name": "addFeeTo",
      "outputs": [],
      "stateMutability": "nonpayable",
      "type": "function"
    },
    {
      "inputs": [
        {
          "internalType": "address",
          "name": "token0",
          "type": "address"
        },
        {
          "internalType": "address",
          "name": "token1",
          "type": "address"
        }
      ],
      "name": "addSupportToken",
      "outputs": [],
      "stateMutability": "nonpayable",
      "type": "function"
    },
    {
      "inputs": [
        {
          "internalType": "address[]",
          "name": "token0Addrs",
          "type": "address[]"
        },
        {
          "internalType": "address[]",
          "name": "token1Addrs",
          "type": "address[]"
        }
      ],
      "name": "addSupportTokens",
      "outputs": [],
      "stateMutability": "nonpayable",
      "type": "function"
    },
    {
      "inputs": [
        {
          "internalType": "address",
          "name": "token",
          "type": "address"
        },
        {
          "internalType": "uint256",
          "name": "amount",
          "type": "uint256"
        },
        {
          "internalType": "uint256",
          "name": "crossType",
          "type": "uint256"
        }
      ],
      "name": "calculateFee",
      "outputs": [
        {
          "internalType": "uint256",
          "name": "feeAmount",
          "type": "uint256"
        },
        {
          "internalType": "uint256",
          "name": "remainAmount",
          "type": "uint256"
        }
      ],
      "stateMutability": "view",
      "type": "function"
    },
    {
      "inputs": [],
      "name": "chainID",
      "outputs": [
        {
          "internalType": "uint256",
          "name": "",
          "type": "uint256"
        }
      ],
      "stateMutability": "view",
      "type": "function"
    },
    {
      "inputs": [
        {
          "internalType": "address",
          "name": "token0",
          "type": "address"
        },
        {
          "internalType": "address",
          "name": "to",
          "type": "address"
        },
        {
          "internalType": "uint256",
          "name": "amount",
          "type": "uint256"
        }
      ],
      "name": "crossBurn",
      "outputs": [],
      "stateMutability": "nonpayable",
      "type": "function"
    },
    {
      "inputs": [
        {
          "internalType": "address",
          "name": "token0",
          "type": "address"
        },
        {
          "internalType": "address",
          "name": "from",
          "type": "address"
        },
        {
          "internalType": "address",
          "name": "to",
          "type": "address"
        },
        {
          "internalType": "uint256",
          "name": "amount",
          "type": "uint256"
        },
        {
          "internalType": "string",
          "name": "txid",
          "type": "string"
        }
      ],
      "name": "crossMint",
      "outputs": [],
      "stateMutability": "nonpayable",
      "type": "function"
    },
    {
      "inputs": [
        {
          "internalType": "address",
          "name": "token",
          "type": "address"
        }
      ],
      "name": "feeToLength",
      "outputs": [
        {
          "internalType": "uint256",
          "name": "len",
          "type": "uint256"
        }
      ],
      "stateMutability": "view",
      "type": "function"
    },
    {
      "inputs": [
        {
          "internalType": "address",
          "name": "token",
          "type": "address"
        },
        {
          "internalType": "uint256",
          "name": "i",
          "type": "uint256"
        }
      ],
      "name": "getFeeTo",
      "outputs": [
        {
          "internalType": "address",
          "name": "account",
          "type": "address"
        }
      ],
      "stateMutability": "view",
      "type": "function"
    },
    {
      "inputs": [
        {
          "internalType": "bytes32",
          "name": "role",
          "type": "bytes32"
        }
      ],
      "name": "getRoleAdmin",
      "outputs": [
        {
          "internalType": "bytes32",
          "name": "",
          "type": "bytes32"
        }
      ],
      "stateMutability": "view",
      "type": "function"
    },
    {
      "inputs": [
        {
          "internalType": "address",
          "name": "token0",
          "type": "address"
        },
        {
          "internalType": "address",
          "name": "token1",
          "type": "address"
        }
      ],
      "name": "getRoleKey",
      "outputs": [
        {
          "internalType": "bytes32",
          "name": "",
          "type": "bytes32"
        }
      ],
      "stateMutability": "view",
      "type": "function"
    },
    {
      "inputs": [
        {
          "internalType": "bytes32",
          "name": "role",
          "type": "bytes32"
        },
        {
          "internalType": "uint256",
          "name": "index",
          "type": "uint256"
        }
      ],
      "name": "getRoleMember",
      "outputs": [
        {
          "internalType": "address",
          "name": "",
          "type": "address"
        }
      ],
      "stateMutability": "view",
      "type": "function"
    },
    {
      "inputs": [
        {
          "internalType": "bytes32",
          "name": "role",
          "type": "bytes32"
        }
      ],
      "name": "getRoleMemberCount",
      "outputs": [
        {
          "internalType": "uint256",
          "name": "",
          "type": "uint256"
        }
      ],
      "stateMutability": "view",
      "type": "function"
    },
    {
      "inputs": [
        {
          "internalType": "bytes32",
          "name": "role",
          "type": "bytes32"
        },
        {
          "internalType": "address",
          "name": "account",
          "type": "address"
        }
      ],
      "name": "grantRole",
      "outputs": [],
      "stateMutability": "nonpayable",
      "type": "function"
    },
    {
      "inputs": [
        {
          "internalType": "bytes32",
          "name": "role",
          "type": "bytes32"
        },
        {
          "internalType": "address",
          "name": "account",
          "type": "address"
        }
      ],
      "name": "hasRole",
      "outputs": [
        {
          "internalType": "bool",
          "name": "",
          "type": "bool"
        }
      ],
      "stateMutability": "view",
      "type": "function"
    },
    {
      "inputs": [
        {
          "internalType": "address",
          "name": "",
          "type": "address"
        }
      ],
      "name": "lockFeeAmount",
      "outputs": [
        {
          "internalType": "uint256",
          "name": "",
          "type": "uint256"
        }
      ],
      "stateMutability": "view",
      "type": "function"
    },
    {
      "inputs": [
        {
          "internalType": "address",
          "name": "",
          "type": "address"
        }
      ],
      "name": "lockFeeRatio",
      "outputs": [
        {
          "internalType": "uint256",
          "name": "",
          "type": "uint256"
        }
      ],
      "stateMutability": "view",
      "type": "function"
    },
    {
      "inputs": [
        {
          "internalType": "address",
          "name": "",
          "type": "address"
        }
      ],
      "name": "minBurn",
      "outputs": [
        {
          "internalType": "uint256",
          "name": "",
          "type": "uint256"
        }
      ],
      "stateMutability": "view",
      "type": "function"
    },
    {
      "inputs": [
        {
          "internalType": "bytes32",
          "name": "",
          "type": "bytes32"
        }
      ],
      "name": "proposalOf",
      "outputs": [
        {
          "internalType": "address",
          "name": "tokenTo",
          "type": "address"
        },
        {
          "internalType": "address",
          "name": "from",
          "type": "address"
        },
        {
          "internalType": "address",
          "name": "to",
          "type": "address"
        },
        {
          "internalType": "uint256",
          "name": "amount",
          "type": "uint256"
        },
        {
          "internalType": "uint256",
          "name": "count",
          "type": "uint256"
        },
        {
          "internalType": "string",
          "name": "txid",
          "type": "string"
        },
        {
          "internalType": "bool",
          "name": "isFinished",
          "type": "bool"
        },
        {
          "internalType": "bool",
          "name": "isExist",
          "type": "bool"
        }
      ],
      "stateMutability": "view",
      "type": "function"
    },
    {
      "inputs": [
        {
          "internalType": "address",
          "name": "token0",
          "type": "address"
        },
        {
          "internalType": "address",
          "name": "account",
          "type": "address"
        }
      ],
      "name": "removeFeeTo",
      "outputs": [],
      "stateMutability": "nonpayable",
      "type": "function"
    },
    {
      "inputs": [
        {
          "internalType": "address",
          "name": "token0",
          "type": "address"
        }
      ],
      "name": "removeSupportToken",
      "outputs": [],
      "stateMutability": "nonpayable",
      "type": "function"
    },
    {
      "inputs": [
        {
          "internalType": "address[]",
          "name": "addrs",
          "type": "address[]"
        }
      ],
      "name": "removeSupportTokens",
      "outputs": [],
      "stateMutability": "nonpayable",
      "type": "function"
    },
    {
      "inputs": [
        {
          "internalType": "bytes32",
          "name": "role",
          "type": "bytes32"
        },
        {
          "internalType": "address",
          "name": "account",
          "type": "address"
        }
      ],
      "name": "renounceRole",
      "outputs": [],
      "stateMutability": "nonpayable",
      "type": "function"
    },
    {
      "inputs": [
        {
          "internalType": "bytes32",
          "name": "role",
          "type": "bytes32"
        },
        {
          "internalType": "address",
          "name": "account",
          "type": "address"
        }
      ],
      "name": "revokeRole",
      "outputs": [],
      "stateMutability": "nonpayable",
      "type": "function"
    },
    {
      "inputs": [
        {
          "internalType": "address",
          "name": "token0",
          "type": "address"
        },
        {
          "internalType": "uint256",
          "name": "_lockFeeAmount",
          "type": "uint256"
        },
        {
          "internalType": "uint256",
          "name": "_lockFeeRatio",
          "type": "uint256"
        },
        {
          "internalType": "uint256",
          "name": "_unlockFeeAmount",
          "type": "uint256"
        },
        {
          "internalType": "uint256",
          "name": "_unlockFeeRatio",
          "type": "uint256"
        }
      ],
      "name": "setFee",
      "outputs": [],
      "stateMutability": "nonpayable",
      "type": "function"
    },
    {
      "inputs": [
        {
          "internalType": "address",
          "name": "token1",
          "type": "address"
        },
        {
          "internalType": "uint256",
          "name": "amount",
          "type": "uint256"
        }
      ],
      "name": "setMinBurn",
      "outputs": [],
      "stateMutability": "nonpayable",
      "type": "function"
    },
    {
      "inputs": [
        {
          "internalType": "address",
          "name": "token1",
          "type": "address"
        },
        {
          "internalType": "uint256",
          "name": "_threshold",
          "type": "uint256"
        }
      ],
      "name": "setThreshold",
      "outputs": [],
      "stateMutability": "nonpayable",
      "type": "function"
    },
    {
      "inputs": [
        {
          "internalType": "address",
          "name": "",
          "type": "address"
        }
      ],
      "name": "supportToken",
      "outputs": [
        {
          "internalType": "contract IToken",
          "name": "",
          "type": "address"
        }
      ],
      "stateMutability": "view",
      "type": "function"
    },
    {
      "inputs": [
        {
          "internalType": "address",
          "name": "",
          "type": "address"
        }
      ],
      "name": "threshold",
      "outputs": [
        {
          "internalType": "uint256",
          "name": "",
          "type": "uint256"
        }
      ],
      "stateMutability": "view",
      "type": "function"
    },
    {
      "inputs": [
        {
          "internalType": "string",
          "name": "",
          "type": "string"
        }
      ],
      "name": "txMinted",
      "outputs": [
        {
          "internalType": "bool",
          "name": "",
          "type": "bool"
        }
      ],
      "stateMutability": "view",
      "type": "function"
    },
    {
      "inputs": [
        {
          "internalType": "address",
          "name": "",
          "type": "address"
        }
      ],
      "name": "unlockFeeAmount",
      "outputs": [
        {
          "internalType": "uint256",
          "name": "",
          "type": "uint256"
        }
      ],
      "stateMutability": "view",
      "type": "function"
    },
    {
      "inputs": [
        {
          "internalType": "address",
          "name": "",
          "type": "address"
        }
      ],
      "name": "unlockFeeRatio",
      "outputs": [
        {
          "internalType": "uint256",
          "name": "",
          "type": "uint256"
        }
      ],
      "stateMutability": "view",
      "type": "function"
    }
  ],
  "transactionHash": "0x356778d12810a7d0a66a7cf632eab9eb0384108448dc706fd20acb8052abd7f2",
  "args": [
    56
  ],
  "solcInputHash": "18aa03df4ef36b7323b92245402bdb6a",
  "bytecode": "0x60806040523480156200001157600080fd5b5060405162002a5038038062002a50833981810160405260208110156200003757600080fd5b505160088190556200004b60003362000052565b5062000168565b6200005e828262000062565b5050565b60008281526007602090815260409091206200008991839062001ac4620000dd821b17901c565b156200005e5762000099620000fd565b6001600160a01b0316816001600160a01b0316837f2f8788117e7eff1d82e926ec794901d17c78024a50270940304540a733656f0d60405160405180910390a45050565b6000620000f4836001600160a01b03841662000101565b90505b92915050565b3390565b60006200010f838362000150565b6200014757508154600181810184556000848152602080822090930184905584548482528286019093526040902091909155620000f7565b506000620000f7565b60009081526001919091016020526040902054151590565b6128d880620001786000396000f3fe608060405234801561001057600080fd5b50600436106101fb5760003560e01c806398a7582f1161011a578063c86ec2bf116100ad578063d547741f1161007c578063d547741f14610942578063e2769cfa1461096e578063f21b8af914610994578063f48c0abf146109ba578063f772565114610a9f576101fb565b8063c86ec2bf1461088b578063ca15c873146108b1578063cbde3c73146108ce578063d1346b5414610904576101fb565b8063ab1494de116100e9578063ab1494de1461070c578063adc879e91461082f578063b821602714610837578063c0f1abdd14610865576101fb565b806398a7582f146105de5780639d879990146106aa578063a0052546146106d6578063a217fddf14610704576101fb565b806336568abe116101925780637b58453d116101615780637b58453d1461053b5780637f856013146105695780639010d07c1461058f57806391d14854146105b2576101fb565b806336568abe1461048f5780635e08378c146104bb5780637010584c146104e757806371b47e1814610515576101fb565b806312d365dd116101ce57806312d365dd146103de578063248a9ca3146104045780632a4f1621146104215780632f2ff15d14610463576101fb565b80630324ef9c1461020057806309db763e1461024b5780630daff6211461028357806310c2740214610326575b600080fd5b6102326004803603606081101561021657600080fd5b506001600160a01b038135169060208101359060400135610acb565b6040805192835260208301919091528051918290030190f35b6102716004803603602081101561026157600080fd5b50356001600160a01b0316610b55565b60408051918252519081900360200190f35b6103246004803603602081101561029957600080fd5b810190602081018135600160201b8111156102b357600080fd5b8201836020820111156102c557600080fd5b803590602001918460208302840111600160201b831117156102e657600080fd5b919080806020026020016040519081016040528093929190818152602001838360200280828437600092019190915250929550610b67945050505050565b005b6103ca6004803603602081101561033c57600080fd5b810190602081018135600160201b81111561035657600080fd5b82018360208201111561036857600080fd5b803590602001918460018302840111600160201b8311171561038957600080fd5b91908080601f016020809104026020016040519081016040528093929190818152602001838380828437600092019190915250929550610b9b945050505050565b604080519115158252519081900360200190f35b610271600480360360208110156103f457600080fd5b50356001600160a01b0316610bbb565b6102716004803603602081101561041a57600080fd5b5035610bcd565b6104476004803603602081101561043757600080fd5b50356001600160a01b0316610be2565b604080516001600160a01b039092168252519081900360200190f35b6103246004803603604081101561047957600080fd5b50803590602001356001600160a01b0316610bfd565b610324600480360360408110156104a557600080fd5b50803590602001356001600160a01b0316610c65565b610447600480360360408110156104d157600080fd5b506001600160a01b038135169060200135610cc6565b610324600480360360408110156104fd57600080fd5b506001600160a01b0381358116916020013516610cef565b6102716004803603602081101561052b57600080fd5b50356001600160a01b0316610dcd565b6103246004803603604081101561055157600080fd5b506001600160a01b0381358116916020013516610ddf565b6102716004803603602081101561057f57600080fd5b50356001600160a01b0316610e33565b610447600480360360408110156105a557600080fd5b5080359060200135610e45565b6103ca600480360360408110156105c857600080fd5b50803590602001356001600160a01b0316610e63565b610324600480360360a08110156105f457600080fd5b6001600160a01b03823581169260208101358216926040820135909216916060820135919081019060a081016080820135600160201b81111561063657600080fd5b82018360208201111561064857600080fd5b803590602001918460018302840111600160201b8311171561066957600080fd5b91908080601f016020809104026020016040519081016040528093929190818152602001838380828437600092019190915250929550610e7b945050505050565b610324600480360360408110156106c057600080fd5b506001600160a01b0381351690602001356112c0565b610324600480360360408110156106ec57600080fd5b506001600160a01b0381358116916020013516611314565b610271611368565b6103246004803603604081101561072257600080fd5b810190602081018135600160201b81111561073c57600080fd5b82018360208201111561074e57600080fd5b803590602001918460208302840111600160201b8311171561076f57600080fd5b9190808060200260200160405190810160405280939291908181526020018383602002808284376000920191909152509295949360208101935035915050600160201b8111156107be57600080fd5b8201836020820111156107d057600080fd5b803590602001918460208302840111600160201b831117156107f157600080fd5b91908080602002602001604051908101604052809392919081815260200183836020028082843760009201919091525092955061136d945050505050565b610271611405565b6102716004803603604081101561084d57600080fd5b506001600160a01b038135811691602001351661140b565b6102716004803603602081101561087b57600080fd5b50356001600160a01b031661145f565b610271600480360360208110156108a157600080fd5b50356001600160a01b0316611480565b610271600480360360208110156108c757600080fd5b5035611492565b610324600480360360608110156108e457600080fd5b506001600160a01b038135811691602081013590911690604001356114a9565b610324600480360360a081101561091a57600080fd5b506001600160a01b038135169060208101359060408101359060608101359060800135611797565b6103246004803603604081101561095857600080fd5b50803590602001356001600160a01b03166117f5565b6103246004803603602081101561098457600080fd5b50356001600160a01b031661184e565b610271600480360360208110156109aa57600080fd5b50356001600160a01b0316611920565b6109d7600480360360208110156109d057600080fd5b5035611932565b60405180896001600160a01b03168152602001886001600160a01b03168152602001876001600160a01b031681526020018681526020018581526020018060200184151581526020018315158152602001828103825285818151815260200191508051906020019080838360005b83811015610a5d578181015183820152602001610a45565b50505050905090810190601f168015610a8a5780820380516001836020036101000a031916815260200191505b50995050505050505050505060405180910390f35b61032460048036036040811015610ab557600080fd5b506001600160a01b038135169060200135611a13565b600080808084610b015750506001600160a01b038516600090815260036020908152604080832054600290925290912054610b29565b50506001600160a01b0385166000908152600560209081526040808320546004909252909120545b610b3d610b368783611ad9565b8390611afd565b9350610b498685611b57565b92505050935093915050565b60056020526000908152604090205481565b60005b8151811015610b9757610b8f828281518110610b8257fe5b602002602001015161184e565b600101610b6a565b5050565b8051602081830181018051600a8252928201919093012091525460ff1681565b60046020526000908152604090205481565b60009081526007602052604090206002015490565b6009602052600090815260409020546001600160a01b031681565b600082815260076020526040902060020154610c2090610c1b611bb4565b610e63565b610c5b5760405162461bcd60e51b815260040180806020018281038252602f815260200180612781602f913960400191505060405180910390fd5b610b978282611bb8565b610c6d611bb4565b6001600160a01b0316816001600160a01b031614610cbc5760405162461bcd60e51b815260040180806020018281038252602f815260200180612874602f913960400191505060405180910390fd5b610b978282611c21565b6001600160a01b0382166000908152600660205260408120610ce89083611c8a565b9392505050565b610cfa600033610e63565b610d39576040805162461bcd60e51b815260206004820152601b6024820152600080516020612854833981519152604482015290519081900360640190fd5b6001600160a01b038281166000908152600960205260409020541615610d9f576040805162461bcd60e51b8152602060048201526016602482015275151bdad948185b1c9958591e4814dd5c1c1bdc9d195960521b604482015290519081900360640190fd5b6001600160a01b03918216600090815260096020526040902080546001600160a01b03191691909216179055565b60036020526000908152604090205481565b610dea600033610e63565b610e29576040805162461bcd60e51b815260206004820152601b6024820152600080516020612854833981519152604482015290519081900360640190fd5b610b978282611c96565b600b6020526000908152604090205481565b6000828152600760205260408120610ce89083611c8a565b92915050565b6000828152600760205260408120610ce89083611d42565b6001600160a01b03808616600090815260096020526040902054869116610ee5576040805162461bcd60e51b8152602060048201526019602482015278213934b233b29d1d2737ba1029bab83837b93a102a37b5b2b760391b604482015290519081900360640190fd5b6001600160a01b038087166000908152600960205260408120548892610f0d9184911661140b565b9050610f198133610e63565b610f6a576040805162461bcd60e51b815260206004820152601d60248201527f4272696467653a3a63616c6c6572206973206e6f742063726f73736572000000604482015290519081900360640190fd5b83600a816040518082805190602001908083835b60208310610f9d5780518252601f199092019160209182019101610f7e565b51815160209384036101000a600019018019909216911617905292019485525060405193849003019092205460ff1615915061100e9050576040805162461bcd60e51b81526020600482015260096024820152681d1e081b5a5b9d195960ba1b604482015290519081900360640190fd5b6001600160a01b03808a16600090815260096020526040812054909161103891168a8a8a8a611d57565b905080156112b4576001600a876040518082805190602001908083835b602083106110745780518252601f199092019160209182019101611055565b51815160209384036101000a60001901801990921691161790529201948552506040519384900301909220805460ff1916931515939093179092555060009050806110c08c8a83610acb565b91509150600960008d6001600160a01b03166001600160a01b0316815260200190815260200160002060009054906101000a90046001600160a01b03166001600160a01b03166340c10f198b836040518363ffffffff1660e01b815260040180836001600160a01b0316815260200182815260200192505050602060405180830381600087803b15801561115357600080fd5b505af1158015611167573d6000803e3d6000fd5b505050506040513d602081101561117d57600080fd5b5061118a90508c836120d0565b7f528f691cb4ff9535caaf69e54c50406adf913ba29b79a3e2dc3d865a3ef7ae418c600960008f6001600160a01b03166001600160a01b0316815260200190815260200160002060009054906101000a90046001600160a01b03166008548e8e8e8e60405180886001600160a01b03168152602001876001600160a01b03168152602001868152602001856001600160a01b03168152602001846001600160a01b0316815260200183815260200180602001828103825283818151815260200191508051906020019080838360005b83811015611271578181015183820152602001611259565b50505050905090810190601f16801561129e5780820380516001836020036101000a031916815260200191505b509850505050505050505060405180910390a150505b50505050505050505050565b6112cb600033610e63565b61130a576040805162461bcd60e51b815260206004820152601b6024820152600080516020612854833981519152604482015290519081900360640190fd5b610b9782826121a3565b61131f600033610e63565b61135e576040805162461bcd60e51b815260206004820152601b6024820152600080516020612854833981519152604482015290519081900360640190fd5b610b97828261220a565b600081565b80518251146113bc576040805162461bcd60e51b81526020600482015260166024820152750a8ded6cadc40d8cadccee8d040dcdee840dac2e8c6d60531b604482015290519081900360640190fd5b60005b8251811015611400576113f88382815181106113d757fe5b60200260200101518383815181106113eb57fe5b6020026020010151610cef565b6001016113bf565b505050565b60085481565b600854604080516bffffffffffffffffffffffff19606095861b81166020808401919091529490951b9094166034850152604880850192909252805180850390920182526068909301909252815191012090565b6001600160a01b0381166000908152600660205260408120610e5d9061229d565b60016020526000908152604090205481565b6000818152600760205260408120610e5d9061229d565b6001600160a01b03808416600090815260096020526040902054849116611513576040805162461bcd60e51b8152602060048201526019602482015278213934b233b29d1d2737ba1029bab83837b93a102a37b5b2b760391b604482015290519081900360640190fd5b6001600160a01b038085166000908152600960209081526040918290205482516370a0823160e01b81523360048201529251931692859284926370a0823192602480840193829003018186803b15801561156c57600080fd5b505afa158015611580573d6000803e3d6000fd5b505050506040513d602081101561159657600080fd5b505110156115d55760405162461bcd60e51b81526004018080602001828103825260238152602001806128016023913960400191505060405180910390fd5b6000806115e487866001610acb565b9150915060006115f38861145f565b905060005b818110156116ae57846001600160a01b03166323b872dd3361161a8c85610cc6565b61162488876122a8565b6040518463ffffffff1660e01b815260040180846001600160a01b03168152602001836001600160a01b031681526020018281526020019350505050602060405180830381600087803b15801561167a57600080fd5b505af115801561168e573d6000803e3d6000fd5b505050506040513d60208110156116a457600080fd5b50506001016115f8565b5060408051632770a7eb60e21b81523360048201526024810184905290516001600160a01b03861691639dc29fac9160448083019260209291908290030181600087803b1580156116fe57600080fd5b505af1158015611712573d6000803e3d6000fd5b505050506040513d602081101561172857600080fd5b5050600854604080516001600160a01b03808c168252808816602083015281830193909352336060820152918916608083015260a08201849052517f0c0ccff1e07d6497e77b2c10d52915eab0e2ba09bb3169ce6f1b90653ca99a879181900360c00190a15050505050505050565b6117a2600033610e63565b6117e1576040805162461bcd60e51b815260206004820152601b6024820152600080516020612854833981519152604482015290519081900360640190fd5b6117ee8585858585612307565b5050505050565b60008281526007602052604090206002015461181390610c1b611bb4565b610cbc5760405162461bcd60e51b81526004018080602001828103825260308152602001806127b06030913960400191505060405180910390fd5b611859600033610e63565b611898576040805162461bcd60e51b815260206004820152601b6024820152600080516020612854833981519152604482015290519081900360640190fd5b6001600160a01b03818116600090815260096020526040902054166118f9576040805162461bcd60e51b8152602060048201526012602482015271151bdad9481b9bdd0814dd5c1c1bdc9d195960721b604482015290519081900360640190fd5b6001600160a01b0316600090815260096020526040902080546001600160a01b0319169055565b60026020526000908152604090205481565b600060208181529181526040908190208054600180830154600280850154600386015460048701546005880180548a51601f600019998316156101000299909901909116959095049687018b90048b0285018b019099528584526001600160a01b039687169994871698929096169690959490938301828280156119f75780601f106119cc576101008083540402835291602001916119f7565b820191906000526020600020905b8154815290600101906020018083116119da57829003601f168201915b5050506006909301549192505060ff8082169161010090041688565b611a1e600033610e63565b611a5d576040805162461bcd60e51b815260206004820152601b6024820152600080516020612854833981519152604482015290519081900360640190fd5b6001600160a01b0382166000818152600b60209081526040918290208054908590558251938452908301819052828201849052905190917fd0e1c9cb094f7bd479bd378e0c0532746569f6efd1b2f04434d07d0defa13da8919081900360600190a1505050565b6000610ce8836001600160a01b0384166123da565b6000670de0b6b3a7640000611aee8484612424565b81611af557fe5b049392505050565b600082820183811015610ce8576040805162461bcd60e51b815260206004820152601b60248201527f536166654d6174683a206164646974696f6e206f766572666c6f770000000000604482015290519081900360640190fd5b600082821115611bae576040805162461bcd60e51b815260206004820152601e60248201527f536166654d6174683a207375627472616374696f6e206f766572666c6f770000604482015290519081900360640190fd5b50900390565b3390565b6000828152600760205260409020611bd09082611ac4565b15610b9757611bdd611bb4565b6001600160a01b0316816001600160a01b0316837f2f8788117e7eff1d82e926ec794901d17c78024a50270940304540a733656f0d60405160405180910390a45050565b6000828152600760205260409020611c39908261247d565b15610b9757611c46611bb4565b6001600160a01b0316816001600160a01b0316837ff6391f5c32d9c69d2a47ea670b442974b53935d1edc7fd64eb21e047a839171b60405160405180910390a45050565b6000610ce88383612492565b6001600160a01b0382166000908152600660205260409020611cb89082611d42565b1515600114611ce25760405162461bcd60e51b8152600401611cd9906126f8565b60405180910390fd5b6001600160a01b0382166000908152600660205260409020611d04908261247d565b507f1162c56e1face129565df34ecfdd3ca4f645d76f083be3a48f5d253b2b490b3a8282604051611d36929190612679565b60405180910390a15050565b6000610ce8836001600160a01b0384166124f6565b6001600160a01b038516600090815260016020526040812054611dab5760405162461bcd60e51b81526004018080602001828103825260308152602001806128246030913960400191505060405180910390fd5b600060016000886001600160a01b03166001600160a01b031681526020019081526020016000205490506000878787878760405160200180866001600160a01b031660601b8152601401856001600160a01b031660601b8152601401846001600160a01b031660601b815260140183815260200182805190602001908083835b60208310611e4a5780518252601f199092019160209182019101611e2b565b518151602093840361010090810a60001901801990931692909116919091179091526040805193909501838103601f1901845285528251928201929092206000818152918290529390206006810154939a50985090910460ff1615159550611f469450505050505780546001600160a01b03808b166001600160a01b0319928316178355600180840180548c8416908516179055600284018054928b1692909316919091179091556003820187905560048201558451611f1390600583019060208801906125d8565b5060068101805461ff0019166101001790553360009081526007820160205260409020805460ff19166001179055612039565b600681015460ff1615611fa0576040805162461bcd60e51b815260206004820152601860248201527f5f766f74653a3a70726f706f73616c2066696e69736865640000000000000000604482015290519081900360640190fd5b33600090815260078201602052604090205460ff1615612007576040805162461bcd60e51b815260206004820152601760248201527f5f766f74653a3a6d73672e73656e64657220766f746564000000000000000000604482015290519081900360640190fd5b6004810154612017906001611afd565b60048201553360009081526007820160205260409020805460ff191660011790555b828160040154106120595760068101805460ff1916600190811790915593505b6004810154604080516001600160a01b03808d168252808c1660208301528a16818301526060810189905233608082015260a081019290925260c08201859052517fe458477b94285c9f254a407e2614c39f55230b527ff7f51d76fdf33e251ae9369181900360e00190a150505095945050505050565b60006120db8361145f565b905060005b8181101561219d5760006120f48583610cc6565b6001600160a01b03808716600090815260096020526040902054919250166340c10f198261212287876122a8565b6040518363ffffffff1660e01b815260040180836001600160a01b0316815260200182815260200192505050602060405180830381600087803b15801561216857600080fd5b505af115801561217c573d6000803e3d6000fd5b505050506040513d602081101561219257600080fd5b5050506001016120e0565b50505050565b6001600160a01b0382166000818152600160209081526040918290208054908590558251938452908301819052828201849052905190917fb18e91516e037486aa6fa38f56a8aac933fd127180efe9c9745ecbf660a78e44919081900360600190a1505050565b6001600160a01b038216600090815260066020526040902061222c9082611d42565b156122495760405162461bcd60e51b8152600401611cd9906126c1565b6001600160a01b038216600090815260066020526040902061226b9082611ac4565b507faab99c312372d476211a5508724bd953c6cffb12ea46f5b1a9a38b6091eb616c8282604051611d36929190612679565b6000610e5d8261250e565b60008082116122fe576040805162461bcd60e51b815260206004820152601a60248201527f536166654d6174683a206469766973696f6e206279207a65726f000000000000604482015290519081900360640190fd5b818381611af557fe5b670de0b6b3a764000083111561232f5760405162461bcd60e51b8152600401611cd99061272f565b670de0b6b3a76400008111156123575760405162461bcd60e51b8152600401611cd99061272f565b6001600160a01b03851660009081526003602090815260408083208790556002825280832086905560058252808320859055600490915290819020829055517f0ada58b95297d7845bc4aec0fd7ccab1aebd1ed4bebdc0902741bb9d193ef640906123cb9087908790879087908790612693565b60405180910390a15050505050565b60006123e683836124f6565b61241c57508154600181810184556000848152602080822090930184905584548482528286019093526040902091909155610e5d565b506000610e5d565b60008261243357506000610e5d565b8282028284828161244057fe5b0414610ce85760405162461bcd60e51b81526004018080602001828103825260218152602001806127e06021913960400191505060405180910390fd5b6000610ce8836001600160a01b038416612512565b815460009082106124d45760405162461bcd60e51b815260040180806020018281038252602281526020018061275f6022913960400191505060405180910390fd5b8260000182815481106124e357fe5b9060005260206000200154905092915050565b60009081526001919091016020526040902054151590565b5490565b600081815260018301602052604081205480156125ce578354600019808301919081019060009087908390811061254557fe5b906000526020600020015490508087600001848154811061256257fe5b60009182526020808320909101929092558281526001898101909252604090209084019055865487908061259257fe5b60019003818190600052602060002001600090559055866001016000878152602001908152602001600020600090556001945050505050610e5d565b6000915050610e5d565b828054600181600116156101000203166002900490600052602060002090601f01602090048101928261260e5760008555612654565b82601f1061262757805160ff1916838001178555612654565b82800160010185558215612654579182015b82811115612654578251825591602001919060010190612639565b50612660929150612664565b5090565b5b808211156126605760008155600101612665565b6001600160a01b0392831681529116602082015260400190565b6001600160a01b03959095168552602085019390935260408401919091526060830152608082015260a00190565b6020808252601f908201527f546f6c6c3a3a6163636f756e742077617320666565546f20616c726561647900604082015260600190565b6020808252601a908201527f546f6c6c3a3a6163636f756e74206973206e6f7420666565546f000000000000604082015260600190565b602080825260159082015274199959481c985d1a5bc81b9bdd0818dbdc9c9958dd605a1b60408201526060019056fe456e756d657261626c655365743a20696e646578206f7574206f6620626f756e6473416363657373436f6e74726f6c3a2073656e646572206d75737420626520616e2061646d696e20746f206772616e74416363657373436f6e74726f6c3a2073656e646572206d75737420626520616e2061646d696e20746f207265766f6b65536166654d6174683a206d756c7469706c69636174696f6e206f766572666c6f776d73672e73656e646572206e6f7420656e6f75676820746f6b656e20746f206275726e50726f706f73616c566f74653a207468726573686f6c642073686f756c642062652067726561746572207468616e20304272696467653a3a6f6e6c792061646d696e2063616e2063616c6c0000000000416363657373436f6e74726f6c3a2063616e206f6e6c792072656e6f756e636520726f6c657320666f722073656c66a2646970667358221220f28b4c7c1e126e2ea1329a7e1de594100f08c4b61cdb911bba76f9f01a1ae12464736f6c63430007060033",
  "devdoc": {
    "kind": "dev",
    "methods": {
      "getRoleAdmin(bytes32)": {
        "details": "Returns the admin role that controls `role`. See {grantRole} and {revokeRole}. To change a role's admin, use {_setRoleAdmin}."
      },
      "getRoleMember(bytes32,uint256)": {
        "details": "Returns one of the accounts that have `role`. `index` must be a value between 0 and {getRoleMemberCount}, non-inclusive. Role bearers are not sorted in any particular way, and their ordering may change at any point. WARNING: When using {getRoleMember} and {getRoleMemberCount}, make sure you perform all queries on the same block. See the following https://forum.openzeppelin.com/t/iterating-over-elements-on-enumerableset-in-openzeppelin-contracts/2296[forum post] for more information."
      },
      "getRoleMemberCount(bytes32)": {
        "details": "Returns the number of accounts that have `role`. Can be used together with {getRoleMember} to enumerate all bearers of a role."
      },
      "grantRole(bytes32,address)": {
        "details": "Grants `role` to `account`. If `account` had not been already granted `role`, emits a {RoleGranted} event. Requirements: - the caller must have ``role``'s admin role."
      },
      "hasRole(bytes32,address)": {
        "details": "Returns `true` if `account` has been granted `role`."
      },
      "renounceRole(bytes32,address)": {
        "details": "Revokes `role` from the calling account. Roles are often managed via {grantRole} and {revokeRole}: this function's purpose is to provide a mechanism for accounts to lose their privileges if they are compromised (such as when a trusted device is misplaced). If the calling account had been granted `role`, emits a {RoleRevoked} event. Requirements: - the caller must be `account`."
      },
      "revokeRole(bytes32,address)": {
        "details": "Revokes `role` from `account`. If `account` had been granted `role`, emits a {RoleRevoked} event. Requirements: - the caller must have ``role``'s admin role."
      }
    },
    "version": 1
  },
  "userdoc": {
    "kind": "user",
    "methods": {},
    "version": 1
  },
  "storageLayout": {
    "storage": [
      {
        "astId": 3756,
        "contract": "contracts/Bridge.sol:Bridge",
        "label": "proposalOf",
        "offset": 0,
        "slot": "0",
        "type": "t_mapping(t_bytes32,t_struct(Proposal)4010_storage)"
      },
      {
        "astId": 3760,
        "contract": "contracts/Bridge.sol:Bridge",
        "label": "threshold",
        "offset": 0,
        "slot": "1",
        "type": "t_mapping(t_address,t_uint256)"
      },
      {
        "astId": 4167,
        "contract": "contracts/Bridge.sol:Bridge",
        "label": "lockFeeRatio",
        "offset": 0,
        "slot": "2",
        "type": "t_mapping(t_address,t_uint256)"
      },
      {
        "astId": 4171,
        "contract": "contracts/Bridge.sol:Bridge",
        "label": "lockFeeAmount",
        "offset": 0,
        "slot": "3",
        "type": "t_mapping(t_address,t_uint256)"
      },
      {
        "astId": 4175,
        "contract": "contracts/Bridge.sol:Bridge",
        "label": "unlockFeeRatio",
        "offset": 0,
        "slot": "4",
        "type": "t_mapping(t_address,t_uint256)"
      },
      {
        "astId": 4179,
        "contract": "contracts/Bridge.sol:Bridge",
        "label": "unlockFeeAmount",
        "offset": 0,
        "slot": "5",
        "type": "t_mapping(t_address,t_uint256)"
      },
      {
        "astId": 4183,
        "contract": "contracts/Bridge.sol:Bridge",
        "label": "feeToSet",
        "offset": 0,
        "slot": "6",
        "type": "t_mapping(t_address,t_struct(AddressSet)2268_storage)"
      },
      {
        "astId": 22,
        "contract": "contracts/Bridge.sol:Bridge",
        "label": "_roles",
        "offset": 0,
        "slot": "7",
        "type": "t_mapping(t_bytes32,t_struct(RoleData)18_storage)"
      },
      {
        "astId": 2502,
        "contract": "contracts/Bridge.sol:Bridge",
        "label": "chainID",
        "offset": 0,
        "slot": "8",
        "type": "t_uint256"
      },
      {
        "astId": 2506,
        "contract": "contracts/Bridge.sol:Bridge",
        "label": "supportToken",
        "offset": 0,
        "slot": "9",
        "type": "t_mapping(t_address,t_contract(IToken)4556)"
      },
      {
        "astId": 2510,
        "contract": "contracts/Bridge.sol:Bridge",
        "label": "txMinted",
        "offset": 0,
        "slot": "10",
        "type": "t_mapping(t_string_memory_ptr,t_bool)"
      },
      {
        "astId": 2514,
        "contract": "contracts/Bridge.sol:Bridge",
        "label": "minBurn",
        "offset": 0,
        "slot": "11",
        "type": "t_mapping(t_address,t_uint256)"
      }
    ],
    "types": {
      "t_address": {
        "encoding": "inplace",
        "label": "address",
        "numberOfBytes": "20"
      },
      "t_array(t_bytes32)dyn_storage": {
        "base": "t_bytes32",
        "encoding": "dynamic_array",
        "label": "bytes32[]",
        "numberOfBytes": "32"
      },
      "t_bool": {
        "encoding": "inplace",
        "label": "bool",
        "numberOfBytes": "1"
      },
      "t_bytes32": {
        "encoding": "inplace",
        "label": "bytes32",
        "numberOfBytes": "32"
      },
      "t_contract(IToken)4556": {
        "encoding": "inplace",
        "label": "contract IToken",
        "numberOfBytes": "20"
      },
      "t_mapping(t_address,t_bool)": {
        "encoding": "mapping",
        "key": "t_address",
        "label": "mapping(address => bool)",
        "numberOfBytes": "32",
        "value": "t_bool"
      },
      "t_mapping(t_address,t_contract(IToken)4556)": {
        "encoding": "mapping",
        "key": "t_address",
        "label": "mapping(address => contract IToken)",
        "numberOfBytes": "32",
        "value": "t_contract(IToken)4556"
      },
      "t_mapping(t_address,t_struct(AddressSet)2268_storage)": {
        "encoding": "mapping",
        "key": "t_address",
        "label": "mapping(address => struct EnumerableSet.AddressSet)",
        "numberOfBytes": "32",
        "value": "t_struct(AddressSet)2268_storage"
      },
      "t_mapping(t_address,t_uint256)": {
        "encoding": "mapping",
        "key": "t_address",
        "label": "mapping(address => uint256)",
        "numberOfBytes": "32",
        "value": "t_uint256"
      },
      "t_mapping(t_bytes32,t_struct(Proposal)4010_storage)": {
        "encoding": "mapping",
        "key": "t_bytes32",
        "label": "mapping(bytes32 => struct Proposal)",
        "numberOfBytes": "32",
        "value": "t_struct(Proposal)4010_storage"
      },
      "t_mapping(t_bytes32,t_struct(RoleData)18_storage)": {
        "encoding": "mapping",
        "key": "t_bytes32",
        "label": "mapping(bytes32 => struct AccessControl.RoleData)",
        "numberOfBytes": "32",
        "value": "t_struct(RoleData)18_storage"
      },
      "t_mapping(t_bytes32,t_uint256)": {
        "encoding": "mapping",
        "key": "t_bytes32",
        "label": "mapping(bytes32 => uint256)",
        "numberOfBytes": "32",
        "value": "t_uint256"
      },
      "t_mapping(t_string_memory_ptr,t_bool)": {
        "encoding": "mapping",
        "key": "t_string_memory_ptr",
        "label": "mapping(string => bool)",
        "numberOfBytes": "32",
        "value": "t_bool"
      },
      "t_string_memory_ptr": {
        "encoding": "bytes",
        "label": "string",
        "numberOfBytes": "32"
      },
      "t_string_storage": {
        "encoding": "bytes",
        "label": "string",
        "numberOfBytes": "32"
      },
      "t_struct(AddressSet)2268_storage": {
        "encoding": "inplace",
        "label": "struct EnumerableSet.AddressSet",
        "members": [
          {
            "astId": 2267,
            "contract": "contracts/Bridge.sol:Bridge",
            "label": "_inner",
            "offset": 0,
            "slot": "0",
            "type": "t_struct(Set)2003_storage"
          }
        ],
        "numberOfBytes": "64"
      },
      "t_struct(Proposal)4010_storage": {
        "encoding": "inplace",
        "label": "struct Proposal",
        "members": [
          {
            "astId": 3991,
            "contract": "contracts/Bridge.sol:Bridge",
            "label": "tokenTo",
            "offset": 0,
            "slot": "0",
            "type": "t_address"
          },
          {
            "astId": 3993,
            "contract": "contracts/Bridge.sol:Bridge",
            "label": "from",
            "offset": 0,
            "slot": "1",
            "type": "t_address"
          },
          {
            "astId": 3995,
            "contract": "contracts/Bridge.sol:Bridge",
            "label": "to",
            "offset": 0,
            "slot": "2",
            "type": "t_address"
          },
          {
            "astId": 3997,
            "contract": "contracts/Bridge.sol:Bridge",
            "label": "amount",
            "offset": 0,
            "slot": "3",
            "type": "t_uint256"
          },
          {
            "astId": 3999,
            "contract": "contracts/Bridge.sol:Bridge",
            "label": "count",
            "offset": 0,
            "slot": "4",
            "type": "t_uint256"
          },
          {
            "astId": 4001,
            "contract": "contracts/Bridge.sol:Bridge",
            "label": "txid",
            "offset": 0,
            "slot": "5",
            "type": "t_string_storage"
          },
          {
            "astId": 4003,
            "contract": "contracts/Bridge.sol:Bridge",
            "label": "isFinished",
            "offset": 0,
            "slot": "6",
            "type": "t_bool"
          },
          {
            "astId": 4005,
            "contract": "contracts/Bridge.sol:Bridge",
            "label": "isExist",
            "offset": 1,
            "slot": "6",
            "type": "t_bool"
          },
          {
            "astId": 4009,
            "contract": "contracts/Bridge.sol:Bridge",
            "label": "isVoted",
            "offset": 0,
            "slot": "7",
            "type": "t_mapping(t_address,t_bool)"
          }
        ],
        "numberOfBytes": "256"
      },
      "t_struct(RoleData)18_storage": {
        "encoding": "inplace",
        "label": "struct AccessControl.RoleData",
        "members": [
          {
            "astId": 15,
            "contract": "contracts/Bridge.sol:Bridge",
            "label": "members",
            "offset": 0,
            "slot": "0",
            "type": "t_struct(AddressSet)2268_storage"
          },
          {
            "astId": 17,
            "contract": "contracts/Bridge.sol:Bridge",
            "label": "adminRole",
            "offset": 0,
            "slot": "2",
            "type": "t_bytes32"
          }
        ],
        "numberOfBytes": "96"
      },
      "t_struct(Set)2003_storage": {
        "encoding": "inplace",
        "label": "struct EnumerableSet.Set",
        "members": [
          {
            "astId": 1998,
            "contract": "contracts/Bridge.sol:Bridge",
            "label": "_values",
            "offset": 0,
            "slot": "0",
            "type": "t_array(t_bytes32)dyn_storage"
          },
          {
            "astId": 2002,
            "contract": "contracts/Bridge.sol:Bridge",
            "label": "_indexes",
            "offset": 0,
            "slot": "1",
            "type": "t_mapping(t_bytes32,t_uint256)"
          }
        ],
        "numberOfBytes": "64"
      },
      "t_uint256": {
        "encoding": "inplace",
        "label": "uint256",
        "numberOfBytes": "32"
      }
    }
  }
}