{
  "address": "0xACcd94Ada34ff4063d6421BAff0323C26a3c9804",
  "abi": [
    {
      "inputs": [
        {
          "internalType": "address",
          "name": "_feeToDev",
          "type": "address"
        }
      ],
      "stateMutability": "nonpayable",
      "type": "constructor"
    },
    {
      "anonymous": false,
      "inputs": [
        {
          "indexed": false,
          "internalType": "address",
          "name": "token0",
          "type": "address"
        },
        {
          "indexed": false,
          "internalType": "address",
          "name": "token1",
          "type": "address"
        },
        {
          "indexed": false,
          "internalType": "uint256",
          "name": "chainID0",
          "type": "uint256"
        },
        {
          "indexed": false,
          "internalType": "uint256",
          "name": "chainID1",
          "type": "uint256"
        },
        {
          "indexed": false,
          "internalType": "address",
          "name": "from",
          "type": "address"
        },
        {
          "indexed": false,
          "internalType": "address",
          "name": "to",
          "type": "address"
        },
        {
          "indexed": false,
          "internalType": "uint256",
          "name": "amount",
          "type": "uint256"
        }
      ],
      "name": "CrossBurn",
      "type": "event"
    },
    {
      "anonymous": false,
      "inputs": [
        {
          "indexed": false,
          "internalType": "address",
          "name": "token",
          "type": "address"
        },
        {
          "indexed": false,
          "internalType": "uint256",
          "name": "chainID",
          "type": "uint256"
        },
        {
          "indexed": false,
          "internalType": "uint256",
          "name": "feeAmount",
          "type": "uint256"
        },
        {
          "indexed": false,
          "internalType": "uint256",
          "name": "feeRatio",
          "type": "uint256"
        }
      ],
      "name": "FeeChange",
      "type": "event"
    },
    {
      "anonymous": false,
      "inputs": [
        {
          "indexed": false,
          "internalType": "address",
          "name": "token",
          "type": "address"
        },
        {
          "indexed": false,
          "internalType": "uint256",
          "name": "chainID",
          "type": "uint256"
        },
        {
          "indexed": false,
          "internalType": "address",
          "name": "account",
          "type": "address"
        }
      ],
      "name": "FeeToChanged",
      "type": "event"
    },
    {
      "anonymous": false,
      "inputs": [
        {
          "indexed": false,
          "internalType": "address",
          "name": "token",
          "type": "address"
        },
        {
          "indexed": false,
          "internalType": "uint256",
          "name": "chainID",
          "type": "uint256"
        },
        {
          "indexed": false,
          "internalType": "address",
          "name": "account",
          "type": "address"
        }
      ],
      "name": "FeeToRemoved",
      "type": "event"
    },
    {
      "anonymous": false,
      "inputs": [
        {
          "indexed": false,
          "internalType": "address",
          "name": "token0",
          "type": "address"
        },
        {
          "indexed": false,
          "internalType": "address",
          "name": "token1",
          "type": "address"
        },
        {
          "indexed": false,
          "internalType": "uint256",
          "name": "chainID0",
          "type": "uint256"
        },
        {
          "indexed": false,
          "internalType": "uint256",
          "name": "chainID1",
          "type": "uint256"
        },
        {
          "indexed": false,
          "internalType": "address",
          "name": "from",
          "type": "address"
        },
        {
          "indexed": false,
          "internalType": "address",
          "name": "to",
          "type": "address"
        },
        {
          "indexed": false,
          "internalType": "uint256",
          "name": "amount",
          "type": "uint256"
        }
      ],
      "name": "Lock",
      "type": "event"
    },
    {
      "anonymous": false,
      "inputs": [
        {
          "indexed": false,
          "internalType": "address",
          "name": "token",
          "type": "address"
        },
        {
          "indexed": false,
          "internalType": "address",
          "name": "from",
          "type": "address"
        },
        {
          "indexed": false,
          "internalType": "address",
          "name": "to",
          "type": "address"
        },
        {
          "indexed": false,
          "internalType": "uint256",
          "name": "amount",
          "type": "uint256"
        },
        {
          "indexed": false,
          "internalType": "address",
          "name": "proposer",
          "type": "address"
        },
        {
          "indexed": false,
          "internalType": "uint256",
          "name": "count",
          "type": "uint256"
        },
        {
          "indexed": false,
          "internalType": "uint256",
          "name": "threshold",
          "type": "uint256"
        }
      ],
      "name": "ProposalVoted",
      "type": "event"
    },
    {
      "anonymous": false,
      "inputs": [
        {
          "indexed": true,
          "internalType": "bytes32",
          "name": "role",
          "type": "bytes32"
        },
        {
          "indexed": true,
          "internalType": "bytes32",
          "name": "previousAdminRole",
          "type": "bytes32"
        },
        {
          "indexed": true,
          "internalType": "bytes32",
          "name": "newAdminRole",
          "type": "bytes32"
        }
      ],
      "name": "RoleAdminChanged",
      "type": "event"
    },
    {
      "anonymous": false,
      "inputs": [
        {
          "indexed": true,
          "internalType": "bytes32",
          "name": "role",
          "type": "bytes32"
        },
        {
          "indexed": true,
          "internalType": "address",
          "name": "account",
          "type": "address"
        },
        {
          "indexed": true,
          "internalType": "address",
          "name": "sender",
          "type": "address"
        }
      ],
      "name": "RoleGranted",
      "type": "event"
    },
    {
      "anonymous": false,
      "inputs": [
        {
          "indexed": true,
          "internalType": "bytes32",
          "name": "role",
          "type": "bytes32"
        },
        {
          "indexed": true,
          "internalType": "address",
          "name": "account",
          "type": "address"
        },
        {
          "indexed": true,
          "internalType": "address",
          "name": "sender",
          "type": "address"
        }
      ],
      "name": "RoleRevoked",
      "type": "event"
    },
    {
      "anonymous": false,
      "inputs": [
        {
          "indexed": false,
          "internalType": "address",
          "name": "token0",
          "type": "address"
        },
        {
          "indexed": false,
          "internalType": "address",
          "name": "token1",
          "type": "address"
        },
        {
          "indexed": false,
          "internalType": "uint256",
          "name": "chainID0",
          "type": "uint256"
        },
        {
          "indexed": false,
          "internalType": "uint256",
          "name": "chainID1",
          "type": "uint256"
        },
        {
          "indexed": false,
          "internalType": "address",
          "name": "from",
          "type": "address"
        },
        {
          "indexed": false,
          "internalType": "address",
          "name": "to",
          "type": "address"
        },
        {
          "indexed": false,
          "internalType": "uint256",
          "name": "amount",
          "type": "uint256"
        },
        {
          "indexed": false,
          "internalType": "string",
          "name": "txid",
          "type": "string"
        }
      ],
      "name": "Rollback",
      "type": "event"
    },
    {
      "anonymous": false,
      "inputs": [
        {
          "indexed": false,
          "internalType": "address",
          "name": "token0",
          "type": "address"
        },
        {
          "indexed": false,
          "internalType": "address",
          "name": "from",
          "type": "address"
        },
        {
          "indexed": false,
          "internalType": "uint256",
          "name": "amount",
          "type": "uint256"
        },
        {
          "indexed": false,
          "internalType": "string",
          "name": "txid",
          "type": "string"
        }
      ],
      "name": "Rollbacked",
      "type": "event"
    },
    {
      "anonymous": false,
      "inputs": [
        {
          "indexed": false,
          "internalType": "address",
          "name": "token",
          "type": "address"
        },
        {
          "indexed": false,
          "internalType": "uint256",
          "name": "oldThreshold",
          "type": "uint256"
        },
        {
          "indexed": false,
          "internalType": "uint256",
          "name": "newThreshold",
          "type": "uint256"
        }
      ],
      "name": "ThresholdChanged",
      "type": "event"
    },
    {
      "anonymous": false,
      "inputs": [
        {
          "indexed": false,
          "internalType": "address",
          "name": "token0",
          "type": "address"
        },
        {
          "indexed": false,
          "internalType": "address",
          "name": "token1",
          "type": "address"
        },
        {
          "indexed": false,
          "internalType": "uint256",
          "name": "chianID0",
          "type": "uint256"
        },
        {
          "indexed": false,
          "internalType": "uint256",
          "name": "chainID1",
          "type": "uint256"
        },
        {
          "indexed": false,
          "internalType": "address",
          "name": "from",
          "type": "address"
        },
        {
          "indexed": false,
          "internalType": "address",
          "name": "to",
          "type": "address"
        },
        {
          "indexed": false,
          "internalType": "uint256",
          "name": "amount",
          "type": "uint256"
        },
        {
          "indexed": false,
          "internalType": "string",
          "name": "txid",
          "type": "string"
        }
      ],
      "name": "Unlock",
      "type": "event"
    },
    {
      "inputs": [],
      "name": "CROSSER_ROLE",
      "outputs": [
        {
          "internalType": "bytes32",
          "name": "",
          "type": "bytes32"
        }
      ],
      "stateMutability": "view",
      "type": "function"
    },
    {
      "inputs": [],
      "name": "DEFAULT_ADMIN_ROLE",
      "outputs": [
        {
          "internalType": "bytes32",
          "name": "",
          "type": "bytes32"
        }
      ],
      "stateMutability": "view",
      "type": "function"
    },
    {
      "inputs": [
        {
          "internalType": "address",
          "name": "token0",
          "type": "address"
        },
        {
          "internalType": "uint256",
          "name": "chainID",
          "type": "uint256"
        },
        {
          "internalType": "uint256",
          "name": "amount",
          "type": "uint256"
        },
        {
          "internalType": "address",
          "name": "to",
          "type": "address"
        }
      ],
      "name": "addLiquidity",
      "outputs": [
        {
          "internalType": "uint256",
          "name": "liquidity",
          "type": "uint256"
        }
      ],
      "stateMutability": "nonpayable",
      "type": "function"
    },
    {
      "inputs": [
        {
          "internalType": "address",
          "name": "token",
          "type": "address"
        },
        {
          "internalType": "address",
          "name": "pair",
          "type": "address"
        },
        {
          "internalType": "uint256",
          "name": "chainID",
          "type": "uint256"
        }
      ],
      "name": "addPair",
      "outputs": [],
      "stateMutability": "nonpayable",
      "type": "function"
    },
    {
      "inputs": [
        {
          "internalType": "address",
          "name": "token0",
          "type": "address"
        },
        {
          "internalType": "address",
          "name": "token1",
          "type": "address"
        },
        {
          "internalType": "uint256",
          "name": "chainID",
          "type": "uint256"
        }
      ],
      "name": "addSupportToken",
      "outputs": [],
      "stateMutability": "nonpayable",
      "type": "function"
    },
    {
      "inputs": [
        {
          "internalType": "address[]",
          "name": "token0s",
          "type": "address[]"
        },
        {
          "internalType": "address[]",
          "name": "token1s",
          "type": "address[]"
        },
        {
          "internalType": "uint256[]",
          "name": "chainIDs",
          "type": "uint256[]"
        }
      ],
      "name": "addSupportTokens",
      "outputs": [],
      "stateMutability": "nonpayable",
      "type": "function"
    },
    {
      "inputs": [
        {
          "internalType": "address",
          "name": "token",
          "type": "address"
        },
        {
          "internalType": "uint256",
          "name": "chainID",
          "type": "uint256"
        },
        {
          "internalType": "uint256",
          "name": "amount",
          "type": "uint256"
        }
      ],
      "name": "calculateFee",
      "outputs": [
        {
          "internalType": "uint256",
          "name": "feeAmountFix",
          "type": "uint256"
        },
        {
          "internalType": "uint256",
          "name": "feeAmountRatio",
          "type": "uint256"
        },
        {
          "internalType": "uint256",
          "name": "remainAmount",
          "type": "uint256"
        }
      ],
      "stateMutability": "view",
      "type": "function"
    },
    {
      "inputs": [
        {
          "internalType": "address",
          "name": "token",
          "type": "address"
        },
        {
          "internalType": "uint256",
          "name": "chainID",
          "type": "uint256"
        },
        {
          "internalType": "uint256",
          "name": "amount",
          "type": "uint256"
        }
      ],
      "name": "calculateRemoveFee",
      "outputs": [
        {
          "internalType": "uint256",
          "name": "feeAmount",
          "type": "uint256"
        },
        {
          "internalType": "uint256",
          "name": "remainAmount",
          "type": "uint256"
        }
      ],
      "stateMutability": "view",
      "type": "function"
    },
    {
      "inputs": [
        {
          "internalType": "address",
          "name": "token0",
          "type": "address"
        },
        {
          "internalType": "uint256",
          "name": "chainID",
          "type": "uint256"
        },
        {
          "internalType": "address",
          "name": "from",
          "type": "address"
        },
        {
          "internalType": "address",
          "name": "to",
          "type": "address"
        },
        {
          "internalType": "uint256",
          "name": "amount",
          "type": "uint256"
        },
        {
          "internalType": "string",
          "name": "txid",
          "type": "string"
        }
      ],
      "name": "crossIn",
      "outputs": [],
      "stateMutability": "nonpayable",
      "type": "function"
    },
    {
      "inputs": [
        {
          "internalType": "address",
          "name": "token0",
          "type": "address"
        },
        {
          "internalType": "uint256",
          "name": "chainID",
          "type": "uint256"
        },
        {
          "internalType": "address",
          "name": "to",
          "type": "address"
        },
        {
          "internalType": "uint256",
          "name": "amount",
          "type": "uint256"
        }
      ],
      "name": "crossOut",
      "outputs": [],
      "stateMutability": "nonpayable",
      "type": "function"
    },
    {
      "inputs": [
        {
          "internalType": "address",
          "name": "",
          "type": "address"
        },
        {
          "internalType": "uint256",
          "name": "",
          "type": "uint256"
        }
      ],
      "name": "feeAmountM",
      "outputs": [
        {
          "internalType": "uint256",
          "name": "",
          "type": "uint256"
        }
      ],
      "stateMutability": "view",
      "type": "function"
    },
    {
      "inputs": [
        {
          "internalType": "address",
          "name": "",
          "type": "address"
        },
        {
          "internalType": "uint256",
          "name": "",
          "type": "uint256"
        }
      ],
      "name": "feeRatioM",
      "outputs": [
        {
          "internalType": "uint256",
          "name": "",
          "type": "uint256"
        }
      ],
      "stateMutability": "view",
      "type": "function"
    },
    {
      "inputs": [
        {
          "internalType": "address",
          "name": "",
          "type": "address"
        },
        {
          "internalType": "uint256",
          "name": "",
          "type": "uint256"
        }
      ],
      "name": "feeTo",
      "outputs": [
        {
          "internalType": "address",
          "name": "",
          "type": "address"
        }
      ],
      "stateMutability": "view",
      "type": "function"
    },
    {
      "inputs": [],
      "name": "feeToDev",
      "outputs": [
        {
          "internalType": "address",
          "name": "",
          "type": "address"
        }
      ],
      "stateMutability": "view",
      "type": "function"
    },
    {
      "inputs": [
        {
          "internalType": "address",
          "name": "token0",
          "type": "address"
        },
        {
          "internalType": "uint256",
          "name": "chainID",
          "type": "uint256"
        }
      ],
      "name": "getMaxToken0AmountOut",
      "outputs": [
        {
          "internalType": "uint256",
          "name": "",
          "type": "uint256"
        }
      ],
      "stateMutability": "view",
      "type": "function"
    },
    {
      "inputs": [
        {
          "internalType": "address",
          "name": "token0",
          "type": "address"
        },
        {
          "internalType": "uint256",
          "name": "chainID",
          "type": "uint256"
        }
      ],
      "name": "getMaxToken1AmountOut",
      "outputs": [
        {
          "internalType": "uint256",
          "name": "",
          "type": "uint256"
        }
      ],
      "stateMutability": "view",
      "type": "function"
    },
    {
      "inputs": [
        {
          "internalType": "bytes32",
          "name": "role",
          "type": "bytes32"
        }
      ],
      "name": "getRoleAdmin",
      "outputs": [
        {
          "internalType": "bytes32",
          "name": "",
          "type": "bytes32"
        }
      ],
      "stateMutability": "view",
      "type": "function"
    },
    {
      "inputs": [
        {
          "internalType": "bytes32",
          "name": "role",
          "type": "bytes32"
        },
        {
          "internalType": "address",
          "name": "account",
          "type": "address"
        }
      ],
      "name": "grantRole",
      "outputs": [],
      "stateMutability": "nonpayable",
      "type": "function"
    },
    {
      "inputs": [
        {
          "internalType": "bytes32",
          "name": "role",
          "type": "bytes32"
        },
        {
          "internalType": "address",
          "name": "account",
          "type": "address"
        }
      ],
      "name": "hasRole",
      "outputs": [
        {
          "internalType": "bool",
          "name": "",
          "type": "bool"
        }
      ],
      "stateMutability": "view",
      "type": "function"
    },
    {
      "inputs": [
        {
          "internalType": "address",
          "name": "",
          "type": "address"
        },
        {
          "internalType": "uint256",
          "name": "",
          "type": "uint256"
        }
      ],
      "name": "pairs",
      "outputs": [
        {
          "internalType": "address",
          "name": "",
          "type": "address"
        }
      ],
      "stateMutability": "view",
      "type": "function"
    },
    {
      "inputs": [
        {
          "internalType": "address",
          "name": "",
          "type": "address"
        },
        {
          "internalType": "uint256",
          "name": "",
          "type": "uint256"
        }
      ],
      "name": "removeFeeAmount",
      "outputs": [
        {
          "internalType": "uint256",
          "name": "",
          "type": "uint256"
        }
      ],
      "stateMutability": "view",
      "type": "function"
    },
    {
      "inputs": [
        {
          "internalType": "address",
          "name": "token0",
          "type": "address"
        },
        {
          "internalType": "uint256",
          "name": "chainID",
          "type": "uint256"
        },
        {
          "internalType": "uint256",
          "name": "lpAmount",
          "type": "uint256"
        },
        {
          "internalType": "address",
          "name": "to",
          "type": "address"
        }
      ],
      "name": "removeLiquidity",
      "outputs": [
        {
          "internalType": "uint256",
          "name": "amount0",
          "type": "uint256"
        },
        {
          "internalType": "uint256",
          "name": "amount1",
          "type": "uint256"
        }
      ],
      "stateMutability": "nonpayable",
      "type": "function"
    },
    {
      "inputs": [
        {
          "internalType": "address",
          "name": "token",
          "type": "address"
        },
        {
          "internalType": "uint256",
          "name": "chainID",
          "type": "uint256"
        }
      ],
      "name": "removePair",
      "outputs": [],
      "stateMutability": "nonpayable",
      "type": "function"
    },
    {
      "inputs": [
        {
          "internalType": "address",
          "name": "token0",
          "type": "address"
        },
        {
          "internalType": "uint256",
          "name": "chainID",
          "type": "uint256"
        }
      ],
      "name": "removeSupportToken",
      "outputs": [],
      "stateMutability": "nonpayable",
      "type": "function"
    },
    {
      "inputs": [
        {
          "internalType": "address[]",
          "name": "token0s",
          "type": "address[]"
        },
        {
          "internalType": "uint256[]",
          "name": "chainIDs",
          "type": "uint256[]"
        }
      ],
      "name": "removeSupportTokens",
      "outputs": [],
      "stateMutability": "nonpayable",
      "type": "function"
    },
    {
      "inputs": [
        {
          "internalType": "bytes32",
          "name": "role",
          "type": "bytes32"
        },
        {
          "internalType": "address",
          "name": "account",
          "type": "address"
        }
      ],
      "name": "renounceRole",
      "outputs": [],
      "stateMutability": "nonpayable",
      "type": "function"
    },
    {
      "inputs": [
        {
          "internalType": "bytes32",
          "name": "role",
          "type": "bytes32"
        },
        {
          "internalType": "address",
          "name": "account",
          "type": "address"
        }
      ],
      "name": "revokeRole",
      "outputs": [],
      "stateMutability": "nonpayable",
      "type": "function"
    },
    {
      "inputs": [
        {
          "internalType": "address",
          "name": "token0",
          "type": "address"
        },
        {
          "internalType": "uint256",
          "name": "chainID",
          "type": "uint256"
        },
        {
          "internalType": "address",
          "name": "from",
          "type": "address"
        },
        {
          "internalType": "uint256",
          "name": "amount",
          "type": "uint256"
        },
        {
          "internalType": "string",
          "name": "txid",
          "type": "string"
        }
      ],
      "name": "rollback",
      "outputs": [],
      "stateMutability": "nonpayable",
      "type": "function"
    },
    {
      "inputs": [
        {
          "internalType": "address",
          "name": "token0",
          "type": "address"
        },
        {
          "internalType": "uint256",
          "name": "chainID",
          "type": "uint256"
        },
        {
          "internalType": "uint256",
          "name": "feeAmount",
          "type": "uint256"
        },
        {
          "internalType": "uint256",
          "name": "feeRatio",
          "type": "uint256"
        }
      ],
      "name": "setFee",
      "outputs": [],
      "stateMutability": "nonpayable",
      "type": "function"
    },
    {
      "inputs": [
        {
          "internalType": "address",
          "name": "account",
          "type": "address"
        }
      ],
      "name": "setFeeToDev",
      "outputs": [],
      "stateMutability": "nonpayable",
      "type": "function"
    },
    {
      "inputs": [
        {
          "internalType": "address",
          "name": "token0",
          "type": "address"
        },
        {
          "internalType": "uint256",
          "name": "chainID",
          "type": "uint256"
        },
        {
          "internalType": "uint256",
          "name": "_feeAmount",
          "type": "uint256"
        }
      ],
      "name": "setRemoveFee",
      "outputs": [],
      "stateMutability": "nonpayable",
      "type": "function"
    },
    {
      "inputs": [
        {
          "internalType": "address",
          "name": "token",
          "type": "address"
        },
        {
          "internalType": "uint256",
          "name": "_threshold",
          "type": "uint256"
        }
      ],
      "name": "setThreshold",
      "outputs": [],
      "stateMutability": "nonpayable",
      "type": "function"
    },
    {
      "inputs": [
        {
          "internalType": "address",
          "name": "token0",
          "type": "address"
        },
        {
          "internalType": "uint256",
          "name": "chainId",
          "type": "uint256"
        },
        {
          "internalType": "bool",
          "name": "_inactived",
          "type": "bool"
        }
      ],
      "name": "setUnlockFeeOn",
      "outputs": [],
      "stateMutability": "nonpayable",
      "type": "function"
    },
    {
      "inputs": [
        {
          "internalType": "address",
          "name": "",
          "type": "address"
        },
        {
          "internalType": "uint256",
          "name": "",
          "type": "uint256"
        }
      ],
      "name": "supportToken",
      "outputs": [
        {
          "internalType": "address",
          "name": "",
          "type": "address"
        }
      ],
      "stateMutability": "view",
      "type": "function"
    },
    {
      "inputs": [
        {
          "internalType": "bytes4",
          "name": "interfaceId",
          "type": "bytes4"
        }
      ],
      "name": "supportsInterface",
      "outputs": [
        {
          "internalType": "bool",
          "name": "",
          "type": "bool"
        }
      ],
      "stateMutability": "view",
      "type": "function"
    },
    {
      "inputs": [
        {
          "internalType": "address",
          "name": "",
          "type": "address"
        }
      ],
      "name": "threshold",
      "outputs": [
        {
          "internalType": "uint256",
          "name": "",
          "type": "uint256"
        }
      ],
      "stateMutability": "view",
      "type": "function"
    },
    {
      "inputs": [
        {
          "internalType": "string",
          "name": "",
          "type": "string"
        }
      ],
      "name": "txMinted",
      "outputs": [
        {
          "internalType": "bool",
          "name": "",
          "type": "bool"
        }
      ],
      "stateMutability": "view",
      "type": "function"
    },
    {
      "inputs": [
        {
          "internalType": "string",
          "name": "",
          "type": "string"
        }
      ],
      "name": "txRollbacked",
      "outputs": [
        {
          "internalType": "bool",
          "name": "",
          "type": "bool"
        }
      ],
      "stateMutability": "view",
      "type": "function"
    },
    {
      "inputs": [
        {
          "internalType": "string",
          "name": "",
          "type": "string"
        }
      ],
      "name": "txUnlocked",
      "outputs": [
        {
          "internalType": "bool",
          "name": "",
          "type": "bool"
        }
      ],
      "stateMutability": "view",
      "type": "function"
    },
    {
      "inputs": [
        {
          "internalType": "address",
          "name": "token0",
          "type": "address"
        },
        {
          "internalType": "uint256",
          "name": "chainID",
          "type": "uint256"
        },
        {
          "internalType": "address",
          "name": "from",
          "type": "address"
        },
        {
          "internalType": "address",
          "name": "to",
          "type": "address"
        },
        {
          "internalType": "uint256",
          "name": "amount",
          "type": "uint256"
        },
        {
          "internalType": "string",
          "name": "txid",
          "type": "string"
        }
      ],
      "name": "unlock",
      "outputs": [],
      "stateMutability": "nonpayable",
      "type": "function"
    },
    {
      "inputs": [
        {
          "internalType": "address",
          "name": "",
          "type": "address"
        },
        {
          "internalType": "uint256",
          "name": "",
          "type": "uint256"
        }
      ],
      "name": "unlockFeeOn",
      "outputs": [
        {
          "internalType": "bool",
          "name": "",
          "type": "bool"
        }
      ],
      "stateMutability": "view",
      "type": "function"
    }
  ],
  "transactionHash": "0x78b92222fd02de8c291172406facac93f2cad67f6692f73b6363e96ff1e61348",
  "args": [
    "0x62427d53a548aDd220717727484dAba382201095"
  ],
  "solcInputHash": "23ccfa0acef8b091c680d4f1904dc2cb",
  "bytecode": "0x60806040523480156200001157600080fd5b506040516200358e3803806200358e833981016040819052620000349162000117565b600980546001600160a01b0319166001600160a01b0383161790556200005c60003362000063565b5062000147565b6200006f828262000073565b5050565b60008281526004602090815260408083206001600160a01b038516845290915290205460ff166200006f5760008281526004602090815260408083206001600160a01b03851684529091529020805460ff19166001179055620000d33390565b6001600160a01b0316816001600160a01b0316837f2f8788117e7eff1d82e926ec794901d17c78024a50270940304540a733656f0d60405160405180910390a45050565b60006020828403121562000129578081fd5b81516001600160a01b038116811462000140578182fd5b9392505050565b61343780620001576000396000f3fe608060405234801561001057600080fd5b50600436106102535760003560e01c80638fed0b2c11610146578063be90c71b116100c3578063d692f4c511610087578063d692f4c514610661578063db697be414610695578063df7e600a146106c9578063ee8a6acf146106dc578063f06410f8146106ef578063f8f8d5c01461070257600080fd5b8063be90c71b146105dc578063c369c773146105ef578063c86ec2bf1461061b578063cf28f67c1461063b578063d547741f1461064e57600080fd5b80639c8d70be1161010a5780639c8d70be146105705780639d8799901461059b578063a217fddf146105ae578063a5597a94146105b6578063b5acfa62146105c957600080fd5b80638fed0b2c146104e157806391d1485414610509578063934ac7071461051c578063967145af1461052f57806398d2f6b41461055d57600080fd5b80632f2ff15d116101d45780635cb0c1fb116101985780635cb0c1fb14610437578063640789431461046257806368b1188f1461048d578063715ec45c146104bb57806381660f5d146104ce57600080fd5b80632f2ff15d146103ba57806336568abe146103cd57806353ad72e5146103e057806356cf02d91461040e57806356ecaeb71461042457600080fd5b806310c274021161021b57806310c274021461032257806312fef692146103505780631b322be414610371578063248a9ca3146103845780632599c037146103a757600080fd5b806301ffc9a7146102585780630324ef9c1461028057806303507ba5146102ae57806303d40513146102c3578063100be3bd1461030f575b600080fd5b61026b610266366004612e40565b610715565b60405190151581526020015b60405180910390f35b61029361028e366004612c4d565b61074c565b60408051938452602084019290925290820152606001610277565b6102c16102bc366004612d80565b6107c8565b005b6102f76102d1366004612ab3565b600e6020908152600092835260408084209091529082529020546001600160a01b031681565b6040516001600160a01b039091168152602001610277565b6009546102f7906001600160a01b031681565b61026b610330366004612e68565b8051602081830181018051600b8252928201919093012091525460ff1681565b61036361035e366004612c7f565b61086d565b604051908152602001610277565b6102c161037f366004612a78565b610971565b610363610392366004612dfd565b60009081526004602052604090206001015490565b6102c16103b5366004612ab3565b610a64565b6102c16103c8366004612e15565b610b26565b6102c16103db366004612e15565b610b4c565b61026b6103ee366004612e68565b8051602081830181018051600d8252928201919093012091525460ff1681565b6103636b43524f535345525f524f4c4560a01b81565b610363610432366004612ab3565b610bca565b610363610445366004612ab3565b600760209081526000928352604080842090915290825290205481565b610363610470366004612ab3565b600560209081526000928352604080842090915290825290205481565b61026b61049b366004612ab3565b600f60209081526000928352604080842090915290825290205460ff1681565b6102c16104c9366004612adc565b610c6c565b6102c16104dc366004612b9e565b610fa5565b6104f46104ef366004612c7f565b61112f565b60408051928352602083019190915201610277565b61026b610517366004612e15565b6113c8565b61036361052a366004612ab3565b6113f3565b61026b61053d366004612e68565b8051602081830181018051600c8252928201919093012091525460ff1681565b6102c161056b366004612c0e565b611495565b61036361057e366004612ab3565b600660209081526000928352604080842090915290825290205481565b6102c16105a9366004612ab3565b6115a6565b610363600081565b6102c16105c4366004612c4d565b6115d7565b6102c16105d7366004612a78565b611625565b6104f46105ea366004612c4d565b6116f7565b6102c16105fd366004612a5e565b600980546001600160a01b0319166001600160a01b03831617905550565b610363610629366004612a5e565b60006020819052908152604090205481565b6102c1610649366004612adc565b61179b565b6102c161065c366004612e15565b6119ea565b6102f761066f366004612ab3565b600a6020908152600092835260408084209091529082529020546001600160a01b031681565b6102f76106a3366004612ab3565b60086020908152600092835260408084209091529082529020546001600160a01b031681565b6102c16106d7366004612b5b565b611a10565b6102c16106ea366004612cfc565b611cbf565b6102c16106fd366004612cc4565b611dd5565b6102c1610710366004612ab3565b611e08565b60006001600160e01b03198216637965db0b60e01b148061074657506301ffc9a760e01b6001600160e01b03198316145b92915050565b6001600160a01b038316600081815260056020908152604080832086845282528083205493835260068252808320868452909152812054819061078f8582611ed4565b925061079b8385613210565b8510156107a757600093505b826107b28587613352565b6107bc9190613352565b91505093509350939050565b80518251146107f25760405162461bcd60e51b81526004016107e9906130d5565b60405180910390fd5b60005b82518110156108685761085683828151811061082157634e487b7160e01b600052603260045260246000fd5b602002602001015183838151811061084957634e487b7160e01b600052603260045260246000fd5b6020026020010151611e08565b80610860816133ac565b9150506107f5565b505050565b6001600160a01b038085166000908152600a60209081526040808320878452909152812054909186918691166108b55760405162461bcd60e51b81526004016107e990613184565b6001600160a01b038088166000818152600e602090815260408083208b8452909152902054909116906108ea90338389611efd565b6040516335313c2160e11b81526001600160a01b038681166004830152821690636a62784290602401602060405180830381600087803b15801561092d57600080fd5b505af1158015610941573d6000803e3d6000fd5b505050506040513d601f19601f820116820180604052508101906109659190612e9b565b98975050505050505050565b61097c6000336113c8565b6109985760405162461bcd60e51b81526004016107e99061314d565b6001600160a01b038381166000908152600a602090815260408083208584529091529020541615610a0b5760405162461bcd60e51b815260206004820152601e60248201527f54776f5761793a20546f6b6520616c726561647920537570706f72746564000060448201526064016107e9565b6001600160a01b039283166000818152600a60209081526040808320858452825280832080546001600160a01b0319169690971695909517909555908152600f845282812091815292529020805460ff19166001179055565b610a6f6000336113c8565b610a8b5760405162461bcd60e51b81526004016107e99061314d565b6001600160a01b038281166000908152600e6020908152604080832085845290915290205416610af35760405162461bcd60e51b81526020600482015260136024820152721d1bdad95b881b9bdd081cdd5c1c1bdc9d1959606a1b60448201526064016107e9565b6001600160a01b039091166000908152600e602090815260408083209383529290522080546001600160a01b0319169055565b600082815260046020526040902060010154610b428133611f68565b6108688383611fcc565b6001600160a01b0381163314610bbc5760405162461bcd60e51b815260206004820152602f60248201527f416363657373436f6e74726f6c3a2063616e206f6e6c792072656e6f756e636560448201526e103937b632b9903337b91039b2b63360891b60648201526084016107e9565b610bc68282612052565b5050565b6001600160a01b038083166000908152600e60209081526040808320858452909152808220548151630240bc6b60e21b815282519394919091169284928492630902f1ac9260048083019392829003018186803b158015610c2a57600080fd5b505afa158015610c3e573d6000803e3d6000fd5b505050506040513d601f19601f82011682018060405250810190610c629190612eb3565b9695505050505050565b6001600160a01b038087166000908152600a602090815260408083208984529091529020548791879116610cb25760405162461bcd60e51b81526004016107e990613184565b610ccb6b43524f535345525f524f4c4560a01b336113c8565b610ce75760405162461bcd60e51b81526004016107e990613116565b82600c81604051610cf89190612f5b565b9081526040519081900360200190205460ff1615610d4e5760405162461bcd60e51b8152602060048201526013602482015272151ddbd5d85e4e881d1e081d5b9b1bd8dad959606a1b60448201526064016107e9565b6000610d5d8a898989896120b9565b90508015610f99576001600c86604051610d779190612f5b565b9081526040805160209281900383019020805460ff1916931515939093179092556001600160a01b038c166000908152600f82528281208c8252909152205460ff1615610f17576000806000610dce8d8d8b61074c565b91945092509050610de96001600160a01b038e168b83612341565b610e50600e60008f6001600160a01b03166001600160a01b0316815260200190815260200160002060008e815260200190815260200160002060009054906101000a90046001600160a01b0316838f6001600160a01b03166123419092919063ffffffff16565b600e60008e6001600160a01b03166001600160a01b0316815260200190815260200160002060008d815260200190815260200160002060009054906101000a90046001600160a01b03166001600160a01b031663a2e620456040518163ffffffff1660e01b8152600401600060405180830381600087803b158015610ed457600080fd5b505af1158015610ee8573d6000803e3d6000fd5b505050506000831115610f0f57600954610f0f906001600160a01b038f8116911685612341565b505050610f2b565b610f2b6001600160a01b038b168888612341565b6001600160a01b03808b166000908152600a602090815260408083208d8452909152908190205490517fe8a9cddb11d86358ad5c2fdd6359f0a6f41de0d399033319becf1364409dacbc92610f90928e9291169046908e908e908e908e908e90613061565b60405180910390a15b50505050505050505050565b6001600160a01b038086166000908152600a602090815260408083208884529091529020548691869116610feb5760405162461bcd60e51b81526004016107e990613184565b6110046b43524f535345525f524f4c4560a01b336113c8565b6110205760405162461bcd60e51b81526004016107e990613116565b82600d816040516110319190612f5b565b9081526040519081900360200190205460ff16156110895760405162461bcd60e51b8152602060048201526015602482015274151ddbd5d85e4e881d1e081c9bdb1b189858dad959605a1b60448201526064016107e9565b600061109889888989896120b9565b90508015611124576001600d866040516110b29190612f5b565b908152604051908190036020019020805491151560ff199092169190911790556110e66001600160a01b038a168888612341565b7f9420db1a0c5e4f45cc0dac05f17e8eb893645981e3c01e8d14120353a487d9e98988888860405161111b9493929190612fec565b60405180910390a15b505050505050505050565b6001600160a01b038085166000908152600a602090815260408083208784529091528120549091829187918791166111795760405162461bcd60e51b81526004016107e990613184565b600086116111b35760405162461bcd60e51b815260206004820152600760248201526607a65726f206c760cc1b60448201526064016107e9565b6001600160a01b038881166000908152600e602090815260408083208b84529091528082205490516370a0823160e01b815233600482015292169182906370a082319060240160206040518083038186803b15801561121157600080fd5b505afa158015611225573d6000803e3d6000fd5b505050506040513d601f19601f820116820180604052508101906112499190612e9b565b90508781101561128b5760405162461bcd60e51b815260206004820152600d60248201526c04e6f7420656e6f756768206c7609c1b60448201526064016107e9565b6001600160a01b03808b1660009081526007602090815260408083208d84529091529081902054600954915163779afa3760e01b81523360048201528a84166024820152604481018c90529183166064830152608482018190529184169063779afa379060a4016040805180830381600087803b15801561130b57600080fd5b505af115801561131f573d6000803e3d6000fd5b505050506040513d601f19601f820116820180604052508101906113439190612eb3565b909750955085156113ba576001600160a01b03808c166000908152600a602090815260408083208e8452909152908190205490517f79aee25f54411be6ea1ab53c9d3cc3e245c301d481091deda6343da926932c0c926113b1928f9291169046908f9033908f908e9061301f565b60405180910390a15b505050505094509492505050565b60009182526004602090815260408084206001600160a01b0393909316845291905290205460ff1690565b6001600160a01b038083166000908152600e60209081526040808320858452909152808220548151630240bc6b60e21b815282519394919091169284928492630902f1ac9260048083019392829003018186803b15801561145357600080fd5b505afa158015611467573d6000803e3d6000fd5b505050506040513d601f19601f8201168201806040525081019061148b9190612eb3565b5095945050505050565b6114a06000336113c8565b6114bc5760405162461bcd60e51b81526004016107e99061314d565b6001600160a01b038084166000908152600a6020908152604080832086845290915290205484918491166115025760405162461bcd60e51b81526004016107e990613184565b6001600160a01b0385166000908152600f6020908152604080832087845290915290205460ff161515831515141561156f5760405162461bcd60e51b815260206004820152601060248201526f646f6e74206e656564206368616e676560801b60448201526064016107e9565b50506001600160a01b03929092166000908152600f6020908152604080832093835292905220805460ff1916911515919091179055565b6115b16000336113c8565b6115cd5760405162461bcd60e51b81526004016107e99061314d565b610bc68282612371565b6115e26000336113c8565b6115fe5760405162461bcd60e51b81526004016107e99061314d565b6001600160a01b039290921660009081526007602090815260408083209383529290522055565b6116306000336113c8565b61164c5760405162461bcd60e51b81526004016107e99061314d565b6001600160a01b038381166000908152600e6020908152604080832085845290915290205416156116bf5760405162461bcd60e51b815260206004820152601760248201527f746f6b656e20616c726561647920737570706f7274656400000000000000000060448201526064016107e9565b6001600160a01b039283166000908152600e602090815260408083209383529290522080546001600160a01b03191691909216179055565b6001600160a01b03831660009081526007602090815260408083208584529091528120548190831161175e5760405162461bcd60e51b815260206004820152601060248201526f3737ba1032b737bab3b4103a37b5b2b760811b60448201526064016107e9565b6001600160a01b0385166000908152600760209081526040808320878452909152902054915061178e8284613352565b9050935093915050565b50565b6117b46b43524f535345525f524f4c4560a01b336113c8565b6117d05760405162461bcd60e51b81526004016107e990613116565b80600b816040516117e19190612f5b565b9081526040519081900360200190205460ff16156118355760405162461bcd60e51b8152602060048201526011602482015270151ddbd5d85e4e881d1e081b5a5b9d1959607a1b60448201526064016107e9565b600061184488878787876120b9565b905080156119e0576001600b8460405161185e9190612f5b565b9081526040805160209281900383019020805460ff1916931515939093179092556001600160a01b038a81166000908152600e83528381208b82529092529181205490911690806118b08b8b8961074c565b925050915060006118c18c8c6113f3565b90508088111561195e577f56a316ee63540abb5f8fd44be7a6eb2016a90fc9bb3a34ffe13948a44c49a6168c600a60008f6001600160a01b03166001600160a01b0316815260200190815260200160002060008e815260200190815260200160002060009054906101000a90046001600160a01b0316468e8e8e8e8e604051611951989796959493929190613061565b60405180910390a16119db565b600954604051637d01538560e11b81526001600160a01b038b81166004830152602482018b9052604482018690526064820185905291821660848201529085169063fa02a70a9060a401600060405180830381600087803b1580156119c257600080fd5b505af11580156119d6573d6000803e3d6000fd5b505050505b505050505b5050505050505050565b600082815260046020526040902060010154611a068133611f68565b6108688383612052565b6001600160a01b038085166000908152600a602090815260408083208784529091529020548591859116611a565760405162461bcd60e51b81526004016107e990613184565b60008311611ab45760405162461bcd60e51b815260206004820152602560248201527f54776f5761793a20616d6f756e74206d75737420626520677265617465722074604482015264068616e20360dc1b60648201526084016107e9565b6001600160a01b038416611b005760405162461bcd60e51b815260206004820152601360248201527254776f5761793a20746f20697320656d70747960681b60448201526064016107e9565b6001600160a01b038087166000908152600e6020908152604080832089845290915281205490911690611b338888610bca565b90506000611b4186836123d5565b90508015611c2b57611b5e6001600160a01b038a16338584611efd565b60405163086cba5760e11b81526001600160a01b038881166004830152602482018390528416906310d974ae90604401600060405180830381600087803b158015611ba857600080fd5b505af1158015611bbc573d6000803e3d6000fd5b5050506001600160a01b03808b166000908152600a602090815260408083208d8452909152908190205490517f79aee25f54411be6ea1ab53c9d3cc3e245c301d481091deda6343da926932c0c9350611c22928d92169046908d9033908e90899061301f565b60405180910390a15b8186111561112457611c543330611c42848a613352565b6001600160a01b038d16929190611efd565b6001600160a01b03808a166000908152600a602090815260408083208c84529091529020547f7cb5e2d54d5587c3a3448631884061009b0e2c30e37922a4dd4aed50e11dd7f3918b9116468b338c611cac888e613352565b60405161111b979695949392919061301f565b8151835114611d105760405162461bcd60e51b815260206004820152601e60248201527f54776f5761793a20746f6b656e206c656e677468206e6f74206d61746368000060448201526064016107e9565b8051835114611d315760405162461bcd60e51b81526004016107e9906130d5565b60005b8351811015611dcf57611dbd848281518110611d6057634e487b7160e01b600052603260045260246000fd5b6020026020010151848381518110611d8857634e487b7160e01b600052603260045260246000fd5b6020026020010151848481518110611db057634e487b7160e01b600052603260045260246000fd5b6020026020010151610971565b80611dc7816133ac565b915050611d34565b50505050565b611de06000336113c8565b611dfc5760405162461bcd60e51b81526004016107e99061314d565b611dcf848484846123eb565b611e136000336113c8565b611e2f5760405162461bcd60e51b81526004016107e99061314d565b6001600160a01b038281166000908152600a6020908152604080832085845290915290205416611ea15760405162461bcd60e51b815260206004820152601a60248201527f54776f5761793a20746f6b65206e6f7420737570706f7274656400000000000060448201526064016107e9565b6001600160a01b039091166000908152600a602090815260408083209383529290522080546001600160a01b0319169055565b6000611ee26012600a61328b565b611eec84846124c0565b611ef69190613228565b9392505050565b6040516001600160a01b0380851660248301528316604482015260648101829052611dcf9085906323b872dd60e01b906084015b60408051601f198184030181529190526020810180516001600160e01b03166001600160e01b0319909316929092179091526124cc565b611f7282826113c8565b610bc657611f8a816001600160a01b0316601461259e565b611f9583602061259e565b604051602001611fa6929190612f77565b60408051601f198184030181529082905262461bcd60e51b82526107e9916004016130c2565b611fd682826113c8565b610bc65760008281526004602090815260408083206001600160a01b03851684529091529020805460ff1916600117905561200e3390565b6001600160a01b0316816001600160a01b0316837f2f8788117e7eff1d82e926ec794901d17c78024a50270940304540a733656f0d60405160405180910390a45050565b61205c82826113c8565b15610bc65760008281526004602090815260408083206001600160a01b0385168085529252808320805460ff1916905551339285917ff6391f5c32d9c69d2a47ea670b442974b53935d1edc7fd64eb21e047a839171b9190a45050565b6001600160a01b0385166000908152602081905260408120546121375760405162461bcd60e51b815260206004820152603060248201527f50726f706f73616c566f74653a207468726573686f6c642073686f756c64206260448201526f0652067726561746572207468616e20360841b60648201526084016107e9565b6001600160a01b03861660009081526020818152604080832054905190929161216a918a918a918a918a918a9101612f02565b60408051601f1981840301815291815281516020928301206000818152600190935291205490915060ff16156121e25760405162461bcd60e51b815260206004820152601860248201527f5f766f74653a3a70726f706f73616c2066696e6973686564000000000000000060448201526064016107e9565b600081815260026020908152604080832033845290915290205460ff161561224c5760405162461bcd60e51b815260206004820152601760248201527f5f766f74653a3a6d73672e73656e64657220766f74656400000000000000000060448201526064016107e9565b600081815260036020526040902054612266906001612780565b60008281526003602081815260408084209485556002825280842033855282528320805460ff191660011790559184905290525482116122be576000818152600160208190526040909120805460ff19168217905592505b6000818152600360209081526040918290205482516001600160a01b038c811682528b811693820193909352918916828401526060820188905233608083015260a082015260c0810184905290517fe458477b94285c9f254a407e2614c39f55230b527ff7f51d76fdf33e251ae9369181900360e00190a1505095945050505050565b6040516001600160a01b03831660248201526044810182905261086890849063a9059cbb60e01b90606401611f31565b6001600160a01b038216600081815260208181526040918290208054908590558251938452908301819052908201839052907fb18e91516e037486aa6fa38f56a8aac933fd127180efe9c9745ecbf660a78e449060600160405180910390a1505050565b60008183106123e45781611ef6565b5090919050565b670de0b6b3a764000081111561243b5760405162461bcd60e51b8152602060048201526015602482015274199959481c985d1a5bc81b9bdd0818dbdc9c9958dd605a1b60448201526064016107e9565b6001600160a01b0384166000818152600560209081526040808320878452825280832086905583835260068252808320878452825291829020849055815192835282018590528101839052606081018290527fe7de0268825882caac9be515100046b260e4bb88ef28dcf7e4d99a3b9b7537829060800160405180910390a150505050565b6000611ef68284613333565b6000612521826040518060400160405280602081526020017f5361666545524332303a206c6f772d6c6576656c2063616c6c206661696c6564815250856001600160a01b031661278c9092919063ffffffff16565b805190915015610868578080602001905181019061253f9190612de1565b6108685760405162461bcd60e51b815260206004820152602a60248201527f5361666545524332303a204552433230206f7065726174696f6e20646964206e6044820152691bdd081cdd58d8d9595960b21b60648201526084016107e9565b606060006125ad836002613333565b6125b8906002613210565b67ffffffffffffffff8111156125de57634e487b7160e01b600052604160045260246000fd5b6040519080825280601f01601f191660200182016040528015612608576020820181803683370190505b509050600360fc1b8160008151811061263157634e487b7160e01b600052603260045260246000fd5b60200101906001600160f81b031916908160001a905350600f60fb1b8160018151811061266e57634e487b7160e01b600052603260045260246000fd5b60200101906001600160f81b031916908160001a9053506000612692846002613333565b61269d906001613210565b90505b6001811115612731576f181899199a1a9b1b9c1cb0b131b232b360811b85600f16601081106126df57634e487b7160e01b600052603260045260246000fd5b1a60f81b82828151811061270357634e487b7160e01b600052603260045260246000fd5b60200101906001600160f81b031916908160001a90535060049490941c9361272a81613395565b90506126a0565b508315611ef65760405162461bcd60e51b815260206004820181905260248201527f537472696e67733a20686578206c656e67746820696e73756666696369656e7460448201526064016107e9565b6000611ef68284613210565b606061279b84846000856127a3565b949350505050565b6060824710156128045760405162461bcd60e51b815260206004820152602660248201527f416464726573733a20696e73756666696369656e742062616c616e636520666f6044820152651c8818d85b1b60d21b60648201526084016107e9565b843b6128525760405162461bcd60e51b815260206004820152601d60248201527f416464726573733a2063616c6c20746f206e6f6e2d636f6e747261637400000060448201526064016107e9565b600080866001600160a01b0316858760405161286e9190612f5b565b60006040518083038185875af1925050503d80600081146128ab576040519150601f19603f3d011682016040523d82523d6000602084013e6128b0565b606091505b50915091506128c08282866128cb565b979650505050505050565b606083156128da575081611ef6565b8251156128ea5782518084602001fd5b8160405162461bcd60e51b81526004016107e991906130c2565b80356001600160a01b038116811461291b57600080fd5b919050565b600082601f830112612930578081fd5b81356020612945612940836131ec565b6131bb565b80838252828201915082860187848660051b8901011115612964578586fd5b855b858110156129895761297782612904565b84529284019290840190600101612966565b5090979650505050505050565b600082601f8301126129a6578081fd5b813560206129b6612940836131ec565b80838252828201915082860187848660051b89010111156129d5578586fd5b855b85811015612989578135845292840192908401906001016129d7565b600082601f830112612a03578081fd5b813567ffffffffffffffff811115612a1d57612a1d6133dd565b612a30601f8201601f19166020016131bb565b818152846020838601011115612a44578283fd5b816020850160208301379081016020019190915292915050565b600060208284031215612a6f578081fd5b611ef682612904565b600080600060608486031215612a8c578182fd5b612a9584612904565b9250612aa360208501612904565b9150604084013590509250925092565b60008060408385031215612ac5578182fd5b612ace83612904565b946020939093013593505050565b60008060008060008060c08789031215612af4578182fd5b612afd87612904565b955060208701359450612b1260408801612904565b9350612b2060608801612904565b92506080870135915060a087013567ffffffffffffffff811115612b42578182fd5b612b4e89828a016129f3565b9150509295509295509295565b60008060008060808587031215612b70578384fd5b612b7985612904565b935060208501359250612b8e60408601612904565b9396929550929360600135925050565b600080600080600060a08688031215612bb5578081fd5b612bbe86612904565b945060208601359350612bd360408701612904565b925060608601359150608086013567ffffffffffffffff811115612bf5578182fd5b612c01888289016129f3565b9150509295509295909350565b600080600060608486031215612c22578283fd5b612c2b84612904565b9250602084013591506040840135612c42816133f3565b809150509250925092565b600080600060608486031215612c61578081fd5b612c6a84612904565b95602085013595506040909401359392505050565b60008060008060808587031215612c94578182fd5b612c9d85612904565b93506020850135925060408501359150612cb960608601612904565b905092959194509250565b60008060008060808587031215612cd9578182fd5b612ce285612904565b966020860135965060408601359560600135945092505050565b600080600060608486031215612d10578081fd5b833567ffffffffffffffff80821115612d27578283fd5b612d3387838801612920565b94506020860135915080821115612d48578283fd5b612d5487838801612920565b93506040860135915080821115612d69578283fd5b50612d7686828701612996565b9150509250925092565b60008060408385031215612d92578182fd5b823567ffffffffffffffff80821115612da9578384fd5b612db586838701612920565b93506020850135915080821115612dca578283fd5b50612dd785828601612996565b9150509250929050565b600060208284031215612df2578081fd5b8151611ef6816133f3565b600060208284031215612e0e578081fd5b5035919050565b60008060408385031215612e27578182fd5b82359150612e3760208401612904565b90509250929050565b600060208284031215612e51578081fd5b81356001600160e01b031981168114611ef6578182fd5b600060208284031215612e79578081fd5b813567ffffffffffffffff811115612e8f578182fd5b61279b848285016129f3565b600060208284031215612eac578081fd5b5051919050565b60008060408385031215612ec5578182fd5b505080516020909101519092909150565b60008151808452612eee816020860160208601613369565b601f01601f19169290920160200192915050565b60006bffffffffffffffffffffffff19808860601b168352808760601b166014840152808660601b1660288401525083603c8301528251612f4a81605c850160208701613369565b91909101605c019695505050505050565b60008251612f6d818460208701613369565b9190910192915050565b7f416363657373436f6e74726f6c3a206163636f756e7420000000000000000000815260008351612faf816017850160208801613369565b7001034b99036b4b9b9b4b733903937b6329607d1b6017918401918201528351612fe0816028840160208801613369565b01602801949350505050565b6001600160a01b0385811682528416602082015260408101839052608060608201819052600090610c6290830184612ed6565b6001600160a01b0397881681529587166020870152604086019490945260608501929092528416608084015290921660a082015260c081019190915260e00190565b6001600160a01b038981168252888116602083015260408201889052606082018790528581166080830152841660a082015260c0810183905261010060e082018190526000906130b383820185612ed6565b9b9a5050505050505050505050565b602081526000611ef66020830184612ed6565b60208082526021908201527f54776f5761793a20636861696e494473206c656e677468206e6f74206d6174636040820152600d60fb1b606082015260800190565b6020808252601d908201527f54776f5761793a2063616c6c6572206973206e6f742063726f73736572000000604082015260600190565b6020808252601b908201527f54776f5761793a2063616c6c6572206973206e6f742061646d696e0000000000604082015260600190565b6020808252601e908201527f54776f5761793a206e6f7420737570706f7274207468697320746f6b656e0000604082015260600190565b604051601f8201601f1916810167ffffffffffffffff811182821017156131e4576131e46133dd565b604052919050565b600067ffffffffffffffff821115613206576132066133dd565b5060051b60200190565b60008219821115613223576132236133c7565b500190565b60008261324357634e487b7160e01b81526012600452602481fd5b500490565b600181815b80851115613283578160001904821115613269576132696133c7565b8085161561327657918102915b93841c939080029061324d565b509250929050565b6000611ef683836000826132a157506001610746565b816132ae57506000610746565b81600181146132c457600281146132ce576132ea565b6001915050610746565b60ff8411156132df576132df6133c7565b50506001821b610746565b5060208310610133831016604e8410600b841016171561330d575081810a610746565b6133178383613248565b806000190482111561332b5761332b6133c7565b029392505050565b600081600019048311821515161561334d5761334d6133c7565b500290565b600082821015613364576133646133c7565b500390565b60005b8381101561338457818101518382015260200161336c565b83811115611dcf5750506000910152565b6000816133a4576133a46133c7565b506000190190565b60006000198214156133c0576133c06133c7565b5060010190565b634e487b7160e01b600052601160045260246000fd5b634e487b7160e01b600052604160045260246000fd5b801515811461179857600080fdfea2646970667358221220a1c82877b698ffce5d810a6a0d218c1898995d6de46ec9eb7568bbe532561a1d64736f6c63430008040033",
  "devdoc": {
    "kind": "dev",
    "methods": {
      "getRoleAdmin(bytes32)": {
        "details": "Returns the admin role that controls `role`. See {grantRole} and {revokeRole}. To change a role's admin, use {_setRoleAdmin}."
      },
      "grantRole(bytes32,address)": {
        "details": "Grants `role` to `account`. If `account` had not been already granted `role`, emits a {RoleGranted} event. Requirements: - the caller must have ``role``'s admin role."
      },
      "hasRole(bytes32,address)": {
        "details": "Returns `true` if `account` has been granted `role`."
      },
      "renounceRole(bytes32,address)": {
        "details": "Revokes `role` from the calling account. Roles are often managed via {grantRole} and {revokeRole}: this function's purpose is to provide a mechanism for accounts to lose their privileges if they are compromised (such as when a trusted device is misplaced). If the calling account had been granted `role`, emits a {RoleRevoked} event. Requirements: - the caller must be `account`."
      },
      "revokeRole(bytes32,address)": {
        "details": "Revokes `role` from `account`. If `account` had been granted `role`, emits a {RoleRevoked} event. Requirements: - the caller must have ``role``'s admin role."
      },
      "supportsInterface(bytes4)": {
        "details": "See {IERC165-supportsInterface}."
      }
    },
    "version": 1
  },
  "userdoc": {
    "kind": "user",
    "methods": {},
    "version": 1
  },
  "storageLayout": {
    "storage": [
      {
        "astId": 6047,
        "contract": "contracts/twoway/TwoWay.sol:TwoWay",
        "label": "threshold",
        "offset": 0,
        "slot": "0",
        "type": "t_mapping(t_address,t_uint256)"
      },
      {
        "astId": 6051,
        "contract": "contracts/twoway/TwoWay.sol:TwoWay",
        "label": "isFinished",
        "offset": 0,
        "slot": "1",
        "type": "t_mapping(t_bytes32,t_bool)"
      },
      {
        "astId": 6057,
        "contract": "contracts/twoway/TwoWay.sol:TwoWay",
        "label": "isVoted",
        "offset": 0,
        "slot": "2",
        "type": "t_mapping(t_bytes32,t_mapping(t_address,t_bool))"
      },
      {
        "astId": 6061,
        "contract": "contracts/twoway/TwoWay.sol:TwoWay",
        "label": "counter",
        "offset": 0,
        "slot": "3",
        "type": "t_mapping(t_bytes32,t_uint256)"
      },
      {
        "astId": 2437,
        "contract": "contracts/twoway/TwoWay.sol:TwoWay",
        "label": "_roles",
        "offset": 0,
        "slot": "4",
        "type": "t_mapping(t_bytes32,t_struct(RoleData)2432_storage)"
      },
      {
        "astId": 9607,
        "contract": "contracts/twoway/TwoWay.sol:TwoWay",
        "label": "feeAmountM",
        "offset": 0,
        "slot": "5",
        "type": "t_mapping(t_address,t_mapping(t_uint256,t_uint256))"
      },
      {
        "astId": 9613,
        "contract": "contracts/twoway/TwoWay.sol:TwoWay",
        "label": "feeRatioM",
        "offset": 0,
        "slot": "6",
        "type": "t_mapping(t_address,t_mapping(t_uint256,t_uint256))"
      },
      {
        "astId": 9619,
        "contract": "contracts/twoway/TwoWay.sol:TwoWay",
        "label": "removeFeeAmount",
        "offset": 0,
        "slot": "7",
        "type": "t_mapping(t_address,t_mapping(t_uint256,t_uint256))"
      },
      {
        "astId": 9625,
        "contract": "contracts/twoway/TwoWay.sol:TwoWay",
        "label": "feeTo",
        "offset": 0,
        "slot": "8",
        "type": "t_mapping(t_address,t_mapping(t_uint256,t_address))"
      },
      {
        "astId": 9627,
        "contract": "contracts/twoway/TwoWay.sol:TwoWay",
        "label": "feeToDev",
        "offset": 0,
        "slot": "9",
        "type": "t_address"
      },
      {
        "astId": 8435,
        "contract": "contracts/twoway/TwoWay.sol:TwoWay",
        "label": "supportToken",
        "offset": 0,
        "slot": "10",
        "type": "t_mapping(t_address,t_mapping(t_uint256,t_address))"
      },
      {
        "astId": 8439,
        "contract": "contracts/twoway/TwoWay.sol:TwoWay",
        "label": "txMinted",
        "offset": 0,
        "slot": "11",
        "type": "t_mapping(t_string_memory_ptr,t_bool)"
      },
      {
        "astId": 8443,
        "contract": "contracts/twoway/TwoWay.sol:TwoWay",
        "label": "txUnlocked",
        "offset": 0,
        "slot": "12",
        "type": "t_mapping(t_string_memory_ptr,t_bool)"
      },
      {
        "astId": 8447,
        "contract": "contracts/twoway/TwoWay.sol:TwoWay",
        "label": "txRollbacked",
        "offset": 0,
        "slot": "13",
        "type": "t_mapping(t_string_memory_ptr,t_bool)"
      },
      {
        "astId": 8453,
        "contract": "contracts/twoway/TwoWay.sol:TwoWay",
        "label": "pairs",
        "offset": 0,
        "slot": "14",
        "type": "t_mapping(t_address,t_mapping(t_uint256,t_address))"
      },
      {
        "astId": 8459,
        "contract": "contracts/twoway/TwoWay.sol:TwoWay",
        "label": "unlockFeeOn",
        "offset": 0,
        "slot": "15",
        "type": "t_mapping(t_address,t_mapping(t_uint256,t_bool))"
      }
    ],
    "types": {
      "t_address": {
        "encoding": "inplace",
        "label": "address",
        "numberOfBytes": "20"
      },
      "t_bool": {
        "encoding": "inplace",
        "label": "bool",
        "numberOfBytes": "1"
      },
      "t_bytes32": {
        "encoding": "inplace",
        "label": "bytes32",
        "numberOfBytes": "32"
      },
      "t_mapping(t_address,t_bool)": {
        "encoding": "mapping",
        "key": "t_address",
        "label": "mapping(address => bool)",
        "numberOfBytes": "32",
        "value": "t_bool"
      },
      "t_mapping(t_address,t_mapping(t_uint256,t_address))": {
        "encoding": "mapping",
        "key": "t_address",
        "label": "mapping(address => mapping(uint256 => address))",
        "numberOfBytes": "32",
        "value": "t_mapping(t_uint256,t_address)"
      },
      "t_mapping(t_address,t_mapping(t_uint256,t_bool))": {
        "encoding": "mapping",
        "key": "t_address",
        "label": "mapping(address => mapping(uint256 => bool))",
        "numberOfBytes": "32",
        "value": "t_mapping(t_uint256,t_bool)"
      },
      "t_mapping(t_address,t_mapping(t_uint256,t_uint256))": {
        "encoding": "mapping",
        "key": "t_address",
        "label": "mapping(address => mapping(uint256 => uint256))",
        "numberOfBytes": "32",
        "value": "t_mapping(t_uint256,t_uint256)"
      },
      "t_mapping(t_address,t_uint256)": {
        "encoding": "mapping",
        "key": "t_address",
        "label": "mapping(address => uint256)",
        "numberOfBytes": "32",
        "value": "t_uint256"
      },
      "t_mapping(t_bytes32,t_bool)": {
        "encoding": "mapping",
        "key": "t_bytes32",
        "label": "mapping(bytes32 => bool)",
        "numberOfBytes": "32",
        "value": "t_bool"
      },
      "t_mapping(t_bytes32,t_mapping(t_address,t_bool))": {
        "encoding": "mapping",
        "key": "t_bytes32",
        "label": "mapping(bytes32 => mapping(address => bool))",
        "numberOfBytes": "32",
        "value": "t_mapping(t_address,t_bool)"
      },
      "t_mapping(t_bytes32,t_struct(RoleData)2432_storage)": {
        "encoding": "mapping",
        "key": "t_bytes32",
        "label": "mapping(bytes32 => struct AccessControl.RoleData)",
        "numberOfBytes": "32",
        "value": "t_struct(RoleData)2432_storage"
      },
      "t_mapping(t_bytes32,t_uint256)": {
        "encoding": "mapping",
        "key": "t_bytes32",
        "label": "mapping(bytes32 => uint256)",
        "numberOfBytes": "32",
        "value": "t_uint256"
      },
      "t_mapping(t_string_memory_ptr,t_bool)": {
        "encoding": "mapping",
        "key": "t_string_memory_ptr",
        "label": "mapping(string => bool)",
        "numberOfBytes": "32",
        "value": "t_bool"
      },
      "t_mapping(t_uint256,t_address)": {
        "encoding": "mapping",
        "key": "t_uint256",
        "label": "mapping(uint256 => address)",
        "numberOfBytes": "32",
        "value": "t_address"
      },
      "t_mapping(t_uint256,t_bool)": {
        "encoding": "mapping",
        "key": "t_uint256",
        "label": "mapping(uint256 => bool)",
        "numberOfBytes": "32",
        "value": "t_bool"
      },
      "t_mapping(t_uint256,t_uint256)": {
        "encoding": "mapping",
        "key": "t_uint256",
        "label": "mapping(uint256 => uint256)",
        "numberOfBytes": "32",
        "value": "t_uint256"
      },
      "t_string_memory_ptr": {
        "encoding": "bytes",
        "label": "string",
        "numberOfBytes": "32"
      },
      "t_struct(RoleData)2432_storage": {
        "encoding": "inplace",
        "label": "struct AccessControl.RoleData",
        "members": [
          {
            "astId": 2429,
            "contract": "contracts/twoway/TwoWay.sol:TwoWay",
            "label": "members",
            "offset": 0,
            "slot": "0",
            "type": "t_mapping(t_address,t_bool)"
          },
          {
            "astId": 2431,
            "contract": "contracts/twoway/TwoWay.sol:TwoWay",
            "label": "adminRole",
            "offset": 0,
            "slot": "1",
            "type": "t_bytes32"
          }
        ],
        "numberOfBytes": "64"
      },
      "t_uint256": {
        "encoding": "inplace",
        "label": "uint256",
        "numberOfBytes": "32"
      }
    }
  }
}