{
  "address": "0x322813Fd9A801c5507c9de605d63CEA4f2CE6c44",
  "abi": [
    {
      "inputs": [
        {
          "internalType": "string",
          "name": "_name",
          "type": "string"
        },
        {
          "internalType": "string",
          "name": "_symbol",
          "type": "string"
        },
        {
          "internalType": "uint8",
          "name": "decimals_",
          "type": "uint8"
        }
      ],
      "stateMutability": "nonpayable",
      "type": "constructor"
    },
    {
      "anonymous": false,
      "inputs": [
        {
          "indexed": true,
          "internalType": "address",
          "name": "owner",
          "type": "address"
        },
        {
          "indexed": true,
          "internalType": "address",
          "name": "spender",
          "type": "address"
        },
        {
          "indexed": false,
          "internalType": "uint256",
          "name": "value",
          "type": "uint256"
        }
      ],
      "name": "Approval",
      "type": "event"
    },
    {
      "anonymous": false,
      "inputs": [
        {
          "indexed": true,
          "internalType": "address",
          "name": "from",
          "type": "address"
        },
        {
          "indexed": true,
          "internalType": "address",
          "name": "to",
          "type": "address"
        },
        {
          "indexed": false,
          "internalType": "uint256",
          "name": "value",
          "type": "uint256"
        }
      ],
      "name": "Transfer",
      "type": "event"
    },
    {
      "inputs": [
        {
          "internalType": "address",
          "name": "owner",
          "type": "address"
        },
        {
          "internalType": "address",
          "name": "spender",
          "type": "address"
        }
      ],
      "name": "allowance",
      "outputs": [
        {
          "internalType": "uint256",
          "name": "",
          "type": "uint256"
        }
      ],
      "stateMutability": "view",
      "type": "function"
    },
    {
      "inputs": [
        {
          "internalType": "address",
          "name": "spender",
          "type": "address"
        },
        {
          "internalType": "uint256",
          "name": "amount",
          "type": "uint256"
        }
      ],
      "name": "approve",
      "outputs": [
        {
          "internalType": "bool",
          "name": "",
          "type": "bool"
        }
      ],
      "stateMutability": "nonpayable",
      "type": "function"
    },
    {
      "inputs": [
        {
          "internalType": "address",
          "name": "account",
          "type": "address"
        }
      ],
      "name": "balanceOf",
      "outputs": [
        {
          "internalType": "uint256",
          "name": "",
          "type": "uint256"
        }
      ],
      "stateMutability": "view",
      "type": "function"
    },
    {
      "inputs": [],
      "name": "decimals",
      "outputs": [
        {
          "internalType": "uint8",
          "name": "",
          "type": "uint8"
        }
      ],
      "stateMutability": "view",
      "type": "function"
    },
    {
      "inputs": [
        {
          "internalType": "address",
          "name": "spender",
          "type": "address"
        },
        {
          "internalType": "uint256",
          "name": "subtractedValue",
          "type": "uint256"
        }
      ],
      "name": "decreaseAllowance",
      "outputs": [
        {
          "internalType": "bool",
          "name": "",
          "type": "bool"
        }
      ],
      "stateMutability": "nonpayable",
      "type": "function"
    },
    {
      "inputs": [],
      "name": "faucet",
      "outputs": [],
      "stateMutability": "nonpayable",
      "type": "function"
    },
    {
      "inputs": [
        {
          "internalType": "address",
          "name": "spender",
          "type": "address"
        },
        {
          "internalType": "uint256",
          "name": "addedValue",
          "type": "uint256"
        }
      ],
      "name": "increaseAllowance",
      "outputs": [
        {
          "internalType": "bool",
          "name": "",
          "type": "bool"
        }
      ],
      "stateMutability": "nonpayable",
      "type": "function"
    },
    {
      "inputs": [],
      "name": "name",
      "outputs": [
        {
          "internalType": "string",
          "name": "",
          "type": "string"
        }
      ],
      "stateMutability": "view",
      "type": "function"
    },
    {
      "inputs": [],
      "name": "symbol",
      "outputs": [
        {
          "internalType": "string",
          "name": "",
          "type": "string"
        }
      ],
      "stateMutability": "view",
      "type": "function"
    },
    {
      "inputs": [],
      "name": "totalSupply",
      "outputs": [
        {
          "internalType": "uint256",
          "name": "",
          "type": "uint256"
        }
      ],
      "stateMutability": "view",
      "type": "function"
    },
    {
      "inputs": [
        {
          "internalType": "address",
          "name": "recipient",
          "type": "address"
        },
        {
          "internalType": "uint256",
          "name": "amount",
          "type": "uint256"
        }
      ],
      "name": "transfer",
      "outputs": [
        {
          "internalType": "bool",
          "name": "",
          "type": "bool"
        }
      ],
      "stateMutability": "nonpayable",
      "type": "function"
    },
    {
      "inputs": [
        {
          "internalType": "address",
          "name": "sender",
          "type": "address"
        },
        {
          "internalType": "address",
          "name": "recipient",
          "type": "address"
        },
        {
          "internalType": "uint256",
          "name": "amount",
          "type": "uint256"
        }
      ],
      "name": "transferFrom",
      "outputs": [
        {
          "internalType": "bool",
          "name": "",
          "type": "bool"
        }
      ],
      "stateMutability": "nonpayable",
      "type": "function"
    }
  ],
  "transactionHash": "0x255439304012d7b4a44e775c2504600158e61a41b793a51077a9277d435eef88",
  "args": [
    "TestERC20",
    "USDT",
    18
  ],
  "solcInputHash": "2fd1e821dd6b8596ade15d5cef4066fc",
  "bytecode": "0x60806040523480156200001157600080fd5b5060405162001035380380620010358339810160408190526200003491620002ee565b8251839083906200004d90600390602085019062000195565b5080516200006390600490602084019062000195565b505050620000903382600a6200007a9190620003d3565b6200008a906305f5e100620004a1565b620000ad565b6005805460ff191660ff92909216919091179055506200052c9050565b6001600160a01b038216620001085760405162461bcd60e51b815260206004820152601f60248201527f45524332303a206d696e7420746f20746865207a65726f206164647265737300604482015260640160405180910390fd5b80600260008282546200011c91906200036f565b90915550506001600160a01b038216600090815260208190526040812080548392906200014b9084906200036f565b90915550506040518181526001600160a01b038316906000907fddf252ad1be2c89b69c2b068fc378daa952ba7f163c4a11628f55a4df523b3ef9060200160405180910390a35050565b828054620001a390620004c3565b90600052602060002090601f016020900481019282620001c7576000855562000212565b82601f10620001e257805160ff191683800117855562000212565b8280016001018555821562000212579182015b8281111562000212578251825591602001919060010190620001f5565b506200022092915062000224565b5090565b5b8082111562000220576000815560010162000225565b600082601f8301126200024c578081fd5b81516001600160401b038082111562000269576200026962000516565b604051601f8301601f19908116603f0116810190828211818310171562000294576200029462000516565b81604052838152602092508683858801011115620002b0578485fd5b8491505b83821015620002d35785820183015181830184015290820190620002b4565b83821115620002e457848385830101525b9695505050505050565b60008060006060848603121562000303578283fd5b83516001600160401b03808211156200031a578485fd5b62000328878388016200023b565b945060208601519150808211156200033e578384fd5b506200034d868287016200023b565b925050604084015160ff8116811462000364578182fd5b809150509250925092565b6000821982111562000385576200038562000500565b500190565b600181815b80851115620003cb578160001904821115620003af57620003af62000500565b80851615620003bd57918102915b93841c93908002906200038f565b509250929050565b6000620003e460ff841683620003eb565b9392505050565b600082620003fc575060016200049b565b816200040b575060006200049b565b81600181146200042457600281146200042f576200044f565b60019150506200049b565b60ff84111562000443576200044362000500565b50506001821b6200049b565b5060208310610133831016604e8410600b841016171562000474575081810a6200049b565b6200048083836200038a565b806000190482111562000497576200049762000500565b0290505b92915050565b6000816000190483118215151615620004be57620004be62000500565b500290565b600181811c90821680620004d857607f821691505b60208210811415620004fa57634e487b7160e01b600052602260045260246000fd5b50919050565b634e487b7160e01b600052601160045260246000fd5b634e487b7160e01b600052604160045260246000fd5b610af9806200053c6000396000f3fe608060405234801561001057600080fd5b50600436106100b45760003560e01c806370a082311161007157806370a082311461014757806395d89b4114610170578063a457c2d714610178578063a9059cbb1461018b578063dd62ed3e1461019e578063de5f72fd146101d757600080fd5b806306fdde03146100b9578063095ea7b3146100d757806318160ddd146100fa57806323b872dd1461010c578063313ce5671461011f5780633950935114610134575b600080fd5b6100c16101e1565b6040516100ce91906108fa565b60405180910390f35b6100ea6100e53660046108d1565b610273565b60405190151581526020016100ce565b6002545b6040519081526020016100ce565b6100ea61011a366004610896565b61028a565b60055460405160ff90911681526020016100ce565b6100ea6101423660046108d1565b610339565b6100fe610155366004610843565b6001600160a01b031660009081526020819052604090205490565b6100c1610375565b6100ea6101863660046108d1565b610384565b6100ea6101993660046108d1565b61041d565b6100fe6101ac366004610864565b6001600160a01b03918216600090815260016020908152604080832093909416825291909152205490565b6101df61042a565b005b6060600380546101f090610a72565b80601f016020809104026020016040519081016040528092919081815260200182805461021c90610a72565b80156102695780601f1061023e57610100808354040283529160200191610269565b820191906000526020600020905b81548152906001019060200180831161024c57829003601f168201915b5050505050905090565b6000610280338484610455565b5060015b92915050565b6000610297848484610579565b6001600160a01b0384166000908152600160209081526040808320338452909152902054828110156103215760405162461bcd60e51b815260206004820152602860248201527f45524332303a207472616e7366657220616d6f756e74206578636565647320616044820152676c6c6f77616e636560c01b60648201526084015b60405180910390fd5b61032e8533858403610455565b506001949350505050565b3360008181526001602090815260408083206001600160a01b0387168452909152812054909161028091859061037090869061094d565b610455565b6060600480546101f090610a72565b3360009081526001602090815260408083206001600160a01b0386168452909152812054828110156104065760405162461bcd60e51b815260206004820152602560248201527f45524332303a2064656372656173656420616c6c6f77616e63652062656c6f77604482015264207a65726f60d81b6064820152608401610318565b6104133385858403610455565b5060019392505050565b6000610280338484610579565b6005546104539033906104419060ff16600a6109a8565b61044e90620186a0610a53565b610748565b565b6001600160a01b0383166104b75760405162461bcd60e51b8152602060048201526024808201527f45524332303a20617070726f76652066726f6d20746865207a65726f206164646044820152637265737360e01b6064820152608401610318565b6001600160a01b0382166105185760405162461bcd60e51b815260206004820152602260248201527f45524332303a20617070726f766520746f20746865207a65726f206164647265604482015261737360f01b6064820152608401610318565b6001600160a01b0383811660008181526001602090815260408083209487168084529482529182902085905590518481527f8c5be1e5ebec7d5bd14f71427d1e84f3dd0314c0f7b2291e5b200ac8c7c3b925910160405180910390a3505050565b6001600160a01b0383166105dd5760405162461bcd60e51b815260206004820152602560248201527f45524332303a207472616e736665722066726f6d20746865207a65726f206164604482015264647265737360d81b6064820152608401610318565b6001600160a01b03821661063f5760405162461bcd60e51b815260206004820152602360248201527f45524332303a207472616e7366657220746f20746865207a65726f206164647260448201526265737360e81b6064820152608401610318565b6001600160a01b038316600090815260208190526040902054818110156106b75760405162461bcd60e51b815260206004820152602660248201527f45524332303a207472616e7366657220616d6f756e7420657863656564732062604482015265616c616e636560d01b6064820152608401610318565b6001600160a01b038085166000908152602081905260408082208585039055918516815290812080548492906106ee90849061094d565b92505081905550826001600160a01b0316846001600160a01b03167fddf252ad1be2c89b69c2b068fc378daa952ba7f163c4a11628f55a4df523b3ef8460405161073a91815260200190565b60405180910390a350505050565b6001600160a01b03821661079e5760405162461bcd60e51b815260206004820152601f60248201527f45524332303a206d696e7420746f20746865207a65726f2061646472657373006044820152606401610318565b80600260008282546107b0919061094d565b90915550506001600160a01b038216600090815260208190526040812080548392906107dd90849061094d565b90915550506040518181526001600160a01b038316906000907fddf252ad1be2c89b69c2b068fc378daa952ba7f163c4a11628f55a4df523b3ef9060200160405180910390a35050565b80356001600160a01b038116811461083e57600080fd5b919050565b600060208284031215610854578081fd5b61085d82610827565b9392505050565b60008060408385031215610876578081fd5b61087f83610827565b915061088d60208401610827565b90509250929050565b6000806000606084860312156108aa578081fd5b6108b384610827565b92506108c160208501610827565b9150604084013590509250925092565b600080604083850312156108e3578182fd5b6108ec83610827565b946020939093013593505050565b6000602080835283518082850152825b818110156109265785810183015185820160400152820161090a565b818111156109375783604083870101525b50601f01601f1916929092016040019392505050565b6000821982111561096057610960610aad565b500190565b600181815b808511156109a057816000190482111561098657610986610aad565b8085161561099357918102915b93841c939080029061096a565b509250929050565b600061085d60ff8416836000826109c157506001610284565b816109ce57506000610284565b81600181146109e457600281146109ee57610a0a565b6001915050610284565b60ff8411156109ff576109ff610aad565b50506001821b610284565b5060208310610133831016604e8410600b8410161715610a2d575081810a610284565b610a378383610965565b8060001904821115610a4b57610a4b610aad565b029392505050565b6000816000190483118215151615610a6d57610a6d610aad565b500290565b600181811c90821680610a8657607f821691505b60208210811415610aa757634e487b7160e01b600052602260045260246000fd5b50919050565b634e487b7160e01b600052601160045260246000fdfea2646970667358221220932681211c50ffbbef02b089a78bf5b677ff387703ea258b84f5e6fb4e326f8864736f6c63430008040033",
  "devdoc": {
    "kind": "dev",
    "methods": {
      "allowance(address,address)": {
        "details": "See {IERC20-allowance}."
      },
      "approve(address,uint256)": {
        "details": "See {IERC20-approve}. Requirements: - `spender` cannot be the zero address."
      },
      "balanceOf(address)": {
        "details": "See {IERC20-balanceOf}."
      },
      "decimals()": {
        "details": "Returns the number of decimals used to get its user representation. For example, if `decimals` equals `2`, a balance of `505` tokens should be displayed to a user as `5,05` (`505 / 10 ** 2`). Tokens usually opt for a value of 18, imitating the relationship between Ether and Wei. This is the value {ERC20} uses, unless this function is overridden; NOTE: This information is only used for _display_ purposes: it in no way affects any of the arithmetic of the contract, including {IERC20-balanceOf} and {IERC20-transfer}."
      },
      "decreaseAllowance(address,uint256)": {
        "details": "Atomically decreases the allowance granted to `spender` by the caller. This is an alternative to {approve} that can be used as a mitigation for problems described in {IERC20-approve}. Emits an {Approval} event indicating the updated allowance. Requirements: - `spender` cannot be the zero address. - `spender` must have allowance for the caller of at least `subtractedValue`."
      },
      "increaseAllowance(address,uint256)": {
        "details": "Atomically increases the allowance granted to `spender` by the caller. This is an alternative to {approve} that can be used as a mitigation for problems described in {IERC20-approve}. Emits an {Approval} event indicating the updated allowance. Requirements: - `spender` cannot be the zero address."
      },
      "name()": {
        "details": "Returns the name of the token."
      },
      "symbol()": {
        "details": "Returns the symbol of the token, usually a shorter version of the name."
      },
      "totalSupply()": {
        "details": "See {IERC20-totalSupply}."
      },
      "transfer(address,uint256)": {
        "details": "See {IERC20-transfer}. Requirements: - `recipient` cannot be the zero address. - the caller must have a balance of at least `amount`."
      },
      "transferFrom(address,address,uint256)": {
        "details": "See {IERC20-transferFrom}. Emits an {Approval} event indicating the updated allowance. This is not required by the EIP. See the note at the beginning of {ERC20}. Requirements: - `sender` and `recipient` cannot be the zero address. - `sender` must have a balance of at least `amount`. - the caller must have allowance for ``sender``'s tokens of at least `amount`."
      }
    },
    "version": 1
  },
  "userdoc": {
    "kind": "user",
    "methods": {},
    "version": 1
  },
  "storageLayout": {
    "storage": [
      {
        "astId": 2862,
        "contract": "contracts/twoway/TestERC20.sol:TestERC20",
        "label": "_balances",
        "offset": 0,
        "slot": "0",
        "type": "t_mapping(t_address,t_uint256)"
      },
      {
        "astId": 2868,
        "contract": "contracts/twoway/TestERC20.sol:TestERC20",
        "label": "_allowances",
        "offset": 0,
        "slot": "1",
        "type": "t_mapping(t_address,t_mapping(t_address,t_uint256))"
      },
      {
        "astId": 2870,
        "contract": "contracts/twoway/TestERC20.sol:TestERC20",
        "label": "_totalSupply",
        "offset": 0,
        "slot": "2",
        "type": "t_uint256"
      },
      {
        "astId": 2872,
        "contract": "contracts/twoway/TestERC20.sol:TestERC20",
        "label": "_name",
        "offset": 0,
        "slot": "3",
        "type": "t_string_storage"
      },
      {
        "astId": 2874,
        "contract": "contracts/twoway/TestERC20.sol:TestERC20",
        "label": "_symbol",
        "offset": 0,
        "slot": "4",
        "type": "t_string_storage"
      },
      {
        "astId": 8286,
        "contract": "contracts/twoway/TestERC20.sol:TestERC20",
        "label": "_decimals",
        "offset": 0,
        "slot": "5",
        "type": "t_uint8"
      }
    ],
    "types": {
      "t_address": {
        "encoding": "inplace",
        "label": "address",
        "numberOfBytes": "20"
      },
      "t_mapping(t_address,t_mapping(t_address,t_uint256))": {
        "encoding": "mapping",
        "key": "t_address",
        "label": "mapping(address => mapping(address => uint256))",
        "numberOfBytes": "32",
        "value": "t_mapping(t_address,t_uint256)"
      },
      "t_mapping(t_address,t_uint256)": {
        "encoding": "mapping",
        "key": "t_address",
        "label": "mapping(address => uint256)",
        "numberOfBytes": "32",
        "value": "t_uint256"
      },
      "t_string_storage": {
        "encoding": "bytes",
        "label": "string",
        "numberOfBytes": "32"
      },
      "t_uint256": {
        "encoding": "inplace",
        "label": "uint256",
        "numberOfBytes": "32"
      },
      "t_uint8": {
        "encoding": "inplace",
        "label": "uint8",
        "numberOfBytes": "1"
      }
    }
  }
}