{
  "address": "0xA59BaD89447403790cE5cB8f1E2849715879ea79",
  "abi": [
    {
      "inputs": [],
      "stateMutability": "nonpayable",
      "type": "constructor"
    },
    {
      "anonymous": false,
      "inputs": [
        {
          "indexed": false,
          "internalType": "address",
          "name": "token0",
          "type": "address"
        },
        {
          "indexed": false,
          "internalType": "address",
          "name": "token1",
          "type": "address"
        },
        {
          "indexed": false,
          "internalType": "address",
          "name": "from",
          "type": "address"
        },
        {
          "indexed": false,
          "internalType": "address",
          "name": "to",
          "type": "address"
        },
        {
          "indexed": false,
          "internalType": "uint256",
          "name": "amount",
          "type": "uint256"
        }
      ],
      "name": "CrossBurn",
      "type": "event"
    },
    {
      "anonymous": false,
      "inputs": [
        {
          "indexed": false,
          "internalType": "address",
          "name": "token0",
          "type": "address"
        },
        {
          "indexed": false,
          "internalType": "address",
          "name": "token1",
          "type": "address"
        },
        {
          "indexed": false,
          "internalType": "address",
          "name": "from",
          "type": "address"
        },
        {
          "indexed": false,
          "internalType": "address",
          "name": "to",
          "type": "address"
        },
        {
          "indexed": false,
          "internalType": "uint256",
          "name": "amount",
          "type": "uint256"
        },
        {
          "indexed": false,
          "internalType": "string",
          "name": "txid",
          "type": "string"
        }
      ],
      "name": "CrossMint",
      "type": "event"
    },
    {
      "anonymous": false,
      "inputs": [
        {
          "indexed": false,
          "internalType": "address",
          "name": "token",
          "type": "address"
        },
        {
          "indexed": false,
          "internalType": "uint256",
          "name": "lockFeeAmount",
          "type": "uint256"
        },
        {
          "indexed": false,
          "internalType": "uint256",
          "name": "lockFeeRatio",
          "type": "uint256"
        },
        {
          "indexed": false,
          "internalType": "uint256",
          "name": "unlockFeeAmount",
          "type": "uint256"
        },
        {
          "indexed": false,
          "internalType": "uint256",
          "name": "unlockFeeRatio",
          "type": "uint256"
        }
      ],
      "name": "FeeChange",
      "type": "event"
    },
    {
      "anonymous": false,
      "inputs": [
        {
          "indexed": false,
          "internalType": "address",
          "name": "token",
          "type": "address"
        },
        {
          "indexed": false,
          "internalType": "address",
          "name": "account",
          "type": "address"
        }
      ],
      "name": "FeeToAdded",
      "type": "event"
    },
    {
      "anonymous": false,
      "inputs": [
        {
          "indexed": false,
          "internalType": "address",
          "name": "token",
          "type": "address"
        },
        {
          "indexed": false,
          "internalType": "address",
          "name": "account",
          "type": "address"
        }
      ],
      "name": "FeeToRemoved",
      "type": "event"
    },
    {
      "anonymous": false,
      "inputs": [
        {
          "indexed": false,
          "internalType": "address",
          "name": "token",
          "type": "address"
        },
        {
          "indexed": false,
          "internalType": "address",
          "name": "from",
          "type": "address"
        },
        {
          "indexed": false,
          "internalType": "address",
          "name": "to",
          "type": "address"
        },
        {
          "indexed": false,
          "internalType": "uint256",
          "name": "amount",
          "type": "uint256"
        },
        {
          "indexed": false,
          "internalType": "address",
          "name": "proposer",
          "type": "address"
        },
        {
          "indexed": false,
          "internalType": "uint256",
          "name": "count",
          "type": "uint256"
        },
        {
          "indexed": false,
          "internalType": "uint256",
          "name": "threshold",
          "type": "uint256"
        }
      ],
      "name": "ProposalVoted",
      "type": "event"
    },
    {
      "anonymous": false,
      "inputs": [
        {
          "indexed": true,
          "internalType": "bytes32",
          "name": "role",
          "type": "bytes32"
        },
        {
          "indexed": true,
          "internalType": "bytes32",
          "name": "previousAdminRole",
          "type": "bytes32"
        },
        {
          "indexed": true,
          "internalType": "bytes32",
          "name": "newAdminRole",
          "type": "bytes32"
        }
      ],
      "name": "RoleAdminChanged",
      "type": "event"
    },
    {
      "anonymous": false,
      "inputs": [
        {
          "indexed": true,
          "internalType": "bytes32",
          "name": "role",
          "type": "bytes32"
        },
        {
          "indexed": true,
          "internalType": "address",
          "name": "account",
          "type": "address"
        },
        {
          "indexed": true,
          "internalType": "address",
          "name": "sender",
          "type": "address"
        }
      ],
      "name": "RoleGranted",
      "type": "event"
    },
    {
      "anonymous": false,
      "inputs": [
        {
          "indexed": true,
          "internalType": "bytes32",
          "name": "role",
          "type": "bytes32"
        },
        {
          "indexed": true,
          "internalType": "address",
          "name": "account",
          "type": "address"
        },
        {
          "indexed": true,
          "internalType": "address",
          "name": "sender",
          "type": "address"
        }
      ],
      "name": "RoleRevoked",
      "type": "event"
    },
    {
      "anonymous": false,
      "inputs": [
        {
          "indexed": false,
          "internalType": "address",
          "name": "token",
          "type": "address"
        },
        {
          "indexed": false,
          "internalType": "uint256",
          "name": "oldThreshold",
          "type": "uint256"
        },
        {
          "indexed": false,
          "internalType": "uint256",
          "name": "newThreshold",
          "type": "uint256"
        }
      ],
      "name": "ThresholdChanged",
      "type": "event"
    },
    {
      "inputs": [],
      "name": "DEFAULT_ADMIN_ROLE",
      "outputs": [
        {
          "internalType": "bytes32",
          "name": "",
          "type": "bytes32"
        }
      ],
      "stateMutability": "view",
      "type": "function"
    },
    {
      "inputs": [
        {
          "internalType": "address",
          "name": "token0",
          "type": "address"
        },
        {
          "internalType": "address",
          "name": "account",
          "type": "address"
        }
      ],
      "name": "addFeeTo",
      "outputs": [],
      "stateMutability": "nonpayable",
      "type": "function"
    },
    {
      "inputs": [
        {
          "internalType": "address",
          "name": "token0",
          "type": "address"
        },
        {
          "internalType": "address",
          "name": "token1",
          "type": "address"
        },
        {
          "internalType": "bytes32",
          "name": "_roleFlag",
          "type": "bytes32"
        }
      ],
      "name": "addSupportToken",
      "outputs": [],
      "stateMutability": "nonpayable",
      "type": "function"
    },
    {
      "inputs": [
        {
          "internalType": "address[]",
          "name": "token0Addrs",
          "type": "address[]"
        },
        {
          "internalType": "address[]",
          "name": "token1Addrs",
          "type": "address[]"
        },
        {
          "internalType": "bytes32[]",
          "name": "_roleFlags",
          "type": "bytes32[]"
        }
      ],
      "name": "addSupportTokens",
      "outputs": [],
      "stateMutability": "nonpayable",
      "type": "function"
    },
    {
      "inputs": [
        {
          "internalType": "address",
          "name": "token",
          "type": "address"
        },
        {
          "internalType": "uint256",
          "name": "amount",
          "type": "uint256"
        },
        {
          "internalType": "uint256",
          "name": "crossType",
          "type": "uint256"
        }
      ],
      "name": "calculateFee",
      "outputs": [
        {
          "internalType": "uint256",
          "name": "feeAmount",
          "type": "uint256"
        },
        {
          "internalType": "uint256",
          "name": "remainAmount",
          "type": "uint256"
        }
      ],
      "stateMutability": "view",
      "type": "function"
    },
    {
      "inputs": [
        {
          "internalType": "address",
          "name": "token0",
          "type": "address"
        },
        {
          "internalType": "address",
          "name": "to",
          "type": "address"
        },
        {
          "internalType": "uint256",
          "name": "amount",
          "type": "uint256"
        }
      ],
      "name": "crossBurn",
      "outputs": [],
      "stateMutability": "nonpayable",
      "type": "function"
    },
    {
      "inputs": [
        {
          "internalType": "address",
          "name": "token0",
          "type": "address"
        },
        {
          "internalType": "address",
          "name": "from",
          "type": "address"
        },
        {
          "internalType": "address",
          "name": "to",
          "type": "address"
        },
        {
          "internalType": "uint256",
          "name": "amount",
          "type": "uint256"
        },
        {
          "internalType": "string",
          "name": "txid",
          "type": "string"
        }
      ],
      "name": "crossMint",
      "outputs": [],
      "stateMutability": "nonpayable",
      "type": "function"
    },
    {
      "inputs": [
        {
          "internalType": "address",
          "name": "token",
          "type": "address"
        }
      ],
      "name": "feeToLength",
      "outputs": [
        {
          "internalType": "uint256",
          "name": "len",
          "type": "uint256"
        }
      ],
      "stateMutability": "view",
      "type": "function"
    },
    {
      "inputs": [
        {
          "internalType": "address",
          "name": "token",
          "type": "address"
        },
        {
          "internalType": "uint256",
          "name": "i",
          "type": "uint256"
        }
      ],
      "name": "getFeeTo",
      "outputs": [
        {
          "internalType": "address",
          "name": "account",
          "type": "address"
        }
      ],
      "stateMutability": "view",
      "type": "function"
    },
    {
      "inputs": [
        {
          "internalType": "bytes32",
          "name": "role",
          "type": "bytes32"
        }
      ],
      "name": "getRoleAdmin",
      "outputs": [
        {
          "internalType": "bytes32",
          "name": "",
          "type": "bytes32"
        }
      ],
      "stateMutability": "view",
      "type": "function"
    },
    {
      "inputs": [
        {
          "internalType": "bytes32",
          "name": "role",
          "type": "bytes32"
        },
        {
          "internalType": "uint256",
          "name": "index",
          "type": "uint256"
        }
      ],
      "name": "getRoleMember",
      "outputs": [
        {
          "internalType": "address",
          "name": "",
          "type": "address"
        }
      ],
      "stateMutability": "view",
      "type": "function"
    },
    {
      "inputs": [
        {
          "internalType": "bytes32",
          "name": "role",
          "type": "bytes32"
        }
      ],
      "name": "getRoleMemberCount",
      "outputs": [
        {
          "internalType": "uint256",
          "name": "",
          "type": "uint256"
        }
      ],
      "stateMutability": "view",
      "type": "function"
    },
    {
      "inputs": [
        {
          "internalType": "bytes32",
          "name": "role",
          "type": "bytes32"
        },
        {
          "internalType": "address",
          "name": "account",
          "type": "address"
        }
      ],
      "name": "grantRole",
      "outputs": [],
      "stateMutability": "nonpayable",
      "type": "function"
    },
    {
      "inputs": [
        {
          "internalType": "bytes32",
          "name": "role",
          "type": "bytes32"
        },
        {
          "internalType": "address",
          "name": "account",
          "type": "address"
        }
      ],
      "name": "hasRole",
      "outputs": [
        {
          "internalType": "bool",
          "name": "",
          "type": "bool"
        }
      ],
      "stateMutability": "view",
      "type": "function"
    },
    {
      "inputs": [
        {
          "internalType": "address",
          "name": "",
          "type": "address"
        }
      ],
      "name": "lockFeeAmount",
      "outputs": [
        {
          "internalType": "uint256",
          "name": "",
          "type": "uint256"
        }
      ],
      "stateMutability": "view",
      "type": "function"
    },
    {
      "inputs": [
        {
          "internalType": "address",
          "name": "",
          "type": "address"
        }
      ],
      "name": "lockFeeRatio",
      "outputs": [
        {
          "internalType": "uint256",
          "name": "",
          "type": "uint256"
        }
      ],
      "stateMutability": "view",
      "type": "function"
    },
    {
      "inputs": [
        {
          "internalType": "bytes32",
          "name": "",
          "type": "bytes32"
        }
      ],
      "name": "proposalOf",
      "outputs": [
        {
          "internalType": "address",
          "name": "tokenTo",
          "type": "address"
        },
        {
          "internalType": "address",
          "name": "from",
          "type": "address"
        },
        {
          "internalType": "address",
          "name": "to",
          "type": "address"
        },
        {
          "internalType": "uint256",
          "name": "amount",
          "type": "uint256"
        },
        {
          "internalType": "uint256",
          "name": "count",
          "type": "uint256"
        },
        {
          "internalType": "string",
          "name": "txid",
          "type": "string"
        },
        {
          "internalType": "bool",
          "name": "isFinished",
          "type": "bool"
        },
        {
          "internalType": "bool",
          "name": "isExist",
          "type": "bool"
        }
      ],
      "stateMutability": "view",
      "type": "function"
    },
    {
      "inputs": [
        {
          "internalType": "address",
          "name": "token0",
          "type": "address"
        },
        {
          "internalType": "address",
          "name": "account",
          "type": "address"
        }
      ],
      "name": "removeFeeTo",
      "outputs": [],
      "stateMutability": "nonpayable",
      "type": "function"
    },
    {
      "inputs": [
        {
          "internalType": "address",
          "name": "token0",
          "type": "address"
        }
      ],
      "name": "removeRoleFlag",
      "outputs": [],
      "stateMutability": "nonpayable",
      "type": "function"
    },
    {
      "inputs": [
        {
          "internalType": "address",
          "name": "token0",
          "type": "address"
        }
      ],
      "name": "removeSupportToken",
      "outputs": [],
      "stateMutability": "nonpayable",
      "type": "function"
    },
    {
      "inputs": [
        {
          "internalType": "address[]",
          "name": "addrs",
          "type": "address[]"
        }
      ],
      "name": "removeSupportTokens",
      "outputs": [],
      "stateMutability": "nonpayable",
      "type": "function"
    },
    {
      "inputs": [
        {
          "internalType": "bytes32",
          "name": "role",
          "type": "bytes32"
        },
        {
          "internalType": "address",
          "name": "account",
          "type": "address"
        }
      ],
      "name": "renounceRole",
      "outputs": [],
      "stateMutability": "nonpayable",
      "type": "function"
    },
    {
      "inputs": [
        {
          "internalType": "bytes32",
          "name": "role",
          "type": "bytes32"
        },
        {
          "internalType": "address",
          "name": "account",
          "type": "address"
        }
      ],
      "name": "revokeRole",
      "outputs": [],
      "stateMutability": "nonpayable",
      "type": "function"
    },
    {
      "inputs": [
        {
          "internalType": "address",
          "name": "",
          "type": "address"
        }
      ],
      "name": "roleFlag",
      "outputs": [
        {
          "internalType": "bytes32",
          "name": "",
          "type": "bytes32"
        }
      ],
      "stateMutability": "view",
      "type": "function"
    },
    {
      "inputs": [
        {
          "internalType": "address",
          "name": "token0",
          "type": "address"
        },
        {
          "internalType": "uint256",
          "name": "_lockFeeAmount",
          "type": "uint256"
        },
        {
          "internalType": "uint256",
          "name": "_lockFeeRatio",
          "type": "uint256"
        },
        {
          "internalType": "uint256",
          "name": "_unlockFeeAmount",
          "type": "uint256"
        },
        {
          "internalType": "uint256",
          "name": "_unlockFeeRatio",
          "type": "uint256"
        }
      ],
      "name": "setFee",
      "outputs": [],
      "stateMutability": "nonpayable",
      "type": "function"
    },
    {
      "inputs": [
        {
          "internalType": "address",
          "name": "token1",
          "type": "address"
        },
        {
          "internalType": "uint256",
          "name": "_threshold",
          "type": "uint256"
        }
      ],
      "name": "setThreshold",
      "outputs": [],
      "stateMutability": "nonpayable",
      "type": "function"
    },
    {
      "inputs": [
        {
          "internalType": "address",
          "name": "",
          "type": "address"
        }
      ],
      "name": "supportToken",
      "outputs": [
        {
          "internalType": "contract IToken",
          "name": "",
          "type": "address"
        }
      ],
      "stateMutability": "view",
      "type": "function"
    },
    {
      "inputs": [
        {
          "internalType": "address",
          "name": "",
          "type": "address"
        }
      ],
      "name": "threshold",
      "outputs": [
        {
          "internalType": "uint256",
          "name": "",
          "type": "uint256"
        }
      ],
      "stateMutability": "view",
      "type": "function"
    },
    {
      "inputs": [
        {
          "internalType": "string",
          "name": "",
          "type": "string"
        }
      ],
      "name": "txMinted",
      "outputs": [
        {
          "internalType": "bool",
          "name": "",
          "type": "bool"
        }
      ],
      "stateMutability": "view",
      "type": "function"
    },
    {
      "inputs": [
        {
          "internalType": "address",
          "name": "",
          "type": "address"
        }
      ],
      "name": "unlockFeeAmount",
      "outputs": [
        {
          "internalType": "uint256",
          "name": "",
          "type": "uint256"
        }
      ],
      "stateMutability": "view",
      "type": "function"
    },
    {
      "inputs": [
        {
          "internalType": "address",
          "name": "",
          "type": "address"
        }
      ],
      "name": "unlockFeeRatio",
      "outputs": [
        {
          "internalType": "uint256",
          "name": "",
          "type": "uint256"
        }
      ],
      "stateMutability": "view",
      "type": "function"
    }
  ],
  "transactionHash": "0x309902d4a2dbb5dae458dc52a348c6abf769c09fc2910bca7faa15e80463cba5",
  "args": [],
  "solcInputHash": "92509c0a5d3679c85b6353f600a98403",
  "bytecode": "0x60806040523480156200001157600080fd5b50620000276000801b336200002d60201b60201c565b620001c4565b6200003f82826200004360201b60201c565b5050565b620000728160076000858152602001908152602001600020600001620000e760201b62002e8c1790919060201c565b15620000e357620000886200011f60201b60201c565b73ffffffffffffffffffffffffffffffffffffffff168173ffffffffffffffffffffffffffffffffffffffff16837f2f8788117e7eff1d82e926ec794901d17c78024a50270940304540a733656f0d60405160405180910390a45b5050565b600062000117836000018373ffffffffffffffffffffffffffffffffffffffff1660001b6200012760201b60201c565b905092915050565b600033905090565b60006200013b8383620001a160201b60201c565b620001965782600001829080600181540180825580915050600190039060005260206000200160009091909190915055826000018054905083600101600084815260200190815260200160002081905550600190506200019b565b600090505b92915050565b600080836001016000848152602001908152602001600020541415905092915050565b61443d80620001d46000396000f3fe608060405234801561001057600080fd5b50600436106101e45760003560e01c80637b58453d1161010f578063c86ec2bf116100a2578063d547741f11610071578063d547741f14610e86578063e2769cfa14610ed4578063f21b8af914610f18578063f48c0abf14610f70576101e4565b8063c86ec2bf14610d12578063ca15c87314610d6a578063cbde3c7314610dac578063d1346b5414610e1a576101e4565b80639d879990116100de5780639d87999014610bea578063a005254614610c38578063a217fddf14610c9c578063c0f1abdd14610cba576101e4565b80637b58453d1461099b5780639010d07c146109ff57806391d1485414610a6157806398a7582f14610ac5576101e4565b8063248a9ca31161018757806336568abe1161015657806336568abe146108395780635e08378c1461088757806371b47e18146108ff5780637333891814610957576101e4565b8063248a9ca3146106e35780632a4f1621146107255780632f2ff15d14610793578063338a5663146107e1576101e4565b806309db763e116101c357806309db763e146104aa5780630daff6211461050257806310c27402146105ba57806312d365dd1461068b576101e4565b8062964fff146101e9578063013e91e6146103c95780630324ef9c14610437575b600080fd5b6103c7600480360360608110156101ff57600080fd5b810190808035906020019064010000000081111561021c57600080fd5b82018360208201111561022e57600080fd5b8035906020019184602083028401116401000000008311171561025057600080fd5b919080806020026020016040519081016040528093929190818152602001838360200280828437600081840152601f19601f820116905080830192505050505050509192919290803590602001906401000000008111156102b057600080fd5b8201836020820111156102c257600080fd5b803590602001918460208302840111640100000000831117156102e457600080fd5b919080806020026020016040519081016040528093929190818152602001838360200280828437600081840152601f19601f8201169050808301925050505050505091929192908035906020019064010000000081111561034457600080fd5b82018360208201111561035657600080fd5b8035906020019184602083028401116401000000008311171561037857600080fd5b919080806020026020016040519081016040528093929190818152602001838360200280828437600081840152601f19601f82011690508083019250505050505050919291929050505061108e565b005b610435600480360360608110156103df57600080fd5b81019080803573ffffffffffffffffffffffffffffffffffffffff169060200190929190803573ffffffffffffffffffffffffffffffffffffffff169060200190929190803590602001909291905050506111df565b005b61048d6004803603606081101561044d57600080fd5b81019080803573ffffffffffffffffffffffffffffffffffffffff1690602001909291908035906020019092919080359060200190929190505050611556565b604051808381526020018281526020019250505060405180910390f35b6104ec600480360360208110156104c057600080fd5b81019080803573ffffffffffffffffffffffffffffffffffffffff1690602001909291905050506116b9565b6040518082815260200191505060405180910390f35b6105b86004803603602081101561051857600080fd5b810190808035906020019064010000000081111561053557600080fd5b82018360208201111561054757600080fd5b8035906020019184602083028401116401000000008311171561056957600080fd5b919080806020026020016040519081016040528093929190818152602001838360200280828437600081840152601f19601f8201169050808301925050505050505091929192905050506116d1565b005b610673600480360360208110156105d057600080fd5b81019080803590602001906401000000008111156105ed57600080fd5b8201836020820111156105ff57600080fd5b8035906020019184600183028401116401000000008311171561062157600080fd5b91908080601f016020809104026020016040519081016040528093929190818152602001838380828437600081840152601f19601f820116905080830192505050505050509192919290505050611726565b60405180821515815260200191505060405180910390f35b6106cd600480360360208110156106a157600080fd5b81019080803573ffffffffffffffffffffffffffffffffffffffff16906020019092919050505061175c565b6040518082815260200191505060405180910390f35b61070f600480360360208110156106f957600080fd5b8101908080359060200190929190505050611774565b6040518082815260200191505060405180910390f35b6107676004803603602081101561073b57600080fd5b81019080803573ffffffffffffffffffffffffffffffffffffffff169060200190929190505050611794565b604051808273ffffffffffffffffffffffffffffffffffffffff16815260200191505060405180910390f35b6107df600480360360408110156107a957600080fd5b8101908080359060200190929190803573ffffffffffffffffffffffffffffffffffffffff1690602001909291905050506117c7565b005b610823600480360360208110156107f757600080fd5b81019080803573ffffffffffffffffffffffffffffffffffffffff169060200190929190505050611851565b6040518082815260200191505060405180910390f35b6108856004803603604081101561084f57600080fd5b8101908080359060200190929190803573ffffffffffffffffffffffffffffffffffffffff169060200190929190505050611869565b005b6108d36004803603604081101561089d57600080fd5b81019080803573ffffffffffffffffffffffffffffffffffffffff16906020019092919080359060200190929190505050611902565b604051808273ffffffffffffffffffffffffffffffffffffffff16815260200191505060405180910390f35b6109416004803603602081101561091557600080fd5b81019080803573ffffffffffffffffffffffffffffffffffffffff16906020019092919050505061195d565b6040518082815260200191505060405180910390f35b6109996004803603602081101561096d57600080fd5b81019080803573ffffffffffffffffffffffffffffffffffffffff169060200190929190505050611975565b005b6109fd600480360360408110156109b157600080fd5b81019080803573ffffffffffffffffffffffffffffffffffffffff169060200190929190803573ffffffffffffffffffffffffffffffffffffffff169060200190929190505050611af2565b005b610a3560048036036040811015610a1557600080fd5b810190808035906020019092919080359060200190929190505050611b7f565b604051808273ffffffffffffffffffffffffffffffffffffffff16815260200191505060405180910390f35b610aad60048036036040811015610a7757600080fd5b8101908080359060200190929190803573ffffffffffffffffffffffffffffffffffffffff169060200190929190505050611bb1565b60405180821515815260200191505060405180910390f35b610be8600480360360a0811015610adb57600080fd5b81019080803573ffffffffffffffffffffffffffffffffffffffff169060200190929190803573ffffffffffffffffffffffffffffffffffffffff169060200190929190803573ffffffffffffffffffffffffffffffffffffffff1690602001909291908035906020019092919080359060200190640100000000811115610b6257600080fd5b820183602082011115610b7457600080fd5b80359060200191846001830284011164010000000083111715610b9657600080fd5b91908080601f016020809104026020016040519081016040528093929190818152602001838380828437600081840152601f19601f820116905080830192505050505050509192919290505050611be3565b005b610c3660048036036040811015610c0057600080fd5b81019080803573ffffffffffffffffffffffffffffffffffffffff16906020019092919080359060200190929190505050612381565b005b610c9a60048036036040811015610c4e57600080fd5b81019080803573ffffffffffffffffffffffffffffffffffffffff169060200190929190803573ffffffffffffffffffffffffffffffffffffffff16906020019092919050505061240e565b005b610ca461249b565b6040518082815260200191505060405180910390f35b610cfc60048036036020811015610cd057600080fd5b81019080803573ffffffffffffffffffffffffffffffffffffffff1690602001909291905050506124a2565b6040518082815260200191505060405180910390f35b610d5460048036036020811015610d2857600080fd5b81019080803573ffffffffffffffffffffffffffffffffffffffff1690602001909291905050506124f2565b6040518082815260200191505060405180910390f35b610d9660048036036020811015610d8057600080fd5b810190808035906020019092919050505061250a565b6040518082815260200191505060405180910390f35b610e1860048036036060811015610dc257600080fd5b81019080803573ffffffffffffffffffffffffffffffffffffffff169060200190929190803573ffffffffffffffffffffffffffffffffffffffff16906020019092919080359060200190929190505050612531565b005b610e84600480360360a0811015610e3057600080fd5b81019080803573ffffffffffffffffffffffffffffffffffffffff16906020019092919080359060200190929190803590602001909291908035906020019092919080359060200190929190505050612a17565b005b610ed260048036036040811015610e9c57600080fd5b8101908080359060200190929190803573ffffffffffffffffffffffffffffffffffffffff169060200190929190505050612aaa565b005b610f1660048036036020811015610eea57600080fd5b81019080803573ffffffffffffffffffffffffffffffffffffffff169060200190929190505050612b34565b005b610f5a60048036036020811015610f2e57600080fd5b81019080803573ffffffffffffffffffffffffffffffffffffffff169060200190929190505050612d1a565b6040518082815260200191505060405180910390f35b610f9c60048036036020811015610f8657600080fd5b8101908080359060200190929190505050612d32565b604051808973ffffffffffffffffffffffffffffffffffffffff1681526020018873ffffffffffffffffffffffffffffffffffffffff1681526020018773ffffffffffffffffffffffffffffffffffffffff1681526020018681526020018581526020018060200184151581526020018315158152602001828103825285818151815260200191508051906020019080838360005b8381101561104c578082015181840152602081019050611031565b50505050905090810190601f1680156110795780820380516001836020036101000a031916815260200191505b50995050505050505050505060405180910390f35b8151835114611105576040517f08c379a00000000000000000000000000000000000000000000000000000000081526004018080602001828103825260168152602001807f546f6b656e206c656e677468206e6f74206d617463680000000000000000000081525060200191505060405180910390fd5b805183511461117c576040517f08c379a00000000000000000000000000000000000000000000000000000000081526004018080602001828103825260168152602001807f546f6b656e206c656e677468206e6f74206d617463680000000000000000000081525060200191505060405180910390fd5b60005b83518110156111d9576111cc84828151811061119757fe5b60200260200101518483815181106111ab57fe5b60200260200101518484815181106111bf57fe5b60200260200101516111df565b808060010191505061117f565b50505050565b6111ec6000801b33611bb1565b61125e576040517f08c379a000000000000000000000000000000000000000000000000000000000815260040180806020018281038252601b8152602001807f4272696467653a3a6f6e6c792061646d696e2063616e2063616c6c000000000081525060200191505060405180910390fd5b600073ffffffffffffffffffffffffffffffffffffffff16600860008573ffffffffffffffffffffffffffffffffffffffff1673ffffffffffffffffffffffffffffffffffffffff16815260200190815260200160002060009054906101000a900473ffffffffffffffffffffffffffffffffffffffff1673ffffffffffffffffffffffffffffffffffffffff161461135f576040517f08c379a00000000000000000000000000000000000000000000000000000000081526004018080602001828103825260168152602001807f546f6b6520616c726561647920537570706f727465640000000000000000000081525060200191505060405180910390fd5b6000801b8114156113d8576040517f08c379a000000000000000000000000000000000000000000000000000000000815260040180806020018281038252601f8152602001807f726f6c652066616c672073686f756c64206e6f7420627974657333322830290081525060200191505060405180910390fd5b6000801b600960008573ffffffffffffffffffffffffffffffffffffffff1673ffffffffffffffffffffffffffffffffffffffff168152602001908152602001600020541461148f576040517f08c379a00000000000000000000000000000000000000000000000000000000081526004018080602001828103825260178152602001807f726f6c6520666c616720616c726561647920657869737400000000000000000081525060200191505060405180910390fd5b81600860008573ffffffffffffffffffffffffffffffffffffffff1673ffffffffffffffffffffffffffffffffffffffff16815260200190815260200160002060006101000a81548173ffffffffffffffffffffffffffffffffffffffff021916908373ffffffffffffffffffffffffffffffffffffffff16021790555080600960008573ffffffffffffffffffffffffffffffffffffffff1673ffffffffffffffffffffffffffffffffffffffff16815260200190815260200160002081905550505050565b60008060008060008514156115ee57600360008873ffffffffffffffffffffffffffffffffffffffff1673ffffffffffffffffffffffffffffffffffffffff168152602001908152602001600020549150600260008873ffffffffffffffffffffffffffffffffffffffff1673ffffffffffffffffffffffffffffffffffffffff168152602001908152602001600020549050611673565b600560008873ffffffffffffffffffffffffffffffffffffffff1673ffffffffffffffffffffffffffffffffffffffff168152602001908152602001600020549150600460008873ffffffffffffffffffffffffffffffffffffffff1673ffffffffffffffffffffffffffffffffffffffff1681526020019081526020016000205490505b6116986116898288612ebc90919063ffffffff16565b83612ee990919063ffffffff16565b93506116ad8487612f7190919063ffffffff16565b92505050935093915050565b60056020528060005260406000206000915090505481565b60005b8151811015611722576116f98282815181106116ec57fe5b6020026020010151612b34565b61171582828151811061170857fe5b6020026020010151611975565b80806001019150506116d4565b5050565b600a818051602081018201805184825260208301602085012081835280955050505050506000915054906101000a900460ff1681565b60046020528060005260406000206000915090505481565b600060076000838152602001908152602001600020600201549050919050565b60086020528060005260406000206000915054906101000a900473ffffffffffffffffffffffffffffffffffffffff1681565b6117ee60076000848152602001908152602001600020600201546117e9612ff4565b611bb1565b611843576040517f08c379a000000000000000000000000000000000000000000000000000000000815260040180806020018281038252602f815260200180614306602f913960400191505060405180910390fd5b61184d8282612ffc565b5050565b60096020528060005260406000206000915090505481565b611871612ff4565b73ffffffffffffffffffffffffffffffffffffffff168173ffffffffffffffffffffffffffffffffffffffff16146118f4576040517f08c379a000000000000000000000000000000000000000000000000000000000815260040180806020018281038252602f8152602001806143d9602f913960400191505060405180910390fd5b6118fe8282613090565b5050565b600061195582600660008673ffffffffffffffffffffffffffffffffffffffff1673ffffffffffffffffffffffffffffffffffffffff16815260200190815260200160002061312490919063ffffffff16565b905092915050565b60036020528060005260406000206000915090505481565b6119826000801b33611bb1565b6119f4576040517f08c379a000000000000000000000000000000000000000000000000000000000815260040180806020018281038252601b8152602001807f4272696467653a3a6f6e6c792061646d696e2063616e2063616c6c000000000081525060200191505060405180910390fd5b6000801b600960008373ffffffffffffffffffffffffffffffffffffffff1673ffffffffffffffffffffffffffffffffffffffff168152602001908152602001600020541415611aac576040517f08c379a00000000000000000000000000000000000000000000000000000000081526004018080602001828103825260168152602001807f726f6c65466c6167206e6f7420537570706f727465640000000000000000000081525060200191505060405180910390fd5b600960008273ffffffffffffffffffffffffffffffffffffffff1673ffffffffffffffffffffffffffffffffffffffff1681526020019081526020016000206000905550565b611aff6000801b33611bb1565b611b71576040517f08c379a000000000000000000000000000000000000000000000000000000000815260040180806020018281038252601b8152602001807f4272696467653a3a6f6e6c792061646d696e2063616e2063616c6c000000000081525060200191505060405180910390fd5b611b7b828261313e565b5050565b6000611ba9826007600086815260200190815260200160002060000161312490919063ffffffff16565b905092915050565b6000611bdb826007600086815260200190815260200160002060000161326490919063ffffffff16565b905092915050565b84611c2d600960008373ffffffffffffffffffffffffffffffffffffffff1673ffffffffffffffffffffffffffffffffffffffff1681526020019081526020016000205433611bb1565b611c9f576040517f08c379a000000000000000000000000000000000000000000000000000000000815260040180806020018281038252601d8152602001807f4272696467653a3a63616c6c6572206973206e6f742063726f7373657200000081525060200191505060405180910390fd5b8160001515600a826040518082805190602001908083835b60208310611cda5780518252602082019150602081019050602083039250611cb7565b6001836020036101000a038019825116818451168082178552505050505050905001915050908152602001604051809103902060009054906101000a900460ff16151514611d90576040517f08c379a00000000000000000000000000000000000000000000000000000000081526004018080602001828103825260098152602001807f7478206d696e746564000000000000000000000000000000000000000000000081525060200191505060405180910390fd5b86600073ffffffffffffffffffffffffffffffffffffffff16600860008373ffffffffffffffffffffffffffffffffffffffff1673ffffffffffffffffffffffffffffffffffffffff16815260200190815260200160002060009054906101000a900473ffffffffffffffffffffffffffffffffffffffff1673ffffffffffffffffffffffffffffffffffffffff161415611e93576040517f08c379a00000000000000000000000000000000000000000000000000000000081526004018080602001828103825260198152602001807f4272696467653a3a4e6f7420537570706f727420546f6b656e0000000000000081525060200191505060405180910390fd5b6000611f01600860008b73ffffffffffffffffffffffffffffffffffffffff1673ffffffffffffffffffffffffffffffffffffffff16815260200190815260200160002060009054906101000a900473ffffffffffffffffffffffffffffffffffffffff1689898989613294565b90508015612376576001600a866040518082805190602001908083835b60208310611f415780518252602082019150602081019050602083039250611f1e565b6001836020036101000a038019825116818451168082178552505050505050905001915050908152602001604051809103902060006101000a81548160ff021916908315150217905550600080611f9a8b896000611556565b91509150600860008c73ffffffffffffffffffffffffffffffffffffffff1673ffffffffffffffffffffffffffffffffffffffff16815260200190815260200160002060009054906101000a900473ffffffffffffffffffffffffffffffffffffffff1673ffffffffffffffffffffffffffffffffffffffff166340c10f198a836040518363ffffffff1660e01b8152600401808373ffffffffffffffffffffffffffffffffffffffff16815260200182815260200192505050602060405180830381600087803b15801561206e57600080fd5b505af1158015612082573d6000803e3d6000fd5b505050506040513d602081101561209857600080fd5b81019080805190602001909291905050505060006120b58c6124a2565b905060005b818110156121f657600860008e73ffffffffffffffffffffffffffffffffffffffff1673ffffffffffffffffffffffffffffffffffffffff16815260200190815260200160002060009054906101000a900473ffffffffffffffffffffffffffffffffffffffff1673ffffffffffffffffffffffffffffffffffffffff166340c10f196121478f84611902565b61215a85886138d290919063ffffffff16565b6040518363ffffffff1660e01b8152600401808373ffffffffffffffffffffffffffffffffffffffff16815260200182815260200192505050602060405180830381600087803b1580156121ad57600080fd5b505af11580156121c1573d6000803e3d6000fd5b505050506040513d60208110156121d757600080fd5b81019080805190602001909291905050505080806001019150506120ba565b507f6a63f74ecc819d2b6dcd082e3d41016177d95577813b4f7fc5431d7fe6e4738e8c600860008f73ffffffffffffffffffffffffffffffffffffffff1673ffffffffffffffffffffffffffffffffffffffff16815260200190815260200160002060009054906101000a900473ffffffffffffffffffffffffffffffffffffffff168d8d8d8d604051808773ffffffffffffffffffffffffffffffffffffffff1681526020018673ffffffffffffffffffffffffffffffffffffffff1681526020018573ffffffffffffffffffffffffffffffffffffffff1681526020018473ffffffffffffffffffffffffffffffffffffffff16815260200183815260200180602001828103825283818151815260200191508051906020019080838360005b83811015612333578082015181840152602081019050612318565b50505050905090810190601f1680156123605780820380516001836020036101000a031916815260200191505b5097505050505050505060405180910390a15050505b505050505050505050565b61238e6000801b33611bb1565b612400576040517f08c379a000000000000000000000000000000000000000000000000000000000815260040180806020018281038252601b8152602001807f4272696467653a3a6f6e6c792061646d696e2063616e2063616c6c000000000081525060200191505060405180910390fd5b61240a828261395b565b5050565b61241b6000801b33611bb1565b61248d576040517f08c379a000000000000000000000000000000000000000000000000000000000815260040180806020018281038252601b8152602001807f4272696467653a3a6f6e6c792061646d696e2063616e2063616c6c000000000081525060200191505060405180910390fd5b6124978282613a45565b5050565b6000801b81565b60006124eb600660008473ffffffffffffffffffffffffffffffffffffffff1673ffffffffffffffffffffffffffffffffffffffff168152602001908152602001600020613b6b565b9050919050565b60016020528060005260406000206000915090505481565b600061252a60076000848152602001908152602001600020600001613b6b565b9050919050565b82600073ffffffffffffffffffffffffffffffffffffffff16600860008373ffffffffffffffffffffffffffffffffffffffff1673ffffffffffffffffffffffffffffffffffffffff16815260200190815260200160002060009054906101000a900473ffffffffffffffffffffffffffffffffffffffff1673ffffffffffffffffffffffffffffffffffffffff161415612634576040517f08c379a00000000000000000000000000000000000000000000000000000000081526004018080602001828103825260198152602001807f4272696467653a3a4e6f7420537570706f727420546f6b656e0000000000000081525060200191505060405180910390fd5b6000600860008673ffffffffffffffffffffffffffffffffffffffff1673ffffffffffffffffffffffffffffffffffffffff16815260200190815260200160002060009054906101000a900473ffffffffffffffffffffffffffffffffffffffff169050828173ffffffffffffffffffffffffffffffffffffffff166370a08231336040518263ffffffff1660e01b8152600401808273ffffffffffffffffffffffffffffffffffffffff16815260200191505060206040518083038186803b15801561270057600080fd5b505afa158015612714573d6000803e3d6000fd5b505050506040513d602081101561272a57600080fd5b81019080805190602001909291905050501015612792576040517f08c379a00000000000000000000000000000000000000000000000000000000081526004018080602001828103825260238152602001806143866023913960400191505060405180910390fd5b6000806127a187866001611556565b9150915060006127b0886124a2565b905060005b818110156128b0578473ffffffffffffffffffffffffffffffffffffffff166323b872dd336127e48c85611902565b6127f786896138d290919063ffffffff16565b6040518463ffffffff1660e01b8152600401808473ffffffffffffffffffffffffffffffffffffffff1681526020018373ffffffffffffffffffffffffffffffffffffffff1681526020018281526020019350505050602060405180830381600087803b15801561286757600080fd5b505af115801561287b573d6000803e3d6000fd5b505050506040513d602081101561289157600080fd5b81019080805190602001909291905050505080806001019150506127b5565b508373ffffffffffffffffffffffffffffffffffffffff16639dc29fac33846040518363ffffffff1660e01b8152600401808373ffffffffffffffffffffffffffffffffffffffff16815260200182815260200192505050602060405180830381600087803b15801561292257600080fd5b505af1158015612936573d6000803e3d6000fd5b505050506040513d602081101561294c57600080fd5b8101908080519060200190929190505050507f63db45e521861dc5b6514d863ebf6814df6c1079c65b0d1b49a59ac5c5d4aebc8885338a86604051808673ffffffffffffffffffffffffffffffffffffffff1681526020018573ffffffffffffffffffffffffffffffffffffffff1681526020018473ffffffffffffffffffffffffffffffffffffffff1681526020018373ffffffffffffffffffffffffffffffffffffffff1681526020018281526020019550505050505060405180910390a15050505050505050565b612a246000801b33611bb1565b612a96576040517f08c379a000000000000000000000000000000000000000000000000000000000815260040180806020018281038252601b8152602001807f4272696467653a3a6f6e6c792061646d696e2063616e2063616c6c000000000081525060200191505060405180910390fd5b612aa38585858585613b80565b5050505050565b612ad16007600084815260200190815260200160002060020154612acc612ff4565b611bb1565b612b26576040517f08c379a00000000000000000000000000000000000000000000000000000000081526004018080602001828103825260308152602001806143356030913960400191505060405180910390fd5b612b308282613090565b5050565b612b416000801b33611bb1565b612bb3576040517f08c379a000000000000000000000000000000000000000000000000000000000815260040180806020018281038252601b8152602001807f4272696467653a3a6f6e6c792061646d696e2063616e2063616c6c000000000081525060200191505060405180910390fd5b600073ffffffffffffffffffffffffffffffffffffffff16600860008373ffffffffffffffffffffffffffffffffffffffff1673ffffffffffffffffffffffffffffffffffffffff16815260200190815260200160002060009054906101000a900473ffffffffffffffffffffffffffffffffffffffff1673ffffffffffffffffffffffffffffffffffffffff161415612cb5576040517f08c379a00000000000000000000000000000000000000000000000000000000081526004018080602001828103825260128152602001807f546f6b65206e6f7420537570706f72746564000000000000000000000000000081525060200191505060405180910390fd5b600860008273ffffffffffffffffffffffffffffffffffffffff1673ffffffffffffffffffffffffffffffffffffffff16815260200190815260200160002060006101000a81549073ffffffffffffffffffffffffffffffffffffffff021916905550565b60026020528060005260406000206000915090505481565b60006020528060005260406000206000915090508060000160009054906101000a900473ffffffffffffffffffffffffffffffffffffffff16908060010160009054906101000a900473ffffffffffffffffffffffffffffffffffffffff16908060020160009054906101000a900473ffffffffffffffffffffffffffffffffffffffff1690806003015490806004015490806005018054600181600116156101000203166002900480601f016020809104026020016040519081016040528092919081815260200182805460018160011615610100020316600290048015612e5c5780601f10612e3157610100808354040283529160200191612e5c565b820191906000526020600020905b815481529060010190602001808311612e3f57829003601f168201915b5050505050908060060160009054906101000a900460ff16908060060160019054906101000a900460ff16905088565b6000612eb4836000018373ffffffffffffffffffffffffffffffffffffffff1660001b613d6c565b905092915050565b6000601260ff16600a0a612ed98385613ddc90919063ffffffff16565b81612ee057fe5b04905092915050565b600080828401905083811015612f67576040517f08c379a000000000000000000000000000000000000000000000000000000000815260040180806020018281038252601b8152602001807f536166654d6174683a206164646974696f6e206f766572666c6f77000000000081525060200191505060405180910390fd5b8091505092915050565b600082821115612fe9576040517f08c379a000000000000000000000000000000000000000000000000000000000815260040180806020018281038252601e8152602001807f536166654d6174683a207375627472616374696f6e206f766572666c6f77000081525060200191505060405180910390fd5b818303905092915050565b600033905090565b6130248160076000858152602001908152602001600020600001612e8c90919063ffffffff16565b1561308c57613031612ff4565b73ffffffffffffffffffffffffffffffffffffffff168173ffffffffffffffffffffffffffffffffffffffff16837f2f8788117e7eff1d82e926ec794901d17c78024a50270940304540a733656f0d60405160405180910390a45b5050565b6130b88160076000858152602001908152602001600020600001613e6290919063ffffffff16565b15613120576130c5612ff4565b73ffffffffffffffffffffffffffffffffffffffff168173ffffffffffffffffffffffffffffffffffffffff16837ff6391f5c32d9c69d2a47ea670b442974b53935d1edc7fd64eb21e047a839171b60405160405180910390a45b5050565b60006131338360000183613e92565b60001c905092915050565b6001151561319382600660008673ffffffffffffffffffffffffffffffffffffffff1673ffffffffffffffffffffffffffffffffffffffff16815260200190815260200160002061326490919063ffffffff16565b1515146131d5576040517f08c379a00000000000000000000000000000000000000000000000000000000081526004016131cc90614256565b60405180910390fd5b61322681600660008573ffffffffffffffffffffffffffffffffffffffff1673ffffffffffffffffffffffffffffffffffffffff168152602001908152602001600020613e6290919063ffffffff16565b507f1162c56e1face129565df34ecfdd3ca4f645d76f083be3a48f5d253b2b490b3a82826040516132589291906141ba565b60405180910390a15050565b600061328c836000018373ffffffffffffffffffffffffffffffffffffffff1660001b613f15565b905092915050565b600080600160008873ffffffffffffffffffffffffffffffffffffffff1673ffffffffffffffffffffffffffffffffffffffff168152602001908152602001600020541161332d576040517f08c379a00000000000000000000000000000000000000000000000000000000081526004018080602001828103825260308152602001806143a96030913960400191505060405180910390fd5b6000600160008873ffffffffffffffffffffffffffffffffffffffff1673ffffffffffffffffffffffffffffffffffffffff16815260200190815260200160002054905060008787878787604051602001808673ffffffffffffffffffffffffffffffffffffffff1660601b81526014018573ffffffffffffffffffffffffffffffffffffffff1660601b81526014018473ffffffffffffffffffffffffffffffffffffffff1660601b815260140183815260200182805190602001908083835b6020831061341157805182526020820191506020810190506020830392506133ee565b6001836020036101000a03801982511681845116808217855250505050505090500195505050505050604051602081830303815290604052805190602001209050600080600083815260200190815260200160002090506000151560008084815260200190815260200160002060060160019054906101000a900460ff161515141561360857888160000160006101000a81548173ffffffffffffffffffffffffffffffffffffffff021916908373ffffffffffffffffffffffffffffffffffffffff160217905550878160010160006101000a81548173ffffffffffffffffffffffffffffffffffffffff021916908373ffffffffffffffffffffffffffffffffffffffff160217905550868160020160006101000a81548173ffffffffffffffffffffffffffffffffffffffff021916908373ffffffffffffffffffffffffffffffffffffffff160217905550858160030181905550600181600401819055508481600501908051906020019061358b929190614031565b5060018160060160016101000a81548160ff02191690831515021790555060018160070160003373ffffffffffffffffffffffffffffffffffffffff1673ffffffffffffffffffffffffffffffffffffffff16815260200190815260200160002060006101000a81548160ff0219169083151502179055506137d6565b600015158160060160009054906101000a900460ff16151514613693576040517f08c379a00000000000000000000000000000000000000000000000000000000081526004018080602001828103825260188152602001807f5f766f74653a3a70726f706f73616c2066696e6973686564000000000000000081525060200191505060405180910390fd5b600015158160070160003373ffffffffffffffffffffffffffffffffffffffff1673ffffffffffffffffffffffffffffffffffffffff16815260200190815260200160002060009054906101000a900460ff1615151461375b576040517f08c379a00000000000000000000000000000000000000000000000000000000081526004018080602001828103825260178152602001807f5f766f74653a3a6d73672e73656e64657220766f74656400000000000000000081525060200191505060405180910390fd5b61377360018260040154612ee990919063ffffffff16565b816004018190555060018160070160003373ffffffffffffffffffffffffffffffffffffffff1673ffffffffffffffffffffffffffffffffffffffff16815260200190815260200160002060006101000a81548160ff0219169083151502179055505b828160040154106138035760018160060160006101000a81548160ff021916908315150217905550600193505b7fe458477b94285c9f254a407e2614c39f55230b527ff7f51d76fdf33e251ae9368989898933866004015489604051808873ffffffffffffffffffffffffffffffffffffffff1681526020018773ffffffffffffffffffffffffffffffffffffffff1681526020018673ffffffffffffffffffffffffffffffffffffffff1681526020018581526020018473ffffffffffffffffffffffffffffffffffffffff16815260200183815260200182815260200197505050505050505060405180910390a150505095945050505050565b6000808211613949576040517f08c379a000000000000000000000000000000000000000000000000000000000815260040180806020018281038252601a8152602001807f536166654d6174683a206469766973696f6e206279207a65726f00000000000081525060200191505060405180910390fd5b81838161395257fe5b04905092915050565b6000600160008473ffffffffffffffffffffffffffffffffffffffff1673ffffffffffffffffffffffffffffffffffffffff16815260200190815260200160002054905081600160008573ffffffffffffffffffffffffffffffffffffffff1673ffffffffffffffffffffffffffffffffffffffff168152602001908152602001600020819055507fb18e91516e037486aa6fa38f56a8aac933fd127180efe9c9745ecbf660a78e44838284604051808473ffffffffffffffffffffffffffffffffffffffff168152602001838152602001828152602001935050505060405180910390a1505050565b60001515613a9a82600660008673ffffffffffffffffffffffffffffffffffffffff1673ffffffffffffffffffffffffffffffffffffffff16815260200190815260200160002061326490919063ffffffff16565b151514613adc576040517f08c379a0000000000000000000000000000000000000000000000000000000008152600401613ad390614236565b60405180910390fd5b613b2d81600660008573ffffffffffffffffffffffffffffffffffffffff1673ffffffffffffffffffffffffffffffffffffffff168152602001908152602001600020612e8c90919063ffffffff16565b507faab99c312372d476211a5508724bd953c6cffb12ea46f5b1a9a38b6091eb616c8282604051613b5f9291906141ba565b60405180910390a15050565b6000613b7982600001613f38565b9050919050565b670de0b6b3a7640000831115613bcb576040517f08c379a0000000000000000000000000000000000000000000000000000000008152600401613bc290614276565b60405180910390fd5b670de0b6b3a7640000811115613c16576040517f08c379a0000000000000000000000000000000000000000000000000000000008152600401613c0d90614276565b60405180910390fd5b83600360008773ffffffffffffffffffffffffffffffffffffffff1673ffffffffffffffffffffffffffffffffffffffff1681526020019081526020016000208190555082600260008773ffffffffffffffffffffffffffffffffffffffff1673ffffffffffffffffffffffffffffffffffffffff1681526020019081526020016000208190555081600560008773ffffffffffffffffffffffffffffffffffffffff1673ffffffffffffffffffffffffffffffffffffffff1681526020019081526020016000208190555080600460008773ffffffffffffffffffffffffffffffffffffffff1673ffffffffffffffffffffffffffffffffffffffff168152602001908152602001600020819055507f0ada58b95297d7845bc4aec0fd7ccab1aebd1ed4bebdc0902741bb9d193ef6408585858585604051613d5d9594939291906141e3565b60405180910390a15050505050565b6000613d788383613f15565b613dd1578260000182908060018154018082558091505060019003906000526020600020016000909190919091505582600001805490508360010160008481526020019081526020016000208190555060019050613dd6565b600090505b92915050565b600080831415613def5760009050613e5c565b6000828402905082848281613e0057fe5b0414613e57576040517f08c379a00000000000000000000000000000000000000000000000000000000081526004018080602001828103825260218152602001806143656021913960400191505060405180910390fd5b809150505b92915050565b6000613e8a836000018373ffffffffffffffffffffffffffffffffffffffff1660001b613f49565b905092915050565b600081836000018054905011613ef3576040517f08c379a00000000000000000000000000000000000000000000000000000000081526004018080602001828103825260228152602001806142e46022913960400191505060405180910390fd5b826000018281548110613f0257fe5b9060005260206000200154905092915050565b600080836001016000848152602001908152602001600020541415905092915050565b600081600001805490509050919050565b600080836001016000848152602001908152602001600020549050600081146140255760006001820390506000600186600001805490500390506000866000018281548110613f9457fe5b9060005260206000200154905080876000018481548110613fb157fe5b9060005260206000200181905550600183018760010160008381526020019081526020016000208190555086600001805480613fe957fe5b6001900381819060005260206000200160009055905586600101600087815260200190815260200160002060009055600194505050505061402b565b60009150505b92915050565b828054600181600116156101000203166002900490600052602060002090601f01602090048101928261406757600085556140ae565b82601f1061408057805160ff19168380011785556140ae565b828001600101855582156140ae579182015b828111156140ad578251825591602001919060010190614092565b5b5090506140bb91906140bf565b5090565b5b808211156140d85760008160009055506001016140c0565b5090565b6140e5816142a7565b82525050565b60006140f8601f83614296565b91507f546f6c6c3a3a6163636f756e742077617320666565546f20616c7265616479006000830152602082019050919050565b6000614138601a83614296565b91507f546f6c6c3a3a6163636f756e74206973206e6f7420666565546f0000000000006000830152602082019050919050565b6000614178601583614296565b91507f66656520726174696f206e6f7420636f727265637400000000000000000000006000830152602082019050919050565b6141b4816142d9565b82525050565b60006040820190506141cf60008301856140dc565b6141dc60208301846140dc565b9392505050565b600060a0820190506141f860008301886140dc565b61420560208301876141ab565b61421260408301866141ab565b61421f60608301856141ab565b61422c60808301846141ab565b9695505050505050565b6000602082019050818103600083015261424f816140eb565b9050919050565b6000602082019050818103600083015261426f8161412b565b9050919050565b6000602082019050818103600083015261428f8161416b565b9050919050565b600082825260208201905092915050565b60006142b2826142b9565b9050919050565b600073ffffffffffffffffffffffffffffffffffffffff82169050919050565b600081905091905056fe456e756d657261626c655365743a20696e646578206f7574206f6620626f756e6473416363657373436f6e74726f6c3a2073656e646572206d75737420626520616e2061646d696e20746f206772616e74416363657373436f6e74726f6c3a2073656e646572206d75737420626520616e2061646d696e20746f207265766f6b65536166654d6174683a206d756c7469706c69636174696f6e206f766572666c6f776d73672e73656e646572206e6f7420656e6f75676820746f6b656e20746f206275726e50726f706f73616c566f74653a207468726573686f6c642073686f756c642062652067726561746572207468616e2030416363657373436f6e74726f6c3a2063616e206f6e6c792072656e6f756e636520726f6c657320666f722073656c66a2646970667358221220fa4b7048e84ec415d371a5c40ff502a8aa62c5e78a535c62b9449048e81f94ef64736f6c63430007060033",
  "devdoc": {
    "kind": "dev",
    "methods": {
      "getRoleAdmin(bytes32)": {
        "details": "Returns the admin role that controls `role`. See {grantRole} and {revokeRole}. To change a role's admin, use {_setRoleAdmin}."
      },
      "getRoleMember(bytes32,uint256)": {
        "details": "Returns one of the accounts that have `role`. `index` must be a value between 0 and {getRoleMemberCount}, non-inclusive. Role bearers are not sorted in any particular way, and their ordering may change at any point. WARNING: When using {getRoleMember} and {getRoleMemberCount}, make sure you perform all queries on the same block. See the following https://forum.openzeppelin.com/t/iterating-over-elements-on-enumerableset-in-openzeppelin-contracts/2296[forum post] for more information."
      },
      "getRoleMemberCount(bytes32)": {
        "details": "Returns the number of accounts that have `role`. Can be used together with {getRoleMember} to enumerate all bearers of a role."
      },
      "grantRole(bytes32,address)": {
        "details": "Grants `role` to `account`. If `account` had not been already granted `role`, emits a {RoleGranted} event. Requirements: - the caller must have ``role``'s admin role."
      },
      "hasRole(bytes32,address)": {
        "details": "Returns `true` if `account` has been granted `role`."
      },
      "renounceRole(bytes32,address)": {
        "details": "Revokes `role` from the calling account. Roles are often managed via {grantRole} and {revokeRole}: this function's purpose is to provide a mechanism for accounts to lose their privileges if they are compromised (such as when a trusted device is misplaced). If the calling account had been granted `role`, emits a {RoleRevoked} event. Requirements: - the caller must be `account`."
      },
      "revokeRole(bytes32,address)": {
        "details": "Revokes `role` from `account`. If `account` had been granted `role`, emits a {RoleRevoked} event. Requirements: - the caller must have ``role``'s admin role."
      }
    },
    "version": 1
  },
  "userdoc": {
    "kind": "user",
    "methods": {},
    "version": 1
  },
  "storageLayout": {
    "storage": [
      {
        "astId": 3480,
        "contract": "contracts/Bridge.sol:Bridge",
        "label": "proposalOf",
        "offset": 0,
        "slot": "0",
        "type": "t_mapping(t_bytes32,t_struct(Proposal)3734_storage)"
      },
      {
        "astId": 3484,
        "contract": "contracts/Bridge.sol:Bridge",
        "label": "threshold",
        "offset": 0,
        "slot": "1",
        "type": "t_mapping(t_address,t_uint256)"
      },
      {
        "astId": 3862,
        "contract": "contracts/Bridge.sol:Bridge",
        "label": "lockFeeRatio",
        "offset": 0,
        "slot": "2",
        "type": "t_mapping(t_address,t_uint256)"
      },
      {
        "astId": 3866,
        "contract": "contracts/Bridge.sol:Bridge",
        "label": "lockFeeAmount",
        "offset": 0,
        "slot": "3",
        "type": "t_mapping(t_address,t_uint256)"
      },
      {
        "astId": 3870,
        "contract": "contracts/Bridge.sol:Bridge",
        "label": "unlockFeeRatio",
        "offset": 0,
        "slot": "4",
        "type": "t_mapping(t_address,t_uint256)"
      },
      {
        "astId": 3874,
        "contract": "contracts/Bridge.sol:Bridge",
        "label": "unlockFeeAmount",
        "offset": 0,
        "slot": "5",
        "type": "t_mapping(t_address,t_uint256)"
      },
      {
        "astId": 3878,
        "contract": "contracts/Bridge.sol:Bridge",
        "label": "feeToSet",
        "offset": 0,
        "slot": "6",
        "type": "t_mapping(t_address,t_struct(AddressSet)2209_storage)"
      },
      {
        "astId": 22,
        "contract": "contracts/Bridge.sol:Bridge",
        "label": "_roles",
        "offset": 0,
        "slot": "7",
        "type": "t_mapping(t_bytes32,t_struct(RoleData)18_storage)"
      },
      {
        "astId": 2445,
        "contract": "contracts/Bridge.sol:Bridge",
        "label": "supportToken",
        "offset": 0,
        "slot": "8",
        "type": "t_mapping(t_address,t_contract(IToken)4251)"
      },
      {
        "astId": 2449,
        "contract": "contracts/Bridge.sol:Bridge",
        "label": "roleFlag",
        "offset": 0,
        "slot": "9",
        "type": "t_mapping(t_address,t_bytes32)"
      },
      {
        "astId": 2453,
        "contract": "contracts/Bridge.sol:Bridge",
        "label": "txMinted",
        "offset": 0,
        "slot": "10",
        "type": "t_mapping(t_string_memory_ptr,t_bool)"
      }
    ],
    "types": {
      "t_address": {
        "encoding": "inplace",
        "label": "address",
        "numberOfBytes": "20"
      },
      "t_array(t_bytes32)dyn_storage": {
        "base": "t_bytes32",
        "encoding": "dynamic_array",
        "label": "bytes32[]",
        "numberOfBytes": "32"
      },
      "t_bool": {
        "encoding": "inplace",
        "label": "bool",
        "numberOfBytes": "1"
      },
      "t_bytes32": {
        "encoding": "inplace",
        "label": "bytes32",
        "numberOfBytes": "32"
      },
      "t_contract(IToken)4251": {
        "encoding": "inplace",
        "label": "contract IToken",
        "numberOfBytes": "20"
      },
      "t_mapping(t_address,t_bool)": {
        "encoding": "mapping",
        "key": "t_address",
        "label": "mapping(address => bool)",
        "numberOfBytes": "32",
        "value": "t_bool"
      },
      "t_mapping(t_address,t_bytes32)": {
        "encoding": "mapping",
        "key": "t_address",
        "label": "mapping(address => bytes32)",
        "numberOfBytes": "32",
        "value": "t_bytes32"
      },
      "t_mapping(t_address,t_contract(IToken)4251)": {
        "encoding": "mapping",
        "key": "t_address",
        "label": "mapping(address => contract IToken)",
        "numberOfBytes": "32",
        "value": "t_contract(IToken)4251"
      },
      "t_mapping(t_address,t_struct(AddressSet)2209_storage)": {
        "encoding": "mapping",
        "key": "t_address",
        "label": "mapping(address => struct EnumerableSet.AddressSet)",
        "numberOfBytes": "32",
        "value": "t_struct(AddressSet)2209_storage"
      },
      "t_mapping(t_address,t_uint256)": {
        "encoding": "mapping",
        "key": "t_address",
        "label": "mapping(address => uint256)",
        "numberOfBytes": "32",
        "value": "t_uint256"
      },
      "t_mapping(t_bytes32,t_struct(Proposal)3734_storage)": {
        "encoding": "mapping",
        "key": "t_bytes32",
        "label": "mapping(bytes32 => struct Proposal)",
        "numberOfBytes": "32",
        "value": "t_struct(Proposal)3734_storage"
      },
      "t_mapping(t_bytes32,t_struct(RoleData)18_storage)": {
        "encoding": "mapping",
        "key": "t_bytes32",
        "label": "mapping(bytes32 => struct AccessControl.RoleData)",
        "numberOfBytes": "32",
        "value": "t_struct(RoleData)18_storage"
      },
      "t_mapping(t_bytes32,t_uint256)": {
        "encoding": "mapping",
        "key": "t_bytes32",
        "label": "mapping(bytes32 => uint256)",
        "numberOfBytes": "32",
        "value": "t_uint256"
      },
      "t_mapping(t_string_memory_ptr,t_bool)": {
        "encoding": "mapping",
        "key": "t_string_memory_ptr",
        "label": "mapping(string => bool)",
        "numberOfBytes": "32",
        "value": "t_bool"
      },
      "t_string_memory_ptr": {
        "encoding": "bytes",
        "label": "string",
        "numberOfBytes": "32"
      },
      "t_string_storage": {
        "encoding": "bytes",
        "label": "string",
        "numberOfBytes": "32"
      },
      "t_struct(AddressSet)2209_storage": {
        "encoding": "inplace",
        "label": "struct EnumerableSet.AddressSet",
        "members": [
          {
            "astId": 2208,
            "contract": "contracts/Bridge.sol:Bridge",
            "label": "_inner",
            "offset": 0,
            "slot": "0",
            "type": "t_struct(Set)1944_storage"
          }
        ],
        "numberOfBytes": "64"
      },
      "t_struct(Proposal)3734_storage": {
        "encoding": "inplace",
        "label": "struct Proposal",
        "members": [
          {
            "astId": 3715,
            "contract": "contracts/Bridge.sol:Bridge",
            "label": "tokenTo",
            "offset": 0,
            "slot": "0",
            "type": "t_address"
          },
          {
            "astId": 3717,
            "contract": "contracts/Bridge.sol:Bridge",
            "label": "from",
            "offset": 0,
            "slot": "1",
            "type": "t_address"
          },
          {
            "astId": 3719,
            "contract": "contracts/Bridge.sol:Bridge",
            "label": "to",
            "offset": 0,
            "slot": "2",
            "type": "t_address"
          },
          {
            "astId": 3721,
            "contract": "contracts/Bridge.sol:Bridge",
            "label": "amount",
            "offset": 0,
            "slot": "3",
            "type": "t_uint256"
          },
          {
            "astId": 3723,
            "contract": "contracts/Bridge.sol:Bridge",
            "label": "count",
            "offset": 0,
            "slot": "4",
            "type": "t_uint256"
          },
          {
            "astId": 3725,
            "contract": "contracts/Bridge.sol:Bridge",
            "label": "txid",
            "offset": 0,
            "slot": "5",
            "type": "t_string_storage"
          },
          {
            "astId": 3727,
            "contract": "contracts/Bridge.sol:Bridge",
            "label": "isFinished",
            "offset": 0,
            "slot": "6",
            "type": "t_bool"
          },
          {
            "astId": 3729,
            "contract": "contracts/Bridge.sol:Bridge",
            "label": "isExist",
            "offset": 1,
            "slot": "6",
            "type": "t_bool"
          },
          {
            "astId": 3733,
            "contract": "contracts/Bridge.sol:Bridge",
            "label": "isVoted",
            "offset": 0,
            "slot": "7",
            "type": "t_mapping(t_address,t_bool)"
          }
        ],
        "numberOfBytes": "256"
      },
      "t_struct(RoleData)18_storage": {
        "encoding": "inplace",
        "label": "struct AccessControl.RoleData",
        "members": [
          {
            "astId": 15,
            "contract": "contracts/Bridge.sol:Bridge",
            "label": "members",
            "offset": 0,
            "slot": "0",
            "type": "t_struct(AddressSet)2209_storage"
          },
          {
            "astId": 17,
            "contract": "contracts/Bridge.sol:Bridge",
            "label": "adminRole",
            "offset": 0,
            "slot": "2",
            "type": "t_bytes32"
          }
        ],
        "numberOfBytes": "96"
      },
      "t_struct(Set)1944_storage": {
        "encoding": "inplace",
        "label": "struct EnumerableSet.Set",
        "members": [
          {
            "astId": 1939,
            "contract": "contracts/Bridge.sol:Bridge",
            "label": "_values",
            "offset": 0,
            "slot": "0",
            "type": "t_array(t_bytes32)dyn_storage"
          },
          {
            "astId": 1943,
            "contract": "contracts/Bridge.sol:Bridge",
            "label": "_indexes",
            "offset": 0,
            "slot": "1",
            "type": "t_mapping(t_bytes32,t_uint256)"
          }
        ],
        "numberOfBytes": "64"
      },
      "t_uint256": {
        "encoding": "inplace",
        "label": "uint256",
        "numberOfBytes": "32"
      }
    }
  }
}