{
  "address": "0x4b8832f9E22928f2De2DF6Fc1313F3eB079024Ad",
  "abi": [
    {
      "inputs": [],
      "stateMutability": "nonpayable",
      "type": "constructor"
    },
    {
      "anonymous": false,
      "inputs": [
        {
          "indexed": false,
          "internalType": "address",
          "name": "srcToken",
          "type": "address"
        },
        {
          "indexed": false,
          "internalType": "address",
          "name": "destToken",
          "type": "address"
        },
        {
          "indexed": false,
          "internalType": "address",
          "name": "from",
          "type": "address"
        },
        {
          "indexed": false,
          "internalType": "address",
          "name": "to",
          "type": "address"
        },
        {
          "indexed": false,
          "internalType": "uint256",
          "name": "amount",
          "type": "uint256"
        }
      ],
      "name": "CrossBurn",
      "type": "event"
    },
    {
      "anonymous": false,
      "inputs": [
        {
          "indexed": false,
          "internalType": "address",
          "name": "srcToken",
          "type": "address"
        },
        {
          "indexed": false,
          "internalType": "address",
          "name": "destToken",
          "type": "address"
        },
        {
          "indexed": false,
          "internalType": "address",
          "name": "from",
          "type": "address"
        },
        {
          "indexed": false,
          "internalType": "address",
          "name": "to",
          "type": "address"
        },
        {
          "indexed": false,
          "internalType": "uint256",
          "name": "amount",
          "type": "uint256"
        }
      ],
      "name": "Lock",
      "type": "event"
    },
    {
      "anonymous": false,
      "inputs": [
        {
          "indexed": false,
          "internalType": "address",
          "name": "token",
          "type": "address"
        },
        {
          "indexed": false,
          "internalType": "address",
          "name": "from",
          "type": "address"
        },
        {
          "indexed": false,
          "internalType": "address",
          "name": "to",
          "type": "address"
        },
        {
          "indexed": false,
          "internalType": "uint256",
          "name": "amount",
          "type": "uint256"
        },
        {
          "indexed": false,
          "internalType": "address",
          "name": "proposer",
          "type": "address"
        },
        {
          "indexed": false,
          "internalType": "uint256",
          "name": "count",
          "type": "uint256"
        },
        {
          "indexed": false,
          "internalType": "uint256",
          "name": "threshold",
          "type": "uint256"
        }
      ],
      "name": "ProposalVoted",
      "type": "event"
    },
    {
      "anonymous": false,
      "inputs": [
        {
          "indexed": true,
          "internalType": "bytes32",
          "name": "role",
          "type": "bytes32"
        },
        {
          "indexed": true,
          "internalType": "bytes32",
          "name": "previousAdminRole",
          "type": "bytes32"
        },
        {
          "indexed": true,
          "internalType": "bytes32",
          "name": "newAdminRole",
          "type": "bytes32"
        }
      ],
      "name": "RoleAdminChanged",
      "type": "event"
    },
    {
      "anonymous": false,
      "inputs": [
        {
          "indexed": true,
          "internalType": "bytes32",
          "name": "role",
          "type": "bytes32"
        },
        {
          "indexed": true,
          "internalType": "address",
          "name": "account",
          "type": "address"
        },
        {
          "indexed": true,
          "internalType": "address",
          "name": "sender",
          "type": "address"
        }
      ],
      "name": "RoleGranted",
      "type": "event"
    },
    {
      "anonymous": false,
      "inputs": [
        {
          "indexed": true,
          "internalType": "bytes32",
          "name": "role",
          "type": "bytes32"
        },
        {
          "indexed": true,
          "internalType": "address",
          "name": "account",
          "type": "address"
        },
        {
          "indexed": true,
          "internalType": "address",
          "name": "sender",
          "type": "address"
        }
      ],
      "name": "RoleRevoked",
      "type": "event"
    },
    {
      "anonymous": false,
      "inputs": [
        {
          "indexed": false,
          "internalType": "address",
          "name": "srcToken",
          "type": "address"
        },
        {
          "indexed": false,
          "internalType": "address",
          "name": "destToken",
          "type": "address"
        },
        {
          "indexed": false,
          "internalType": "address",
          "name": "from",
          "type": "address"
        },
        {
          "indexed": false,
          "internalType": "address",
          "name": "to",
          "type": "address"
        },
        {
          "indexed": false,
          "internalType": "uint256",
          "name": "amount",
          "type": "uint256"
        },
        {
          "indexed": false,
          "internalType": "string",
          "name": "txid",
          "type": "string"
        }
      ],
      "name": "Rollback",
      "type": "event"
    },
    {
      "anonymous": false,
      "inputs": [
        {
          "indexed": false,
          "internalType": "address",
          "name": "token",
          "type": "address"
        },
        {
          "indexed": false,
          "internalType": "uint256",
          "name": "oldThreshold",
          "type": "uint256"
        },
        {
          "indexed": false,
          "internalType": "uint256",
          "name": "newThreshold",
          "type": "uint256"
        }
      ],
      "name": "ThresholdChanged",
      "type": "event"
    },
    {
      "anonymous": false,
      "inputs": [
        {
          "indexed": false,
          "internalType": "address",
          "name": "srcToken",
          "type": "address"
        },
        {
          "indexed": false,
          "internalType": "address",
          "name": "destToken",
          "type": "address"
        },
        {
          "indexed": false,
          "internalType": "address",
          "name": "from",
          "type": "address"
        },
        {
          "indexed": false,
          "internalType": "address",
          "name": "to",
          "type": "address"
        },
        {
          "indexed": false,
          "internalType": "uint256",
          "name": "amount",
          "type": "uint256"
        },
        {
          "indexed": false,
          "internalType": "string",
          "name": "txid",
          "type": "string"
        }
      ],
      "name": "Unlock",
      "type": "event"
    },
    {
      "inputs": [],
      "name": "CROSSER_ROLE",
      "outputs": [
        {
          "internalType": "bytes32",
          "name": "",
          "type": "bytes32"
        }
      ],
      "stateMutability": "view",
      "type": "function"
    },
    {
      "inputs": [],
      "name": "DEFAULT_ADMIN_ROLE",
      "outputs": [
        {
          "internalType": "bytes32",
          "name": "",
          "type": "bytes32"
        }
      ],
      "stateMutability": "view",
      "type": "function"
    },
    {
      "inputs": [
        {
          "internalType": "address",
          "name": "ethTokenAddr",
          "type": "address"
        },
        {
          "internalType": "address",
          "name": "bscTokenAddr",
          "type": "address"
        }
      ],
      "name": "addSupportToken",
      "outputs": [],
      "stateMutability": "nonpayable",
      "type": "function"
    },
    {
      "inputs": [
        {
          "internalType": "address[]",
          "name": "ethTokenAddrs",
          "type": "address[]"
        },
        {
          "internalType": "address[]",
          "name": "bscTokenAddrs",
          "type": "address[]"
        }
      ],
      "name": "addSupportTokens",
      "outputs": [],
      "stateMutability": "nonpayable",
      "type": "function"
    },
    {
      "inputs": [
        {
          "internalType": "address",
          "name": "token",
          "type": "address"
        },
        {
          "internalType": "address",
          "name": "to",
          "type": "address"
        },
        {
          "internalType": "uint256",
          "name": "amount",
          "type": "uint256"
        }
      ],
      "name": "burnBoringToken",
      "outputs": [],
      "stateMutability": "nonpayable",
      "type": "function"
    },
    {
      "inputs": [
        {
          "internalType": "address",
          "name": "token",
          "type": "address"
        },
        {
          "internalType": "address",
          "name": "from",
          "type": "address"
        },
        {
          "internalType": "address",
          "name": "to",
          "type": "address"
        },
        {
          "internalType": "uint256",
          "name": "amount",
          "type": "uint256"
        },
        {
          "internalType": "string",
          "name": "txid",
          "type": "string"
        }
      ],
      "name": "crossIn",
      "outputs": [],
      "stateMutability": "nonpayable",
      "type": "function"
    },
    {
      "inputs": [
        {
          "internalType": "address",
          "name": "token",
          "type": "address"
        },
        {
          "internalType": "address",
          "name": "to",
          "type": "address"
        },
        {
          "internalType": "uint256",
          "name": "amount",
          "type": "uint256"
        }
      ],
      "name": "crossOut",
      "outputs": [],
      "stateMutability": "nonpayable",
      "type": "function"
    },
    {
      "inputs": [
        {
          "internalType": "bytes32",
          "name": "role",
          "type": "bytes32"
        }
      ],
      "name": "getRoleAdmin",
      "outputs": [
        {
          "internalType": "bytes32",
          "name": "",
          "type": "bytes32"
        }
      ],
      "stateMutability": "view",
      "type": "function"
    },
    {
      "inputs": [
        {
          "internalType": "bytes32",
          "name": "role",
          "type": "bytes32"
        },
        {
          "internalType": "address",
          "name": "account",
          "type": "address"
        }
      ],
      "name": "grantRole",
      "outputs": [],
      "stateMutability": "nonpayable",
      "type": "function"
    },
    {
      "inputs": [
        {
          "internalType": "bytes32",
          "name": "role",
          "type": "bytes32"
        },
        {
          "internalType": "address",
          "name": "account",
          "type": "address"
        }
      ],
      "name": "hasRole",
      "outputs": [
        {
          "internalType": "bool",
          "name": "",
          "type": "bool"
        }
      ],
      "stateMutability": "view",
      "type": "function"
    },
    {
      "inputs": [],
      "name": "pegSwap",
      "outputs": [
        {
          "internalType": "address",
          "name": "",
          "type": "address"
        }
      ],
      "stateMutability": "view",
      "type": "function"
    },
    {
      "inputs": [
        {
          "internalType": "address",
          "name": "ethTokenAddr",
          "type": "address"
        }
      ],
      "name": "removeSupportToken",
      "outputs": [],
      "stateMutability": "nonpayable",
      "type": "function"
    },
    {
      "inputs": [
        {
          "internalType": "address[]",
          "name": "ethTokenAddrs",
          "type": "address[]"
        }
      ],
      "name": "removeSupportTokens",
      "outputs": [],
      "stateMutability": "nonpayable",
      "type": "function"
    },
    {
      "inputs": [
        {
          "internalType": "bytes32",
          "name": "role",
          "type": "bytes32"
        },
        {
          "internalType": "address",
          "name": "account",
          "type": "address"
        }
      ],
      "name": "renounceRole",
      "outputs": [],
      "stateMutability": "nonpayable",
      "type": "function"
    },
    {
      "inputs": [
        {
          "internalType": "bytes32",
          "name": "role",
          "type": "bytes32"
        },
        {
          "internalType": "address",
          "name": "account",
          "type": "address"
        }
      ],
      "name": "revokeRole",
      "outputs": [],
      "stateMutability": "nonpayable",
      "type": "function"
    },
    {
      "inputs": [],
      "name": "rollback",
      "outputs": [],
      "stateMutability": "nonpayable",
      "type": "function"
    },
    {
      "inputs": [
        {
          "internalType": "address",
          "name": "_pegSwap",
          "type": "address"
        }
      ],
      "name": "setPegSwap",
      "outputs": [],
      "stateMutability": "nonpayable",
      "type": "function"
    },
    {
      "inputs": [
        {
          "internalType": "address",
          "name": "token",
          "type": "address"
        },
        {
          "internalType": "uint256",
          "name": "_threshold",
          "type": "uint256"
        }
      ],
      "name": "setThreshold",
      "outputs": [],
      "stateMutability": "nonpayable",
      "type": "function"
    },
    {
      "inputs": [
        {
          "internalType": "address",
          "name": "",
          "type": "address"
        }
      ],
      "name": "supportToken",
      "outputs": [
        {
          "internalType": "address",
          "name": "",
          "type": "address"
        }
      ],
      "stateMutability": "view",
      "type": "function"
    },
    {
      "inputs": [
        {
          "internalType": "bytes4",
          "name": "interfaceId",
          "type": "bytes4"
        }
      ],
      "name": "supportsInterface",
      "outputs": [
        {
          "internalType": "bool",
          "name": "",
          "type": "bool"
        }
      ],
      "stateMutability": "view",
      "type": "function"
    },
    {
      "inputs": [
        {
          "internalType": "address",
          "name": "",
          "type": "address"
        }
      ],
      "name": "threshold",
      "outputs": [
        {
          "internalType": "uint256",
          "name": "",
          "type": "uint256"
        }
      ],
      "stateMutability": "view",
      "type": "function"
    },
    {
      "inputs": [
        {
          "internalType": "string",
          "name": "",
          "type": "string"
        }
      ],
      "name": "txMinted",
      "outputs": [
        {
          "internalType": "bool",
          "name": "",
          "type": "bool"
        }
      ],
      "stateMutability": "view",
      "type": "function"
    },
    {
      "inputs": [
        {
          "internalType": "string",
          "name": "",
          "type": "string"
        }
      ],
      "name": "txUnlocked",
      "outputs": [
        {
          "internalType": "bool",
          "name": "",
          "type": "bool"
        }
      ],
      "stateMutability": "view",
      "type": "function"
    },
    {
      "inputs": [
        {
          "internalType": "address",
          "name": "token",
          "type": "address"
        },
        {
          "internalType": "address",
          "name": "from",
          "type": "address"
        },
        {
          "internalType": "address",
          "name": "to",
          "type": "address"
        },
        {
          "internalType": "uint256",
          "name": "amount",
          "type": "uint256"
        },
        {
          "internalType": "string",
          "name": "txid",
          "type": "string"
        }
      ],
      "name": "unlock",
      "outputs": [],
      "stateMutability": "nonpayable",
      "type": "function"
    }
  ],
  "transactionHash": "0x8994f6b8036eb4f76633cd18baf3aa8fb41b5a9fcbe4d7743b0c9fdab1d43244",
  "args": [],
  "solcInputHash": "778e5295d7f36ebe714a208a2f9b9b88",
  "bytecode": "0x60806040523480156200001157600080fd5b506200001f60003362000025565b620000d9565b62000031828262000035565b5050565b60008281526004602090815260408083206001600160a01b038516845290915290205460ff16620000315760008281526004602090815260408083206001600160a01b03851684529091529020805460ff19166001179055620000953390565b6001600160a01b0316816001600160a01b0316837f2f8788117e7eff1d82e926ec794901d17c78024a50270940304540a733656f0d60405160405180910390a45050565b61225a80620000e96000396000f3fe608060405234801561001057600080fd5b50600436106101585760003560e01c80638ccc356c116100c3578063ab1494de1161007c578063ab1494de14610331578063c86ec2bf14610344578063cc460c2714610364578063d547741f14610377578063e2769cfa1461038a578063fb3b31941461039d57600080fd5b80638ccc356c146102c257806391d14854146102d5578063967145af146102e85780639afd9d78146101985780639d87999014610316578063a217fddf1461032957600080fd5b80632e6bef33116101155780632e6bef331461024d5780632f2ff15d1461026057806336568abe146102735780633fc4186c1461028657806356cf02d9146102995780637010584c146102af57600080fd5b806301ffc9a71461015d5780630daff6211461018557806310c274021461019a57806314681c84146101c8578063248a9ca3146101db5780632a4f16211461020c575b600080fd5b61017061016b366004611ea8565b6103b0565b60405190151581526020015b60405180910390f35b610198610193366004611db8565b6103e7565b005b6101706101a8366004611ed0565b805160208183018101805160078252928201919093012091525460ff1681565b6101986101d6366004611c60565b610439565b6101fe6101e9366004611e6c565b60009081526004602052604090206001015490565b60405190815260200161017c565b61023561021a366004611c60565b6006602052600090815260409020546001600160a01b031681565b6040516001600160a01b03909116815260200161017c565b600554610235906001600160a01b031681565b61019861026e366004611e84565b61048b565b610198610281366004611e84565b6104b6565b610198610294366004611cd0565b610530565b6101fe6b43524f535345525f524f4c4560a01b81565b6101986102bd366004611c98565b610816565b6101986102d0366004611cd0565b6108d3565b6101706102e3366004611e84565b610aa0565b6101706102f6366004611ed0565b805160208183018101805160088252928201919093012091525460ff1681565b610198610324366004611d8d565b610acb565b6101fe600081565b61019861033f366004611deb565b610afc565b6101fe610352366004611c60565b60006020819052908152604090205481565b610198610372366004611d4d565b610bc3565b610198610385366004611e84565b610e5b565b610198610398366004611c60565b610e81565b6101986103ab366004611d4d565b610f36565b60006001600160e01b03198216637965db0b60e01b14806103e157506301ffc9a760e01b6001600160e01b03198316145b92915050565b60005b81518110156104355761042382828151811061041657634e487b7160e01b600052603260045260246000fd5b6020026020010151610e81565b8061042d816121c5565b9150506103ea565b5050565b610444600033610aa0565b6104695760405162461bcd60e51b8152600401610460906120c8565b60405180910390fd5b600580546001600160a01b0319166001600160a01b0392909216919091179055565b6000828152600460205260409020600101546104a78133611216565b6104b1838361127a565b505050565b6001600160a01b03811633146105265760405162461bcd60e51b815260206004820152602f60248201527f416363657373436f6e74726f6c3a2063616e206f6e6c792072656e6f756e636560448201526e103937b632b9903337b91039b2b63360891b6064820152608401610460565b6104358282611300565b6105496b43524f535345525f524f4c4560a01b33610aa0565b6105955760405162461bcd60e51b815260206004820152601f60248201527f50656750726f78793a2063616c6c6572206973206e6f742063726f73736572006044820152606401610460565b806007816040516105a69190611fa0565b9081526040519081900360200190205460ff16156105fc5760405162461bcd60e51b8152602060048201526013602482015272141959d41c9bde1e4e881d1e081b5a5b9d1959606a1b6044820152606401610460565b600061060b8787878787611367565b9050801561080d5760016007846040516106259190611fa0565b908152604051908190036020018120805492151560ff1990931692909217909155600554630d3c450160e11b82526001600160a01b038981166004840152600092911690631a788a029060240160206040518083038186803b15801561068a57600080fd5b505afa15801561069e573d6000803e3d6000fd5b505050506040513d601f19601f820116820180604052508101906106c29190611c7c565b90506000816001600160a01b031663d21220a76040518163ffffffff1660e01b8152600401602060405180830381600087803b15801561070157600080fd5b505af1158015610715573d6000803e3d6000fd5b505050506040513d601f19601f820116820180604052508101906107399190611c7c565b6040516340c10f1960e01b8152306004820152602481018890529091506001600160a01b038216906340c10f1990604401600060405180830381600087803b15801561078457600080fd5b505af1158015610798573d6000803e3d6000fd5b505060055460405163f51af11160e01b81526001600160a01b038d81166004830152602482018b90528b81166044830152909116925063f51af1119150606401600060405180830381600087803b1580156107f257600080fd5b505af1158015610806573d6000803e3d6000fd5b5050505050505b50505050505050565b610821600033610aa0565b61083d5760405162461bcd60e51b8152600401610460906120c8565b6001600160a01b0382811660009081526006602052604090205416156108a55760405162461bcd60e51b815260206004820181905260248201527f50656750726f78793a20546f6b6520616c726561647920537570706f727465646044820152606401610460565b6001600160a01b03918216600090815260066020526040902080546001600160a01b03191691909216179055565b6001600160a01b0380861660009081526006602052604090205486911661090c5760405162461bcd60e51b815260040161046090612093565b6109256b43524f535345525f524f4c4560a01b33610aa0565b6109715760405162461bcd60e51b815260206004820152601f60248201527f50656750726f78793a2063616c6c6572206973206e6f742063726f73736572006044820152606401610460565b816008816040516109829190611fa0565b9081526040519081900360200190205460ff16156109da5760405162461bcd60e51b8152602060048201526015602482015274141959d41c9bde1e4e881d1e081d5b9b1bd8dad959605a1b6044820152606401610460565b60006109e98888888888611367565b90508015610a96576001600885604051610a039190611fa0565b908152604051908190036020019020805491151560ff19909216919091179055610a376001600160a01b03891687876115ef565b6001600160a01b03808916600090815260066020526040908190205490517f5800596ed55e41c52e6e763640e29ff0d4c09c47408a512c4fb0974a452c1f0c92610a8d928c929116908b908b908b908b90612031565b60405180910390a15b5050505050505050565b60009182526004602090815260408084206001600160a01b0393909316845291905290205460ff1690565b610ad6600033610aa0565b610af25760405162461bcd60e51b8152600401610460906120c8565b6104358282611641565b8051825114610b4d5760405162461bcd60e51b815260206004820181905260248201527f50656750726f78793a20746f6b656e206c656e677468206e6f74206d617463686044820152606401610460565b60005b82518110156104b157610bb1838281518110610b7c57634e487b7160e01b600052603260045260246000fd5b6020026020010151838381518110610ba457634e487b7160e01b600052603260045260246000fd5b6020026020010151610816565b80610bbb816121c5565b915050610b50565b6001600160a01b03808416600090815260066020526040902054849116610bfc5760405162461bcd60e51b815260040161046090612093565b60008211610c5c5760405162461bcd60e51b815260206004820152602760248201527f50656750726f78793a20616d6f756e74206d75737420626520677265617465726044820152660207468616e20360cc1b6064820152608401610460565b6001600160a01b038316610caa5760405162461bcd60e51b815260206004820152601560248201527450656750726f78793a20746f20697320656d70747960581b6044820152606401610460565b6040516323b872dd60e01b8152336004820152306024820152604481018390526001600160a01b038516906323b872dd90606401602060405180830381600087803b158015610cf857600080fd5b505af1158015610d0c573d6000803e3d6000fd5b505050506040513d601f19601f82011682018060405250810190610d309190611e4c565b50600554604051630a85d33760e31b81526001600160a01b038681166004830152600092169063542e99b89060240160206040518083038186803b158015610d7757600080fd5b505afa158015610d8b573d6000803e3d6000fd5b505050506040513d601f19601f82011682018060405250810190610daf9190611f03565b90506000610dbd84836116a6565b90508015610e3c57600554604051635a45429960e01b81526001600160a01b0388811660048301526024820184905230604483015290911690635a45429990606401600060405180830381600087803b158015610e1957600080fd5b505af1158015610e2d573d6000803e3d6000fd5b50505050610e3c868683610f36565b6000610e4885836116be565b9050801561080d5761080d8787836116ca565b600082815260046020526040902060010154610e778133611216565b6104b18383611300565b610e8c600033610aa0565b610ea85760405162461bcd60e51b8152600401610460906120c8565b6001600160a01b0381811660009081526006602052604090205416610f0f5760405162461bcd60e51b815260206004820152601c60248201527f50656750726f78793a20746f6b65206e6f7420737570706f72746564000000006044820152606401610460565b6001600160a01b0316600090815260066020526040902080546001600160a01b0319169055565b6001600160a01b03808416600090815260066020526040902054849116610f6f5760405162461bcd60e51b815260040161046090612093565b600554604051630d3c450160e11b81526001600160a01b0386811660048301526000921690631a788a029060240160206040518083038186803b158015610fb557600080fd5b505afa158015610fc9573d6000803e3d6000fd5b505050506040513d601f19601f82011682018060405250810190610fed9190611c7c565b90506000816001600160a01b031663d21220a76040518163ffffffff1660e01b8152600401602060405180830381600087803b15801561102c57600080fd5b505af1158015611040573d6000803e3d6000fd5b505050506040513d601f19601f820116820180604052508101906110649190611c7c565b6040516370a0823160e01b815233600482015290915084906001600160a01b038316906370a082319060240160206040518083038186803b1580156110a857600080fd5b505afa1580156110bc573d6000803e3d6000fd5b505050506040513d601f19601f820116820180604052508101906110e09190611f03565b10156111445760405162461bcd60e51b815260206004820152602d60248201527f50656750726f78793a206d73672e73656e646572206e6f7420656e6f7567682060448201526c3a37b5b2b7103a3790313ab93760991b6064820152608401610460565b604051632770a7eb60e21b8152336004820152602481018590526001600160a01b03821690639dc29fac90604401600060405180830381600087803b15801561118c57600080fd5b505af11580156111a0573d6000803e3d6000fd5b505050506001600160a01b0386811660008181526006602090815260409182902054825193845284169083015233908201529086166060820152608081018590527f63db45e521861dc5b6514d863ebf6814df6c1079c65b0d1b49a59ac5c5d4aebc9060a00160405180910390a1505050505050565b6112208282610aa0565b61043557611238816001600160a01b03166014611731565b611243836020611731565b604051602001611254929190611fbc565b60408051601f198184030181529082905262461bcd60e51b825261046091600401612080565b6112848282610aa0565b6104355760008281526004602090815260408083206001600160a01b03851684529091529020805460ff191660011790556112bc3390565b6001600160a01b0316816001600160a01b0316837f2f8788117e7eff1d82e926ec794901d17c78024a50270940304540a733656f0d60405160405180910390a45050565b61130a8282610aa0565b156104355760008281526004602090815260408083206001600160a01b0385168085529252808320805460ff1916905551339285917ff6391f5c32d9c69d2a47ea670b442974b53935d1edc7fd64eb21e047a839171b9190a45050565b6001600160a01b0385166000908152602081905260408120546113e55760405162461bcd60e51b815260206004820152603060248201527f50726f706f73616c566f74653a207468726573686f6c642073686f756c64206260448201526f0652067726561746572207468616e20360841b6064820152608401610460565b6001600160a01b038616600090815260208181526040808320549051909291611418918a918a918a918a918a9101611f47565b60408051601f1981840301815291815281516020928301206000818152600190935291205490915060ff16156114905760405162461bcd60e51b815260206004820152601860248201527f5f766f74653a3a70726f706f73616c2066696e697368656400000000000000006044820152606401610460565b600081815260026020908152604080832033845290915290205460ff16156114fa5760405162461bcd60e51b815260206004820152601760248201527f5f766f74653a3a6d73672e73656e64657220766f7465640000000000000000006044820152606401610460565b600081815260036020526040902054611514906001611913565b60008281526003602081815260408084209485556002825280842033855282528320805460ff1916600117905591849052905254821161156c576000818152600160208190526040909120805460ff19168217905592505b6000818152600360209081526040918290205482516001600160a01b038c811682528b811693820193909352918916828401526060820188905233608083015260a082015260c0810184905290517fe458477b94285c9f254a407e2614c39f55230b527ff7f51d76fdf33e251ae9369181900360e00190a1505095945050505050565b604080516001600160a01b038416602482015260448082018490528251808303909101815260649091019091526020810180516001600160e01b031663a9059cbb60e01b1790526104b190849061191f565b6001600160a01b038216600081815260208181526040918290208054908590558251938452908301819052908201839052907fb18e91516e037486aa6fa38f56a8aac933fd127180efe9c9745ecbf660a78e44906060015b60405180910390a1505050565b60008183106116b557816116b7565b825b9392505050565b60006116b78284612167565b6001600160a01b0383811660008181526006602090815260409182902054825193845284169083015233908201529083166060820152608081018290527f4e9dc37847123badcca2493e1da785f59908e20645214cf795e6914bfdbaada29060a001611699565b60606000611740836002612148565b61174b906002612130565b67ffffffffffffffff81111561177157634e487b7160e01b600052604160045260246000fd5b6040519080825280601f01601f19166020018201604052801561179b576020820181803683370190505b509050600360fc1b816000815181106117c457634e487b7160e01b600052603260045260246000fd5b60200101906001600160f81b031916908160001a905350600f60fb1b8160018151811061180157634e487b7160e01b600052603260045260246000fd5b60200101906001600160f81b031916908160001a9053506000611825846002612148565b611830906001612130565b90505b60018111156118c4576f181899199a1a9b1b9c1cb0b131b232b360811b85600f166010811061187257634e487b7160e01b600052603260045260246000fd5b1a60f81b82828151811061189657634e487b7160e01b600052603260045260246000fd5b60200101906001600160f81b031916908160001a90535060049490941c936118bd816121ae565b9050611833565b5083156116b75760405162461bcd60e51b815260206004820181905260248201527f537472696e67733a20686578206c656e67746820696e73756666696369656e746044820152606401610460565b60006116b78284612130565b6000611974826040518060400160405280602081526020017f5361666545524332303a206c6f772d6c6576656c2063616c6c206661696c6564815250856001600160a01b03166119f19092919063ffffffff16565b8051909150156104b157808060200190518101906119929190611e4c565b6104b15760405162461bcd60e51b815260206004820152602a60248201527f5361666545524332303a204552433230206f7065726174696f6e20646964206e6044820152691bdd081cdd58d8d9595960b21b6064820152608401610460565b6060611a008484600085611a08565b949350505050565b606082471015611a695760405162461bcd60e51b815260206004820152602660248201527f416464726573733a20696e73756666696369656e742062616c616e636520666f6044820152651c8818d85b1b60d21b6064820152608401610460565b843b611ab75760405162461bcd60e51b815260206004820152601d60248201527f416464726573733a2063616c6c20746f206e6f6e2d636f6e74726163740000006044820152606401610460565b600080866001600160a01b03168587604051611ad39190611fa0565b60006040518083038185875af1925050503d8060008114611b10576040519150601f19603f3d011682016040523d82523d6000602084013e611b15565b606091505b5091509150611b25828286611b30565b979650505050505050565b60608315611b3f5750816116b7565b825115611b4f5782518084602001fd5b8160405162461bcd60e51b81526004016104609190612080565b600082601f830112611b79578081fd5b8135602067ffffffffffffffff821115611b9557611b956121f6565b8160051b611ba48282016120ff565b838152828101908684018388018501891015611bbe578687fd5b8693505b85841015611be9578035611bd58161220c565b835260019390930192918401918401611bc2565b50979650505050505050565b600082601f830112611c05578081fd5b813567ffffffffffffffff811115611c1f57611c1f6121f6565b611c32601f8201601f19166020016120ff565b818152846020838601011115611c46578283fd5b816020850160208301379081016020019190915292915050565b600060208284031215611c71578081fd5b81356116b78161220c565b600060208284031215611c8d578081fd5b81516116b78161220c565b60008060408385031215611caa578081fd5b8235611cb58161220c565b91506020830135611cc58161220c565b809150509250929050565b600080600080600060a08688031215611ce7578081fd5b8535611cf28161220c565b94506020860135611d028161220c565b93506040860135611d128161220c565b925060608601359150608086013567ffffffffffffffff811115611d34578182fd5b611d4088828901611bf5565b9150509295509295909350565b600080600060608486031215611d61578283fd5b8335611d6c8161220c565b92506020840135611d7c8161220c565b929592945050506040919091013590565b60008060408385031215611d9f578182fd5b8235611daa8161220c565b946020939093013593505050565b600060208284031215611dc9578081fd5b813567ffffffffffffffff811115611ddf578182fd5b611a0084828501611b69565b60008060408385031215611dfd578182fd5b823567ffffffffffffffff80821115611e14578384fd5b611e2086838701611b69565b93506020850135915080821115611e35578283fd5b50611e4285828601611b69565b9150509250929050565b600060208284031215611e5d578081fd5b815180151581146116b7578182fd5b600060208284031215611e7d578081fd5b5035919050565b60008060408385031215611e96578182fd5b823591506020830135611cc58161220c565b600060208284031215611eb9578081fd5b81356001600160e01b0319811681146116b7578182fd5b600060208284031215611ee1578081fd5b813567ffffffffffffffff811115611ef7578182fd5b611a0084828501611bf5565b600060208284031215611f14578081fd5b5051919050565b60008151808452611f3381602086016020860161217e565b601f01601f19169290920160200192915050565b60006bffffffffffffffffffffffff19808860601b168352808760601b166014840152808660601b1660288401525083603c8301528251611f8f81605c85016020870161217e565b91909101605c019695505050505050565b60008251611fb281846020870161217e565b9190910192915050565b7f416363657373436f6e74726f6c3a206163636f756e7420000000000000000000815260008351611ff481601785016020880161217e565b7001034b99036b4b9b9b4b733903937b6329607d1b601791840191820152835161202581602884016020880161217e565b01602801949350505050565b6001600160a01b03878116825286811660208301528581166040830152841660608201526080810183905260c060a0820181905260009061207490830184611f1b565b98975050505050505050565b6020815260006116b76020830184611f1b565b6020808252818101527f50656750726f78793a206e6f7420737570706f7274207468697320746f6b656e604082015260600190565b6020808252601d908201527f50656750726f78793a2063616c6c6572206973206e6f742061646d696e000000604082015260600190565b604051601f8201601f1916810167ffffffffffffffff81118282101715612128576121286121f6565b604052919050565b60008219821115612143576121436121e0565b500190565b6000816000190483118215151615612162576121626121e0565b500290565b600082821015612179576121796121e0565b500390565b60005b83811015612199578181015183820152602001612181565b838111156121a8576000848401525b50505050565b6000816121bd576121bd6121e0565b506000190190565b60006000198214156121d9576121d96121e0565b5060010190565b634e487b7160e01b600052601160045260246000fd5b634e487b7160e01b600052604160045260246000fd5b6001600160a01b038116811461222157600080fd5b5056fea26469706673582212200a78216484d9ba24b99728c7d1a2d9ff63c87d8cd7c28f15418ffd1350b4c9a964736f6c63430008040033",
  "devdoc": {
    "kind": "dev",
    "methods": {
      "getRoleAdmin(bytes32)": {
        "details": "Returns the admin role that controls `role`. See {grantRole} and {revokeRole}. To change a role's admin, use {_setRoleAdmin}."
      },
      "grantRole(bytes32,address)": {
        "details": "Grants `role` to `account`. If `account` had not been already granted `role`, emits a {RoleGranted} event. Requirements: - the caller must have ``role``'s admin role."
      },
      "hasRole(bytes32,address)": {
        "details": "Returns `true` if `account` has been granted `role`."
      },
      "renounceRole(bytes32,address)": {
        "details": "Revokes `role` from the calling account. Roles are often managed via {grantRole} and {revokeRole}: this function's purpose is to provide a mechanism for accounts to lose their privileges if they are compromised (such as when a trusted device is misplaced). If the calling account had been granted `role`, emits a {RoleRevoked} event. Requirements: - the caller must be `account`."
      },
      "revokeRole(bytes32,address)": {
        "details": "Revokes `role` from `account`. If `account` had been granted `role`, emits a {RoleRevoked} event. Requirements: - the caller must have ``role``'s admin role."
      },
      "supportsInterface(bytes4)": {
        "details": "See {IERC165-supportsInterface}."
      }
    },
    "version": 1
  },
  "userdoc": {
    "kind": "user",
    "methods": {},
    "version": 1
  },
  "storageLayout": {
    "storage": [
      {
        "astId": 5998,
        "contract": "contracts/pegbridge/PegProxy.sol:PegProxy",
        "label": "threshold",
        "offset": 0,
        "slot": "0",
        "type": "t_mapping(t_address,t_uint256)"
      },
      {
        "astId": 6002,
        "contract": "contracts/pegbridge/PegProxy.sol:PegProxy",
        "label": "isFinished",
        "offset": 0,
        "slot": "1",
        "type": "t_mapping(t_bytes32,t_bool)"
      },
      {
        "astId": 6008,
        "contract": "contracts/pegbridge/PegProxy.sol:PegProxy",
        "label": "isVoted",
        "offset": 0,
        "slot": "2",
        "type": "t_mapping(t_bytes32,t_mapping(t_address,t_bool))"
      },
      {
        "astId": 6012,
        "contract": "contracts/pegbridge/PegProxy.sol:PegProxy",
        "label": "counter",
        "offset": 0,
        "slot": "3",
        "type": "t_mapping(t_bytes32,t_uint256)"
      },
      {
        "astId": 2447,
        "contract": "contracts/pegbridge/PegProxy.sol:PegProxy",
        "label": "_roles",
        "offset": 0,
        "slot": "4",
        "type": "t_mapping(t_bytes32,t_struct(RoleData)2442_storage)"
      },
      {
        "astId": 7349,
        "contract": "contracts/pegbridge/PegProxy.sol:PegProxy",
        "label": "pegSwap",
        "offset": 0,
        "slot": "5",
        "type": "t_address"
      },
      {
        "astId": 7353,
        "contract": "contracts/pegbridge/PegProxy.sol:PegProxy",
        "label": "supportToken",
        "offset": 0,
        "slot": "6",
        "type": "t_mapping(t_address,t_address)"
      },
      {
        "astId": 7357,
        "contract": "contracts/pegbridge/PegProxy.sol:PegProxy",
        "label": "txMinted",
        "offset": 0,
        "slot": "7",
        "type": "t_mapping(t_string_memory_ptr,t_bool)"
      },
      {
        "astId": 7361,
        "contract": "contracts/pegbridge/PegProxy.sol:PegProxy",
        "label": "txUnlocked",
        "offset": 0,
        "slot": "8",
        "type": "t_mapping(t_string_memory_ptr,t_bool)"
      }
    ],
    "types": {
      "t_address": {
        "encoding": "inplace",
        "label": "address",
        "numberOfBytes": "20"
      },
      "t_bool": {
        "encoding": "inplace",
        "label": "bool",
        "numberOfBytes": "1"
      },
      "t_bytes32": {
        "encoding": "inplace",
        "label": "bytes32",
        "numberOfBytes": "32"
      },
      "t_mapping(t_address,t_address)": {
        "encoding": "mapping",
        "key": "t_address",
        "label": "mapping(address => address)",
        "numberOfBytes": "32",
        "value": "t_address"
      },
      "t_mapping(t_address,t_bool)": {
        "encoding": "mapping",
        "key": "t_address",
        "label": "mapping(address => bool)",
        "numberOfBytes": "32",
        "value": "t_bool"
      },
      "t_mapping(t_address,t_uint256)": {
        "encoding": "mapping",
        "key": "t_address",
        "label": "mapping(address => uint256)",
        "numberOfBytes": "32",
        "value": "t_uint256"
      },
      "t_mapping(t_bytes32,t_bool)": {
        "encoding": "mapping",
        "key": "t_bytes32",
        "label": "mapping(bytes32 => bool)",
        "numberOfBytes": "32",
        "value": "t_bool"
      },
      "t_mapping(t_bytes32,t_mapping(t_address,t_bool))": {
        "encoding": "mapping",
        "key": "t_bytes32",
        "label": "mapping(bytes32 => mapping(address => bool))",
        "numberOfBytes": "32",
        "value": "t_mapping(t_address,t_bool)"
      },
      "t_mapping(t_bytes32,t_struct(RoleData)2442_storage)": {
        "encoding": "mapping",
        "key": "t_bytes32",
        "label": "mapping(bytes32 => struct AccessControl.RoleData)",
        "numberOfBytes": "32",
        "value": "t_struct(RoleData)2442_storage"
      },
      "t_mapping(t_bytes32,t_uint256)": {
        "encoding": "mapping",
        "key": "t_bytes32",
        "label": "mapping(bytes32 => uint256)",
        "numberOfBytes": "32",
        "value": "t_uint256"
      },
      "t_mapping(t_string_memory_ptr,t_bool)": {
        "encoding": "mapping",
        "key": "t_string_memory_ptr",
        "label": "mapping(string => bool)",
        "numberOfBytes": "32",
        "value": "t_bool"
      },
      "t_string_memory_ptr": {
        "encoding": "bytes",
        "label": "string",
        "numberOfBytes": "32"
      },
      "t_struct(RoleData)2442_storage": {
        "encoding": "inplace",
        "label": "struct AccessControl.RoleData",
        "members": [
          {
            "astId": 2439,
            "contract": "contracts/pegbridge/PegProxy.sol:PegProxy",
            "label": "members",
            "offset": 0,
            "slot": "0",
            "type": "t_mapping(t_address,t_bool)"
          },
          {
            "astId": 2441,
            "contract": "contracts/pegbridge/PegProxy.sol:PegProxy",
            "label": "adminRole",
            "offset": 0,
            "slot": "1",
            "type": "t_bytes32"
          }
        ],
        "numberOfBytes": "64"
      },
      "t_uint256": {
        "encoding": "inplace",
        "label": "uint256",
        "numberOfBytes": "32"
      }
    }
  }
}