{
  "address": "0x735587AB7Ef2be177Dd3DaBDAf8Bb438edC58031",
  "abi": [
    {
      "anonymous": false,
      "inputs": [
        {
          "indexed": true,
          "internalType": "address",
          "name": "previousOwner",
          "type": "address"
        },
        {
          "indexed": true,
          "internalType": "address",
          "name": "newOwner",
          "type": "address"
        }
      ],
      "name": "OwnershipTransferred",
      "type": "event"
    },
    {
      "inputs": [
        {
          "internalType": "address",
          "name": "token0",
          "type": "address"
        },
        {
          "internalType": "uint256",
          "name": "chainID",
          "type": "uint256"
        },
        {
          "internalType": "uint256",
          "name": "amount",
          "type": "uint256"
        },
        {
          "internalType": "address",
          "name": "to",
          "type": "address"
        }
      ],
      "name": "addLiquidity",
      "outputs": [
        {
          "internalType": "uint256",
          "name": "liquidity",
          "type": "uint256"
        }
      ],
      "stateMutability": "nonpayable",
      "type": "function"
    },
    {
      "inputs": [
        {
          "internalType": "address",
          "name": "token",
          "type": "address"
        },
        {
          "internalType": "address",
          "name": "pair",
          "type": "address"
        },
        {
          "internalType": "uint256",
          "name": "chainID",
          "type": "uint256"
        }
      ],
      "name": "addPair",
      "outputs": [],
      "stateMutability": "nonpayable",
      "type": "function"
    },
    {
      "inputs": [
        {
          "internalType": "address",
          "name": "token0",
          "type": "address"
        },
        {
          "internalType": "uint256",
          "name": "chainID",
          "type": "uint256"
        }
      ],
      "name": "getMaxToken0AmountOut",
      "outputs": [
        {
          "internalType": "uint256",
          "name": "",
          "type": "uint256"
        }
      ],
      "stateMutability": "view",
      "type": "function"
    },
    {
      "inputs": [
        {
          "internalType": "address",
          "name": "token0",
          "type": "address"
        },
        {
          "internalType": "uint256",
          "name": "chainID",
          "type": "uint256"
        }
      ],
      "name": "getMaxToken1AmountOut",
      "outputs": [
        {
          "internalType": "uint256",
          "name": "",
          "type": "uint256"
        }
      ],
      "stateMutability": "view",
      "type": "function"
    },
    {
      "inputs": [
        {
          "internalType": "address",
          "name": "token",
          "type": "address"
        },
        {
          "internalType": "uint256",
          "name": "chainID",
          "type": "uint256"
        }
      ],
      "name": "getPair",
      "outputs": [
        {
          "internalType": "address",
          "name": "",
          "type": "address"
        }
      ],
      "stateMutability": "view",
      "type": "function"
    },
    {
      "inputs": [],
      "name": "owner",
      "outputs": [
        {
          "internalType": "address",
          "name": "",
          "type": "address"
        }
      ],
      "stateMutability": "view",
      "type": "function"
    },
    {
      "inputs": [
        {
          "internalType": "address",
          "name": "",
          "type": "address"
        },
        {
          "internalType": "uint256",
          "name": "",
          "type": "uint256"
        }
      ],
      "name": "pairs",
      "outputs": [
        {
          "internalType": "address",
          "name": "",
          "type": "address"
        }
      ],
      "stateMutability": "view",
      "type": "function"
    },
    {
      "inputs": [],
      "name": "pegProxy",
      "outputs": [
        {
          "internalType": "address",
          "name": "",
          "type": "address"
        }
      ],
      "stateMutability": "view",
      "type": "function"
    },
    {
      "inputs": [
        {
          "internalType": "address",
          "name": "token0",
          "type": "address"
        },
        {
          "internalType": "uint256",
          "name": "chainID",
          "type": "uint256"
        },
        {
          "internalType": "uint256",
          "name": "liquidity",
          "type": "uint256"
        },
        {
          "internalType": "address",
          "name": "to",
          "type": "address"
        }
      ],
      "name": "removeLiquidity",
      "outputs": [
        {
          "internalType": "uint256",
          "name": "amount0",
          "type": "uint256"
        },
        {
          "internalType": "uint256",
          "name": "amount1",
          "type": "uint256"
        }
      ],
      "stateMutability": "nonpayable",
      "type": "function"
    },
    {
      "inputs": [
        {
          "internalType": "address",
          "name": "token",
          "type": "address"
        },
        {
          "internalType": "uint256",
          "name": "chainID",
          "type": "uint256"
        }
      ],
      "name": "removePair",
      "outputs": [],
      "stateMutability": "nonpayable",
      "type": "function"
    },
    {
      "inputs": [],
      "name": "renounceOwnership",
      "outputs": [],
      "stateMutability": "nonpayable",
      "type": "function"
    },
    {
      "inputs": [
        {
          "internalType": "address",
          "name": "_pegProxy",
          "type": "address"
        }
      ],
      "name": "setPegProxy",
      "outputs": [],
      "stateMutability": "nonpayable",
      "type": "function"
    },
    {
      "inputs": [
        {
          "internalType": "address",
          "name": "token0",
          "type": "address"
        },
        {
          "internalType": "uint256",
          "name": "chainID",
          "type": "uint256"
        },
        {
          "internalType": "uint256",
          "name": "amountIn",
          "type": "uint256"
        },
        {
          "internalType": "address",
          "name": "to",
          "type": "address"
        }
      ],
      "name": "swapToken0ForToken1",
      "outputs": [],
      "stateMutability": "nonpayable",
      "type": "function"
    },
    {
      "inputs": [
        {
          "internalType": "address",
          "name": "token0",
          "type": "address"
        },
        {
          "internalType": "uint256",
          "name": "chainID",
          "type": "uint256"
        },
        {
          "internalType": "uint256",
          "name": "amountIn",
          "type": "uint256"
        },
        {
          "internalType": "address",
          "name": "to",
          "type": "address"
        }
      ],
      "name": "swapToken1ForToken0",
      "outputs": [],
      "stateMutability": "nonpayable",
      "type": "function"
    },
    {
      "inputs": [
        {
          "internalType": "address",
          "name": "newOwner",
          "type": "address"
        }
      ],
      "name": "transferOwnership",
      "outputs": [],
      "stateMutability": "nonpayable",
      "type": "function"
    }
  ],
  "transactionHash": "0xa1a06fda86d376371652c1c29cb519f300431abf1b540b7f1a29292b37b59b24",
  "args": [],
  "solcInputHash": "6de8a9cefa3c9f7aa4a338d2ba31a466",
  "bytecode": "0x608060405234801561001057600080fd5b50600080546001600160a01b031916339081178255604051909182917f8be0079c531659141344cd1fd0a4f28419497f9722a3daafe3b4186f6b6457e0908290a350611076806100616000396000f3fe608060405234801561001057600080fd5b50600436106100f45760003560e01c80634ff2c804116100975780638fed0b2c116100665780638fed0b2c1461020b578063934ac70714610233578063b5acfa6214610246578063f2fde38b1461025957600080fd5b80634ff2c804146101cc57806356ecaeb7146101df578063715018a6146101f25780638da5cb5b146101fa57600080fd5b80632599c037116100d35780632599c0371461017e5780632b2483761461019357806340ec1723146101a65780634869e9fa146101b957600080fd5b80626349fb146100f957806303d405131461012957806312fef6921461015d575b600080fd5b61010c610107366004610e84565b61026c565b6040516001600160a01b0390911681526020015b60405180910390f35b61010c610137366004610e84565b60026020908152600092835260408084209091529082529020546001600160a01b031681565b61017061016b366004610eaf565b6102e8565b604051908152602001610120565b61019161018c366004610e84565b610449565b005b6101916101a1366004610e05565b610518565b6101916101b4366004610eaf565b610564565b60015461010c906001600160a01b031681565b6101916101da366004610eaf565b610799565b6101706101ed366004610e84565b610956565b6101916109e1565b6000546001600160a01b031661010c565b61021e610219366004610eaf565b610a55565b60408051928352602083019190915201610120565b610170610241366004610e84565b610bbb565b610191610254366004610e44565b610c46565b610191610267366004610e05565b610d1b565b6001600160a01b038083166000908152600260209081526040808320858452909152812054909184918491166102bd5760405162461bcd60e51b81526004016102b490610fac565b60405180910390fd5b5050506001600160a01b03918216600090815260026020908152604080832093835292905220541690565b6001600160a01b038085166000908152600260209081526040808320878452909152812054909186918691166103305760405162461bcd60e51b81526004016102b490610fac565b600061033c888861026c565b6040516323b872dd60e01b81529091506001600160a01b038916906323b872dd9061036f90339085908b90600401610f53565b602060405180830381600087803b15801561038957600080fd5b505af115801561039d573d6000803e3d6000fd5b505050506040513d601f19601f820116820180604052508101906103c19190610ef8565b506040516335313c2160e11b81526001600160a01b038681166004830152821690636a62784290602401602060405180830381600087803b15801561040557600080fd5b505af1158015610419573d6000803e3d6000fd5b505050506040513d601f19601f8201168201806040525081019061043d9190610f18565b98975050505050505050565b6000546001600160a01b031633146104735760405162461bcd60e51b81526004016102b490610f77565b6001600160a01b038281166000908152600260209081526040808320858452909152902054166104e55760405162461bcd60e51b815260206004820152601c60248201527f506567537761703a20746f6b656e206e6f7420737570706f727465640000000060448201526064016102b4565b6001600160a01b0390911660009081526002602090815260408083209383529290522080546001600160a01b0319169055565b6000546001600160a01b031633146105425760405162461bcd60e51b81526004016102b490610f77565b600180546001600160a01b0319166001600160a01b0392909216919091179055565b6001600160a01b03808516600090815260026020908152604080832087845290915290205485918591166105aa5760405162461bcd60e51b81526004016102b490610fac565b6001546001600160a01b031633146106045760405162461bcd60e51b815260206004820152601f60248201527f506567537761703a2063616c6c6572206973206e6f742070656750726f78790060448201526064016102b4565b600084116106245760405162461bcd60e51b81526004016102b490610fe3565b6000610630878761026c565b90506000816001600160a01b031663d21220a76040518163ffffffff1660e01b8152600401602060405180830381600087803b15801561066f57600080fd5b505af1158015610683573d6000803e3d6000fd5b505050506040513d601f19601f820116820180604052508101906106a79190610e28565b6040516323b872dd60e01b81529091506001600160a01b038216906323b872dd906106da90339086908b90600401610f53565b602060405180830381600087803b1580156106f457600080fd5b505af1158015610708573d6000803e3d6000fd5b505050506040513d601f19601f8201168201806040525081019061072c9190610ef8565b5060405163513c681b60e11b81526001600160a01b0386811660048301526000602483015283169063a278d03690604401600060405180830381600087803b15801561077757600080fd5b505af115801561078b573d6000803e3d6000fd5b505050505050505050505050565b6001600160a01b03808516600090815260026020908152604080832087845290915290205485918591166107df5760405162461bcd60e51b81526004016102b490610fac565b6001546001600160a01b031633146108395760405162461bcd60e51b815260206004820152601f60248201527f506567537761703a2063616c6c6572206973206e6f742070656750726f78790060448201526064016102b4565b600084116108595760405162461bcd60e51b81526004016102b490610fe3565b6000610865878761026c565b6040516323b872dd60e01b81529091506001600160a01b038816906323b872dd9061089890339085908a90600401610f53565b602060405180830381600087803b1580156108b257600080fd5b505af11580156108c6573d6000803e3d6000fd5b505050506040513d601f19601f820116820180604052508101906108ea9190610ef8565b5060405163513c681b60e11b81526001600160a01b0385811660048301526001602483015282169063a278d03690604401600060405180830381600087803b15801561093557600080fd5b505af1158015610949573d6000803e3d6000fd5b5050505050505050505050565b600080610963848461026c565b90506000816001600160a01b0316630902f1ac6040518163ffffffff1660e01b8152600401604080518083038186803b15801561099f57600080fd5b505afa1580156109b3573d6000803e3d6000fd5b505050506040513d601f19601f820116820180604052508101906109d79190610f30565b9695505050505050565b6000546001600160a01b03163314610a0b5760405162461bcd60e51b81526004016102b490610f77565b600080546040516001600160a01b03909116907f8be0079c531659141344cd1fd0a4f28419497f9722a3daafe3b4186f6b6457e0908390a3600080546001600160a01b0319169055565b6001600160a01b038085166000908152600260209081526040808320878452909152812054909182918791879116610a9f5760405162461bcd60e51b81526004016102b490610fac565b6000610aab898961026c565b6040516323b872dd60e01b81529091506001600160a01b038216906323b872dd90610ade90339085908c90600401610f53565b602060405180830381600087803b158015610af857600080fd5b505af1158015610b0c573d6000803e3d6000fd5b505050506040513d601f19601f82011682018060405250810190610b309190610ef8565b5060405163226bf2d160e21b81526001600160a01b0387811660048301528216906389afcb44906024016040805180830381600087803b158015610b7357600080fd5b505af1158015610b87573d6000803e3d6000fd5b505050506040513d601f19601f82011682018060405250810190610bab9190610f30565b909a909950975050505050505050565b600080610bc8848461026c565b90506000816001600160a01b0316630902f1ac6040518163ffffffff1660e01b8152600401604080518083038186803b158015610c0457600080fd5b505afa158015610c18573d6000803e3d6000fd5b505050506040513d601f19601f82011682018060405250810190610c3c9190610f30565b5095945050505050565b6000546001600160a01b03163314610c705760405162461bcd60e51b81526004016102b490610f77565b6001600160a01b0383811660009081526002602090815260408083208584529091529020541615610ce35760405162461bcd60e51b815260206004820181905260248201527f506567537761703a20746f6b656e20616c726561647920737570706f7274656460448201526064016102b4565b6001600160a01b0392831660009081526002602090815260408083209383529290522080546001600160a01b03191691909216179055565b6000546001600160a01b03163314610d455760405162461bcd60e51b81526004016102b490610f77565b6001600160a01b038116610daa5760405162461bcd60e51b815260206004820152602660248201527f4f776e61626c653a206e6577206f776e657220697320746865207a65726f206160448201526564647265737360d01b60648201526084016102b4565b600080546040516001600160a01b03808516939216917f8be0079c531659141344cd1fd0a4f28419497f9722a3daafe3b4186f6b6457e091a3600080546001600160a01b0319166001600160a01b0392909216919091179055565b600060208284031215610e16578081fd5b8135610e2181611028565b9392505050565b600060208284031215610e39578081fd5b8151610e2181611028565b600080600060608486031215610e58578182fd5b8335610e6381611028565b92506020840135610e7381611028565b929592945050506040919091013590565b60008060408385031215610e96578182fd5b8235610ea181611028565b946020939093013593505050565b60008060008060808587031215610ec4578081fd5b8435610ecf81611028565b935060208501359250604085013591506060850135610eed81611028565b939692955090935050565b600060208284031215610f09578081fd5b81518015158114610e21578182fd5b600060208284031215610f29578081fd5b5051919050565b60008060408385031215610f42578182fd5b505080516020909101519092909150565b6001600160a01b039384168152919092166020820152604081019190915260600190565b6020808252818101527f4f776e61626c653a2063616c6c6572206973206e6f7420746865206f776e6572604082015260600190565b6020808252601f908201527f506567537761703a206e6f7420737570706f7274207468697320746f6b656e00604082015260600190565b60208082526025908201527f506567537761703a20696e707574206d75737420626520677265617465722074604082015264068616e20360dc1b606082015260800190565b6001600160a01b038116811461103d57600080fd5b5056fea2646970667358221220d9a25391521d60254133e8709fa2742cfc06e15a94ac4e065e6d0a53f2f17ca264736f6c63430008040033",
  "devdoc": {
    "kind": "dev",
    "methods": {
      "owner()": {
        "details": "Returns the address of the current owner."
      },
      "renounceOwnership()": {
        "details": "Leaves the contract without owner. It will not be possible to call `onlyOwner` functions anymore. Can only be called by the current owner. NOTE: Renouncing ownership will leave the contract without an owner, thereby removing any functionality that is only available to the owner."
      },
      "transferOwnership(address)": {
        "details": "Transfers ownership of the contract to a new account (`newOwner`). Can only be called by the current owner."
      }
    },
    "version": 1
  },
  "userdoc": {
    "kind": "user",
    "methods": {},
    "version": 1
  },
  "storageLayout": {
    "storage": [
      {
        "astId": 2760,
        "contract": "contracts/pegbridge/PegSwap.sol:PegSwap",
        "label": "_owner",
        "offset": 0,
        "slot": "0",
        "type": "t_address"
      },
      {
        "astId": 8354,
        "contract": "contracts/pegbridge/PegSwap.sol:PegSwap",
        "label": "pegProxy",
        "offset": 0,
        "slot": "1",
        "type": "t_address"
      },
      {
        "astId": 8360,
        "contract": "contracts/pegbridge/PegSwap.sol:PegSwap",
        "label": "pairs",
        "offset": 0,
        "slot": "2",
        "type": "t_mapping(t_address,t_mapping(t_uint256,t_address))"
      }
    ],
    "types": {
      "t_address": {
        "encoding": "inplace",
        "label": "address",
        "numberOfBytes": "20"
      },
      "t_mapping(t_address,t_mapping(t_uint256,t_address))": {
        "encoding": "mapping",
        "key": "t_address",
        "label": "mapping(address => mapping(uint256 => address))",
        "numberOfBytes": "32",
        "value": "t_mapping(t_uint256,t_address)"
      },
      "t_mapping(t_uint256,t_address)": {
        "encoding": "mapping",
        "key": "t_uint256",
        "label": "mapping(uint256 => address)",
        "numberOfBytes": "32",
        "value": "t_address"
      },
      "t_uint256": {
        "encoding": "inplace",
        "label": "uint256",
        "numberOfBytes": "32"
      }
    }
  }
}