{
  "address": "0xdB6679478D74Ba4BBE4c0D3089161176844C7E90",
  "abi": [
    {
      "anonymous": false,
      "inputs": [
        {
          "indexed": true,
          "internalType": "address",
          "name": "previousOwner",
          "type": "address"
        },
        {
          "indexed": true,
          "internalType": "address",
          "name": "newOwner",
          "type": "address"
        }
      ],
      "name": "OwnershipTransferred",
      "type": "event"
    },
    {
      "inputs": [
        {
          "internalType": "address",
          "name": "token0",
          "type": "address"
        },
        {
          "internalType": "uint256",
          "name": "amount",
          "type": "uint256"
        },
        {
          "internalType": "address",
          "name": "to",
          "type": "address"
        }
      ],
      "name": "addLiquidity",
      "outputs": [
        {
          "internalType": "uint256",
          "name": "liquidity",
          "type": "uint256"
        }
      ],
      "stateMutability": "nonpayable",
      "type": "function"
    },
    {
      "inputs": [
        {
          "internalType": "address",
          "name": "token",
          "type": "address"
        },
        {
          "internalType": "address",
          "name": "pair",
          "type": "address"
        }
      ],
      "name": "addPair",
      "outputs": [],
      "stateMutability": "nonpayable",
      "type": "function"
    },
    {
      "inputs": [
        {
          "internalType": "address",
          "name": "token0",
          "type": "address"
        }
      ],
      "name": "getMaxToken1AmountOut",
      "outputs": [
        {
          "internalType": "uint256",
          "name": "",
          "type": "uint256"
        }
      ],
      "stateMutability": "view",
      "type": "function"
    },
    {
      "inputs": [
        {
          "internalType": "address",
          "name": "token",
          "type": "address"
        }
      ],
      "name": "getPair",
      "outputs": [
        {
          "internalType": "address",
          "name": "",
          "type": "address"
        }
      ],
      "stateMutability": "view",
      "type": "function"
    },
    {
      "inputs": [],
      "name": "owner",
      "outputs": [
        {
          "internalType": "address",
          "name": "",
          "type": "address"
        }
      ],
      "stateMutability": "view",
      "type": "function"
    },
    {
      "inputs": [
        {
          "internalType": "address",
          "name": "",
          "type": "address"
        }
      ],
      "name": "pairs",
      "outputs": [
        {
          "internalType": "address",
          "name": "",
          "type": "address"
        }
      ],
      "stateMutability": "view",
      "type": "function"
    },
    {
      "inputs": [],
      "name": "pegProxy",
      "outputs": [
        {
          "internalType": "address",
          "name": "",
          "type": "address"
        }
      ],
      "stateMutability": "view",
      "type": "function"
    },
    {
      "inputs": [
        {
          "internalType": "address",
          "name": "token0",
          "type": "address"
        },
        {
          "internalType": "uint256",
          "name": "liquidity",
          "type": "uint256"
        },
        {
          "internalType": "address",
          "name": "to",
          "type": "address"
        }
      ],
      "name": "removeLiquidity",
      "outputs": [
        {
          "internalType": "uint256",
          "name": "amount0",
          "type": "uint256"
        },
        {
          "internalType": "uint256",
          "name": "amount1",
          "type": "uint256"
        }
      ],
      "stateMutability": "nonpayable",
      "type": "function"
    },
    {
      "inputs": [
        {
          "internalType": "address",
          "name": "token",
          "type": "address"
        }
      ],
      "name": "removePair",
      "outputs": [],
      "stateMutability": "nonpayable",
      "type": "function"
    },
    {
      "inputs": [],
      "name": "renounceOwnership",
      "outputs": [],
      "stateMutability": "nonpayable",
      "type": "function"
    },
    {
      "inputs": [
        {
          "internalType": "address",
          "name": "_pegProxy",
          "type": "address"
        }
      ],
      "name": "setPegProxy",
      "outputs": [],
      "stateMutability": "nonpayable",
      "type": "function"
    },
    {
      "inputs": [
        {
          "internalType": "address",
          "name": "token0",
          "type": "address"
        },
        {
          "internalType": "uint256",
          "name": "amountIn",
          "type": "uint256"
        },
        {
          "internalType": "address",
          "name": "to",
          "type": "address"
        }
      ],
      "name": "swapToken0ForToken1",
      "outputs": [],
      "stateMutability": "nonpayable",
      "type": "function"
    },
    {
      "inputs": [
        {
          "internalType": "address",
          "name": "token0",
          "type": "address"
        },
        {
          "internalType": "uint256",
          "name": "amountIn",
          "type": "uint256"
        },
        {
          "internalType": "address",
          "name": "to",
          "type": "address"
        }
      ],
      "name": "swapToken1ForToken0",
      "outputs": [],
      "stateMutability": "nonpayable",
      "type": "function"
    },
    {
      "inputs": [
        {
          "internalType": "address",
          "name": "newOwner",
          "type": "address"
        }
      ],
      "name": "transferOwnership",
      "outputs": [],
      "stateMutability": "nonpayable",
      "type": "function"
    }
  ],
  "transactionHash": "0xa31d9854708a6c46f547e60f865a1686866bdf3b68386290953860611300ef53",
  "args": [],
  "solcInputHash": "778e5295d7f36ebe714a208a2f9b9b88",
  "bytecode": "0x608060405234801561001057600080fd5b50600080546001600160a01b031916339081178255604051909182917f8be0079c531659141344cd1fd0a4f28419497f9722a3daafe3b4186f6b6457e0908290a350610f02806100616000396000f3fe608060405234801561001057600080fd5b50600436106100ea5760003560e01c8063715018a61161008c578063b6f3e08711610066578063b6f3e087146101e2578063f2fde38b146101f5578063f51af11114610208578063fe33b3021461021b57600080fd5b8063715018a6146101b65780638da5cb5b146101be578063af6c9c1d146101cf57600080fd5b806347fdbc8e116100c857806347fdbc8e146101555780634869e9fa1461017d578063542e99b8146101905780635a454299146101a357600080fd5b80631a788a02146100ef5780631b8793781461011f5780632b24837614610140575b600080fd5b6101026100fd366004610ccc565b610244565b6040516001600160a01b0390911681526020015b60405180910390f35b61013261012d366004610d43565b6102a8565b604051908152602001610116565b61015361014e366004610ccc565b6103f9565b005b610168610163366004610d43565b610445565b60408051928352602083019190915201610116565b600154610102906001600160a01b031681565b61013261019e366004610ccc565b61059b565b6101536101b1366004610d43565b610624565b6101536107d1565b6000546001600160a01b0316610102565b6101536101dd366004610ccc565b610845565b6101536101f0366004610d0b565b6108fd565b610153610203366004610ccc565b6109bd565b610153610216366004610d43565b610aa7565b610102610229366004610ccc565b6002602052600090815260409020546001600160a01b031681565b6001600160a01b0380821660009081526002602052604081205490918391166102885760405162461bcd60e51b815260040161027f90610e38565b60405180910390fd5b50506001600160a01b039081166000908152600260205260409020541690565b6001600160a01b0380841660009081526002602052604081205490918591166102e35760405162461bcd60e51b815260040161027f90610e38565b60006102ee86610244565b6040516323b872dd60e01b81529091506001600160a01b038716906323b872dd9061032190339085908a90600401610ddf565b602060405180830381600087803b15801561033b57600080fd5b505af115801561034f573d6000803e3d6000fd5b505050506040513d601f19601f820116820180604052508101906103739190610d84565b506040516335313c2160e11b81526001600160a01b038581166004830152821690636a62784290602401602060405180830381600087803b1580156103b757600080fd5b505af11580156103cb573d6000803e3d6000fd5b505050506040513d601f19601f820116820180604052508101906103ef9190610da4565b9695505050505050565b6000546001600160a01b031633146104235760405162461bcd60e51b815260040161027f90610e03565b600180546001600160a01b0319166001600160a01b0392909216919091179055565b6001600160a01b03808416600090815260026020526040812054909182918691166104825760405162461bcd60e51b815260040161027f90610e38565b600061048d87610244565b6040516323b872dd60e01b81529091506001600160a01b038216906323b872dd906104c090339085908b90600401610ddf565b602060405180830381600087803b1580156104da57600080fd5b505af11580156104ee573d6000803e3d6000fd5b505050506040513d601f19601f820116820180604052508101906105129190610d84565b5060405163226bf2d160e21b81526001600160a01b0386811660048301528216906389afcb44906024016040805180830381600087803b15801561055557600080fd5b505af1158015610569573d6000803e3d6000fd5b505050506040513d601f19601f8201168201806040525081019061058d9190610dbc565b909890975095505050505050565b6000806105a783610244565b90506000816001600160a01b0316630902f1ac6040518163ffffffff1660e01b8152600401604080518083038186803b1580156105e357600080fd5b505afa1580156105f7573d6000803e3d6000fd5b505050506040513d601f19601f8201168201806040525081019061061b9190610dbc565b95945050505050565b6001600160a01b0380841660009081526002602052604090205484911661065d5760405162461bcd60e51b815260040161027f90610e38565b6001546001600160a01b031633146106b75760405162461bcd60e51b815260206004820152601f60248201527f506567537761703a2063616c6c6572206973206e6f742070656750726f787900604482015260640161027f565b600083116106d75760405162461bcd60e51b815260040161027f90610e6f565b60006106e285610244565b6040516323b872dd60e01b81529091506001600160a01b038616906323b872dd9061071590339085908990600401610ddf565b602060405180830381600087803b15801561072f57600080fd5b505af1158015610743573d6000803e3d6000fd5b505050506040513d601f19601f820116820180604052508101906107679190610d84565b5060405163513c681b60e11b81526001600160a01b0384811660048301526001602483015282169063a278d03690604401600060405180830381600087803b1580156107b257600080fd5b505af11580156107c6573d6000803e3d6000fd5b505050505050505050565b6000546001600160a01b031633146107fb5760405162461bcd60e51b815260040161027f90610e03565b600080546040516001600160a01b03909116907f8be0079c531659141344cd1fd0a4f28419497f9722a3daafe3b4186f6b6457e0908390a3600080546001600160a01b0319169055565b6000546001600160a01b0316331461086f5760405162461bcd60e51b815260040161027f90610e03565b6001600160a01b03818116600090815260026020526040902054166108d65760405162461bcd60e51b815260206004820152601c60248201527f506567537761703a20746f6b656e206e6f7420737570706f7274656400000000604482015260640161027f565b6001600160a01b0316600090815260026020526040902080546001600160a01b0319169055565b6000546001600160a01b031633146109275760405162461bcd60e51b815260040161027f90610e03565b6001600160a01b03828116600090815260026020526040902054161561098f5760405162461bcd60e51b815260206004820181905260248201527f506567537761703a20746f6b656e20616c726561647920737570706f72746564604482015260640161027f565b6001600160a01b03918216600090815260026020526040902080546001600160a01b03191691909216179055565b6000546001600160a01b031633146109e75760405162461bcd60e51b815260040161027f90610e03565b6001600160a01b038116610a4c5760405162461bcd60e51b815260206004820152602660248201527f4f776e61626c653a206e6577206f776e657220697320746865207a65726f206160448201526564647265737360d01b606482015260840161027f565b600080546040516001600160a01b03808516939216917f8be0079c531659141344cd1fd0a4f28419497f9722a3daafe3b4186f6b6457e091a3600080546001600160a01b0319166001600160a01b0392909216919091179055565b6001600160a01b03808416600090815260026020526040902054849116610ae05760405162461bcd60e51b815260040161027f90610e38565b6001546001600160a01b03163314610b3a5760405162461bcd60e51b815260206004820152601f60248201527f506567537761703a2063616c6c6572206973206e6f742070656750726f787900604482015260640161027f565b60008311610b5a5760405162461bcd60e51b815260040161027f90610e6f565b6000610b6585610244565b90506000816001600160a01b031663d21220a76040518163ffffffff1660e01b8152600401602060405180830381600087803b158015610ba457600080fd5b505af1158015610bb8573d6000803e3d6000fd5b505050506040513d601f19601f82011682018060405250810190610bdc9190610cef565b6040516323b872dd60e01b81529091506001600160a01b038216906323b872dd90610c0f90339086908a90600401610ddf565b602060405180830381600087803b158015610c2957600080fd5b505af1158015610c3d573d6000803e3d6000fd5b505050506040513d601f19601f82011682018060405250810190610c619190610d84565b5060405163513c681b60e11b81526001600160a01b0385811660048301526000602483015283169063a278d03690604401600060405180830381600087803b158015610cac57600080fd5b505af1158015610cc0573d6000803e3d6000fd5b50505050505050505050565b600060208284031215610cdd578081fd5b8135610ce881610eb4565b9392505050565b600060208284031215610d00578081fd5b8151610ce881610eb4565b60008060408385031215610d1d578081fd5b8235610d2881610eb4565b91506020830135610d3881610eb4565b809150509250929050565b600080600060608486031215610d57578081fd5b8335610d6281610eb4565b9250602084013591506040840135610d7981610eb4565b809150509250925092565b600060208284031215610d95578081fd5b81518015158114610ce8578182fd5b600060208284031215610db5578081fd5b5051919050565b60008060408385031215610dce578182fd5b505080516020909101519092909150565b6001600160a01b039384168152919092166020820152604081019190915260600190565b6020808252818101527f4f776e61626c653a2063616c6c6572206973206e6f7420746865206f776e6572604082015260600190565b6020808252601f908201527f506567537761703a206e6f7420737570706f7274207468697320746f6b656e00604082015260600190565b60208082526025908201527f506567537761703a20696e707574206d75737420626520677265617465722074604082015264068616e20360dc1b606082015260800190565b6001600160a01b0381168114610ec957600080fd5b5056fea264697066735822122038120234d9539461878e6ce5fea9a81d95889ee67318257cef07df174309397c64736f6c63430008040033",
  "devdoc": {
    "kind": "dev",
    "methods": {
      "owner()": {
        "details": "Returns the address of the current owner."
      },
      "renounceOwnership()": {
        "details": "Leaves the contract without owner. It will not be possible to call `onlyOwner` functions anymore. Can only be called by the current owner. NOTE: Renouncing ownership will leave the contract without an owner, thereby removing any functionality that is only available to the owner."
      },
      "transferOwnership(address)": {
        "details": "Transfers ownership of the contract to a new account (`newOwner`). Can only be called by the current owner."
      }
    },
    "version": 1
  },
  "userdoc": {
    "kind": "user",
    "methods": {},
    "version": 1
  },
  "storageLayout": {
    "storage": [
      {
        "astId": 2760,
        "contract": "contracts/pegbridge/PegSwap.sol:PegSwap",
        "label": "_owner",
        "offset": 0,
        "slot": "0",
        "type": "t_address"
      },
      {
        "astId": 7979,
        "contract": "contracts/pegbridge/PegSwap.sol:PegSwap",
        "label": "pegProxy",
        "offset": 0,
        "slot": "1",
        "type": "t_address"
      },
      {
        "astId": 7983,
        "contract": "contracts/pegbridge/PegSwap.sol:PegSwap",
        "label": "pairs",
        "offset": 0,
        "slot": "2",
        "type": "t_mapping(t_address,t_address)"
      }
    ],
    "types": {
      "t_address": {
        "encoding": "inplace",
        "label": "address",
        "numberOfBytes": "20"
      },
      "t_mapping(t_address,t_address)": {
        "encoding": "mapping",
        "key": "t_address",
        "label": "mapping(address => address)",
        "numberOfBytes": "32",
        "value": "t_address"
      }
    }
  }
}