{
  "address": "0x1D89E92f28f66DBE12a7F0b469ab55e77330bb1b",
  "abi": [
    {
      "anonymous": false,
      "inputs": [
        {
          "indexed": true,
          "internalType": "address",
          "name": "previousOwner",
          "type": "address"
        },
        {
          "indexed": true,
          "internalType": "address",
          "name": "newOwner",
          "type": "address"
        }
      ],
      "name": "OwnershipTransferred",
      "type": "event"
    },
    {
      "inputs": [
        {
          "internalType": "address",
          "name": "token0",
          "type": "address"
        },
        {
          "internalType": "uint256",
          "name": "chainID",
          "type": "uint256"
        },
        {
          "internalType": "uint256",
          "name": "amount",
          "type": "uint256"
        },
        {
          "internalType": "address",
          "name": "to",
          "type": "address"
        }
      ],
      "name": "addLiquidity",
      "outputs": [
        {
          "internalType": "uint256",
          "name": "liquidity",
          "type": "uint256"
        }
      ],
      "stateMutability": "nonpayable",
      "type": "function"
    },
    {
      "inputs": [
        {
          "internalType": "address",
          "name": "token",
          "type": "address"
        },
        {
          "internalType": "address",
          "name": "pair",
          "type": "address"
        },
        {
          "internalType": "uint256",
          "name": "chainID",
          "type": "uint256"
        }
      ],
      "name": "addPair",
      "outputs": [],
      "stateMutability": "nonpayable",
      "type": "function"
    },
    {
      "inputs": [
        {
          "internalType": "address",
          "name": "token0",
          "type": "address"
        },
        {
          "internalType": "uint256",
          "name": "chainID",
          "type": "uint256"
        }
      ],
      "name": "getMaxToken0AmountOut",
      "outputs": [
        {
          "internalType": "uint256",
          "name": "",
          "type": "uint256"
        }
      ],
      "stateMutability": "view",
      "type": "function"
    },
    {
      "inputs": [
        {
          "internalType": "address",
          "name": "token0",
          "type": "address"
        },
        {
          "internalType": "uint256",
          "name": "chainID",
          "type": "uint256"
        }
      ],
      "name": "getMaxToken1AmountOut",
      "outputs": [
        {
          "internalType": "uint256",
          "name": "",
          "type": "uint256"
        }
      ],
      "stateMutability": "view",
      "type": "function"
    },
    {
      "inputs": [
        {
          "internalType": "address",
          "name": "token",
          "type": "address"
        },
        {
          "internalType": "uint256",
          "name": "chainID",
          "type": "uint256"
        }
      ],
      "name": "getPair",
      "outputs": [
        {
          "internalType": "address",
          "name": "",
          "type": "address"
        }
      ],
      "stateMutability": "view",
      "type": "function"
    },
    {
      "inputs": [],
      "name": "owner",
      "outputs": [
        {
          "internalType": "address",
          "name": "",
          "type": "address"
        }
      ],
      "stateMutability": "view",
      "type": "function"
    },
    {
      "inputs": [
        {
          "internalType": "address",
          "name": "",
          "type": "address"
        },
        {
          "internalType": "uint256",
          "name": "",
          "type": "uint256"
        }
      ],
      "name": "pairs",
      "outputs": [
        {
          "internalType": "address",
          "name": "",
          "type": "address"
        }
      ],
      "stateMutability": "view",
      "type": "function"
    },
    {
      "inputs": [
        {
          "internalType": "address",
          "name": "token0",
          "type": "address"
        },
        {
          "internalType": "uint256",
          "name": "chainID",
          "type": "uint256"
        },
        {
          "internalType": "uint256",
          "name": "liquidity",
          "type": "uint256"
        },
        {
          "internalType": "address",
          "name": "to",
          "type": "address"
        }
      ],
      "name": "removeLiquidity",
      "outputs": [
        {
          "internalType": "uint256",
          "name": "amount0",
          "type": "uint256"
        },
        {
          "internalType": "uint256",
          "name": "amount1",
          "type": "uint256"
        }
      ],
      "stateMutability": "nonpayable",
      "type": "function"
    },
    {
      "inputs": [
        {
          "internalType": "address",
          "name": "token",
          "type": "address"
        },
        {
          "internalType": "uint256",
          "name": "chainID",
          "type": "uint256"
        }
      ],
      "name": "removePair",
      "outputs": [],
      "stateMutability": "nonpayable",
      "type": "function"
    },
    {
      "inputs": [],
      "name": "renounceOwnership",
      "outputs": [],
      "stateMutability": "nonpayable",
      "type": "function"
    },
    {
      "inputs": [
        {
          "internalType": "address",
          "name": "token0",
          "type": "address"
        },
        {
          "internalType": "uint256",
          "name": "minimum",
          "type": "uint256"
        }
      ],
      "name": "setRemovalMinimum",
      "outputs": [],
      "stateMutability": "nonpayable",
      "type": "function"
    },
    {
      "inputs": [
        {
          "internalType": "address",
          "name": "_twoWay",
          "type": "address"
        }
      ],
      "name": "setTwoWay",
      "outputs": [],
      "stateMutability": "nonpayable",
      "type": "function"
    },
    {
      "inputs": [
        {
          "internalType": "address",
          "name": "token0",
          "type": "address"
        },
        {
          "internalType": "uint256",
          "name": "chainID",
          "type": "uint256"
        },
        {
          "internalType": "uint256",
          "name": "amountIn",
          "type": "uint256"
        },
        {
          "internalType": "address",
          "name": "to",
          "type": "address"
        }
      ],
      "name": "swapToken0ForToken1",
      "outputs": [],
      "stateMutability": "nonpayable",
      "type": "function"
    },
    {
      "inputs": [
        {
          "internalType": "address",
          "name": "token0",
          "type": "address"
        },
        {
          "internalType": "uint256",
          "name": "chainID",
          "type": "uint256"
        },
        {
          "internalType": "uint256",
          "name": "amountIn",
          "type": "uint256"
        },
        {
          "internalType": "address",
          "name": "to",
          "type": "address"
        }
      ],
      "name": "swapToken1ForToken0",
      "outputs": [],
      "stateMutability": "nonpayable",
      "type": "function"
    },
    {
      "inputs": [
        {
          "internalType": "address",
          "name": "newOwner",
          "type": "address"
        }
      ],
      "name": "transferOwnership",
      "outputs": [],
      "stateMutability": "nonpayable",
      "type": "function"
    },
    {
      "inputs": [],
      "name": "twoWay",
      "outputs": [
        {
          "internalType": "contract ITwoWay",
          "name": "",
          "type": "address"
        }
      ],
      "stateMutability": "view",
      "type": "function"
    }
  ],
  "transactionHash": "0x168ad7db3b7b88ae49a740195546327bddc0243e14d1b0e8d819bb7f426c0eec",
  "args": [],
  "solcInputHash": "c56e2555743f37c4674515eb5f5e745d",
  "bytecode": "0x608060405234801561001057600080fd5b5061001a3361001f565b61006f565b600080546001600160a01b038381166001600160a01b0319831681178455604051919092169283917f8be0079c531659141344cd1fd0a4f28419497f9722a3daafe3b4186f6b6457e09190a35050565b6114468061007e6000396000f3fe608060405234801561001057600080fd5b50600436106100ff5760003560e01c806356ecaeb711610097578063934ac70711610066578063934ac7071461023e578063b5acfa6214610251578063d5e04b7614610264578063f2fde38b1461027757600080fd5b806356ecaeb7146101ea578063715018a6146101fd5780638da5cb5b146102055780638fed0b2c1461021657600080fd5b80632599c037116100d35780632599c0371461019e57806340ec1723146101b157806342baeb84146101c45780634ff2c804146101d757600080fd5b80626349fb1461010457806303d40513146101345780630cf5bf1a1461016857806312fef6921461017d575b600080fd5b6101176101123660046111dc565b61028a565b6040516001600160a01b0390911681526020015b60405180910390f35b6101176101423660046111dc565b60026020908152600092835260408084209091529082529020546001600160a01b031681565b61017b610176366004611164565b610306565b005b61019061018b366004611207565b610352565b60405190815260200161012b565b61017b6101ac3660046111dc565b610444565b61017b6101bf366004611207565b610513565b600154610117906001600160a01b031681565b61017b6101e5366004611207565b610748565b6101906101f83660046111dc565b610905565b61017b610990565b6000546001600160a01b0316610117565b610229610224366004611207565b6109c6565b6040805192835260208301919091520161012b565b61019061024c3660046111dc565b610c24565b61017b61025f36600461119c565b610caf565b61017b6102723660046111dc565b610d84565b61017b610285366004611164565b610dca565b6001600160a01b038083166000908152600260209081526040808320858452909152812054909184918491166102db5760405162461bcd60e51b81526004016102d290611353565b60405180910390fd5b5050506001600160a01b03918216600090815260026020908152604080832093835292905220541690565b6000546001600160a01b031633146103305760405162461bcd60e51b81526004016102d29061131e565b600180546001600160a01b0319166001600160a01b0392909216919091179055565b6001600160a01b0380851660009081526002602090815260408083208784529091528120549091869186911661039a5760405162461bcd60e51b81526004016102d290611353565b60006103a6888861028a565b90506103bd6001600160a01b038916338389610e65565b6040516335313c2160e11b81526001600160a01b038681166004830152821690636a62784290602401602060405180830381600087803b15801561040057600080fd5b505af1158015610414573d6000803e3d6000fd5b505050506040513d601f19601f820116820180604052508101906104389190611270565b98975050505050505050565b6000546001600160a01b0316331461046e5760405162461bcd60e51b81526004016102d29061131e565b6001600160a01b038281166000908152600260209081526040808320858452909152902054166104e05760405162461bcd60e51b815260206004820152601c60248201527f506567537761703a20746f6b656e206e6f7420737570706f727465640000000060448201526064016102d2565b6001600160a01b0390911660009081526002602090815260408083209383529290522080546001600160a01b0319169055565b6001600160a01b03808516600090815260026020908152604080832087845290915290205485918591166105595760405162461bcd60e51b81526004016102d290611353565b6001546001600160a01b031633146105b35760405162461bcd60e51b815260206004820152601f60248201527f506567537761703a2063616c6c6572206973206e6f742070656750726f78790060448201526064016102d2565b600084116105d35760405162461bcd60e51b81526004016102d29061138a565b60006105df878761028a565b90506000816001600160a01b031663d21220a76040518163ffffffff1660e01b8152600401602060405180830381600087803b15801561061e57600080fd5b505af1158015610632573d6000803e3d6000fd5b505050506040513d601f19601f820116820180604052508101906106569190611180565b6040516323b872dd60e01b81529091506001600160a01b038216906323b872dd9061068990339086908b906004016112c7565b602060405180830381600087803b1580156106a357600080fd5b505af11580156106b7573d6000803e3d6000fd5b505050506040513d601f19601f820116820180604052508101906106db9190611250565b5060405163513c681b60e11b81526001600160a01b0386811660048301526000602483015283169063a278d03690604401600060405180830381600087803b15801561072657600080fd5b505af115801561073a573d6000803e3d6000fd5b505050505050505050505050565b6001600160a01b038085166000908152600260209081526040808320878452909152902054859185911661078e5760405162461bcd60e51b81526004016102d290611353565b6001546001600160a01b031633146107e85760405162461bcd60e51b815260206004820152601f60248201527f506567537761703a2063616c6c6572206973206e6f742070656750726f78790060448201526064016102d2565b600084116108085760405162461bcd60e51b81526004016102d29061138a565b6000610814878761028a565b6040516323b872dd60e01b81529091506001600160a01b038816906323b872dd9061084790339085908a906004016112c7565b602060405180830381600087803b15801561086157600080fd5b505af1158015610875573d6000803e3d6000fd5b505050506040513d601f19601f820116820180604052508101906108999190611250565b5060405163513c681b60e11b81526001600160a01b0385811660048301526001602483015282169063a278d03690604401600060405180830381600087803b1580156108e457600080fd5b505af11580156108f8573d6000803e3d6000fd5b5050505050505050505050565b600080610912848461028a565b90506000816001600160a01b0316630902f1ac6040518163ffffffff1660e01b8152600401604080518083038186803b15801561094e57600080fd5b505afa158015610962573d6000803e3d6000fd5b505050506040513d601f19601f820116820180604052508101906109869190611288565b9695505050505050565b6000546001600160a01b031633146109ba5760405162461bcd60e51b81526004016102d29061131e565b6109c46000610ec3565b565b6001600160a01b038085166000908152600260209081526040808320878452909152812054909182918791879116610a105760405162461bcd60e51b81526004016102d290611353565b6001600160a01b0388166000908152600360205260409020548611610a875760405162461bcd60e51b815260206004820152602760248201527f506567537761703a206c6971756964697479206973206c657373207468616e206044820152666d696e696d756d60c81b60648201526084016102d2565b6000610a93898961028a565b6040516323b872dd60e01b81529091506001600160a01b038216906323b872dd90610ac690339085908c906004016112c7565b602060405180830381600087803b158015610ae057600080fd5b505af1158015610af4573d6000803e3d6000fd5b505050506040513d601f19601f82011682018060405250810190610b189190611250565b5060405163226bf2d160e21b81523360048201526001600160a01b038216906389afcb44906024016040805180830381600087803b158015610b5957600080fd5b505af1158015610b6d573d6000803e3d6000fd5b505050506040513d601f19601f82011682018060405250810190610b919190611288565b90955093508315610c185760015460405163b33efbd560e01b81523360048201526001600160a01b038b81166024830152604482018b90528881166064830152608482018790529091169063b33efbd59060a401600060405180830381600087803b158015610bff57600080fd5b505af1158015610c13573d6000803e3d6000fd5b505050505b50505094509492505050565b600080610c31848461028a565b90506000816001600160a01b0316630902f1ac6040518163ffffffff1660e01b8152600401604080518083038186803b158015610c6d57600080fd5b505afa158015610c81573d6000803e3d6000fd5b505050506040513d601f19601f82011682018060405250810190610ca59190611288565b5095945050505050565b6000546001600160a01b03163314610cd95760405162461bcd60e51b81526004016102d29061131e565b6001600160a01b0383811660009081526002602090815260408083208584529091529020541615610d4c5760405162461bcd60e51b815260206004820181905260248201527f506567537761703a20746f6b656e20616c726561647920737570706f7274656460448201526064016102d2565b6001600160a01b0392831660009081526002602090815260408083209383529290522080546001600160a01b03191691909216179055565b6000546001600160a01b03163314610dae5760405162461bcd60e51b81526004016102d29061131e565b6001600160a01b03909116600090815260036020526040902055565b6000546001600160a01b03163314610df45760405162461bcd60e51b81526004016102d29061131e565b6001600160a01b038116610e595760405162461bcd60e51b815260206004820152602660248201527f4f776e61626c653a206e6577206f776e657220697320746865207a65726f206160448201526564647265737360d01b60648201526084016102d2565b610e6281610ec3565b50565b610ebd846323b872dd60e01b858585604051602401610e86939291906112c7565b60408051601f198184030181529190526020810180516001600160e01b03166001600160e01b031990931692909217909152610f13565b50505050565b600080546001600160a01b038381166001600160a01b0319831681178455604051919092169283917f8be0079c531659141344cd1fd0a4f28419497f9722a3daafe3b4186f6b6457e09190a35050565b6000610f68826040518060400160405280602081526020017f5361666545524332303a206c6f772d6c6576656c2063616c6c206661696c6564815250856001600160a01b0316610fea9092919063ffffffff16565b805190915015610fe55780806020019051810190610f869190611250565b610fe55760405162461bcd60e51b815260206004820152602a60248201527f5361666545524332303a204552433230206f7065726174696f6e20646964206e6044820152691bdd081cdd58d8d9595960b21b60648201526084016102d2565b505050565b6060610ff98484600085611003565b90505b9392505050565b6060824710156110645760405162461bcd60e51b815260206004820152602660248201527f416464726573733a20696e73756666696369656e742062616c616e636520666f6044820152651c8818d85b1b60d21b60648201526084016102d2565b843b6110b25760405162461bcd60e51b815260206004820152601d60248201527f416464726573733a2063616c6c20746f206e6f6e2d636f6e747261637400000060448201526064016102d2565b600080866001600160a01b031685876040516110ce91906112ab565b60006040518083038185875af1925050503d806000811461110b576040519150601f19603f3d011682016040523d82523d6000602084013e611110565b606091505b509150915061112082828661112b565b979650505050505050565b6060831561113a575081610ffc565b82511561114a5782518084602001fd5b8160405162461bcd60e51b81526004016102d291906112eb565b600060208284031215611175578081fd5b8135610ffc816113fb565b600060208284031215611191578081fd5b8151610ffc816113fb565b6000806000606084860312156111b0578182fd5b83356111bb816113fb565b925060208401356111cb816113fb565b929592945050506040919091013590565b600080604083850312156111ee578182fd5b82356111f9816113fb565b946020939093013593505050565b6000806000806080858703121561121c578081fd5b8435611227816113fb565b935060208501359250604085013591506060850135611245816113fb565b939692955090935050565b600060208284031215611261578081fd5b81518015158114610ffc578182fd5b600060208284031215611281578081fd5b5051919050565b6000806040838503121561129a578182fd5b505080516020909101519092909150565b600082516112bd8184602087016113cf565b9190910192915050565b6001600160a01b039384168152919092166020820152604081019190915260600190565b602081526000825180602084015261130a8160408501602087016113cf565b601f01601f19169190910160400192915050565b6020808252818101527f4f776e61626c653a2063616c6c6572206973206e6f7420746865206f776e6572604082015260600190565b6020808252601f908201527f506567537761703a206e6f7420737570706f7274207468697320746f6b656e00604082015260600190565b60208082526025908201527f506567537761703a20696e707574206d75737420626520677265617465722074604082015264068616e20360dc1b606082015260800190565b60005b838110156113ea5781810151838201526020016113d2565b83811115610ebd5750506000910152565b6001600160a01b0381168114610e6257600080fdfea26469706673582212203baf31b502dedb65043330f84285e087528b5edb9cb17ea63e0b7c619eef71bc64736f6c63430008040033",
  "devdoc": {
    "kind": "dev",
    "methods": {
      "owner()": {
        "details": "Returns the address of the current owner."
      },
      "renounceOwnership()": {
        "details": "Leaves the contract without owner. It will not be possible to call `onlyOwner` functions anymore. Can only be called by the current owner. NOTE: Renouncing ownership will leave the contract without an owner, thereby removing any functionality that is only available to the owner."
      },
      "transferOwnership(address)": {
        "details": "Transfers ownership of the contract to a new account (`newOwner`). Can only be called by the current owner."
      }
    },
    "version": 1
  },
  "userdoc": {
    "kind": "user",
    "methods": {},
    "version": 1
  },
  "storageLayout": {
    "storage": [
      {
        "astId": 2750,
        "contract": "contracts/twoway/PegSwap.sol:PegSwap",
        "label": "_owner",
        "offset": 0,
        "slot": "0",
        "type": "t_address"
      },
      {
        "astId": 8254,
        "contract": "contracts/twoway/PegSwap.sol:PegSwap",
        "label": "twoWay",
        "offset": 0,
        "slot": "1",
        "type": "t_contract(ITwoWay)7650"
      },
      {
        "astId": 8260,
        "contract": "contracts/twoway/PegSwap.sol:PegSwap",
        "label": "pairs",
        "offset": 0,
        "slot": "2",
        "type": "t_mapping(t_address,t_mapping(t_uint256,t_address))"
      },
      {
        "astId": 8264,
        "contract": "contracts/twoway/PegSwap.sol:PegSwap",
        "label": "removalMinimum",
        "offset": 0,
        "slot": "3",
        "type": "t_mapping(t_address,t_uint256)"
      }
    ],
    "types": {
      "t_address": {
        "encoding": "inplace",
        "label": "address",
        "numberOfBytes": "20"
      },
      "t_contract(ITwoWay)7650": {
        "encoding": "inplace",
        "label": "contract ITwoWay",
        "numberOfBytes": "20"
      },
      "t_mapping(t_address,t_mapping(t_uint256,t_address))": {
        "encoding": "mapping",
        "key": "t_address",
        "label": "mapping(address => mapping(uint256 => address))",
        "numberOfBytes": "32",
        "value": "t_mapping(t_uint256,t_address)"
      },
      "t_mapping(t_address,t_uint256)": {
        "encoding": "mapping",
        "key": "t_address",
        "label": "mapping(address => uint256)",
        "numberOfBytes": "32",
        "value": "t_uint256"
      },
      "t_mapping(t_uint256,t_address)": {
        "encoding": "mapping",
        "key": "t_uint256",
        "label": "mapping(uint256 => address)",
        "numberOfBytes": "32",
        "value": "t_address"
      },
      "t_uint256": {
        "encoding": "inplace",
        "label": "uint256",
        "numberOfBytes": "32"
      }
    }
  }
}