{
  "address": "0xF9e33AAD1f2Fba856Ec3C1d529A81D34dDBBC56D",
  "abi": [
    {
      "anonymous": false,
      "inputs": [
        {
          "indexed": true,
          "internalType": "address",
          "name": "previousOwner",
          "type": "address"
        },
        {
          "indexed": true,
          "internalType": "address",
          "name": "newOwner",
          "type": "address"
        }
      ],
      "name": "OwnershipTransferred",
      "type": "event"
    },
    {
      "inputs": [
        {
          "internalType": "address",
          "name": "token0",
          "type": "address"
        },
        {
          "internalType": "uint256",
          "name": "chainID",
          "type": "uint256"
        },
        {
          "internalType": "uint256",
          "name": "amount",
          "type": "uint256"
        },
        {
          "internalType": "address",
          "name": "to",
          "type": "address"
        }
      ],
      "name": "addLiquidity",
      "outputs": [
        {
          "internalType": "uint256",
          "name": "liquidity",
          "type": "uint256"
        }
      ],
      "stateMutability": "nonpayable",
      "type": "function"
    },
    {
      "inputs": [
        {
          "internalType": "address",
          "name": "token",
          "type": "address"
        },
        {
          "internalType": "address",
          "name": "pair",
          "type": "address"
        },
        {
          "internalType": "uint256",
          "name": "chainID",
          "type": "uint256"
        }
      ],
      "name": "addPair",
      "outputs": [],
      "stateMutability": "nonpayable",
      "type": "function"
    },
    {
      "inputs": [
        {
          "internalType": "address",
          "name": "token0",
          "type": "address"
        },
        {
          "internalType": "uint256",
          "name": "chainID",
          "type": "uint256"
        }
      ],
      "name": "getMaxToken0AmountOut",
      "outputs": [
        {
          "internalType": "uint256",
          "name": "",
          "type": "uint256"
        }
      ],
      "stateMutability": "view",
      "type": "function"
    },
    {
      "inputs": [
        {
          "internalType": "address",
          "name": "token0",
          "type": "address"
        },
        {
          "internalType": "uint256",
          "name": "chainID",
          "type": "uint256"
        }
      ],
      "name": "getMaxToken1AmountOut",
      "outputs": [
        {
          "internalType": "uint256",
          "name": "",
          "type": "uint256"
        }
      ],
      "stateMutability": "view",
      "type": "function"
    },
    {
      "inputs": [
        {
          "internalType": "address",
          "name": "token",
          "type": "address"
        },
        {
          "internalType": "uint256",
          "name": "chainID",
          "type": "uint256"
        }
      ],
      "name": "getPair",
      "outputs": [
        {
          "internalType": "address",
          "name": "",
          "type": "address"
        }
      ],
      "stateMutability": "view",
      "type": "function"
    },
    {
      "inputs": [],
      "name": "owner",
      "outputs": [
        {
          "internalType": "address",
          "name": "",
          "type": "address"
        }
      ],
      "stateMutability": "view",
      "type": "function"
    },
    {
      "inputs": [
        {
          "internalType": "address",
          "name": "",
          "type": "address"
        },
        {
          "internalType": "uint256",
          "name": "",
          "type": "uint256"
        }
      ],
      "name": "pairs",
      "outputs": [
        {
          "internalType": "address",
          "name": "",
          "type": "address"
        }
      ],
      "stateMutability": "view",
      "type": "function"
    },
    {
      "inputs": [],
      "name": "pegProxy",
      "outputs": [
        {
          "internalType": "address",
          "name": "",
          "type": "address"
        }
      ],
      "stateMutability": "view",
      "type": "function"
    },
    {
      "inputs": [
        {
          "internalType": "address",
          "name": "token0",
          "type": "address"
        },
        {
          "internalType": "uint256",
          "name": "chainID",
          "type": "uint256"
        },
        {
          "internalType": "uint256",
          "name": "liquidity",
          "type": "uint256"
        },
        {
          "internalType": "address",
          "name": "to",
          "type": "address"
        }
      ],
      "name": "removeLiquidity",
      "outputs": [
        {
          "internalType": "uint256",
          "name": "amount0",
          "type": "uint256"
        },
        {
          "internalType": "uint256",
          "name": "amount1",
          "type": "uint256"
        }
      ],
      "stateMutability": "nonpayable",
      "type": "function"
    },
    {
      "inputs": [
        {
          "internalType": "address",
          "name": "token",
          "type": "address"
        },
        {
          "internalType": "uint256",
          "name": "chainID",
          "type": "uint256"
        }
      ],
      "name": "removePair",
      "outputs": [],
      "stateMutability": "nonpayable",
      "type": "function"
    },
    {
      "inputs": [],
      "name": "renounceOwnership",
      "outputs": [],
      "stateMutability": "nonpayable",
      "type": "function"
    },
    {
      "inputs": [
        {
          "internalType": "address",
          "name": "_pegProxy",
          "type": "address"
        }
      ],
      "name": "setPegProxy",
      "outputs": [],
      "stateMutability": "nonpayable",
      "type": "function"
    },
    {
      "inputs": [
        {
          "internalType": "address",
          "name": "token0",
          "type": "address"
        },
        {
          "internalType": "uint256",
          "name": "minimum",
          "type": "uint256"
        }
      ],
      "name": "setRemovalMinimum",
      "outputs": [],
      "stateMutability": "nonpayable",
      "type": "function"
    },
    {
      "inputs": [
        {
          "internalType": "address",
          "name": "token0",
          "type": "address"
        },
        {
          "internalType": "uint256",
          "name": "chainID",
          "type": "uint256"
        },
        {
          "internalType": "uint256",
          "name": "amountIn",
          "type": "uint256"
        },
        {
          "internalType": "address",
          "name": "to",
          "type": "address"
        }
      ],
      "name": "swapToken0ForToken1",
      "outputs": [],
      "stateMutability": "nonpayable",
      "type": "function"
    },
    {
      "inputs": [
        {
          "internalType": "address",
          "name": "token0",
          "type": "address"
        },
        {
          "internalType": "uint256",
          "name": "chainID",
          "type": "uint256"
        },
        {
          "internalType": "uint256",
          "name": "amountIn",
          "type": "uint256"
        },
        {
          "internalType": "address",
          "name": "to",
          "type": "address"
        }
      ],
      "name": "swapToken1ForToken0",
      "outputs": [],
      "stateMutability": "nonpayable",
      "type": "function"
    },
    {
      "inputs": [
        {
          "internalType": "address",
          "name": "newOwner",
          "type": "address"
        }
      ],
      "name": "transferOwnership",
      "outputs": [],
      "stateMutability": "nonpayable",
      "type": "function"
    }
  ],
  "transactionHash": "0x311c748137dcf37471a89826ce6f2de3740b277fbdad7cf8e8438f21991a5817",
  "args": [],
  "solcInputHash": "265247c1be1e2ede9eb9af63e0f287de",
  "bytecode": "0x608060405234801561001057600080fd5b5061001a3361001f565b61006f565b600080546001600160a01b038381166001600160a01b0319831681178455604051919092169283917f8be0079c531659141344cd1fd0a4f28419497f9722a3daafe3b4186f6b6457e09190a35050565b6111928061007e6000396000f3fe608060405234801561001057600080fd5b50600436106100ff5760003560e01c806356ecaeb711610097578063934ac70711610066578063934ac7071461023e578063b5acfa6214610251578063d5e04b7614610264578063f2fde38b1461027757600080fd5b806356ecaeb7146101ea578063715018a6146101fd5780638da5cb5b146102055780638fed0b2c1461021657600080fd5b80632b248376116100d35780632b2483761461019e57806340ec1723146101b15780634869e9fa146101c45780634ff2c804146101d757600080fd5b80626349fb1461010457806303d405131461013457806312fef692146101685780632599c03714610189575b600080fd5b610117610112366004610fa3565b61028a565b6040516001600160a01b0390911681526020015b60405180910390f35b610117610142366004610fa3565b60026020908152600092835260408084209091529082529020546001600160a01b031681565b61017b610176366004610fce565b610306565b60405190815260200161012b565b61019c610197366004610fa3565b610467565b005b61019c6101ac366004610f24565b610536565b61019c6101bf366004610fce565b610582565b600154610117906001600160a01b031681565b61019c6101e5366004610fce565b6107b7565b61017b6101f8366004610fa3565b610974565b61019c6109ff565b6000546001600160a01b0316610117565b610229610224366004610fce565b610a35565b6040805192835260208301919091520161012b565b61017b61024c366004610fa3565b610c93565b61019c61025f366004610f63565b610d1e565b61019c610272366004610fa3565b610df3565b61019c610285366004610f24565b610e39565b6001600160a01b038083166000908152600260209081526040808320858452909152812054909184918491166102db5760405162461bcd60e51b81526004016102d2906110cb565b60405180910390fd5b5050506001600160a01b03918216600090815260026020908152604080832093835292905220541690565b6001600160a01b0380851660009081526002602090815260408083208784529091528120549091869186911661034e5760405162461bcd60e51b81526004016102d2906110cb565b600061035a888861028a565b6040516323b872dd60e01b81529091506001600160a01b038916906323b872dd9061038d90339085908b90600401611072565b602060405180830381600087803b1580156103a757600080fd5b505af11580156103bb573d6000803e3d6000fd5b505050506040513d601f19601f820116820180604052508101906103df9190611017565b506040516335313c2160e11b81526001600160a01b038681166004830152821690636a62784290602401602060405180830381600087803b15801561042357600080fd5b505af1158015610437573d6000803e3d6000fd5b505050506040513d601f19601f8201168201806040525081019061045b9190611037565b98975050505050505050565b6000546001600160a01b031633146104915760405162461bcd60e51b81526004016102d290611096565b6001600160a01b038281166000908152600260209081526040808320858452909152902054166105035760405162461bcd60e51b815260206004820152601c60248201527f506567537761703a20746f6b656e206e6f7420737570706f727465640000000060448201526064016102d2565b6001600160a01b0390911660009081526002602090815260408083209383529290522080546001600160a01b0319169055565b6000546001600160a01b031633146105605760405162461bcd60e51b81526004016102d290611096565b600180546001600160a01b0319166001600160a01b0392909216919091179055565b6001600160a01b03808516600090815260026020908152604080832087845290915290205485918591166105c85760405162461bcd60e51b81526004016102d2906110cb565b6001546001600160a01b031633146106225760405162461bcd60e51b815260206004820152601f60248201527f506567537761703a2063616c6c6572206973206e6f742070656750726f78790060448201526064016102d2565b600084116106425760405162461bcd60e51b81526004016102d290611102565b600061064e878761028a565b90506000816001600160a01b031663d21220a76040518163ffffffff1660e01b8152600401602060405180830381600087803b15801561068d57600080fd5b505af11580156106a1573d6000803e3d6000fd5b505050506040513d601f19601f820116820180604052508101906106c59190610f47565b6040516323b872dd60e01b81529091506001600160a01b038216906323b872dd906106f890339086908b90600401611072565b602060405180830381600087803b15801561071257600080fd5b505af1158015610726573d6000803e3d6000fd5b505050506040513d601f19601f8201168201806040525081019061074a9190611017565b5060405163513c681b60e11b81526001600160a01b0386811660048301526000602483015283169063a278d03690604401600060405180830381600087803b15801561079557600080fd5b505af11580156107a9573d6000803e3d6000fd5b505050505050505050505050565b6001600160a01b03808516600090815260026020908152604080832087845290915290205485918591166107fd5760405162461bcd60e51b81526004016102d2906110cb565b6001546001600160a01b031633146108575760405162461bcd60e51b815260206004820152601f60248201527f506567537761703a2063616c6c6572206973206e6f742070656750726f78790060448201526064016102d2565b600084116108775760405162461bcd60e51b81526004016102d290611102565b6000610883878761028a565b6040516323b872dd60e01b81529091506001600160a01b038816906323b872dd906108b690339085908a90600401611072565b602060405180830381600087803b1580156108d057600080fd5b505af11580156108e4573d6000803e3d6000fd5b505050506040513d601f19601f820116820180604052508101906109089190611017565b5060405163513c681b60e11b81526001600160a01b0385811660048301526001602483015282169063a278d03690604401600060405180830381600087803b15801561095357600080fd5b505af1158015610967573d6000803e3d6000fd5b5050505050505050505050565b600080610981848461028a565b90506000816001600160a01b0316630902f1ac6040518163ffffffff1660e01b8152600401604080518083038186803b1580156109bd57600080fd5b505afa1580156109d1573d6000803e3d6000fd5b505050506040513d601f19601f820116820180604052508101906109f5919061104f565b9695505050505050565b6000546001600160a01b03163314610a295760405162461bcd60e51b81526004016102d290611096565b610a336000610ed4565b565b6001600160a01b038085166000908152600260209081526040808320878452909152812054909182918791879116610a7f5760405162461bcd60e51b81526004016102d2906110cb565b6001600160a01b0388166000908152600360205260409020548611610af65760405162461bcd60e51b815260206004820152602760248201527f506567537761703a206c6971756964697479206973206c657373207468616e206044820152666d696e696d756d60c81b60648201526084016102d2565b6000610b02898961028a565b6040516323b872dd60e01b81529091506001600160a01b038216906323b872dd90610b3590339085908c90600401611072565b602060405180830381600087803b158015610b4f57600080fd5b505af1158015610b63573d6000803e3d6000fd5b505050506040513d601f19601f82011682018060405250810190610b879190611017565b5060405163226bf2d160e21b81523360048201526001600160a01b038216906389afcb44906024016040805180830381600087803b158015610bc857600080fd5b505af1158015610bdc573d6000803e3d6000fd5b505050506040513d601f19601f82011682018060405250810190610c00919061104f565b90955093508315610c875760015460405163b33efbd560e01b81523360048201526001600160a01b038b81166024830152604482018b90528881166064830152608482018790529091169063b33efbd59060a401600060405180830381600087803b158015610c6e57600080fd5b505af1158015610c82573d6000803e3d6000fd5b505050505b50505094509492505050565b600080610ca0848461028a565b90506000816001600160a01b0316630902f1ac6040518163ffffffff1660e01b8152600401604080518083038186803b158015610cdc57600080fd5b505afa158015610cf0573d6000803e3d6000fd5b505050506040513d601f19601f82011682018060405250810190610d14919061104f565b5095945050505050565b6000546001600160a01b03163314610d485760405162461bcd60e51b81526004016102d290611096565b6001600160a01b0383811660009081526002602090815260408083208584529091529020541615610dbb5760405162461bcd60e51b815260206004820181905260248201527f506567537761703a20746f6b656e20616c726561647920737570706f7274656460448201526064016102d2565b6001600160a01b0392831660009081526002602090815260408083209383529290522080546001600160a01b03191691909216179055565b6000546001600160a01b03163314610e1d5760405162461bcd60e51b81526004016102d290611096565b6001600160a01b03909116600090815260036020526040902055565b6000546001600160a01b03163314610e635760405162461bcd60e51b81526004016102d290611096565b6001600160a01b038116610ec85760405162461bcd60e51b815260206004820152602660248201527f4f776e61626c653a206e6577206f776e657220697320746865207a65726f206160448201526564647265737360d01b60648201526084016102d2565b610ed181610ed4565b50565b600080546001600160a01b038381166001600160a01b0319831681178455604051919092169283917f8be0079c531659141344cd1fd0a4f28419497f9722a3daafe3b4186f6b6457e09190a35050565b600060208284031215610f35578081fd5b8135610f4081611147565b9392505050565b600060208284031215610f58578081fd5b8151610f4081611147565b600080600060608486031215610f77578182fd5b8335610f8281611147565b92506020840135610f9281611147565b929592945050506040919091013590565b60008060408385031215610fb5578182fd5b8235610fc081611147565b946020939093013593505050565b60008060008060808587031215610fe3578081fd5b8435610fee81611147565b93506020850135925060408501359150606085013561100c81611147565b939692955090935050565b600060208284031215611028578081fd5b81518015158114610f40578182fd5b600060208284031215611048578081fd5b5051919050565b60008060408385031215611061578182fd5b505080516020909101519092909150565b6001600160a01b039384168152919092166020820152604081019190915260600190565b6020808252818101527f4f776e61626c653a2063616c6c6572206973206e6f7420746865206f776e6572604082015260600190565b6020808252601f908201527f506567537761703a206e6f7420737570706f7274207468697320746f6b656e00604082015260600190565b60208082526025908201527f506567537761703a20696e707574206d75737420626520677265617465722074604082015264068616e20360dc1b606082015260800190565b6001600160a01b0381168114610ed157600080fdfea26469706673582212202ed2943d8b4c234d24cc1a987426b518793b084be0fd9dba21c1555d7688360f64736f6c63430008040033",
  "devdoc": {
    "kind": "dev",
    "methods": {
      "owner()": {
        "details": "Returns the address of the current owner."
      },
      "renounceOwnership()": {
        "details": "Leaves the contract without owner. It will not be possible to call `onlyOwner` functions anymore. Can only be called by the current owner. NOTE: Renouncing ownership will leave the contract without an owner, thereby removing any functionality that is only available to the owner."
      },
      "transferOwnership(address)": {
        "details": "Transfers ownership of the contract to a new account (`newOwner`). Can only be called by the current owner."
      }
    },
    "version": 1
  },
  "userdoc": {
    "kind": "user",
    "methods": {},
    "version": 1
  },
  "storageLayout": {
    "storage": [
      {
        "astId": 2750,
        "contract": "contracts/pegbridge/PegSwap.sol:PegSwap",
        "label": "_owner",
        "offset": 0,
        "slot": "0",
        "type": "t_address"
      },
      {
        "astId": 8562,
        "contract": "contracts/pegbridge/PegSwap.sol:PegSwap",
        "label": "pegProxy",
        "offset": 0,
        "slot": "1",
        "type": "t_address"
      },
      {
        "astId": 8568,
        "contract": "contracts/pegbridge/PegSwap.sol:PegSwap",
        "label": "pairs",
        "offset": 0,
        "slot": "2",
        "type": "t_mapping(t_address,t_mapping(t_uint256,t_address))"
      },
      {
        "astId": 8572,
        "contract": "contracts/pegbridge/PegSwap.sol:PegSwap",
        "label": "removalMinimum",
        "offset": 0,
        "slot": "3",
        "type": "t_mapping(t_address,t_uint256)"
      }
    ],
    "types": {
      "t_address": {
        "encoding": "inplace",
        "label": "address",
        "numberOfBytes": "20"
      },
      "t_mapping(t_address,t_mapping(t_uint256,t_address))": {
        "encoding": "mapping",
        "key": "t_address",
        "label": "mapping(address => mapping(uint256 => address))",
        "numberOfBytes": "32",
        "value": "t_mapping(t_uint256,t_address)"
      },
      "t_mapping(t_address,t_uint256)": {
        "encoding": "mapping",
        "key": "t_address",
        "label": "mapping(address => uint256)",
        "numberOfBytes": "32",
        "value": "t_uint256"
      },
      "t_mapping(t_uint256,t_address)": {
        "encoding": "mapping",
        "key": "t_uint256",
        "label": "mapping(uint256 => address)",
        "numberOfBytes": "32",
        "value": "t_address"
      },
      "t_uint256": {
        "encoding": "inplace",
        "label": "uint256",
        "numberOfBytes": "32"
      }
    }
  }
}