{
  "address": "0xFb1F594EF5E126791A714119e2280B421611fEE8",
  "abi": [
    {
      "inputs": [
        {
          "internalType": "address",
          "name": "_feeToDev",
          "type": "address"
        }
      ],
      "stateMutability": "nonpayable",
      "type": "constructor"
    },
    {
      "anonymous": false,
      "inputs": [
        {
          "indexed": false,
          "internalType": "address",
          "name": "token0",
          "type": "address"
        },
        {
          "indexed": false,
          "internalType": "address",
          "name": "token1",
          "type": "address"
        },
        {
          "indexed": false,
          "internalType": "uint256",
          "name": "chainID0",
          "type": "uint256"
        },
        {
          "indexed": false,
          "internalType": "uint256",
          "name": "chainID1",
          "type": "uint256"
        },
        {
          "indexed": false,
          "internalType": "address",
          "name": "from",
          "type": "address"
        },
        {
          "indexed": false,
          "internalType": "address",
          "name": "to",
          "type": "address"
        },
        {
          "indexed": false,
          "internalType": "uint256",
          "name": "amount",
          "type": "uint256"
        }
      ],
      "name": "CrossBurn",
      "type": "event"
    },
    {
      "anonymous": false,
      "inputs": [
        {
          "indexed": false,
          "internalType": "address",
          "name": "token",
          "type": "address"
        },
        {
          "indexed": false,
          "internalType": "uint256",
          "name": "chainID",
          "type": "uint256"
        },
        {
          "indexed": false,
          "internalType": "uint256",
          "name": "feeAmount",
          "type": "uint256"
        },
        {
          "indexed": false,
          "internalType": "uint256",
          "name": "feeRatio",
          "type": "uint256"
        }
      ],
      "name": "FeeChange",
      "type": "event"
    },
    {
      "anonymous": false,
      "inputs": [
        {
          "indexed": false,
          "internalType": "address",
          "name": "token",
          "type": "address"
        },
        {
          "indexed": false,
          "internalType": "uint256",
          "name": "chainID",
          "type": "uint256"
        },
        {
          "indexed": false,
          "internalType": "address",
          "name": "account",
          "type": "address"
        }
      ],
      "name": "FeeToChanged",
      "type": "event"
    },
    {
      "anonymous": false,
      "inputs": [
        {
          "indexed": false,
          "internalType": "address",
          "name": "token",
          "type": "address"
        },
        {
          "indexed": false,
          "internalType": "uint256",
          "name": "chainID",
          "type": "uint256"
        },
        {
          "indexed": false,
          "internalType": "address",
          "name": "account",
          "type": "address"
        }
      ],
      "name": "FeeToRemoved",
      "type": "event"
    },
    {
      "anonymous": false,
      "inputs": [
        {
          "indexed": false,
          "internalType": "address",
          "name": "token0",
          "type": "address"
        },
        {
          "indexed": false,
          "internalType": "address",
          "name": "token1",
          "type": "address"
        },
        {
          "indexed": false,
          "internalType": "uint256",
          "name": "chainID0",
          "type": "uint256"
        },
        {
          "indexed": false,
          "internalType": "uint256",
          "name": "chainID1",
          "type": "uint256"
        },
        {
          "indexed": false,
          "internalType": "address",
          "name": "from",
          "type": "address"
        },
        {
          "indexed": false,
          "internalType": "address",
          "name": "to",
          "type": "address"
        },
        {
          "indexed": false,
          "internalType": "uint256",
          "name": "amount",
          "type": "uint256"
        }
      ],
      "name": "Lock",
      "type": "event"
    },
    {
      "anonymous": false,
      "inputs": [
        {
          "indexed": false,
          "internalType": "address",
          "name": "token",
          "type": "address"
        },
        {
          "indexed": false,
          "internalType": "address",
          "name": "from",
          "type": "address"
        },
        {
          "indexed": false,
          "internalType": "address",
          "name": "to",
          "type": "address"
        },
        {
          "indexed": false,
          "internalType": "uint256",
          "name": "amount",
          "type": "uint256"
        },
        {
          "indexed": false,
          "internalType": "address",
          "name": "proposer",
          "type": "address"
        },
        {
          "indexed": false,
          "internalType": "uint256",
          "name": "count",
          "type": "uint256"
        },
        {
          "indexed": false,
          "internalType": "uint256",
          "name": "threshold",
          "type": "uint256"
        }
      ],
      "name": "ProposalVoted",
      "type": "event"
    },
    {
      "anonymous": false,
      "inputs": [
        {
          "indexed": true,
          "internalType": "bytes32",
          "name": "role",
          "type": "bytes32"
        },
        {
          "indexed": true,
          "internalType": "bytes32",
          "name": "previousAdminRole",
          "type": "bytes32"
        },
        {
          "indexed": true,
          "internalType": "bytes32",
          "name": "newAdminRole",
          "type": "bytes32"
        }
      ],
      "name": "RoleAdminChanged",
      "type": "event"
    },
    {
      "anonymous": false,
      "inputs": [
        {
          "indexed": true,
          "internalType": "bytes32",
          "name": "role",
          "type": "bytes32"
        },
        {
          "indexed": true,
          "internalType": "address",
          "name": "account",
          "type": "address"
        },
        {
          "indexed": true,
          "internalType": "address",
          "name": "sender",
          "type": "address"
        }
      ],
      "name": "RoleGranted",
      "type": "event"
    },
    {
      "anonymous": false,
      "inputs": [
        {
          "indexed": true,
          "internalType": "bytes32",
          "name": "role",
          "type": "bytes32"
        },
        {
          "indexed": true,
          "internalType": "address",
          "name": "account",
          "type": "address"
        },
        {
          "indexed": true,
          "internalType": "address",
          "name": "sender",
          "type": "address"
        }
      ],
      "name": "RoleRevoked",
      "type": "event"
    },
    {
      "anonymous": false,
      "inputs": [
        {
          "indexed": false,
          "internalType": "address",
          "name": "token0",
          "type": "address"
        },
        {
          "indexed": false,
          "internalType": "address",
          "name": "token1",
          "type": "address"
        },
        {
          "indexed": false,
          "internalType": "uint256",
          "name": "chainID0",
          "type": "uint256"
        },
        {
          "indexed": false,
          "internalType": "uint256",
          "name": "chainID1",
          "type": "uint256"
        },
        {
          "indexed": false,
          "internalType": "address",
          "name": "from",
          "type": "address"
        },
        {
          "indexed": false,
          "internalType": "address",
          "name": "to",
          "type": "address"
        },
        {
          "indexed": false,
          "internalType": "uint256",
          "name": "amount",
          "type": "uint256"
        },
        {
          "indexed": false,
          "internalType": "string",
          "name": "txid",
          "type": "string"
        }
      ],
      "name": "Rollback",
      "type": "event"
    },
    {
      "anonymous": false,
      "inputs": [
        {
          "indexed": false,
          "internalType": "address",
          "name": "token0",
          "type": "address"
        },
        {
          "indexed": false,
          "internalType": "address",
          "name": "from",
          "type": "address"
        },
        {
          "indexed": false,
          "internalType": "uint256",
          "name": "amount",
          "type": "uint256"
        },
        {
          "indexed": false,
          "internalType": "string",
          "name": "txid",
          "type": "string"
        }
      ],
      "name": "Rollbacked",
      "type": "event"
    },
    {
      "anonymous": false,
      "inputs": [
        {
          "indexed": false,
          "internalType": "address",
          "name": "token",
          "type": "address"
        },
        {
          "indexed": false,
          "internalType": "uint256",
          "name": "oldThreshold",
          "type": "uint256"
        },
        {
          "indexed": false,
          "internalType": "uint256",
          "name": "newThreshold",
          "type": "uint256"
        }
      ],
      "name": "ThresholdChanged",
      "type": "event"
    },
    {
      "anonymous": false,
      "inputs": [
        {
          "indexed": false,
          "internalType": "address",
          "name": "token0",
          "type": "address"
        },
        {
          "indexed": false,
          "internalType": "address",
          "name": "token1",
          "type": "address"
        },
        {
          "indexed": false,
          "internalType": "uint256",
          "name": "chianID0",
          "type": "uint256"
        },
        {
          "indexed": false,
          "internalType": "uint256",
          "name": "chainID1",
          "type": "uint256"
        },
        {
          "indexed": false,
          "internalType": "address",
          "name": "from",
          "type": "address"
        },
        {
          "indexed": false,
          "internalType": "address",
          "name": "to",
          "type": "address"
        },
        {
          "indexed": false,
          "internalType": "uint256",
          "name": "amount",
          "type": "uint256"
        },
        {
          "indexed": false,
          "internalType": "string",
          "name": "txid",
          "type": "string"
        }
      ],
      "name": "Unlock",
      "type": "event"
    },
    {
      "inputs": [],
      "name": "CROSSER_ROLE",
      "outputs": [
        {
          "internalType": "bytes32",
          "name": "",
          "type": "bytes32"
        }
      ],
      "stateMutability": "view",
      "type": "function"
    },
    {
      "inputs": [],
      "name": "DEFAULT_ADMIN_ROLE",
      "outputs": [
        {
          "internalType": "bytes32",
          "name": "",
          "type": "bytes32"
        }
      ],
      "stateMutability": "view",
      "type": "function"
    },
    {
      "inputs": [
        {
          "internalType": "address",
          "name": "token0",
          "type": "address"
        },
        {
          "internalType": "uint256",
          "name": "chainID",
          "type": "uint256"
        },
        {
          "internalType": "uint256",
          "name": "amount",
          "type": "uint256"
        },
        {
          "internalType": "address",
          "name": "to",
          "type": "address"
        }
      ],
      "name": "addLiquidity",
      "outputs": [
        {
          "internalType": "uint256",
          "name": "liquidity",
          "type": "uint256"
        }
      ],
      "stateMutability": "nonpayable",
      "type": "function"
    },
    {
      "inputs": [
        {
          "internalType": "address",
          "name": "token",
          "type": "address"
        },
        {
          "internalType": "address",
          "name": "pair",
          "type": "address"
        },
        {
          "internalType": "uint256",
          "name": "chainID",
          "type": "uint256"
        }
      ],
      "name": "addPair",
      "outputs": [],
      "stateMutability": "nonpayable",
      "type": "function"
    },
    {
      "inputs": [
        {
          "internalType": "address",
          "name": "token0",
          "type": "address"
        },
        {
          "internalType": "address",
          "name": "token1",
          "type": "address"
        },
        {
          "internalType": "uint256",
          "name": "chainID",
          "type": "uint256"
        }
      ],
      "name": "addSupportToken",
      "outputs": [],
      "stateMutability": "nonpayable",
      "type": "function"
    },
    {
      "inputs": [
        {
          "internalType": "address[]",
          "name": "token0s",
          "type": "address[]"
        },
        {
          "internalType": "address[]",
          "name": "token1s",
          "type": "address[]"
        },
        {
          "internalType": "uint256[]",
          "name": "chainIDs",
          "type": "uint256[]"
        }
      ],
      "name": "addSupportTokens",
      "outputs": [],
      "stateMutability": "nonpayable",
      "type": "function"
    },
    {
      "inputs": [
        {
          "internalType": "address",
          "name": "token",
          "type": "address"
        },
        {
          "internalType": "uint256",
          "name": "chainID",
          "type": "uint256"
        },
        {
          "internalType": "uint256",
          "name": "amount",
          "type": "uint256"
        }
      ],
      "name": "calculateFee",
      "outputs": [
        {
          "internalType": "uint256",
          "name": "feeAmountFix",
          "type": "uint256"
        },
        {
          "internalType": "uint256",
          "name": "feeAmountRatio",
          "type": "uint256"
        },
        {
          "internalType": "uint256",
          "name": "remainAmount",
          "type": "uint256"
        }
      ],
      "stateMutability": "view",
      "type": "function"
    },
    {
      "inputs": [
        {
          "internalType": "address",
          "name": "token",
          "type": "address"
        },
        {
          "internalType": "uint256",
          "name": "chainID",
          "type": "uint256"
        },
        {
          "internalType": "uint256",
          "name": "amount",
          "type": "uint256"
        }
      ],
      "name": "calculateRemoveFee",
      "outputs": [
        {
          "internalType": "uint256",
          "name": "feeAmount",
          "type": "uint256"
        },
        {
          "internalType": "uint256",
          "name": "remainAmount",
          "type": "uint256"
        }
      ],
      "stateMutability": "view",
      "type": "function"
    },
    {
      "inputs": [
        {
          "internalType": "address",
          "name": "token0",
          "type": "address"
        },
        {
          "internalType": "uint256",
          "name": "chainID",
          "type": "uint256"
        },
        {
          "internalType": "address",
          "name": "from",
          "type": "address"
        },
        {
          "internalType": "address",
          "name": "to",
          "type": "address"
        },
        {
          "internalType": "uint256",
          "name": "amount",
          "type": "uint256"
        },
        {
          "internalType": "string",
          "name": "txid",
          "type": "string"
        }
      ],
      "name": "crossIn",
      "outputs": [],
      "stateMutability": "nonpayable",
      "type": "function"
    },
    {
      "inputs": [
        {
          "internalType": "address",
          "name": "token0",
          "type": "address"
        },
        {
          "internalType": "uint256",
          "name": "chainID",
          "type": "uint256"
        },
        {
          "internalType": "address",
          "name": "to",
          "type": "address"
        },
        {
          "internalType": "uint256",
          "name": "amount",
          "type": "uint256"
        }
      ],
      "name": "crossOut",
      "outputs": [],
      "stateMutability": "nonpayable",
      "type": "function"
    },
    {
      "inputs": [
        {
          "internalType": "address",
          "name": "",
          "type": "address"
        },
        {
          "internalType": "uint256",
          "name": "",
          "type": "uint256"
        }
      ],
      "name": "feeAmountM",
      "outputs": [
        {
          "internalType": "uint256",
          "name": "",
          "type": "uint256"
        }
      ],
      "stateMutability": "view",
      "type": "function"
    },
    {
      "inputs": [
        {
          "internalType": "address",
          "name": "",
          "type": "address"
        },
        {
          "internalType": "uint256",
          "name": "",
          "type": "uint256"
        }
      ],
      "name": "feeRatioM",
      "outputs": [
        {
          "internalType": "uint256",
          "name": "",
          "type": "uint256"
        }
      ],
      "stateMutability": "view",
      "type": "function"
    },
    {
      "inputs": [
        {
          "internalType": "address",
          "name": "",
          "type": "address"
        },
        {
          "internalType": "uint256",
          "name": "",
          "type": "uint256"
        }
      ],
      "name": "feeTo",
      "outputs": [
        {
          "internalType": "address",
          "name": "",
          "type": "address"
        }
      ],
      "stateMutability": "view",
      "type": "function"
    },
    {
      "inputs": [],
      "name": "feeToDev",
      "outputs": [
        {
          "internalType": "address",
          "name": "",
          "type": "address"
        }
      ],
      "stateMutability": "view",
      "type": "function"
    },
    {
      "inputs": [
        {
          "internalType": "address",
          "name": "token0",
          "type": "address"
        },
        {
          "internalType": "uint256",
          "name": "chainID",
          "type": "uint256"
        }
      ],
      "name": "getMaxToken0AmountOut",
      "outputs": [
        {
          "internalType": "uint256",
          "name": "",
          "type": "uint256"
        }
      ],
      "stateMutability": "view",
      "type": "function"
    },
    {
      "inputs": [
        {
          "internalType": "address",
          "name": "token0",
          "type": "address"
        },
        {
          "internalType": "uint256",
          "name": "chainID",
          "type": "uint256"
        }
      ],
      "name": "getMaxToken1AmountOut",
      "outputs": [
        {
          "internalType": "uint256",
          "name": "",
          "type": "uint256"
        }
      ],
      "stateMutability": "view",
      "type": "function"
    },
    {
      "inputs": [
        {
          "internalType": "bytes32",
          "name": "role",
          "type": "bytes32"
        }
      ],
      "name": "getRoleAdmin",
      "outputs": [
        {
          "internalType": "bytes32",
          "name": "",
          "type": "bytes32"
        }
      ],
      "stateMutability": "view",
      "type": "function"
    },
    {
      "inputs": [
        {
          "internalType": "bytes32",
          "name": "role",
          "type": "bytes32"
        },
        {
          "internalType": "address",
          "name": "account",
          "type": "address"
        }
      ],
      "name": "grantRole",
      "outputs": [],
      "stateMutability": "nonpayable",
      "type": "function"
    },
    {
      "inputs": [
        {
          "internalType": "bytes32",
          "name": "role",
          "type": "bytes32"
        },
        {
          "internalType": "address",
          "name": "account",
          "type": "address"
        }
      ],
      "name": "hasRole",
      "outputs": [
        {
          "internalType": "bool",
          "name": "",
          "type": "bool"
        }
      ],
      "stateMutability": "view",
      "type": "function"
    },
    {
      "inputs": [
        {
          "internalType": "address",
          "name": "",
          "type": "address"
        },
        {
          "internalType": "uint256",
          "name": "",
          "type": "uint256"
        }
      ],
      "name": "pairs",
      "outputs": [
        {
          "internalType": "address",
          "name": "",
          "type": "address"
        }
      ],
      "stateMutability": "view",
      "type": "function"
    },
    {
      "inputs": [
        {
          "internalType": "address",
          "name": "",
          "type": "address"
        },
        {
          "internalType": "uint256",
          "name": "",
          "type": "uint256"
        }
      ],
      "name": "removeFeeAmount",
      "outputs": [
        {
          "internalType": "uint256",
          "name": "",
          "type": "uint256"
        }
      ],
      "stateMutability": "view",
      "type": "function"
    },
    {
      "inputs": [
        {
          "internalType": "address",
          "name": "token0",
          "type": "address"
        },
        {
          "internalType": "uint256",
          "name": "chainID",
          "type": "uint256"
        },
        {
          "internalType": "uint256",
          "name": "lpAmount",
          "type": "uint256"
        },
        {
          "internalType": "address",
          "name": "to",
          "type": "address"
        }
      ],
      "name": "removeLiquidity",
      "outputs": [
        {
          "internalType": "uint256",
          "name": "amount0",
          "type": "uint256"
        },
        {
          "internalType": "uint256",
          "name": "amount1",
          "type": "uint256"
        }
      ],
      "stateMutability": "nonpayable",
      "type": "function"
    },
    {
      "inputs": [
        {
          "internalType": "address",
          "name": "token",
          "type": "address"
        },
        {
          "internalType": "uint256",
          "name": "chainID",
          "type": "uint256"
        }
      ],
      "name": "removePair",
      "outputs": [],
      "stateMutability": "nonpayable",
      "type": "function"
    },
    {
      "inputs": [
        {
          "internalType": "address",
          "name": "token0",
          "type": "address"
        },
        {
          "internalType": "uint256",
          "name": "chainID",
          "type": "uint256"
        }
      ],
      "name": "removeSupportToken",
      "outputs": [],
      "stateMutability": "nonpayable",
      "type": "function"
    },
    {
      "inputs": [
        {
          "internalType": "address[]",
          "name": "token0s",
          "type": "address[]"
        },
        {
          "internalType": "uint256[]",
          "name": "chainIDs",
          "type": "uint256[]"
        }
      ],
      "name": "removeSupportTokens",
      "outputs": [],
      "stateMutability": "nonpayable",
      "type": "function"
    },
    {
      "inputs": [
        {
          "internalType": "bytes32",
          "name": "role",
          "type": "bytes32"
        },
        {
          "internalType": "address",
          "name": "account",
          "type": "address"
        }
      ],
      "name": "renounceRole",
      "outputs": [],
      "stateMutability": "nonpayable",
      "type": "function"
    },
    {
      "inputs": [
        {
          "internalType": "bytes32",
          "name": "role",
          "type": "bytes32"
        },
        {
          "internalType": "address",
          "name": "account",
          "type": "address"
        }
      ],
      "name": "revokeRole",
      "outputs": [],
      "stateMutability": "nonpayable",
      "type": "function"
    },
    {
      "inputs": [
        {
          "internalType": "address",
          "name": "token0",
          "type": "address"
        },
        {
          "internalType": "uint256",
          "name": "chainID",
          "type": "uint256"
        },
        {
          "internalType": "address",
          "name": "from",
          "type": "address"
        },
        {
          "internalType": "uint256",
          "name": "amount",
          "type": "uint256"
        },
        {
          "internalType": "string",
          "name": "txid",
          "type": "string"
        }
      ],
      "name": "rollback",
      "outputs": [],
      "stateMutability": "nonpayable",
      "type": "function"
    },
    {
      "inputs": [
        {
          "internalType": "address",
          "name": "token0",
          "type": "address"
        },
        {
          "internalType": "uint256",
          "name": "chainID",
          "type": "uint256"
        },
        {
          "internalType": "uint256",
          "name": "feeAmount",
          "type": "uint256"
        },
        {
          "internalType": "uint256",
          "name": "feeRatio",
          "type": "uint256"
        }
      ],
      "name": "setFee",
      "outputs": [],
      "stateMutability": "nonpayable",
      "type": "function"
    },
    {
      "inputs": [
        {
          "internalType": "address",
          "name": "account",
          "type": "address"
        }
      ],
      "name": "setFeeToDev",
      "outputs": [],
      "stateMutability": "nonpayable",
      "type": "function"
    },
    {
      "inputs": [
        {
          "internalType": "address",
          "name": "token0",
          "type": "address"
        },
        {
          "internalType": "uint256",
          "name": "chainID",
          "type": "uint256"
        },
        {
          "internalType": "uint256",
          "name": "_feeAmount",
          "type": "uint256"
        }
      ],
      "name": "setRemoveFee",
      "outputs": [],
      "stateMutability": "nonpayable",
      "type": "function"
    },
    {
      "inputs": [
        {
          "internalType": "address",
          "name": "token",
          "type": "address"
        },
        {
          "internalType": "uint256",
          "name": "_threshold",
          "type": "uint256"
        }
      ],
      "name": "setThreshold",
      "outputs": [],
      "stateMutability": "nonpayable",
      "type": "function"
    },
    {
      "inputs": [
        {
          "internalType": "address",
          "name": "_feePool",
          "type": "address"
        }
      ],
      "name": "setTwoWayFeePool",
      "outputs": [],
      "stateMutability": "nonpayable",
      "type": "function"
    },
    {
      "inputs": [
        {
          "internalType": "address",
          "name": "",
          "type": "address"
        },
        {
          "internalType": "uint256",
          "name": "",
          "type": "uint256"
        }
      ],
      "name": "supportToken",
      "outputs": [
        {
          "internalType": "address",
          "name": "",
          "type": "address"
        }
      ],
      "stateMutability": "view",
      "type": "function"
    },
    {
      "inputs": [
        {
          "internalType": "bytes4",
          "name": "interfaceId",
          "type": "bytes4"
        }
      ],
      "name": "supportsInterface",
      "outputs": [
        {
          "internalType": "bool",
          "name": "",
          "type": "bool"
        }
      ],
      "stateMutability": "view",
      "type": "function"
    },
    {
      "inputs": [
        {
          "internalType": "address",
          "name": "",
          "type": "address"
        }
      ],
      "name": "threshold",
      "outputs": [
        {
          "internalType": "uint256",
          "name": "",
          "type": "uint256"
        }
      ],
      "stateMutability": "view",
      "type": "function"
    },
    {
      "inputs": [],
      "name": "twoWayFeePool",
      "outputs": [
        {
          "internalType": "contract ITwoWayFeePool",
          "name": "",
          "type": "address"
        }
      ],
      "stateMutability": "view",
      "type": "function"
    },
    {
      "inputs": [
        {
          "internalType": "string",
          "name": "",
          "type": "string"
        }
      ],
      "name": "txMinted",
      "outputs": [
        {
          "internalType": "bool",
          "name": "",
          "type": "bool"
        }
      ],
      "stateMutability": "view",
      "type": "function"
    },
    {
      "inputs": [
        {
          "internalType": "string",
          "name": "",
          "type": "string"
        }
      ],
      "name": "txRollbacked",
      "outputs": [
        {
          "internalType": "bool",
          "name": "",
          "type": "bool"
        }
      ],
      "stateMutability": "view",
      "type": "function"
    },
    {
      "inputs": [
        {
          "internalType": "string",
          "name": "",
          "type": "string"
        }
      ],
      "name": "txUnlocked",
      "outputs": [
        {
          "internalType": "bool",
          "name": "",
          "type": "bool"
        }
      ],
      "stateMutability": "view",
      "type": "function"
    },
    {
      "inputs": [
        {
          "internalType": "address",
          "name": "token0",
          "type": "address"
        },
        {
          "internalType": "uint256",
          "name": "chainID",
          "type": "uint256"
        },
        {
          "internalType": "address",
          "name": "from",
          "type": "address"
        },
        {
          "internalType": "address",
          "name": "to",
          "type": "address"
        },
        {
          "internalType": "uint256",
          "name": "amount",
          "type": "uint256"
        },
        {
          "internalType": "string",
          "name": "txid",
          "type": "string"
        }
      ],
      "name": "unlock",
      "outputs": [],
      "stateMutability": "nonpayable",
      "type": "function"
    }
  ],
  "transactionHash": "0x418e6c330a2fd9867f8dfba113ce7f8fb5b0ae3523601aab851cc227663bed29",
  "args": [
    "0x2353178C6c05378812f024A783541857634A1e82"
  ],
  "solcInputHash": "36b72d97dfe83920d395571bab27aedd",
  "bytecode": "0x60806040523480156200001157600080fd5b506040516200326e3803806200326e833981016040819052620000349162000117565b600980546001600160a01b0319166001600160a01b0383161790556200005c60003362000063565b5062000147565b6200006f828262000073565b5050565b60008281526004602090815260408083206001600160a01b038516845290915290205460ff166200006f5760008281526004602090815260408083206001600160a01b03851684529091529020805460ff19166001179055620000d33390565b6001600160a01b0316816001600160a01b0316837f2f8788117e7eff1d82e926ec794901d17c78024a50270940304540a733656f0d60405160405180910390a45050565b60006020828403121562000129578081fd5b81516001600160a01b038116811462000140578182fd5b9392505050565b61311780620001576000396000f3fe608060405234801561001057600080fd5b50600436106102535760003560e01c806391d1485411610146578063be90c71b116100c3578063d692f4c511610087578063d692f4c514610646578063db697be41461067a578063df7e600a146106ae578063ee8a6acf146106c1578063f06410f8146106d4578063f8f8d5c0146106e757600080fd5b8063be90c71b146105c1578063c369c773146105d4578063c86ec2bf14610600578063cf28f67c14610620578063d547741f1461063357600080fd5b8063a217fddf1161010a578063a217fddf1461056d578063a5597a9414610575578063a90cb7ab14610588578063af78881f1461059b578063b5acfa62146105ae57600080fd5b806391d14854146104db578063934ac707146104ee578063967145af146105015780639c8d70be1461052f5780639d8799901461055a57600080fd5b80632f2ff15d116101d45780635cb0c1fb116101985780635cb0c1fb146104375780636407894314610462578063715ec45c1461048d57806381660f5d146104a05780638fed0b2c146104b357600080fd5b80632f2ff15d146103ba57806336568abe146103cd57806353ad72e5146103e057806356cf02d91461040e57806356ecaeb71461042457600080fd5b806310c274021161021b57806310c274021461032257806312fef692146103505780631b322be414610371578063248a9ca3146103845780632599c037146103a757600080fd5b806301ffc9a7146102585780630324ef9c1461028057806303507ba5146102ae57806303d40513146102c3578063100be3bd1461030f575b600080fd5b61026b610266366004612b2e565b6106fa565b60405190151581526020015b60405180910390f35b61029361028e366004612937565b610731565b60408051938452602084019290925290820152606001610277565b6102c16102bc366004612a6a565b610797565b005b6102f76102d13660046127dc565b600f6020908152600092835260408084209091529082529020546001600160a01b031681565b6040516001600160a01b039091168152602001610277565b6009546102f7906001600160a01b031681565b61026b610330366004612b56565b8051602081830181018051600b8252928201919093012091525460ff1681565b61036361035e366004612969565b61083c565b604051908152602001610277565b6102c161037f3660046127a1565b610940565b610363610392366004612aeb565b60009081526004602052604090206001015490565b6102c16103b53660046127dc565b610a12565b6102c16103c8366004612b03565b610ad4565b6102c16103db366004612b03565b610afa565b61026b6103ee366004612b56565b8051602081830181018051600d8252928201919093012091525460ff1681565b6103636b43524f535345525f524f4c4560a01b81565b6103636104323660046127dc565b610b78565b6103636104453660046127dc565b600760209081526000928352604080842090915290825290205481565b6103636104703660046127dc565b600560209081526000928352604080842090915290825290205481565b6102c161049b366004612805565b610c1a565b6102c16104ae3660046128c7565b610dd3565b6104c66104c1366004612969565b610f5d565b60408051928352602083019190915201610277565b61026b6104e9366004612b03565b6111bc565b6103636104fc3660046127dc565b6111e7565b61026b61050f366004612b56565b8051602081830181018051600c8252928201919093012091525460ff1681565b61036361053d3660046127dc565b600660209081526000928352604080842090915290825290205481565b6102c16105683660046127dc565b611289565b610363600081565b6102c1610583366004612937565b6112ba565b6102c1610596366004612787565b611308565b600e546102f7906001600160a01b031681565b6102c16105bc3660046127a1565b611351565b6104c66105cf366004612937565b611423565b6102c16105e2366004612787565b600980546001600160a01b0319166001600160a01b03831617905550565b61036361060e366004612787565b60006020819052908152604090205481565b6102c161062e366004612805565b6114c4565b6102c1610641366004612b03565b611713565b6102f76106543660046127dc565b600a6020908152600092835260408084209091529082529020546001600160a01b031681565b6102f76106883660046127dc565b60086020908152600092835260408084209091529082529020546001600160a01b031681565b6102c16106bc366004612884565b611739565b6102c16106cf3660046129e6565b6119e8565b6102c16106e23660046129ae565b611afe565b6102c16106f53660046127dc565b611b31565b60006001600160e01b03198216637965db0b60e01b148061072b57506301ffc9a760e01b6001600160e01b03198316145b92915050565b6001600160a01b03831660008181526005602090815260408083208684528252808320549383526006825280832086845290915281205481906107748582611bfd565b9250826107818587613040565b61078b9190613040565b91505093509350939050565b80518251146107c15760405162461bcd60e51b81526004016107b890612dc3565b60405180910390fd5b60005b8251811015610837576108258382815181106107f057634e487b7160e01b600052603260045260246000fd5b602002602001015183838151811061081857634e487b7160e01b600052603260045260246000fd5b6020026020010151611b31565b8061082f8161309a565b9150506107c4565b505050565b6001600160a01b038085166000908152600a60209081526040808320878452909152812054909186918691166108845760405162461bcd60e51b81526004016107b890612e72565b6001600160a01b038088166000818152600f602090815260408083208b8452909152902054909116906108b990338389611c26565b6040516335313c2160e11b81526001600160a01b038681166004830152821690636a62784290602401602060405180830381600087803b1580156108fc57600080fd5b505af1158015610910573d6000803e3d6000fd5b505050506040513d601f19601f820116820180604052508101906109349190612b89565b98975050505050505050565b61094b6000336111bc565b6109675760405162461bcd60e51b81526004016107b890612e3b565b6001600160a01b038381166000908152600a6020908152604080832085845290915290205416156109da5760405162461bcd60e51b815260206004820152601e60248201527f54776f5761793a20546f6b6520616c726561647920537570706f72746564000060448201526064016107b8565b6001600160a01b039283166000908152600a602090815260408083209383529290522080546001600160a01b03191691909216179055565b610a1d6000336111bc565b610a395760405162461bcd60e51b81526004016107b890612e3b565b6001600160a01b038281166000908152600f6020908152604080832085845290915290205416610aa15760405162461bcd60e51b81526020600482015260136024820152721d1bdad95b881b9bdd081cdd5c1c1bdc9d1959606a1b60448201526064016107b8565b6001600160a01b039091166000908152600f602090815260408083209383529290522080546001600160a01b0319169055565b600082815260046020526040902060010154610af08133611c91565b6108378383611cf5565b6001600160a01b0381163314610b6a5760405162461bcd60e51b815260206004820152602f60248201527f416363657373436f6e74726f6c3a2063616e206f6e6c792072656e6f756e636560448201526e103937b632b9903337b91039b2b63360891b60648201526084016107b8565b610b748282611d7b565b5050565b6001600160a01b038083166000908152600f60209081526040808320858452909152808220548151630240bc6b60e21b815282519394919091169284928492630902f1ac9260048083019392829003018186803b158015610bd857600080fd5b505afa158015610bec573d6000803e3d6000fd5b505050506040513d601f19601f82011682018060405250810190610c109190612ba1565b9695505050505050565b6001600160a01b038087166000908152600a602090815260408083208984529091529020548791879116610c605760405162461bcd60e51b81526004016107b890612e72565b610c796b43524f535345525f524f4c4560a01b336111bc565b610c955760405162461bcd60e51b81526004016107b890612e04565b82600c81604051610ca69190612c49565b9081526040519081900360200190205460ff1615610cfc5760405162461bcd60e51b8152602060048201526013602482015272151ddbd5d85e4e881d1e081d5b9b1bd8dad959606a1b60448201526064016107b8565b6000610d0b8a89898989611de2565b90508015610dc7576001600c86604051610d259190612c49565b908152604051908190036020019020805491151560ff19909216919091179055610d596001600160a01b038b16888861206a565b6001600160a01b03808b166000908152600a602090815260408083208d8452909152908190205490517fe8a9cddb11d86358ad5c2fdd6359f0a6f41de0d399033319becf1364409dacbc92610dbe928e9291169046908e908e908e908e908e90612d4f565b60405180910390a15b50505050505050505050565b6001600160a01b038086166000908152600a602090815260408083208884529091529020548691869116610e195760405162461bcd60e51b81526004016107b890612e72565b610e326b43524f535345525f524f4c4560a01b336111bc565b610e4e5760405162461bcd60e51b81526004016107b890612e04565b82600d81604051610e5f9190612c49565b9081526040519081900360200190205460ff1615610eb75760405162461bcd60e51b8152602060048201526015602482015274151ddbd5d85e4e881d1e081c9bdb1b189858dad959605a1b60448201526064016107b8565b6000610ec68988898989611de2565b90508015610f52576001600d86604051610ee09190612c49565b908152604051908190036020019020805491151560ff19909216919091179055610f146001600160a01b038a16888861206a565b7f9420db1a0c5e4f45cc0dac05f17e8eb893645981e3c01e8d14120353a487d9e989888888604051610f499493929190612cda565b60405180910390a15b505050505050505050565b6001600160a01b038085166000908152600a60209081526040808320878452909152812054909182918791879116610fa75760405162461bcd60e51b81526004016107b890612e72565b6001600160a01b038881166000908152600f602090815260408083208b84529091528082205490516370a0823160e01b815233600482015292169182906370a082319060240160206040518083038186803b15801561100557600080fd5b505afa158015611019573d6000803e3d6000fd5b505050506040513d601f19601f8201168201806040525081019061103d9190612b89565b90508781101561107f5760405162461bcd60e51b815260206004820152600d60248201526c04e6f7420656e6f756768206c7609c1b60448201526064016107b8565b6001600160a01b03808b1660009081526007602090815260408083208d84529091529081902054600954915163779afa3760e01b81523360048201528a84166024820152604481018c90529183166064830152608482018190529184169063779afa379060a4016040805180830381600087803b1580156110ff57600080fd5b505af1158015611113573d6000803e3d6000fd5b505050506040513d601f19601f820116820180604052508101906111379190612ba1565b909750955085156111ae576001600160a01b03808c166000908152600a602090815260408083208e8452909152908190205490517f79aee25f54411be6ea1ab53c9d3cc3e245c301d481091deda6343da926932c0c926111a5928f9291169046908f9033908f908e90612d0d565b60405180910390a15b505050505094509492505050565b60009182526004602090815260408084206001600160a01b0393909316845291905290205460ff1690565b6001600160a01b038083166000908152600f60209081526040808320858452909152808220548151630240bc6b60e21b815282519394919091169284928492630902f1ac9260048083019392829003018186803b15801561124757600080fd5b505afa15801561125b573d6000803e3d6000fd5b505050506040513d601f19601f8201168201806040525081019061127f9190612ba1565b5095945050505050565b6112946000336111bc565b6112b05760405162461bcd60e51b81526004016107b890612e3b565b610b74828261209a565b6112c56000336111bc565b6112e15760405162461bcd60e51b81526004016107b890612e3b565b6001600160a01b039290921660009081526007602090815260408083209383529290522055565b6113136000336111bc565b61132f5760405162461bcd60e51b81526004016107b890612e3b565b600e80546001600160a01b0319166001600160a01b0392909216919091179055565b61135c6000336111bc565b6113785760405162461bcd60e51b81526004016107b890612e3b565b6001600160a01b038381166000908152600f6020908152604080832085845290915290205416156113eb5760405162461bcd60e51b815260206004820152601760248201527f746f6b656e20616c726561647920737570706f7274656400000000000000000060448201526064016107b8565b6001600160a01b039283166000908152600f602090815260408083209383529290522080546001600160a01b03191691909216179055565b6001600160a01b03831660009081526007602090815260408083208584529091528120548190831161148a5760405162461bcd60e51b815260206004820152601060248201526f3737ba1032b737bab3b4103a37b5b2b760811b60448201526064016107b8565b6001600160a01b038516600090815260076020908152604080832087845290915290205491506114ba8284613040565b9050935093915050565b6114dd6b43524f535345525f524f4c4560a01b336111bc565b6114f95760405162461bcd60e51b81526004016107b890612e04565b80600b8160405161150a9190612c49565b9081526040519081900360200190205460ff161561155e5760405162461bcd60e51b8152602060048201526011602482015270151ddbd5d85e4e881d1e081b5a5b9d1959607a1b60448201526064016107b8565b600061156d8887878787611de2565b90508015611709576001600b846040516115879190612c49565b9081526040805160209281900383019020805460ff1916931515939093179092556001600160a01b038a81166000908152600f83528381208b82529092529181205490911690806115d98b8b89610731565b925050915060006115ea8c8c6111e7565b905080881115611687577f56a316ee63540abb5f8fd44be7a6eb2016a90fc9bb3a34ffe13948a44c49a6168c600a60008f6001600160a01b03166001600160a01b0316815260200190815260200160002060008e815260200190815260200160002060009054906101000a90046001600160a01b0316468e8e8e8e8e60405161167a989796959493929190612d4f565b60405180910390a1611704565b600954604051637d01538560e11b81526001600160a01b038b81166004830152602482018b9052604482018690526064820185905291821660848201529085169063fa02a70a9060a401600060405180830381600087803b1580156116eb57600080fd5b505af11580156116ff573d6000803e3d6000fd5b505050505b505050505b5050505050505050565b60008281526004602052604090206001015461172f8133611c91565b6108378383611d7b565b6001600160a01b038085166000908152600a60209081526040808320878452909152902054859185911661177f5760405162461bcd60e51b81526004016107b890612e72565b600083116117dd5760405162461bcd60e51b815260206004820152602560248201527f54776f5761793a20616d6f756e74206d75737420626520677265617465722074604482015264068616e20360dc1b60648201526084016107b8565b6001600160a01b0384166118295760405162461bcd60e51b815260206004820152601360248201527254776f5761793a20746f20697320656d70747960681b60448201526064016107b8565b6001600160a01b038087166000908152600f602090815260408083208984529091528120549091169061185c8888610b78565b9050600061186a86836120fe565b90508015611954576118876001600160a01b038a16338584611c26565b60405163086cba5760e11b81526001600160a01b038881166004830152602482018390528416906310d974ae90604401600060405180830381600087803b1580156118d157600080fd5b505af11580156118e5573d6000803e3d6000fd5b5050506001600160a01b03808b166000908152600a602090815260408083208d8452909152908190205490517f79aee25f54411be6ea1ab53c9d3cc3e245c301d481091deda6343da926932c0c935061194b928d92169046908d9033908e908990612d0d565b60405180910390a15b81861115610f525761197d333061196b848a613040565b6001600160a01b038d16929190611c26565b6001600160a01b03808a166000908152600a602090815260408083208c84529091529020547f7cb5e2d54d5587c3a3448631884061009b0e2c30e37922a4dd4aed50e11dd7f3918b9116468b338c6119d5888e613040565b604051610f499796959493929190612d0d565b8151835114611a395760405162461bcd60e51b815260206004820152601e60248201527f54776f5761793a20746f6b656e206c656e677468206e6f74206d61746368000060448201526064016107b8565b8051835114611a5a5760405162461bcd60e51b81526004016107b890612dc3565b60005b8351811015611af857611ae6848281518110611a8957634e487b7160e01b600052603260045260246000fd5b6020026020010151848381518110611ab157634e487b7160e01b600052603260045260246000fd5b6020026020010151848481518110611ad957634e487b7160e01b600052603260045260246000fd5b6020026020010151610940565b80611af08161309a565b915050611a5d565b50505050565b611b096000336111bc565b611b255760405162461bcd60e51b81526004016107b890612e3b565b611af884848484612114565b611b3c6000336111bc565b611b585760405162461bcd60e51b81526004016107b890612e3b565b6001600160a01b038281166000908152600a6020908152604080832085845290915290205416611bca5760405162461bcd60e51b815260206004820152601a60248201527f54776f5761793a20746f6b65206e6f7420737570706f7274656400000000000060448201526064016107b8565b6001600160a01b039091166000908152600a602090815260408083209383529290522080546001600160a01b0319169055565b6000611c0b6012600a612f79565b611c1584846121e9565b611c1f9190612f16565b9392505050565b6040516001600160a01b0380851660248301528316604482015260648101829052611af89085906323b872dd60e01b906084015b60408051601f198184030181529190526020810180516001600160e01b03166001600160e01b0319909316929092179091526121f5565b611c9b82826111bc565b610b7457611cb3816001600160a01b031660146122c7565b611cbe8360206122c7565b604051602001611ccf929190612c65565b60408051601f198184030181529082905262461bcd60e51b82526107b891600401612db0565b611cff82826111bc565b610b745760008281526004602090815260408083206001600160a01b03851684529091529020805460ff19166001179055611d373390565b6001600160a01b0316816001600160a01b0316837f2f8788117e7eff1d82e926ec794901d17c78024a50270940304540a733656f0d60405160405180910390a45050565b611d8582826111bc565b15610b745760008281526004602090815260408083206001600160a01b0385168085529252808320805460ff1916905551339285917ff6391f5c32d9c69d2a47ea670b442974b53935d1edc7fd64eb21e047a839171b9190a45050565b6001600160a01b038516600090815260208190526040812054611e605760405162461bcd60e51b815260206004820152603060248201527f50726f706f73616c566f74653a207468726573686f6c642073686f756c64206260448201526f0652067726561746572207468616e20360841b60648201526084016107b8565b6001600160a01b038616600090815260208181526040808320549051909291611e93918a918a918a918a918a9101612bf0565b60408051601f1981840301815291815281516020928301206000818152600190935291205490915060ff1615611f0b5760405162461bcd60e51b815260206004820152601860248201527f5f766f74653a3a70726f706f73616c2066696e6973686564000000000000000060448201526064016107b8565b600081815260026020908152604080832033845290915290205460ff1615611f755760405162461bcd60e51b815260206004820152601760248201527f5f766f74653a3a6d73672e73656e64657220766f74656400000000000000000060448201526064016107b8565b600081815260036020526040902054611f8f9060016124a9565b60008281526003602081815260408084209485556002825280842033855282528320805460ff19166001179055918490529052548211611fe7576000818152600160208190526040909120805460ff19168217905592505b6000818152600360209081526040918290205482516001600160a01b038c811682528b811693820193909352918916828401526060820188905233608083015260a082015260c0810184905290517fe458477b94285c9f254a407e2614c39f55230b527ff7f51d76fdf33e251ae9369181900360e00190a1505095945050505050565b6040516001600160a01b03831660248201526044810182905261083790849063a9059cbb60e01b90606401611c5a565b6001600160a01b038216600081815260208181526040918290208054908590558251938452908301819052908201839052907fb18e91516e037486aa6fa38f56a8aac933fd127180efe9c9745ecbf660a78e449060600160405180910390a1505050565b600081831061210d5781611c1f565b5090919050565b670de0b6b3a76400008111156121645760405162461bcd60e51b8152602060048201526015602482015274199959481c985d1a5bc81b9bdd0818dbdc9c9958dd605a1b60448201526064016107b8565b6001600160a01b0384166000818152600560209081526040808320878452825280832086905583835260068252808320878452825291829020849055815192835282018590528101839052606081018290527fe7de0268825882caac9be515100046b260e4bb88ef28dcf7e4d99a3b9b7537829060800160405180910390a150505050565b6000611c1f8284613021565b600061224a826040518060400160405280602081526020017f5361666545524332303a206c6f772d6c6576656c2063616c6c206661696c6564815250856001600160a01b03166124b59092919063ffffffff16565b80519091501561083757808060200190518101906122689190612acb565b6108375760405162461bcd60e51b815260206004820152602a60248201527f5361666545524332303a204552433230206f7065726174696f6e20646964206e6044820152691bdd081cdd58d8d9595960b21b60648201526084016107b8565b606060006122d6836002613021565b6122e1906002612efe565b67ffffffffffffffff81111561230757634e487b7160e01b600052604160045260246000fd5b6040519080825280601f01601f191660200182016040528015612331576020820181803683370190505b509050600360fc1b8160008151811061235a57634e487b7160e01b600052603260045260246000fd5b60200101906001600160f81b031916908160001a905350600f60fb1b8160018151811061239757634e487b7160e01b600052603260045260246000fd5b60200101906001600160f81b031916908160001a90535060006123bb846002613021565b6123c6906001612efe565b90505b600181111561245a576f181899199a1a9b1b9c1cb0b131b232b360811b85600f166010811061240857634e487b7160e01b600052603260045260246000fd5b1a60f81b82828151811061242c57634e487b7160e01b600052603260045260246000fd5b60200101906001600160f81b031916908160001a90535060049490941c9361245381613083565b90506123c9565b508315611c1f5760405162461bcd60e51b815260206004820181905260248201527f537472696e67733a20686578206c656e67746820696e73756666696369656e7460448201526064016107b8565b6000611c1f8284612efe565b60606124c484846000856124cc565b949350505050565b60608247101561252d5760405162461bcd60e51b815260206004820152602660248201527f416464726573733a20696e73756666696369656e742062616c616e636520666f6044820152651c8818d85b1b60d21b60648201526084016107b8565b843b61257b5760405162461bcd60e51b815260206004820152601d60248201527f416464726573733a2063616c6c20746f206e6f6e2d636f6e747261637400000060448201526064016107b8565b600080866001600160a01b031685876040516125979190612c49565b60006040518083038185875af1925050503d80600081146125d4576040519150601f19603f3d011682016040523d82523d6000602084013e6125d9565b606091505b50915091506125e98282866125f4565b979650505050505050565b60608315612603575081611c1f565b8251156126135782518084602001fd5b8160405162461bcd60e51b81526004016107b89190612db0565b80356001600160a01b038116811461264457600080fd5b919050565b600082601f830112612659578081fd5b8135602061266e61266983612eda565b612ea9565b80838252828201915082860187848660051b890101111561268d578586fd5b855b858110156126b2576126a08261262d565b8452928401929084019060010161268f565b5090979650505050505050565b600082601f8301126126cf578081fd5b813560206126df61266983612eda565b80838252828201915082860187848660051b89010111156126fe578586fd5b855b858110156126b257813584529284019290840190600101612700565b600082601f83011261272c578081fd5b813567ffffffffffffffff811115612746576127466130cb565b612759601f8201601f1916602001612ea9565b81815284602083860101111561276d578283fd5b816020850160208301379081016020019190915292915050565b600060208284031215612798578081fd5b611c1f8261262d565b6000806000606084860312156127b5578182fd5b6127be8461262d565b92506127cc6020850161262d565b9150604084013590509250925092565b600080604083850312156127ee578182fd5b6127f78361262d565b946020939093013593505050565b60008060008060008060c0878903121561281d578182fd5b6128268761262d565b95506020870135945061283b6040880161262d565b93506128496060880161262d565b92506080870135915060a087013567ffffffffffffffff81111561286b578182fd5b61287789828a0161271c565b9150509295509295509295565b60008060008060808587031215612899578384fd5b6128a28561262d565b9350602085013592506128b76040860161262d565b9396929550929360600135925050565b600080600080600060a086880312156128de578081fd5b6128e78661262d565b9450602086013593506128fc6040870161262d565b925060608601359150608086013567ffffffffffffffff81111561291e578182fd5b61292a8882890161271c565b9150509295509295909350565b60008060006060848603121561294b578283fd5b6129548461262d565b95602085013595506040909401359392505050565b6000806000806080858703121561297e578182fd5b6129878561262d565b935060208501359250604085013591506129a36060860161262d565b905092959194509250565b600080600080608085870312156129c3578182fd5b6129cc8561262d565b966020860135965060408601359560600135945092505050565b6000806000606084860312156129fa578081fd5b833567ffffffffffffffff80821115612a11578283fd5b612a1d87838801612649565b94506020860135915080821115612a32578283fd5b612a3e87838801612649565b93506040860135915080821115612a53578283fd5b50612a60868287016126bf565b9150509250925092565b60008060408385031215612a7c578182fd5b823567ffffffffffffffff80821115612a93578384fd5b612a9f86838701612649565b93506020850135915080821115612ab4578283fd5b50612ac1858286016126bf565b9150509250929050565b600060208284031215612adc578081fd5b81518015158114611c1f578182fd5b600060208284031215612afc578081fd5b5035919050565b60008060408385031215612b15578182fd5b82359150612b256020840161262d565b90509250929050565b600060208284031215612b3f578081fd5b81356001600160e01b031981168114611c1f578182fd5b600060208284031215612b67578081fd5b813567ffffffffffffffff811115612b7d578182fd5b6124c48482850161271c565b600060208284031215612b9a578081fd5b5051919050565b60008060408385031215612bb3578182fd5b505080516020909101519092909150565b60008151808452612bdc816020860160208601613057565b601f01601f19169290920160200192915050565b60006bffffffffffffffffffffffff19808860601b168352808760601b166014840152808660601b1660288401525083603c8301528251612c3881605c850160208701613057565b91909101605c019695505050505050565b60008251612c5b818460208701613057565b9190910192915050565b7f416363657373436f6e74726f6c3a206163636f756e7420000000000000000000815260008351612c9d816017850160208801613057565b7001034b99036b4b9b9b4b733903937b6329607d1b6017918401918201528351612cce816028840160208801613057565b01602801949350505050565b6001600160a01b0385811682528416602082015260408101839052608060608201819052600090610c1090830184612bc4565b6001600160a01b0397881681529587166020870152604086019490945260608501929092528416608084015290921660a082015260c081019190915260e00190565b6001600160a01b038981168252888116602083015260408201889052606082018790528581166080830152841660a082015260c0810183905261010060e08201819052600090612da183820185612bc4565b9b9a5050505050505050505050565b602081526000611c1f6020830184612bc4565b60208082526021908201527f54776f5761793a20636861696e494473206c656e677468206e6f74206d6174636040820152600d60fb1b606082015260800190565b6020808252601d908201527f54776f5761793a2063616c6c6572206973206e6f742063726f73736572000000604082015260600190565b6020808252601b908201527f54776f5761793a2063616c6c6572206973206e6f742061646d696e0000000000604082015260600190565b6020808252601e908201527f54776f5761793a206e6f7420737570706f7274207468697320746f6b656e0000604082015260600190565b604051601f8201601f1916810167ffffffffffffffff81118282101715612ed257612ed26130cb565b604052919050565b600067ffffffffffffffff821115612ef457612ef46130cb565b5060051b60200190565b60008219821115612f1157612f116130b5565b500190565b600082612f3157634e487b7160e01b81526012600452602481fd5b500490565b600181815b80851115612f71578160001904821115612f5757612f576130b5565b80851615612f6457918102915b93841c9390800290612f3b565b509250929050565b6000611c1f8383600082612f8f5750600161072b565b81612f9c5750600061072b565b8160018114612fb25760028114612fbc57612fd8565b600191505061072b565b60ff841115612fcd57612fcd6130b5565b50506001821b61072b565b5060208310610133831016604e8410600b8410161715612ffb575081810a61072b565b6130058383612f36565b8060001904821115613019576130196130b5565b029392505050565b600081600019048311821515161561303b5761303b6130b5565b500290565b600082821015613052576130526130b5565b500390565b60005b8381101561307257818101518382015260200161305a565b83811115611af85750506000910152565b600081613092576130926130b5565b506000190190565b60006000198214156130ae576130ae6130b5565b5060010190565b634e487b7160e01b600052601160045260246000fd5b634e487b7160e01b600052604160045260246000fdfea264697066735822122039d70ac3d341d1a29d7390e4aab699942294ea822d09bd27454bd5b94077c3a364736f6c63430008040033",
  "devdoc": {
    "kind": "dev",
    "methods": {
      "getRoleAdmin(bytes32)": {
        "details": "Returns the admin role that controls `role`. See {grantRole} and {revokeRole}. To change a role's admin, use {_setRoleAdmin}."
      },
      "grantRole(bytes32,address)": {
        "details": "Grants `role` to `account`. If `account` had not been already granted `role`, emits a {RoleGranted} event. Requirements: - the caller must have ``role``'s admin role."
      },
      "hasRole(bytes32,address)": {
        "details": "Returns `true` if `account` has been granted `role`."
      },
      "renounceRole(bytes32,address)": {
        "details": "Revokes `role` from the calling account. Roles are often managed via {grantRole} and {revokeRole}: this function's purpose is to provide a mechanism for accounts to lose their privileges if they are compromised (such as when a trusted device is misplaced). If the calling account had been granted `role`, emits a {RoleRevoked} event. Requirements: - the caller must be `account`."
      },
      "revokeRole(bytes32,address)": {
        "details": "Revokes `role` from `account`. If `account` had been granted `role`, emits a {RoleRevoked} event. Requirements: - the caller must have ``role``'s admin role."
      },
      "supportsInterface(bytes4)": {
        "details": "See {IERC165-supportsInterface}."
      }
    },
    "version": 1
  },
  "userdoc": {
    "kind": "user",
    "methods": {},
    "version": 1
  },
  "storageLayout": {
    "storage": [
      {
        "astId": 6047,
        "contract": "contracts/twoway/TwoWay.sol:TwoWay",
        "label": "threshold",
        "offset": 0,
        "slot": "0",
        "type": "t_mapping(t_address,t_uint256)"
      },
      {
        "astId": 6051,
        "contract": "contracts/twoway/TwoWay.sol:TwoWay",
        "label": "isFinished",
        "offset": 0,
        "slot": "1",
        "type": "t_mapping(t_bytes32,t_bool)"
      },
      {
        "astId": 6057,
        "contract": "contracts/twoway/TwoWay.sol:TwoWay",
        "label": "isVoted",
        "offset": 0,
        "slot": "2",
        "type": "t_mapping(t_bytes32,t_mapping(t_address,t_bool))"
      },
      {
        "astId": 6061,
        "contract": "contracts/twoway/TwoWay.sol:TwoWay",
        "label": "counter",
        "offset": 0,
        "slot": "3",
        "type": "t_mapping(t_bytes32,t_uint256)"
      },
      {
        "astId": 2437,
        "contract": "contracts/twoway/TwoWay.sol:TwoWay",
        "label": "_roles",
        "offset": 0,
        "slot": "4",
        "type": "t_mapping(t_bytes32,t_struct(RoleData)2432_storage)"
      },
      {
        "astId": 9476,
        "contract": "contracts/twoway/TwoWay.sol:TwoWay",
        "label": "feeAmountM",
        "offset": 0,
        "slot": "5",
        "type": "t_mapping(t_address,t_mapping(t_uint256,t_uint256))"
      },
      {
        "astId": 9482,
        "contract": "contracts/twoway/TwoWay.sol:TwoWay",
        "label": "feeRatioM",
        "offset": 0,
        "slot": "6",
        "type": "t_mapping(t_address,t_mapping(t_uint256,t_uint256))"
      },
      {
        "astId": 9488,
        "contract": "contracts/twoway/TwoWay.sol:TwoWay",
        "label": "removeFeeAmount",
        "offset": 0,
        "slot": "7",
        "type": "t_mapping(t_address,t_mapping(t_uint256,t_uint256))"
      },
      {
        "astId": 9494,
        "contract": "contracts/twoway/TwoWay.sol:TwoWay",
        "label": "feeTo",
        "offset": 0,
        "slot": "8",
        "type": "t_mapping(t_address,t_mapping(t_uint256,t_address))"
      },
      {
        "astId": 9496,
        "contract": "contracts/twoway/TwoWay.sol:TwoWay",
        "label": "feeToDev",
        "offset": 0,
        "slot": "9",
        "type": "t_address"
      },
      {
        "astId": 8406,
        "contract": "contracts/twoway/TwoWay.sol:TwoWay",
        "label": "supportToken",
        "offset": 0,
        "slot": "10",
        "type": "t_mapping(t_address,t_mapping(t_uint256,t_address))"
      },
      {
        "astId": 8410,
        "contract": "contracts/twoway/TwoWay.sol:TwoWay",
        "label": "txMinted",
        "offset": 0,
        "slot": "11",
        "type": "t_mapping(t_string_memory_ptr,t_bool)"
      },
      {
        "astId": 8414,
        "contract": "contracts/twoway/TwoWay.sol:TwoWay",
        "label": "txUnlocked",
        "offset": 0,
        "slot": "12",
        "type": "t_mapping(t_string_memory_ptr,t_bool)"
      },
      {
        "astId": 8418,
        "contract": "contracts/twoway/TwoWay.sol:TwoWay",
        "label": "txRollbacked",
        "offset": 0,
        "slot": "13",
        "type": "t_mapping(t_string_memory_ptr,t_bool)"
      },
      {
        "astId": 8421,
        "contract": "contracts/twoway/TwoWay.sol:TwoWay",
        "label": "twoWayFeePool",
        "offset": 0,
        "slot": "14",
        "type": "t_contract(ITwoWayFeePool)7102"
      },
      {
        "astId": 8427,
        "contract": "contracts/twoway/TwoWay.sol:TwoWay",
        "label": "pairs",
        "offset": 0,
        "slot": "15",
        "type": "t_mapping(t_address,t_mapping(t_uint256,t_address))"
      }
    ],
    "types": {
      "t_address": {
        "encoding": "inplace",
        "label": "address",
        "numberOfBytes": "20"
      },
      "t_bool": {
        "encoding": "inplace",
        "label": "bool",
        "numberOfBytes": "1"
      },
      "t_bytes32": {
        "encoding": "inplace",
        "label": "bytes32",
        "numberOfBytes": "32"
      },
      "t_contract(ITwoWayFeePool)7102": {
        "encoding": "inplace",
        "label": "contract ITwoWayFeePool",
        "numberOfBytes": "20"
      },
      "t_mapping(t_address,t_bool)": {
        "encoding": "mapping",
        "key": "t_address",
        "label": "mapping(address => bool)",
        "numberOfBytes": "32",
        "value": "t_bool"
      },
      "t_mapping(t_address,t_mapping(t_uint256,t_address))": {
        "encoding": "mapping",
        "key": "t_address",
        "label": "mapping(address => mapping(uint256 => address))",
        "numberOfBytes": "32",
        "value": "t_mapping(t_uint256,t_address)"
      },
      "t_mapping(t_address,t_mapping(t_uint256,t_uint256))": {
        "encoding": "mapping",
        "key": "t_address",
        "label": "mapping(address => mapping(uint256 => uint256))",
        "numberOfBytes": "32",
        "value": "t_mapping(t_uint256,t_uint256)"
      },
      "t_mapping(t_address,t_uint256)": {
        "encoding": "mapping",
        "key": "t_address",
        "label": "mapping(address => uint256)",
        "numberOfBytes": "32",
        "value": "t_uint256"
      },
      "t_mapping(t_bytes32,t_bool)": {
        "encoding": "mapping",
        "key": "t_bytes32",
        "label": "mapping(bytes32 => bool)",
        "numberOfBytes": "32",
        "value": "t_bool"
      },
      "t_mapping(t_bytes32,t_mapping(t_address,t_bool))": {
        "encoding": "mapping",
        "key": "t_bytes32",
        "label": "mapping(bytes32 => mapping(address => bool))",
        "numberOfBytes": "32",
        "value": "t_mapping(t_address,t_bool)"
      },
      "t_mapping(t_bytes32,t_struct(RoleData)2432_storage)": {
        "encoding": "mapping",
        "key": "t_bytes32",
        "label": "mapping(bytes32 => struct AccessControl.RoleData)",
        "numberOfBytes": "32",
        "value": "t_struct(RoleData)2432_storage"
      },
      "t_mapping(t_bytes32,t_uint256)": {
        "encoding": "mapping",
        "key": "t_bytes32",
        "label": "mapping(bytes32 => uint256)",
        "numberOfBytes": "32",
        "value": "t_uint256"
      },
      "t_mapping(t_string_memory_ptr,t_bool)": {
        "encoding": "mapping",
        "key": "t_string_memory_ptr",
        "label": "mapping(string => bool)",
        "numberOfBytes": "32",
        "value": "t_bool"
      },
      "t_mapping(t_uint256,t_address)": {
        "encoding": "mapping",
        "key": "t_uint256",
        "label": "mapping(uint256 => address)",
        "numberOfBytes": "32",
        "value": "t_address"
      },
      "t_mapping(t_uint256,t_uint256)": {
        "encoding": "mapping",
        "key": "t_uint256",
        "label": "mapping(uint256 => uint256)",
        "numberOfBytes": "32",
        "value": "t_uint256"
      },
      "t_string_memory_ptr": {
        "encoding": "bytes",
        "label": "string",
        "numberOfBytes": "32"
      },
      "t_struct(RoleData)2432_storage": {
        "encoding": "inplace",
        "label": "struct AccessControl.RoleData",
        "members": [
          {
            "astId": 2429,
            "contract": "contracts/twoway/TwoWay.sol:TwoWay",
            "label": "members",
            "offset": 0,
            "slot": "0",
            "type": "t_mapping(t_address,t_bool)"
          },
          {
            "astId": 2431,
            "contract": "contracts/twoway/TwoWay.sol:TwoWay",
            "label": "adminRole",
            "offset": 0,
            "slot": "1",
            "type": "t_bytes32"
          }
        ],
        "numberOfBytes": "64"
      },
      "t_uint256": {
        "encoding": "inplace",
        "label": "uint256",
        "numberOfBytes": "32"
      }
    }
  }
}