{
  "address": "0xd22385B41a54685FaA3C7863F8d02009D84F7491",
  "abi": [
    {
      "inputs": [
        {
          "internalType": "string",
          "name": "_name",
          "type": "string"
        },
        {
          "internalType": "string",
          "name": "_symbol",
          "type": "string"
        }
      ],
      "stateMutability": "nonpayable",
      "type": "constructor"
    },
    {
      "anonymous": false,
      "inputs": [
        {
          "indexed": true,
          "internalType": "address",
          "name": "owner",
          "type": "address"
        },
        {
          "indexed": true,
          "internalType": "address",
          "name": "spender",
          "type": "address"
        },
        {
          "indexed": false,
          "internalType": "uint256",
          "name": "value",
          "type": "uint256"
        }
      ],
      "name": "Approval",
      "type": "event"
    },
    {
      "anonymous": false,
      "inputs": [
        {
          "indexed": true,
          "internalType": "address",
          "name": "sender",
          "type": "address"
        },
        {
          "indexed": false,
          "internalType": "uint256",
          "name": "amount0",
          "type": "uint256"
        },
        {
          "indexed": false,
          "internalType": "uint256",
          "name": "amount1",
          "type": "uint256"
        },
        {
          "indexed": true,
          "internalType": "address",
          "name": "to",
          "type": "address"
        }
      ],
      "name": "Burn",
      "type": "event"
    },
    {
      "anonymous": false,
      "inputs": [
        {
          "indexed": true,
          "internalType": "address",
          "name": "sender",
          "type": "address"
        },
        {
          "indexed": false,
          "internalType": "uint256",
          "name": "amount",
          "type": "uint256"
        }
      ],
      "name": "Mint",
      "type": "event"
    },
    {
      "anonymous": false,
      "inputs": [
        {
          "indexed": true,
          "internalType": "address",
          "name": "previousOwner",
          "type": "address"
        },
        {
          "indexed": true,
          "internalType": "address",
          "name": "newOwner",
          "type": "address"
        }
      ],
      "name": "OwnershipTransferred",
      "type": "event"
    },
    {
      "anonymous": false,
      "inputs": [
        {
          "indexed": true,
          "internalType": "address",
          "name": "sender",
          "type": "address"
        },
        {
          "indexed": false,
          "internalType": "uint256",
          "name": "amountIn",
          "type": "uint256"
        },
        {
          "indexed": false,
          "internalType": "uint256",
          "name": "amountOut",
          "type": "uint256"
        },
        {
          "indexed": true,
          "internalType": "address",
          "name": "to",
          "type": "address"
        }
      ],
      "name": "Swap",
      "type": "event"
    },
    {
      "anonymous": false,
      "inputs": [
        {
          "indexed": true,
          "internalType": "address",
          "name": "from",
          "type": "address"
        },
        {
          "indexed": true,
          "internalType": "address",
          "name": "to",
          "type": "address"
        },
        {
          "indexed": false,
          "internalType": "uint256",
          "name": "value",
          "type": "uint256"
        }
      ],
      "name": "Transfer",
      "type": "event"
    },
    {
      "inputs": [],
      "name": "MINIMUM_LIQUIDITY",
      "outputs": [
        {
          "internalType": "uint256",
          "name": "",
          "type": "uint256"
        }
      ],
      "stateMutability": "view",
      "type": "function"
    },
    {
      "inputs": [
        {
          "internalType": "address",
          "name": "owner",
          "type": "address"
        },
        {
          "internalType": "address",
          "name": "spender",
          "type": "address"
        }
      ],
      "name": "allowance",
      "outputs": [
        {
          "internalType": "uint256",
          "name": "",
          "type": "uint256"
        }
      ],
      "stateMutability": "view",
      "type": "function"
    },
    {
      "inputs": [
        {
          "internalType": "address",
          "name": "spender",
          "type": "address"
        },
        {
          "internalType": "uint256",
          "name": "amount",
          "type": "uint256"
        }
      ],
      "name": "approve",
      "outputs": [
        {
          "internalType": "bool",
          "name": "",
          "type": "bool"
        }
      ],
      "stateMutability": "nonpayable",
      "type": "function"
    },
    {
      "inputs": [
        {
          "internalType": "address",
          "name": "account",
          "type": "address"
        }
      ],
      "name": "balanceOf",
      "outputs": [
        {
          "internalType": "uint256",
          "name": "",
          "type": "uint256"
        }
      ],
      "stateMutability": "view",
      "type": "function"
    },
    {
      "inputs": [
        {
          "internalType": "address",
          "name": "to",
          "type": "address"
        }
      ],
      "name": "burn",
      "outputs": [
        {
          "internalType": "uint256",
          "name": "amount0",
          "type": "uint256"
        },
        {
          "internalType": "uint256",
          "name": "amount1",
          "type": "uint256"
        }
      ],
      "stateMutability": "nonpayable",
      "type": "function"
    },
    {
      "inputs": [],
      "name": "decimals",
      "outputs": [
        {
          "internalType": "uint8",
          "name": "",
          "type": "uint8"
        }
      ],
      "stateMutability": "view",
      "type": "function"
    },
    {
      "inputs": [
        {
          "internalType": "address",
          "name": "spender",
          "type": "address"
        },
        {
          "internalType": "uint256",
          "name": "subtractedValue",
          "type": "uint256"
        }
      ],
      "name": "decreaseAllowance",
      "outputs": [
        {
          "internalType": "bool",
          "name": "",
          "type": "bool"
        }
      ],
      "stateMutability": "nonpayable",
      "type": "function"
    },
    {
      "inputs": [],
      "name": "getReserves",
      "outputs": [
        {
          "internalType": "uint256",
          "name": "",
          "type": "uint256"
        },
        {
          "internalType": "uint256",
          "name": "",
          "type": "uint256"
        }
      ],
      "stateMutability": "view",
      "type": "function"
    },
    {
      "inputs": [
        {
          "internalType": "address",
          "name": "spender",
          "type": "address"
        },
        {
          "internalType": "uint256",
          "name": "addedValue",
          "type": "uint256"
        }
      ],
      "name": "increaseAllowance",
      "outputs": [
        {
          "internalType": "bool",
          "name": "",
          "type": "bool"
        }
      ],
      "stateMutability": "nonpayable",
      "type": "function"
    },
    {
      "inputs": [
        {
          "internalType": "address",
          "name": "_token0",
          "type": "address"
        },
        {
          "internalType": "address",
          "name": "_token1",
          "type": "address"
        }
      ],
      "name": "initialize",
      "outputs": [],
      "stateMutability": "nonpayable",
      "type": "function"
    },
    {
      "inputs": [
        {
          "internalType": "address",
          "name": "to",
          "type": "address"
        }
      ],
      "name": "mint",
      "outputs": [
        {
          "internalType": "uint256",
          "name": "liquidity",
          "type": "uint256"
        }
      ],
      "stateMutability": "nonpayable",
      "type": "function"
    },
    {
      "inputs": [],
      "name": "name",
      "outputs": [
        {
          "internalType": "string",
          "name": "",
          "type": "string"
        }
      ],
      "stateMutability": "view",
      "type": "function"
    },
    {
      "inputs": [],
      "name": "owner",
      "outputs": [
        {
          "internalType": "address",
          "name": "",
          "type": "address"
        }
      ],
      "stateMutability": "view",
      "type": "function"
    },
    {
      "inputs": [],
      "name": "pegSwap",
      "outputs": [
        {
          "internalType": "address",
          "name": "",
          "type": "address"
        }
      ],
      "stateMutability": "view",
      "type": "function"
    },
    {
      "inputs": [],
      "name": "renounceOwnership",
      "outputs": [],
      "stateMutability": "nonpayable",
      "type": "function"
    },
    {
      "inputs": [
        {
          "internalType": "address",
          "name": "_pegSwap",
          "type": "address"
        }
      ],
      "name": "setPegSwap",
      "outputs": [],
      "stateMutability": "nonpayable",
      "type": "function"
    },
    {
      "inputs": [
        {
          "internalType": "address",
          "name": "to",
          "type": "address"
        },
        {
          "internalType": "bool",
          "name": "direction",
          "type": "bool"
        }
      ],
      "name": "swap",
      "outputs": [],
      "stateMutability": "nonpayable",
      "type": "function"
    },
    {
      "inputs": [],
      "name": "symbol",
      "outputs": [
        {
          "internalType": "string",
          "name": "",
          "type": "string"
        }
      ],
      "stateMutability": "view",
      "type": "function"
    },
    {
      "inputs": [],
      "name": "token0",
      "outputs": [
        {
          "internalType": "address",
          "name": "",
          "type": "address"
        }
      ],
      "stateMutability": "view",
      "type": "function"
    },
    {
      "inputs": [],
      "name": "token1",
      "outputs": [
        {
          "internalType": "address",
          "name": "",
          "type": "address"
        }
      ],
      "stateMutability": "view",
      "type": "function"
    },
    {
      "inputs": [],
      "name": "totalSupply",
      "outputs": [
        {
          "internalType": "uint256",
          "name": "",
          "type": "uint256"
        }
      ],
      "stateMutability": "view",
      "type": "function"
    },
    {
      "inputs": [
        {
          "internalType": "address",
          "name": "recipient",
          "type": "address"
        },
        {
          "internalType": "uint256",
          "name": "amount",
          "type": "uint256"
        }
      ],
      "name": "transfer",
      "outputs": [
        {
          "internalType": "bool",
          "name": "",
          "type": "bool"
        }
      ],
      "stateMutability": "nonpayable",
      "type": "function"
    },
    {
      "inputs": [
        {
          "internalType": "address",
          "name": "sender",
          "type": "address"
        },
        {
          "internalType": "address",
          "name": "recipient",
          "type": "address"
        },
        {
          "internalType": "uint256",
          "name": "amount",
          "type": "uint256"
        }
      ],
      "name": "transferFrom",
      "outputs": [
        {
          "internalType": "bool",
          "name": "",
          "type": "bool"
        }
      ],
      "stateMutability": "nonpayable",
      "type": "function"
    },
    {
      "inputs": [
        {
          "internalType": "address",
          "name": "newOwner",
          "type": "address"
        }
      ],
      "name": "transferOwnership",
      "outputs": [],
      "stateMutability": "nonpayable",
      "type": "function"
    }
  ],
  "transactionHash": "0xc188c01b7953fa2b0c538d803857ae16c61457b9fb31500e1e85c30905bc333b",
  "args": [
    "USDT PegSwapPair",
    "USDT-PSP-ETH"
  ],
  "solcInputHash": "61b4107aa0e6708a3607e390d918e6e2",
  "bytecode": "0x60806040523480156200001157600080fd5b5060405162001cf438038062001cf483398101604081905262000034916200022b565b8151829082906200004d906003906020850190620000d2565b50805162000063906004906020840190620000d2565b505050600062000078620000ce60201b60201c565b600580546001600160a01b0319166001600160a01b038316908117909155604051919250906000907f8be0079c531659141344cd1fd0a4f28419497f9722a3daafe3b4186f6b6457e0908290a3505050620002e5565b3390565b828054620000e09062000292565b90600052602060002090601f0160209004810192826200010457600085556200014f565b82601f106200011f57805160ff19168380011785556200014f565b828001600101855582156200014f579182015b828111156200014f57825182559160200191906001019062000132565b506200015d92915062000161565b5090565b5b808211156200015d576000815560010162000162565b600082601f83011262000189578081fd5b81516001600160401b0380821115620001a657620001a6620002cf565b604051601f8301601f19908116603f01168101908282118183101715620001d157620001d1620002cf565b81604052838152602092508683858801011115620001ed578485fd5b8491505b83821015620002105785820183015181830184015290820190620001f1565b838211156200022157848385830101525b9695505050505050565b600080604083850312156200023e578182fd5b82516001600160401b038082111562000255578384fd5b620002638683870162000178565b9350602085015191508082111562000279578283fd5b50620002888582860162000178565b9150509250929050565b600181811c90821680620002a757607f821691505b60208210811415620002c957634e487b7160e01b600052602260045260246000fd5b50919050565b634e487b7160e01b600052604160045260246000fd5b6119ff80620002f56000396000f3fe608060405234801561001057600080fd5b50600436106101585760003560e01c806370a08231116100c3578063a457c2d71161007c578063a457c2d7146102ea578063a9059cbb146102fd578063ba9a7a5614610310578063d21220a714610319578063dd62ed3e1461032c578063f2fde38b1461036557600080fd5b806370a082311461027a578063715018a6146102a357806389afcb44146102ab5780638da5cb5b146102be57806395d89b41146102cf578063a278d036146102d757600080fd5b806323b872dd1161011557806323b872dd1461020c5780632e6bef331461021f578063313ce567146102325780633950935114610241578063485cc955146102545780636a6278421461026757600080fd5b806306fdde031461015d5780630902f1ac1461017b578063095ea7b3146101975780630dfe1681146101ba57806314681c84146101e557806318160ddd146101fa575b600080fd5b610165610378565b6040516101729190611871565b60405180910390f35b6008546009545b60408051928352602083019190915201610172565b6101aa6101a5366004611814565b61040a565b6040519015158152602001610172565b6006546101cd906001600160a01b031681565b6040516001600160a01b039091168152602001610172565b6101f86101f3366004611757565b610420565b005b6002545b604051908152602001610172565b6101aa61021a3660046117a3565b610475565b600a546101cd906001600160a01b031681565b60405160128152602001610172565b6101aa61024f366004611814565b610526565b6101f8610262366004611771565b61055d565b6101fe610275366004611757565b6105b5565b6101fe610288366004611757565b6001600160a01b031660009081526020819052604090205490565b6101f8610709565b6101826102b9366004611757565b61077d565b6005546001600160a01b03166101cd565b610165610a56565b6101f86102e53660046117de565b610a65565b6101aa6102f8366004611814565b610aeb565b6101aa61030b366004611814565b610b86565b6101fe6103e881565b6007546101cd906001600160a01b031681565b6101fe61033a366004611771565b6001600160a01b03918216600090815260016020908152604080832093909416825291909152205490565b6101f8610373366004611757565b610b93565b60606003805461038790611967565b80601f01602080910402602001604051908101604052809291908181526020018280546103b390611967565b80156104005780601f106103d557610100808354040283529160200191610400565b820191906000526020600020905b8154815290600101906020018083116103e357829003601f168201915b5050505050905090565b6000610417338484610c7e565b50600192915050565b6005546001600160a01b031633146104535760405162461bcd60e51b815260040161044a906118c4565b60405180910390fd5b600a80546001600160a01b0319166001600160a01b0392909216919091179055565b6000610482848484610da3565b6001600160a01b0384166000908152600160209081526040808320338452909152902054828110156105075760405162461bcd60e51b815260206004820152602860248201527f45524332303a207472616e7366657220616d6f756e74206578636565647320616044820152676c6c6f77616e636560c01b606482015260840161044a565b61051b85336105168685611950565b610c7e565b506001949350505050565b3360008181526001602090815260408083206001600160a01b038716845290915281205490916104179185906105169086906118f9565b6005546001600160a01b031633146105875760405162461bcd60e51b815260040161044a906118c4565b600680546001600160a01b039384166001600160a01b03199182161790915560078054929093169116179055565b6000806105c56008546009549091565b506006546040516370a0823160e01b81523060048201529192506000916001600160a01b03909116906370a082319060240160206040518083038186803b15801561060f57600080fd5b505afa158015610623573d6000803e3d6000fd5b505050506040513d601f19601f820116820180604052508101906106479190611859565b905060006106558284610f7b565b9050809350600084116106bd5760405162461bcd60e51b815260206004820152602a60248201527f50656753776170506169723a20696e73756666696369656e74206c69717569646044820152691a5d1e481b5a5b9d195960b21b606482015260840161044a565b6106c78585610f8e565b600882905560405181815233907f0f6798a560793a54c3bcfe86a93cde1e73087d944c0ea20544137d41213968859060200160405180910390a2505050919050565b6005546001600160a01b031633146107335760405162461bcd60e51b815260040161044a906118c4565b6005546040516000916001600160a01b0316907f8be0079c531659141344cd1fd0a4f28419497f9722a3daafe3b4186f6b6457e0908390a3600580546001600160a01b0319169055565b6000806000806107906008546009549091565b6006546007549294509092506001600160a01b03908116911660006107b460025490565b306000908152602081905260409020549091506107db826107d5838961106d565b90611079565b97506107eb826107d5838861106d565b60405163a9059cbb60e01b81526001600160a01b038b81166004830152602482018b90529198509085169063a9059cbb90604401602060405180830381600087803b15801561083957600080fd5b505af115801561084d573d6000803e3d6000fd5b505050506040513d601f19601f82011682018060405250810190610871919061183d565b5060405163a9059cbb60e01b81526001600160a01b038a811660048301526024820189905284169063a9059cbb90604401602060405180830381600087803b1580156108bc57600080fd5b505af11580156108d0573d6000803e3d6000fd5b505050506040513d601f19601f820116820180604052508101906108f4919061183d565b506108ff3082611085565b6040516370a0823160e01b81523060048201526000906001600160a01b038616906370a082319060240160206040518083038186803b15801561094157600080fd5b505afa158015610955573d6000803e3d6000fd5b505050506040513d601f19601f820116820180604052508101906109799190611859565b6040516370a0823160e01b81523060048201529091506000906001600160a01b038616906370a082319060240160206040518083038186803b1580156109be57600080fd5b505afa1580156109d2573d6000803e3d6000fd5b505050506040513d601f19601f820116820180604052508101906109f69190611859565b60088390556009819055604080518c8152602081018c90529192506001600160a01b038d169133917fdccd412f0b1252819cb1fd330b93224ca42612892bb3f4f789976e6d81936496910160405180910390a35050505050505050915091565b60606004805461038790611967565b600a546001600160a01b03163314610acf5760405162461bcd60e51b815260206004820152602760248201527f50656753776170506169723a206f6e6c7920706567537761702063616e20696e6044820152661d9bdad9481a5d60ca1b606482015260840161044a565b8015610ae257610ade826111d4565b5050565b610ade8261149f565b3360009081526001602090815260408083206001600160a01b038616845290915281205482811015610b6d5760405162461bcd60e51b815260206004820152602560248201527f45524332303a2064656372656173656420616c6c6f77616e63652062656c6f77604482015264207a65726f60d81b606482015260840161044a565b610b7c33856105168685611950565b5060019392505050565b6000610417338484610da3565b6005546001600160a01b03163314610bbd5760405162461bcd60e51b815260040161044a906118c4565b6001600160a01b038116610c225760405162461bcd60e51b815260206004820152602660248201527f4f776e61626c653a206e6577206f776e657220697320746865207a65726f206160448201526564647265737360d01b606482015260840161044a565b6005546040516001600160a01b038084169216907f8be0079c531659141344cd1fd0a4f28419497f9722a3daafe3b4186f6b6457e090600090a3600580546001600160a01b0319166001600160a01b0392909216919091179055565b6001600160a01b038316610ce05760405162461bcd60e51b8152602060048201526024808201527f45524332303a20617070726f76652066726f6d20746865207a65726f206164646044820152637265737360e01b606482015260840161044a565b6001600160a01b038216610d415760405162461bcd60e51b815260206004820152602260248201527f45524332303a20617070726f766520746f20746865207a65726f206164647265604482015261737360f01b606482015260840161044a565b6001600160a01b0383811660008181526001602090815260408083209487168084529482529182902085905590518481527f8c5be1e5ebec7d5bd14f71427d1e84f3dd0314c0f7b2291e5b200ac8c7c3b92591015b60405180910390a3505050565b6001600160a01b038316610e075760405162461bcd60e51b815260206004820152602560248201527f45524332303a207472616e736665722066726f6d20746865207a65726f206164604482015264647265737360d81b606482015260840161044a565b6001600160a01b038216610e695760405162461bcd60e51b815260206004820152602360248201527f45524332303a207472616e7366657220746f20746865207a65726f206164647260448201526265737360e81b606482015260840161044a565b6001600160a01b03831660009081526020819052604090205481811015610ee15760405162461bcd60e51b815260206004820152602660248201527f45524332303a207472616e7366657220616d6f756e7420657863656564732062604482015265616c616e636560d01b606482015260840161044a565b610eeb8282611950565b6001600160a01b038086166000908152602081905260408082209390935590851681529081208054849290610f219084906118f9565b92505081905550826001600160a01b0316846001600160a01b03167fddf252ad1be2c89b69c2b068fc378daa952ba7f163c4a11628f55a4df523b3ef84604051610f6d91815260200190565b60405180910390a350505050565b6000610f878284611950565b9392505050565b6001600160a01b038216610fe45760405162461bcd60e51b815260206004820152601f60248201527f45524332303a206d696e7420746f20746865207a65726f206164647265737300604482015260640161044a565b8060026000828254610ff691906118f9565b90915550506001600160a01b038216600090815260208190526040812080548392906110239084906118f9565b90915550506040518181526001600160a01b038316906000907fddf252ad1be2c89b69c2b068fc378daa952ba7f163c4a11628f55a4df523b3ef9060200160405180910390a35050565b6000610f878284611931565b6000610f878284611911565b6001600160a01b0382166110e55760405162461bcd60e51b815260206004820152602160248201527f45524332303a206275726e2066726f6d20746865207a65726f206164647265736044820152607360f81b606482015260840161044a565b6001600160a01b038216600090815260208190526040902054818110156111595760405162461bcd60e51b815260206004820152602260248201527f45524332303a206275726e20616d6f756e7420657863656564732062616c616e604482015261636560f01b606482015260840161044a565b6111638282611950565b6001600160a01b03841660009081526020819052604081209190915560028054849290611191908490611950565b90915550506040518281526000906001600160a01b038516907fddf252ad1be2c89b69c2b068fc378daa952ba7f163c4a11628f55a4df523b3ef90602001610d96565b6000806111e46008546009549091565b6006546007546040516370a0823160e01b81523060048201529395509193506001600160a01b039081169291169060009083906370a082319060240160206040518083038186803b15801561123857600080fd5b505afa15801561124c573d6000803e3d6000fd5b505050506040513d601f19601f820116820180604052508101906112709190611859565b9050600061127e8287610f7b565b9050600081116112ea5760405162461bcd60e51b815260206004820152603160248201527f50656753776170506169723a207377617020616d6f756e742073686f756c6420604482015270062652067726561746572207468616e203607c1b606482015260840161044a565b808510156113445760405162461bcd60e51b815260206004820152602160248201527f50656753776170506169723a20696e7375666669656e74206c697175696469746044820152607960f81b606482015260840161044a565b60405163a9059cbb60e01b81526001600160a01b0388811660048301526024820183905284169063a9059cbb90604401602060405180830381600087803b15801561138e57600080fd5b505af11580156113a2573d6000803e3d6000fd5b505050506040513d601f19601f820116820180604052508101906113c6919061183d565b506040516370a0823160e01b81523060048201526000906001600160a01b038516906370a082319060240160206040518083038186803b15801561140957600080fd5b505afa15801561141d573d6000803e3d6000fd5b505050506040513d601f19601f820116820180604052508101906114419190611859565b6008849055600981905560408051848152602081018590529192506001600160a01b038a169133917f2a9237ff5aa599ef4c5ee4b1142b53429d5755e2685fe6288b2e3320202115f591015b60405180910390a35050505050505050565b6000806114af6008546009549091565b6006546007546040516370a0823160e01b81523060048201529395509193506001600160a01b039081169291169060009082906370a082319060240160206040518083038186803b15801561150357600080fd5b505afa158015611517573d6000803e3d6000fd5b505050506040513d601f19601f8201168201806040525081019061153b9190611859565b905060006115498286610f7b565b9050808610156115925760405162461bcd60e51b8152602060048201526014602482015273496e7375666669656e74206c697175696469747960601b604482015260640161044a565b600081116115ee5760405162461bcd60e51b8152602060048201526024808201527f5377617020616d6f756e742073686f756c6420626520677265617465722074686044820152630616e20360e41b606482015260840161044a565b60405163a9059cbb60e01b81526001600160a01b0388811660048301526024820183905285169063a9059cbb90604401602060405180830381600087803b15801561163857600080fd5b505af115801561164c573d6000803e3d6000fd5b505050506040513d601f19601f82011682018060405250810190611670919061183d565b506040516370a0823160e01b81523060048201526000906001600160a01b038616906370a082319060240160206040518083038186803b1580156116b357600080fd5b505afa1580156116c7573d6000803e3d6000fd5b505050506040513d601f19601f820116820180604052508101906116eb9190611859565b6008819055600984905560408051848152602081018590529192506001600160a01b038a169133917f2a9237ff5aa599ef4c5ee4b1142b53429d5755e2685fe6288b2e3320202115f5910161148d565b80356001600160a01b038116811461175257600080fd5b919050565b600060208284031215611768578081fd5b610f878261173b565b60008060408385031215611783578081fd5b61178c8361173b565b915061179a6020840161173b565b90509250929050565b6000806000606084860312156117b7578081fd5b6117c08461173b565b92506117ce6020850161173b565b9150604084013590509250925092565b600080604083850312156117f0578182fd5b6117f98361173b565b91506020830135611809816119b8565b809150509250929050565b60008060408385031215611826578182fd5b61182f8361173b565b946020939093013593505050565b60006020828403121561184e578081fd5b8151610f87816119b8565b60006020828403121561186a578081fd5b5051919050565b6000602080835283518082850152825b8181101561189d57858101830151858201604001528201611881565b818111156118ae5783604083870101525b50601f01601f1916929092016040019392505050565b6020808252818101527f4f776e61626c653a2063616c6c6572206973206e6f7420746865206f776e6572604082015260600190565b6000821982111561190c5761190c6119a2565b500190565b60008261192c57634e487b7160e01b81526012600452602481fd5b500490565b600081600019048311821515161561194b5761194b6119a2565b500290565b600082821015611962576119626119a2565b500390565b600181811c9082168061197b57607f821691505b6020821081141561199c57634e487b7160e01b600052602260045260246000fd5b50919050565b634e487b7160e01b600052601160045260246000fd5b80151581146119c657600080fd5b5056fea26469706673582212207828d25a515f9a2bfb66ef856db2d55c993ad5f24d270eee9f06082e2fc7092264736f6c63430008040033",
  "devdoc": {
    "kind": "dev",
    "methods": {
      "allowance(address,address)": {
        "details": "See {IERC20-allowance}."
      },
      "approve(address,uint256)": {
        "details": "See {IERC20-approve}. Requirements: - `spender` cannot be the zero address."
      },
      "balanceOf(address)": {
        "details": "See {IERC20-balanceOf}."
      },
      "decimals()": {
        "details": "Returns the number of decimals used to get its user representation. For example, if `decimals` equals `2`, a balance of `505` tokens should be displayed to a user as `5,05` (`505 / 10 ** 2`). Tokens usually opt for a value of 18, imitating the relationship between Ether and Wei. This is the value {ERC20} uses, unless this function is overridden; NOTE: This information is only used for _display_ purposes: it in no way affects any of the arithmetic of the contract, including {IERC20-balanceOf} and {IERC20-transfer}."
      },
      "decreaseAllowance(address,uint256)": {
        "details": "Atomically decreases the allowance granted to `spender` by the caller. This is an alternative to {approve} that can be used as a mitigation for problems described in {IERC20-approve}. Emits an {Approval} event indicating the updated allowance. Requirements: - `spender` cannot be the zero address. - `spender` must have allowance for the caller of at least `subtractedValue`."
      },
      "increaseAllowance(address,uint256)": {
        "details": "Atomically increases the allowance granted to `spender` by the caller. This is an alternative to {approve} that can be used as a mitigation for problems described in {IERC20-approve}. Emits an {Approval} event indicating the updated allowance. Requirements: - `spender` cannot be the zero address."
      },
      "name()": {
        "details": "Returns the name of the token."
      },
      "owner()": {
        "details": "Returns the address of the current owner."
      },
      "renounceOwnership()": {
        "details": "Leaves the contract without owner. It will not be possible to call `onlyOwner` functions anymore. Can only be called by the current owner. NOTE: Renouncing ownership will leave the contract without an owner, thereby removing any functionality that is only available to the owner."
      },
      "symbol()": {
        "details": "Returns the symbol of the token, usually a shorter version of the name."
      },
      "totalSupply()": {
        "details": "See {IERC20-totalSupply}."
      },
      "transfer(address,uint256)": {
        "details": "See {IERC20-transfer}. Requirements: - `recipient` cannot be the zero address. - the caller must have a balance of at least `amount`."
      },
      "transferFrom(address,address,uint256)": {
        "details": "See {IERC20-transferFrom}. Emits an {Approval} event indicating the updated allowance. This is not required by the EIP. See the note at the beginning of {ERC20}. Requirements: - `sender` and `recipient` cannot be the zero address. - `sender` must have a balance of at least `amount`. - the caller must have allowance for ``sender``'s tokens of at least `amount`."
      },
      "transferOwnership(address)": {
        "details": "Transfers ownership of the contract to a new account (`newOwner`). Can only be called by the current owner."
      }
    },
    "version": 1
  },
  "userdoc": {
    "kind": "user",
    "methods": {},
    "version": 1
  },
  "storageLayout": {
    "storage": [
      {
        "astId": 2878,
        "contract": "contracts/pegbridge/PegSwapPair.sol:PegSwapPair",
        "label": "_balances",
        "offset": 0,
        "slot": "0",
        "type": "t_mapping(t_address,t_uint256)"
      },
      {
        "astId": 2884,
        "contract": "contracts/pegbridge/PegSwapPair.sol:PegSwapPair",
        "label": "_allowances",
        "offset": 0,
        "slot": "1",
        "type": "t_mapping(t_address,t_mapping(t_address,t_uint256))"
      },
      {
        "astId": 2886,
        "contract": "contracts/pegbridge/PegSwapPair.sol:PegSwapPair",
        "label": "_totalSupply",
        "offset": 0,
        "slot": "2",
        "type": "t_uint256"
      },
      {
        "astId": 2888,
        "contract": "contracts/pegbridge/PegSwapPair.sol:PegSwapPair",
        "label": "_name",
        "offset": 0,
        "slot": "3",
        "type": "t_string_storage"
      },
      {
        "astId": 2890,
        "contract": "contracts/pegbridge/PegSwapPair.sol:PegSwapPair",
        "label": "_symbol",
        "offset": 0,
        "slot": "4",
        "type": "t_string_storage"
      },
      {
        "astId": 2760,
        "contract": "contracts/pegbridge/PegSwapPair.sol:PegSwapPair",
        "label": "_owner",
        "offset": 0,
        "slot": "5",
        "type": "t_address"
      },
      {
        "astId": 8766,
        "contract": "contracts/pegbridge/PegSwapPair.sol:PegSwapPair",
        "label": "token0",
        "offset": 0,
        "slot": "6",
        "type": "t_address"
      },
      {
        "astId": 8768,
        "contract": "contracts/pegbridge/PegSwapPair.sol:PegSwapPair",
        "label": "token1",
        "offset": 0,
        "slot": "7",
        "type": "t_address"
      },
      {
        "astId": 8770,
        "contract": "contracts/pegbridge/PegSwapPair.sol:PegSwapPair",
        "label": "reserve0",
        "offset": 0,
        "slot": "8",
        "type": "t_uint256"
      },
      {
        "astId": 8772,
        "contract": "contracts/pegbridge/PegSwapPair.sol:PegSwapPair",
        "label": "reserve1",
        "offset": 0,
        "slot": "9",
        "type": "t_uint256"
      },
      {
        "astId": 8774,
        "contract": "contracts/pegbridge/PegSwapPair.sol:PegSwapPair",
        "label": "pegSwap",
        "offset": 0,
        "slot": "10",
        "type": "t_address"
      }
    ],
    "types": {
      "t_address": {
        "encoding": "inplace",
        "label": "address",
        "numberOfBytes": "20"
      },
      "t_mapping(t_address,t_mapping(t_address,t_uint256))": {
        "encoding": "mapping",
        "key": "t_address",
        "label": "mapping(address => mapping(address => uint256))",
        "numberOfBytes": "32",
        "value": "t_mapping(t_address,t_uint256)"
      },
      "t_mapping(t_address,t_uint256)": {
        "encoding": "mapping",
        "key": "t_address",
        "label": "mapping(address => uint256)",
        "numberOfBytes": "32",
        "value": "t_uint256"
      },
      "t_string_storage": {
        "encoding": "bytes",
        "label": "string",
        "numberOfBytes": "32"
      },
      "t_uint256": {
        "encoding": "inplace",
        "label": "uint256",
        "numberOfBytes": "32"
      }
    }
  }
}