{
  "address": "0xCf7Ed3AccA5a467e9e704C703E8D87F634fB0Fc9",
  "abi": [
    {
      "inputs": [
        {
          "internalType": "address",
          "name": "_feeToDev",
          "type": "address"
        }
      ],
      "stateMutability": "nonpayable",
      "type": "constructor"
    },
    {
      "anonymous": false,
      "inputs": [
        {
          "indexed": false,
          "internalType": "address",
          "name": "token0",
          "type": "address"
        },
        {
          "indexed": false,
          "internalType": "address",
          "name": "token1",
          "type": "address"
        },
        {
          "indexed": false,
          "internalType": "uint256",
          "name": "chainID0",
          "type": "uint256"
        },
        {
          "indexed": false,
          "internalType": "uint256",
          "name": "chainID1",
          "type": "uint256"
        },
        {
          "indexed": false,
          "internalType": "address",
          "name": "from",
          "type": "address"
        },
        {
          "indexed": false,
          "internalType": "address",
          "name": "to",
          "type": "address"
        },
        {
          "indexed": false,
          "internalType": "uint256",
          "name": "amount",
          "type": "uint256"
        }
      ],
      "name": "CrossBurn",
      "type": "event"
    },
    {
      "anonymous": false,
      "inputs": [
        {
          "indexed": false,
          "internalType": "address",
          "name": "token",
          "type": "address"
        },
        {
          "indexed": false,
          "internalType": "uint256",
          "name": "chainID",
          "type": "uint256"
        },
        {
          "indexed": false,
          "internalType": "uint256",
          "name": "feeAmount",
          "type": "uint256"
        },
        {
          "indexed": false,
          "internalType": "uint256",
          "name": "feeRatio",
          "type": "uint256"
        }
      ],
      "name": "FeeChange",
      "type": "event"
    },
    {
      "anonymous": false,
      "inputs": [
        {
          "indexed": false,
          "internalType": "address",
          "name": "token",
          "type": "address"
        },
        {
          "indexed": false,
          "internalType": "uint256",
          "name": "chainID",
          "type": "uint256"
        },
        {
          "indexed": false,
          "internalType": "address",
          "name": "account",
          "type": "address"
        }
      ],
      "name": "FeeToChanged",
      "type": "event"
    },
    {
      "anonymous": false,
      "inputs": [
        {
          "indexed": false,
          "internalType": "address",
          "name": "token",
          "type": "address"
        },
        {
          "indexed": false,
          "internalType": "uint256",
          "name": "chainID",
          "type": "uint256"
        },
        {
          "indexed": false,
          "internalType": "address",
          "name": "account",
          "type": "address"
        }
      ],
      "name": "FeeToRemoved",
      "type": "event"
    },
    {
      "anonymous": false,
      "inputs": [
        {
          "indexed": false,
          "internalType": "address",
          "name": "token0",
          "type": "address"
        },
        {
          "indexed": false,
          "internalType": "address",
          "name": "token1",
          "type": "address"
        },
        {
          "indexed": false,
          "internalType": "uint256",
          "name": "chainID0",
          "type": "uint256"
        },
        {
          "indexed": false,
          "internalType": "uint256",
          "name": "chainID1",
          "type": "uint256"
        },
        {
          "indexed": false,
          "internalType": "address",
          "name": "from",
          "type": "address"
        },
        {
          "indexed": false,
          "internalType": "address",
          "name": "to",
          "type": "address"
        },
        {
          "indexed": false,
          "internalType": "uint256",
          "name": "amount",
          "type": "uint256"
        }
      ],
      "name": "Lock",
      "type": "event"
    },
    {
      "anonymous": false,
      "inputs": [
        {
          "indexed": false,
          "internalType": "address",
          "name": "token",
          "type": "address"
        },
        {
          "indexed": false,
          "internalType": "address",
          "name": "from",
          "type": "address"
        },
        {
          "indexed": false,
          "internalType": "address",
          "name": "to",
          "type": "address"
        },
        {
          "indexed": false,
          "internalType": "uint256",
          "name": "amount",
          "type": "uint256"
        },
        {
          "indexed": false,
          "internalType": "address",
          "name": "proposer",
          "type": "address"
        },
        {
          "indexed": false,
          "internalType": "uint256",
          "name": "count",
          "type": "uint256"
        },
        {
          "indexed": false,
          "internalType": "uint256",
          "name": "threshold",
          "type": "uint256"
        }
      ],
      "name": "ProposalVoted",
      "type": "event"
    },
    {
      "anonymous": false,
      "inputs": [
        {
          "indexed": true,
          "internalType": "bytes32",
          "name": "role",
          "type": "bytes32"
        },
        {
          "indexed": true,
          "internalType": "bytes32",
          "name": "previousAdminRole",
          "type": "bytes32"
        },
        {
          "indexed": true,
          "internalType": "bytes32",
          "name": "newAdminRole",
          "type": "bytes32"
        }
      ],
      "name": "RoleAdminChanged",
      "type": "event"
    },
    {
      "anonymous": false,
      "inputs": [
        {
          "indexed": true,
          "internalType": "bytes32",
          "name": "role",
          "type": "bytes32"
        },
        {
          "indexed": true,
          "internalType": "address",
          "name": "account",
          "type": "address"
        },
        {
          "indexed": true,
          "internalType": "address",
          "name": "sender",
          "type": "address"
        }
      ],
      "name": "RoleGranted",
      "type": "event"
    },
    {
      "anonymous": false,
      "inputs": [
        {
          "indexed": true,
          "internalType": "bytes32",
          "name": "role",
          "type": "bytes32"
        },
        {
          "indexed": true,
          "internalType": "address",
          "name": "account",
          "type": "address"
        },
        {
          "indexed": true,
          "internalType": "address",
          "name": "sender",
          "type": "address"
        }
      ],
      "name": "RoleRevoked",
      "type": "event"
    },
    {
      "anonymous": false,
      "inputs": [
        {
          "indexed": false,
          "internalType": "address",
          "name": "token0",
          "type": "address"
        },
        {
          "indexed": false,
          "internalType": "address",
          "name": "token1",
          "type": "address"
        },
        {
          "indexed": false,
          "internalType": "uint256",
          "name": "chainID0",
          "type": "uint256"
        },
        {
          "indexed": false,
          "internalType": "uint256",
          "name": "chainID1",
          "type": "uint256"
        },
        {
          "indexed": false,
          "internalType": "address",
          "name": "from",
          "type": "address"
        },
        {
          "indexed": false,
          "internalType": "address",
          "name": "to",
          "type": "address"
        },
        {
          "indexed": false,
          "internalType": "uint256",
          "name": "amount",
          "type": "uint256"
        },
        {
          "indexed": false,
          "internalType": "string",
          "name": "txid",
          "type": "string"
        }
      ],
      "name": "Rollback",
      "type": "event"
    },
    {
      "anonymous": false,
      "inputs": [
        {
          "indexed": false,
          "internalType": "address",
          "name": "token0",
          "type": "address"
        },
        {
          "indexed": false,
          "internalType": "address",
          "name": "from",
          "type": "address"
        },
        {
          "indexed": false,
          "internalType": "uint256",
          "name": "amount",
          "type": "uint256"
        },
        {
          "indexed": false,
          "internalType": "string",
          "name": "txid",
          "type": "string"
        }
      ],
      "name": "Rollbacked",
      "type": "event"
    },
    {
      "anonymous": false,
      "inputs": [
        {
          "indexed": false,
          "internalType": "address",
          "name": "token",
          "type": "address"
        },
        {
          "indexed": false,
          "internalType": "uint256",
          "name": "oldThreshold",
          "type": "uint256"
        },
        {
          "indexed": false,
          "internalType": "uint256",
          "name": "newThreshold",
          "type": "uint256"
        }
      ],
      "name": "ThresholdChanged",
      "type": "event"
    },
    {
      "anonymous": false,
      "inputs": [
        {
          "indexed": false,
          "internalType": "address",
          "name": "token0",
          "type": "address"
        },
        {
          "indexed": false,
          "internalType": "address",
          "name": "token1",
          "type": "address"
        },
        {
          "indexed": false,
          "internalType": "uint256",
          "name": "chianID0",
          "type": "uint256"
        },
        {
          "indexed": false,
          "internalType": "uint256",
          "name": "chainID1",
          "type": "uint256"
        },
        {
          "indexed": false,
          "internalType": "address",
          "name": "from",
          "type": "address"
        },
        {
          "indexed": false,
          "internalType": "address",
          "name": "to",
          "type": "address"
        },
        {
          "indexed": false,
          "internalType": "uint256",
          "name": "amount",
          "type": "uint256"
        },
        {
          "indexed": false,
          "internalType": "string",
          "name": "txid",
          "type": "string"
        }
      ],
      "name": "Unlock",
      "type": "event"
    },
    {
      "inputs": [],
      "name": "CROSSER_ROLE",
      "outputs": [
        {
          "internalType": "bytes32",
          "name": "",
          "type": "bytes32"
        }
      ],
      "stateMutability": "view",
      "type": "function"
    },
    {
      "inputs": [],
      "name": "DEFAULT_ADMIN_ROLE",
      "outputs": [
        {
          "internalType": "bytes32",
          "name": "",
          "type": "bytes32"
        }
      ],
      "stateMutability": "view",
      "type": "function"
    },
    {
      "inputs": [
        {
          "internalType": "address",
          "name": "token0",
          "type": "address"
        },
        {
          "internalType": "uint256",
          "name": "chainID",
          "type": "uint256"
        },
        {
          "internalType": "uint256",
          "name": "amount",
          "type": "uint256"
        },
        {
          "internalType": "address",
          "name": "to",
          "type": "address"
        }
      ],
      "name": "addLiquidity",
      "outputs": [
        {
          "internalType": "uint256",
          "name": "liquidity",
          "type": "uint256"
        }
      ],
      "stateMutability": "nonpayable",
      "type": "function"
    },
    {
      "inputs": [
        {
          "internalType": "address",
          "name": "token",
          "type": "address"
        },
        {
          "internalType": "address",
          "name": "pair",
          "type": "address"
        },
        {
          "internalType": "uint256",
          "name": "chainID",
          "type": "uint256"
        }
      ],
      "name": "addPair",
      "outputs": [],
      "stateMutability": "nonpayable",
      "type": "function"
    },
    {
      "inputs": [
        {
          "internalType": "address",
          "name": "token0",
          "type": "address"
        },
        {
          "internalType": "address",
          "name": "token1",
          "type": "address"
        },
        {
          "internalType": "uint256",
          "name": "chainID",
          "type": "uint256"
        }
      ],
      "name": "addSupportToken",
      "outputs": [],
      "stateMutability": "nonpayable",
      "type": "function"
    },
    {
      "inputs": [
        {
          "internalType": "address[]",
          "name": "token0s",
          "type": "address[]"
        },
        {
          "internalType": "address[]",
          "name": "token1s",
          "type": "address[]"
        },
        {
          "internalType": "uint256[]",
          "name": "chainIDs",
          "type": "uint256[]"
        }
      ],
      "name": "addSupportTokens",
      "outputs": [],
      "stateMutability": "nonpayable",
      "type": "function"
    },
    {
      "inputs": [
        {
          "internalType": "address",
          "name": "token",
          "type": "address"
        },
        {
          "internalType": "uint256",
          "name": "chainID",
          "type": "uint256"
        },
        {
          "internalType": "uint256",
          "name": "amount",
          "type": "uint256"
        }
      ],
      "name": "calculateFee",
      "outputs": [
        {
          "internalType": "uint256",
          "name": "feeAmountFix",
          "type": "uint256"
        },
        {
          "internalType": "uint256",
          "name": "feeAmountRatio",
          "type": "uint256"
        },
        {
          "internalType": "uint256",
          "name": "remainAmount",
          "type": "uint256"
        }
      ],
      "stateMutability": "view",
      "type": "function"
    },
    {
      "inputs": [
        {
          "internalType": "address",
          "name": "token",
          "type": "address"
        },
        {
          "internalType": "uint256",
          "name": "chainID",
          "type": "uint256"
        },
        {
          "internalType": "uint256",
          "name": "amount",
          "type": "uint256"
        }
      ],
      "name": "calculateRemoveFee",
      "outputs": [
        {
          "internalType": "uint256",
          "name": "feeAmount",
          "type": "uint256"
        },
        {
          "internalType": "uint256",
          "name": "remainAmount",
          "type": "uint256"
        }
      ],
      "stateMutability": "view",
      "type": "function"
    },
    {
      "inputs": [
        {
          "internalType": "address",
          "name": "token0",
          "type": "address"
        },
        {
          "internalType": "uint256",
          "name": "chainID",
          "type": "uint256"
        },
        {
          "internalType": "address",
          "name": "from",
          "type": "address"
        },
        {
          "internalType": "address",
          "name": "to",
          "type": "address"
        },
        {
          "internalType": "uint256",
          "name": "amount",
          "type": "uint256"
        },
        {
          "internalType": "string",
          "name": "txid",
          "type": "string"
        }
      ],
      "name": "crossIn",
      "outputs": [],
      "stateMutability": "nonpayable",
      "type": "function"
    },
    {
      "inputs": [
        {
          "internalType": "address",
          "name": "token0",
          "type": "address"
        },
        {
          "internalType": "uint256",
          "name": "chainID",
          "type": "uint256"
        },
        {
          "internalType": "address",
          "name": "to",
          "type": "address"
        },
        {
          "internalType": "uint256",
          "name": "amount",
          "type": "uint256"
        }
      ],
      "name": "crossOut",
      "outputs": [],
      "stateMutability": "nonpayable",
      "type": "function"
    },
    {
      "inputs": [
        {
          "internalType": "address",
          "name": "",
          "type": "address"
        },
        {
          "internalType": "uint256",
          "name": "",
          "type": "uint256"
        }
      ],
      "name": "feeAmountM",
      "outputs": [
        {
          "internalType": "uint256",
          "name": "",
          "type": "uint256"
        }
      ],
      "stateMutability": "view",
      "type": "function"
    },
    {
      "inputs": [
        {
          "internalType": "address",
          "name": "",
          "type": "address"
        },
        {
          "internalType": "uint256",
          "name": "",
          "type": "uint256"
        }
      ],
      "name": "feeRatioM",
      "outputs": [
        {
          "internalType": "uint256",
          "name": "",
          "type": "uint256"
        }
      ],
      "stateMutability": "view",
      "type": "function"
    },
    {
      "inputs": [
        {
          "internalType": "address",
          "name": "",
          "type": "address"
        },
        {
          "internalType": "uint256",
          "name": "",
          "type": "uint256"
        }
      ],
      "name": "feeTo",
      "outputs": [
        {
          "internalType": "address",
          "name": "",
          "type": "address"
        }
      ],
      "stateMutability": "view",
      "type": "function"
    },
    {
      "inputs": [],
      "name": "feeToDev",
      "outputs": [
        {
          "internalType": "address",
          "name": "",
          "type": "address"
        }
      ],
      "stateMutability": "view",
      "type": "function"
    },
    {
      "inputs": [
        {
          "internalType": "address",
          "name": "token0",
          "type": "address"
        },
        {
          "internalType": "uint256",
          "name": "chainID",
          "type": "uint256"
        }
      ],
      "name": "getMaxToken0AmountOut",
      "outputs": [
        {
          "internalType": "uint256",
          "name": "",
          "type": "uint256"
        }
      ],
      "stateMutability": "view",
      "type": "function"
    },
    {
      "inputs": [
        {
          "internalType": "address",
          "name": "token0",
          "type": "address"
        },
        {
          "internalType": "uint256",
          "name": "chainID",
          "type": "uint256"
        }
      ],
      "name": "getMaxToken1AmountOut",
      "outputs": [
        {
          "internalType": "uint256",
          "name": "",
          "type": "uint256"
        }
      ],
      "stateMutability": "view",
      "type": "function"
    },
    {
      "inputs": [
        {
          "internalType": "bytes32",
          "name": "role",
          "type": "bytes32"
        }
      ],
      "name": "getRoleAdmin",
      "outputs": [
        {
          "internalType": "bytes32",
          "name": "",
          "type": "bytes32"
        }
      ],
      "stateMutability": "view",
      "type": "function"
    },
    {
      "inputs": [
        {
          "internalType": "bytes32",
          "name": "role",
          "type": "bytes32"
        },
        {
          "internalType": "address",
          "name": "account",
          "type": "address"
        }
      ],
      "name": "grantRole",
      "outputs": [],
      "stateMutability": "nonpayable",
      "type": "function"
    },
    {
      "inputs": [
        {
          "internalType": "bytes32",
          "name": "role",
          "type": "bytes32"
        },
        {
          "internalType": "address",
          "name": "account",
          "type": "address"
        }
      ],
      "name": "hasRole",
      "outputs": [
        {
          "internalType": "bool",
          "name": "",
          "type": "bool"
        }
      ],
      "stateMutability": "view",
      "type": "function"
    },
    {
      "inputs": [
        {
          "internalType": "address",
          "name": "",
          "type": "address"
        },
        {
          "internalType": "uint256",
          "name": "",
          "type": "uint256"
        }
      ],
      "name": "pairs",
      "outputs": [
        {
          "internalType": "address",
          "name": "",
          "type": "address"
        }
      ],
      "stateMutability": "view",
      "type": "function"
    },
    {
      "inputs": [
        {
          "internalType": "address",
          "name": "",
          "type": "address"
        },
        {
          "internalType": "uint256",
          "name": "",
          "type": "uint256"
        }
      ],
      "name": "removeFeeAmount",
      "outputs": [
        {
          "internalType": "uint256",
          "name": "",
          "type": "uint256"
        }
      ],
      "stateMutability": "view",
      "type": "function"
    },
    {
      "inputs": [
        {
          "internalType": "address",
          "name": "token0",
          "type": "address"
        },
        {
          "internalType": "uint256",
          "name": "chainID",
          "type": "uint256"
        },
        {
          "internalType": "uint256",
          "name": "lpAmount",
          "type": "uint256"
        },
        {
          "internalType": "address",
          "name": "to",
          "type": "address"
        }
      ],
      "name": "removeLiquidity",
      "outputs": [
        {
          "internalType": "uint256",
          "name": "amount0",
          "type": "uint256"
        },
        {
          "internalType": "uint256",
          "name": "amount1",
          "type": "uint256"
        }
      ],
      "stateMutability": "nonpayable",
      "type": "function"
    },
    {
      "inputs": [
        {
          "internalType": "address",
          "name": "token",
          "type": "address"
        },
        {
          "internalType": "uint256",
          "name": "chainID",
          "type": "uint256"
        }
      ],
      "name": "removePair",
      "outputs": [],
      "stateMutability": "nonpayable",
      "type": "function"
    },
    {
      "inputs": [
        {
          "internalType": "address",
          "name": "token0",
          "type": "address"
        },
        {
          "internalType": "uint256",
          "name": "chainID",
          "type": "uint256"
        }
      ],
      "name": "removeSupportToken",
      "outputs": [],
      "stateMutability": "nonpayable",
      "type": "function"
    },
    {
      "inputs": [
        {
          "internalType": "address[]",
          "name": "token0s",
          "type": "address[]"
        },
        {
          "internalType": "uint256[]",
          "name": "chainIDs",
          "type": "uint256[]"
        }
      ],
      "name": "removeSupportTokens",
      "outputs": [],
      "stateMutability": "nonpayable",
      "type": "function"
    },
    {
      "inputs": [
        {
          "internalType": "bytes32",
          "name": "role",
          "type": "bytes32"
        },
        {
          "internalType": "address",
          "name": "account",
          "type": "address"
        }
      ],
      "name": "renounceRole",
      "outputs": [],
      "stateMutability": "nonpayable",
      "type": "function"
    },
    {
      "inputs": [
        {
          "internalType": "bytes32",
          "name": "role",
          "type": "bytes32"
        },
        {
          "internalType": "address",
          "name": "account",
          "type": "address"
        }
      ],
      "name": "revokeRole",
      "outputs": [],
      "stateMutability": "nonpayable",
      "type": "function"
    },
    {
      "inputs": [
        {
          "internalType": "address",
          "name": "token0",
          "type": "address"
        },
        {
          "internalType": "uint256",
          "name": "chainID",
          "type": "uint256"
        },
        {
          "internalType": "address",
          "name": "from",
          "type": "address"
        },
        {
          "internalType": "uint256",
          "name": "amount",
          "type": "uint256"
        },
        {
          "internalType": "string",
          "name": "txid",
          "type": "string"
        }
      ],
      "name": "rollback",
      "outputs": [],
      "stateMutability": "nonpayable",
      "type": "function"
    },
    {
      "inputs": [
        {
          "internalType": "address",
          "name": "token0",
          "type": "address"
        },
        {
          "internalType": "uint256",
          "name": "chainID",
          "type": "uint256"
        },
        {
          "internalType": "uint256",
          "name": "feeAmount",
          "type": "uint256"
        },
        {
          "internalType": "uint256",
          "name": "feeRatio",
          "type": "uint256"
        }
      ],
      "name": "setFee",
      "outputs": [],
      "stateMutability": "nonpayable",
      "type": "function"
    },
    {
      "inputs": [
        {
          "internalType": "address",
          "name": "account",
          "type": "address"
        }
      ],
      "name": "setFeeToDev",
      "outputs": [],
      "stateMutability": "nonpayable",
      "type": "function"
    },
    {
      "inputs": [
        {
          "internalType": "address",
          "name": "token0",
          "type": "address"
        },
        {
          "internalType": "uint256",
          "name": "chainID",
          "type": "uint256"
        },
        {
          "internalType": "uint256",
          "name": "_feeAmount",
          "type": "uint256"
        }
      ],
      "name": "setRemoveFee",
      "outputs": [],
      "stateMutability": "nonpayable",
      "type": "function"
    },
    {
      "inputs": [
        {
          "internalType": "address",
          "name": "token",
          "type": "address"
        },
        {
          "internalType": "uint256",
          "name": "_threshold",
          "type": "uint256"
        }
      ],
      "name": "setThreshold",
      "outputs": [],
      "stateMutability": "nonpayable",
      "type": "function"
    },
    {
      "inputs": [
        {
          "internalType": "address",
          "name": "_feePool",
          "type": "address"
        }
      ],
      "name": "setTwoWayFeePool",
      "outputs": [],
      "stateMutability": "nonpayable",
      "type": "function"
    },
    {
      "inputs": [
        {
          "internalType": "address",
          "name": "",
          "type": "address"
        },
        {
          "internalType": "uint256",
          "name": "",
          "type": "uint256"
        }
      ],
      "name": "supportToken",
      "outputs": [
        {
          "internalType": "address",
          "name": "",
          "type": "address"
        }
      ],
      "stateMutability": "view",
      "type": "function"
    },
    {
      "inputs": [
        {
          "internalType": "bytes4",
          "name": "interfaceId",
          "type": "bytes4"
        }
      ],
      "name": "supportsInterface",
      "outputs": [
        {
          "internalType": "bool",
          "name": "",
          "type": "bool"
        }
      ],
      "stateMutability": "view",
      "type": "function"
    },
    {
      "inputs": [
        {
          "internalType": "address",
          "name": "",
          "type": "address"
        }
      ],
      "name": "threshold",
      "outputs": [
        {
          "internalType": "uint256",
          "name": "",
          "type": "uint256"
        }
      ],
      "stateMutability": "view",
      "type": "function"
    },
    {
      "inputs": [],
      "name": "twoWayFeePool",
      "outputs": [
        {
          "internalType": "contract ITwoWayFeePool",
          "name": "",
          "type": "address"
        }
      ],
      "stateMutability": "view",
      "type": "function"
    },
    {
      "inputs": [
        {
          "internalType": "string",
          "name": "",
          "type": "string"
        }
      ],
      "name": "txMinted",
      "outputs": [
        {
          "internalType": "bool",
          "name": "",
          "type": "bool"
        }
      ],
      "stateMutability": "view",
      "type": "function"
    },
    {
      "inputs": [
        {
          "internalType": "string",
          "name": "",
          "type": "string"
        }
      ],
      "name": "txRollbacked",
      "outputs": [
        {
          "internalType": "bool",
          "name": "",
          "type": "bool"
        }
      ],
      "stateMutability": "view",
      "type": "function"
    },
    {
      "inputs": [
        {
          "internalType": "string",
          "name": "",
          "type": "string"
        }
      ],
      "name": "txUnlocked",
      "outputs": [
        {
          "internalType": "bool",
          "name": "",
          "type": "bool"
        }
      ],
      "stateMutability": "view",
      "type": "function"
    },
    {
      "inputs": [
        {
          "internalType": "address",
          "name": "token0",
          "type": "address"
        },
        {
          "internalType": "uint256",
          "name": "chainID",
          "type": "uint256"
        },
        {
          "internalType": "address",
          "name": "from",
          "type": "address"
        },
        {
          "internalType": "address",
          "name": "to",
          "type": "address"
        },
        {
          "internalType": "uint256",
          "name": "amount",
          "type": "uint256"
        },
        {
          "internalType": "string",
          "name": "txid",
          "type": "string"
        }
      ],
      "name": "unlock",
      "outputs": [],
      "stateMutability": "nonpayable",
      "type": "function"
    }
  ],
  "transactionHash": "0xd82b711f6cf7d5bea52b91fdec9fcf001df2964cdba8ee2eba381d79cfa857aa",
  "args": [
    "0xf39Fd6e51aad88F6F4ce6aB8827279cffFb92266"
  ],
  "solcInputHash": "2fd1e821dd6b8596ade15d5cef4066fc",
  "bytecode": "0x60806040523480156200001157600080fd5b506040516200321f3803806200321f833981016040819052620000349162000117565b600980546001600160a01b0319166001600160a01b0383161790556200005c60003362000063565b5062000147565b6200006f828262000073565b5050565b60008281526004602090815260408083206001600160a01b038516845290915290205460ff166200006f5760008281526004602090815260408083206001600160a01b03851684529091529020805460ff19166001179055620000d33390565b6001600160a01b0316816001600160a01b0316837f2f8788117e7eff1d82e926ec794901d17c78024a50270940304540a733656f0d60405160405180910390a45050565b60006020828403121562000129578081fd5b81516001600160a01b038116811462000140578182fd5b9392505050565b6130c880620001576000396000f3fe608060405234801561001057600080fd5b50600436106102535760003560e01c806391d1485411610146578063be90c71b116100c3578063d692f4c511610087578063d692f4c514610646578063db697be41461067a578063df7e600a146106ae578063ee8a6acf146106c1578063f06410f8146106d4578063f8f8d5c0146106e757600080fd5b8063be90c71b146105c1578063c369c773146105d4578063c86ec2bf14610600578063cf28f67c14610620578063d547741f1461063357600080fd5b8063a217fddf1161010a578063a217fddf1461056d578063a5597a9414610575578063a90cb7ab14610588578063af78881f1461059b578063b5acfa62146105ae57600080fd5b806391d14854146104db578063934ac707146104ee578063967145af146105015780639c8d70be1461052f5780639d8799901461055a57600080fd5b80632f2ff15d116101d45780635cb0c1fb116101985780635cb0c1fb146104375780636407894314610462578063715ec45c1461048d57806381660f5d146104a05780638fed0b2c146104b357600080fd5b80632f2ff15d146103ba57806336568abe146103cd57806353ad72e5146103e057806356cf02d91461040e57806356ecaeb71461042457600080fd5b806310c274021161021b57806310c274021461032257806312fef692146103505780631b322be414610371578063248a9ca3146103845780632599c037146103a757600080fd5b806301ffc9a7146102585780630324ef9c1461028057806303507ba5146102ae57806303d40513146102c3578063100be3bd1461030f575b600080fd5b61026b610266366004612adf565b6106fa565b60405190151581526020015b60405180910390f35b61029361028e3660046128e8565b610731565b60408051938452602084019290925290820152606001610277565b6102c16102bc366004612a1b565b610797565b005b6102f76102d136600461278d565b600f6020908152600092835260408084209091529082529020546001600160a01b031681565b6040516001600160a01b039091168152602001610277565b6009546102f7906001600160a01b031681565b61026b610330366004612b07565b8051602081830181018051600b8252928201919093012091525460ff1681565b61036361035e36600461291a565b61083c565b604051908152602001610277565b6102c161037f366004612752565b610940565b610363610392366004612a9c565b60009081526004602052604090206001015490565b6102c16103b536600461278d565b610a12565b6102c16103c8366004612ab4565b610ad4565b6102c16103db366004612ab4565b610afa565b61026b6103ee366004612b07565b8051602081830181018051600d8252928201919093012091525460ff1681565b6103636b43524f535345525f524f4c4560a01b81565b61036361043236600461278d565b610b78565b61036361044536600461278d565b600760209081526000928352604080842090915290825290205481565b61036361047036600461278d565b600560209081526000928352604080842090915290825290205481565b6102c161049b3660046127b6565b610c1a565b6102c16104ae366004612878565b610dd3565b6104c66104c136600461291a565b610f5d565b60408051928352602083019190915201610277565b61026b6104e9366004612ab4565b6111bc565b6103636104fc36600461278d565b6111e7565b61026b61050f366004612b07565b8051602081830181018051600c8252928201919093012091525460ff1681565b61036361053d36600461278d565b600660209081526000928352604080842090915290825290205481565b6102c161056836600461278d565b611289565b610363600081565b6102c16105833660046128e8565b6112ba565b6102c1610596366004612738565b611308565b600e546102f7906001600160a01b031681565b6102c16105bc366004612752565b611351565b6104c66105cf3660046128e8565b611423565b6102c16105e2366004612738565b600980546001600160a01b0319166001600160a01b03831617905550565b61036361060e366004612738565b60006020819052908152604090205481565b6102c161062e3660046127b6565b6114c4565b6102c1610641366004612ab4565b611713565b6102f761065436600461278d565b600a6020908152600092835260408084209091529082529020546001600160a01b031681565b6102f761068836600461278d565b60086020908152600092835260408084209091529082529020546001600160a01b031681565b6102c16106bc366004612835565b611739565b6102c16106cf366004612997565b611999565b6102c16106e236600461295f565b611aaf565b6102c16106f536600461278d565b611ae2565b60006001600160e01b03198216637965db0b60e01b148061072b57506301ffc9a760e01b6001600160e01b03198316145b92915050565b6001600160a01b03831660008181526005602090815260408083208684528252808320549383526006825280832086845290915281205481906107748582611bae565b9250826107818587612ff1565b61078b9190612ff1565b91505093509350939050565b80518251146107c15760405162461bcd60e51b81526004016107b890612d74565b60405180910390fd5b60005b8251811015610837576108258382815181106107f057634e487b7160e01b600052603260045260246000fd5b602002602001015183838151811061081857634e487b7160e01b600052603260045260246000fd5b6020026020010151611ae2565b8061082f8161304b565b9150506107c4565b505050565b6001600160a01b038085166000908152600a60209081526040808320878452909152812054909186918691166108845760405162461bcd60e51b81526004016107b890612e23565b6001600160a01b038088166000818152600f602090815260408083208b8452909152902054909116906108b990338389611bd7565b6040516335313c2160e11b81526001600160a01b038681166004830152821690636a62784290602401602060405180830381600087803b1580156108fc57600080fd5b505af1158015610910573d6000803e3d6000fd5b505050506040513d601f19601f820116820180604052508101906109349190612b3a565b98975050505050505050565b61094b6000336111bc565b6109675760405162461bcd60e51b81526004016107b890612dec565b6001600160a01b038381166000908152600a6020908152604080832085845290915290205416156109da5760405162461bcd60e51b815260206004820152601e60248201527f54776f5761793a20546f6b6520616c726561647920537570706f72746564000060448201526064016107b8565b6001600160a01b039283166000908152600a602090815260408083209383529290522080546001600160a01b03191691909216179055565b610a1d6000336111bc565b610a395760405162461bcd60e51b81526004016107b890612dec565b6001600160a01b038281166000908152600f6020908152604080832085845290915290205416610aa15760405162461bcd60e51b81526020600482015260136024820152721d1bdad95b881b9bdd081cdd5c1c1bdc9d1959606a1b60448201526064016107b8565b6001600160a01b039091166000908152600f602090815260408083209383529290522080546001600160a01b0319169055565b600082815260046020526040902060010154610af08133611c42565b6108378383611ca6565b6001600160a01b0381163314610b6a5760405162461bcd60e51b815260206004820152602f60248201527f416363657373436f6e74726f6c3a2063616e206f6e6c792072656e6f756e636560448201526e103937b632b9903337b91039b2b63360891b60648201526084016107b8565b610b748282611d2c565b5050565b6001600160a01b038083166000908152600f60209081526040808320858452909152808220548151630240bc6b60e21b815282519394919091169284928492630902f1ac9260048083019392829003018186803b158015610bd857600080fd5b505afa158015610bec573d6000803e3d6000fd5b505050506040513d601f19601f82011682018060405250810190610c109190612b52565b9695505050505050565b6001600160a01b038087166000908152600a602090815260408083208984529091529020548791879116610c605760405162461bcd60e51b81526004016107b890612e23565b610c796b43524f535345525f524f4c4560a01b336111bc565b610c955760405162461bcd60e51b81526004016107b890612db5565b82600c81604051610ca69190612bfa565b9081526040519081900360200190205460ff1615610cfc5760405162461bcd60e51b8152602060048201526013602482015272151ddbd5d85e4e881d1e081d5b9b1bd8dad959606a1b60448201526064016107b8565b6000610d0b8a89898989611d93565b90508015610dc7576001600c86604051610d259190612bfa565b908152604051908190036020019020805491151560ff19909216919091179055610d596001600160a01b038b16888861201b565b6001600160a01b03808b166000908152600a602090815260408083208d8452909152908190205490517fe8a9cddb11d86358ad5c2fdd6359f0a6f41de0d399033319becf1364409dacbc92610dbe928e9291169046908e908e908e908e908e90612d00565b60405180910390a15b50505050505050505050565b6001600160a01b038086166000908152600a602090815260408083208884529091529020548691869116610e195760405162461bcd60e51b81526004016107b890612e23565b610e326b43524f535345525f524f4c4560a01b336111bc565b610e4e5760405162461bcd60e51b81526004016107b890612db5565b82600d81604051610e5f9190612bfa565b9081526040519081900360200190205460ff1615610eb75760405162461bcd60e51b8152602060048201526015602482015274151ddbd5d85e4e881d1e081c9bdb1b189858dad959605a1b60448201526064016107b8565b6000610ec68988898989611d93565b90508015610f52576001600d86604051610ee09190612bfa565b908152604051908190036020019020805491151560ff19909216919091179055610f146001600160a01b038a16888861201b565b7f9420db1a0c5e4f45cc0dac05f17e8eb893645981e3c01e8d14120353a487d9e989888888604051610f499493929190612c8b565b60405180910390a15b505050505050505050565b6001600160a01b038085166000908152600a60209081526040808320878452909152812054909182918791879116610fa75760405162461bcd60e51b81526004016107b890612e23565b6001600160a01b038881166000908152600f602090815260408083208b84529091528082205490516370a0823160e01b815233600482015292169182906370a082319060240160206040518083038186803b15801561100557600080fd5b505afa158015611019573d6000803e3d6000fd5b505050506040513d601f19601f8201168201806040525081019061103d9190612b3a565b90508781101561107f5760405162461bcd60e51b815260206004820152600d60248201526c04e6f7420656e6f756768206c7609c1b60448201526064016107b8565b6001600160a01b03808b1660009081526007602090815260408083208d84529091529081902054600954915163779afa3760e01b81523360048201528a84166024820152604481018c90529183166064830152608482018190529184169063779afa379060a4016040805180830381600087803b1580156110ff57600080fd5b505af1158015611113573d6000803e3d6000fd5b505050506040513d601f19601f820116820180604052508101906111379190612b52565b909750955085156111ae576001600160a01b03808c166000908152600a602090815260408083208e8452909152908190205490517f79aee25f54411be6ea1ab53c9d3cc3e245c301d481091deda6343da926932c0c926111a5928f9291169046908f9033908f908e90612cbe565b60405180910390a15b505050505094509492505050565b60009182526004602090815260408084206001600160a01b0393909316845291905290205460ff1690565b6001600160a01b038083166000908152600f60209081526040808320858452909152808220548151630240bc6b60e21b815282519394919091169284928492630902f1ac9260048083019392829003018186803b15801561124757600080fd5b505afa15801561125b573d6000803e3d6000fd5b505050506040513d601f19601f8201168201806040525081019061127f9190612b52565b5095945050505050565b6112946000336111bc565b6112b05760405162461bcd60e51b81526004016107b890612dec565b610b74828261204b565b6112c56000336111bc565b6112e15760405162461bcd60e51b81526004016107b890612dec565b6001600160a01b039290921660009081526007602090815260408083209383529290522055565b6113136000336111bc565b61132f5760405162461bcd60e51b81526004016107b890612dec565b600e80546001600160a01b0319166001600160a01b0392909216919091179055565b61135c6000336111bc565b6113785760405162461bcd60e51b81526004016107b890612dec565b6001600160a01b038381166000908152600f6020908152604080832085845290915290205416156113eb5760405162461bcd60e51b815260206004820152601760248201527f746f6b656e20616c726561647920737570706f7274656400000000000000000060448201526064016107b8565b6001600160a01b039283166000908152600f602090815260408083209383529290522080546001600160a01b03191691909216179055565b6001600160a01b03831660009081526007602090815260408083208584529091528120548190831161148a5760405162461bcd60e51b815260206004820152601060248201526f3737ba1032b737bab3b4103a37b5b2b760811b60448201526064016107b8565b6001600160a01b038516600090815260076020908152604080832087845290915290205491506114ba8284612ff1565b9050935093915050565b6114dd6b43524f535345525f524f4c4560a01b336111bc565b6114f95760405162461bcd60e51b81526004016107b890612db5565b80600b8160405161150a9190612bfa565b9081526040519081900360200190205460ff161561155e5760405162461bcd60e51b8152602060048201526011602482015270151ddbd5d85e4e881d1e081b5a5b9d1959607a1b60448201526064016107b8565b600061156d8887878787611d93565b90508015611709576001600b846040516115879190612bfa565b9081526040805160209281900383019020805460ff1916931515939093179092556001600160a01b038a81166000908152600f83528381208b82529092529181205490911690806115d98b8b89610731565b925050915060006115ea8c8c6111e7565b905080881115611687577f56a316ee63540abb5f8fd44be7a6eb2016a90fc9bb3a34ffe13948a44c49a6168c600a60008f6001600160a01b03166001600160a01b0316815260200190815260200160002060008e815260200190815260200160002060009054906101000a90046001600160a01b0316468e8e8e8e8e60405161167a989796959493929190612d00565b60405180910390a1611704565b600954604051637d01538560e11b81526001600160a01b038b81166004830152602482018b9052604482018690526064820185905291821660848201529085169063fa02a70a9060a401600060405180830381600087803b1580156116eb57600080fd5b505af11580156116ff573d6000803e3d6000fd5b505050505b505050505b5050505050505050565b60008281526004602052604090206001015461172f8133611c42565b6108378383611d2c565b6001600160a01b038085166000908152600a60209081526040808320878452909152902054859185911661177f5760405162461bcd60e51b81526004016107b890612e23565b600083116117dd5760405162461bcd60e51b815260206004820152602560248201527f54776f5761793a20616d6f756e74206d75737420626520677265617465722074604482015264068616e20360dc1b60648201526084016107b8565b6001600160a01b0384166118295760405162461bcd60e51b815260206004820152601360248201527254776f5761793a20746f20697320656d70747960681b60448201526064016107b8565b6001600160a01b038087166000818152600f602090815260408083208a84529091529020549091169061185e90338387611bd7565b600061186a8888610b78565b9050600061187886836120af565b905080156119265760405163086cba5760e11b81526001600160a01b038881166004830152602482018390528416906310d974ae90604401600060405180830381600087803b1580156118ca57600080fd5b505af11580156118de573d6000803e3d6000fd5b505050507f79aee25f54411be6ea1ab53c9d3cc3e245c301d481091deda6343da926932c0c8984468b338c8760405161191d9796959493929190612cbe565b60405180910390a15b81861115610f52576001600160a01b03808a166000908152600a602090815260408083208c84529091529020547f7cb5e2d54d5587c3a3448631884061009b0e2c30e37922a4dd4aed50e11dd7f3918b9116468b338c611986888e612ff1565b604051610f499796959493929190612cbe565b81518351146119ea5760405162461bcd60e51b815260206004820152601e60248201527f54776f5761793a20746f6b656e206c656e677468206e6f74206d61746368000060448201526064016107b8565b8051835114611a0b5760405162461bcd60e51b81526004016107b890612d74565b60005b8351811015611aa957611a97848281518110611a3a57634e487b7160e01b600052603260045260246000fd5b6020026020010151848381518110611a6257634e487b7160e01b600052603260045260246000fd5b6020026020010151848481518110611a8a57634e487b7160e01b600052603260045260246000fd5b6020026020010151610940565b80611aa18161304b565b915050611a0e565b50505050565b611aba6000336111bc565b611ad65760405162461bcd60e51b81526004016107b890612dec565b611aa9848484846120c5565b611aed6000336111bc565b611b095760405162461bcd60e51b81526004016107b890612dec565b6001600160a01b038281166000908152600a6020908152604080832085845290915290205416611b7b5760405162461bcd60e51b815260206004820152601a60248201527f54776f5761793a20746f6b65206e6f7420737570706f7274656400000000000060448201526064016107b8565b6001600160a01b039091166000908152600a602090815260408083209383529290522080546001600160a01b0319169055565b6000611bbc6012600a612f2a565b611bc6848461219a565b611bd09190612ec7565b9392505050565b6040516001600160a01b0380851660248301528316604482015260648101829052611aa99085906323b872dd60e01b906084015b60408051601f198184030181529190526020810180516001600160e01b03166001600160e01b0319909316929092179091526121a6565b611c4c82826111bc565b610b7457611c64816001600160a01b03166014612278565b611c6f836020612278565b604051602001611c80929190612c16565b60408051601f198184030181529082905262461bcd60e51b82526107b891600401612d61565b611cb082826111bc565b610b745760008281526004602090815260408083206001600160a01b03851684529091529020805460ff19166001179055611ce83390565b6001600160a01b0316816001600160a01b0316837f2f8788117e7eff1d82e926ec794901d17c78024a50270940304540a733656f0d60405160405180910390a45050565b611d3682826111bc565b15610b745760008281526004602090815260408083206001600160a01b0385168085529252808320805460ff1916905551339285917ff6391f5c32d9c69d2a47ea670b442974b53935d1edc7fd64eb21e047a839171b9190a45050565b6001600160a01b038516600090815260208190526040812054611e115760405162461bcd60e51b815260206004820152603060248201527f50726f706f73616c566f74653a207468726573686f6c642073686f756c64206260448201526f0652067726561746572207468616e20360841b60648201526084016107b8565b6001600160a01b038616600090815260208181526040808320549051909291611e44918a918a918a918a918a9101612ba1565b60408051601f1981840301815291815281516020928301206000818152600190935291205490915060ff1615611ebc5760405162461bcd60e51b815260206004820152601860248201527f5f766f74653a3a70726f706f73616c2066696e6973686564000000000000000060448201526064016107b8565b600081815260026020908152604080832033845290915290205460ff1615611f265760405162461bcd60e51b815260206004820152601760248201527f5f766f74653a3a6d73672e73656e64657220766f74656400000000000000000060448201526064016107b8565b600081815260036020526040902054611f4090600161245a565b60008281526003602081815260408084209485556002825280842033855282528320805460ff19166001179055918490529052548211611f98576000818152600160208190526040909120805460ff19168217905592505b6000818152600360209081526040918290205482516001600160a01b038c811682528b811693820193909352918916828401526060820188905233608083015260a082015260c0810184905290517fe458477b94285c9f254a407e2614c39f55230b527ff7f51d76fdf33e251ae9369181900360e00190a1505095945050505050565b6040516001600160a01b03831660248201526044810182905261083790849063a9059cbb60e01b90606401611c0b565b6001600160a01b038216600081815260208181526040918290208054908590558251938452908301819052908201839052907fb18e91516e037486aa6fa38f56a8aac933fd127180efe9c9745ecbf660a78e449060600160405180910390a1505050565b60008183106120be5781611bd0565b5090919050565b670de0b6b3a76400008111156121155760405162461bcd60e51b8152602060048201526015602482015274199959481c985d1a5bc81b9bdd0818dbdc9c9958dd605a1b60448201526064016107b8565b6001600160a01b0384166000818152600560209081526040808320878452825280832086905583835260068252808320878452825291829020849055815192835282018590528101839052606081018290527fe7de0268825882caac9be515100046b260e4bb88ef28dcf7e4d99a3b9b7537829060800160405180910390a150505050565b6000611bd08284612fd2565b60006121fb826040518060400160405280602081526020017f5361666545524332303a206c6f772d6c6576656c2063616c6c206661696c6564815250856001600160a01b03166124669092919063ffffffff16565b80519091501561083757808060200190518101906122199190612a7c565b6108375760405162461bcd60e51b815260206004820152602a60248201527f5361666545524332303a204552433230206f7065726174696f6e20646964206e6044820152691bdd081cdd58d8d9595960b21b60648201526084016107b8565b60606000612287836002612fd2565b612292906002612eaf565b67ffffffffffffffff8111156122b857634e487b7160e01b600052604160045260246000fd5b6040519080825280601f01601f1916602001820160405280156122e2576020820181803683370190505b509050600360fc1b8160008151811061230b57634e487b7160e01b600052603260045260246000fd5b60200101906001600160f81b031916908160001a905350600f60fb1b8160018151811061234857634e487b7160e01b600052603260045260246000fd5b60200101906001600160f81b031916908160001a905350600061236c846002612fd2565b612377906001612eaf565b90505b600181111561240b576f181899199a1a9b1b9c1cb0b131b232b360811b85600f16601081106123b957634e487b7160e01b600052603260045260246000fd5b1a60f81b8282815181106123dd57634e487b7160e01b600052603260045260246000fd5b60200101906001600160f81b031916908160001a90535060049490941c9361240481613034565b905061237a565b508315611bd05760405162461bcd60e51b815260206004820181905260248201527f537472696e67733a20686578206c656e67746820696e73756666696369656e7460448201526064016107b8565b6000611bd08284612eaf565b6060612475848460008561247d565b949350505050565b6060824710156124de5760405162461bcd60e51b815260206004820152602660248201527f416464726573733a20696e73756666696369656e742062616c616e636520666f6044820152651c8818d85b1b60d21b60648201526084016107b8565b843b61252c5760405162461bcd60e51b815260206004820152601d60248201527f416464726573733a2063616c6c20746f206e6f6e2d636f6e747261637400000060448201526064016107b8565b600080866001600160a01b031685876040516125489190612bfa565b60006040518083038185875af1925050503d8060008114612585576040519150601f19603f3d011682016040523d82523d6000602084013e61258a565b606091505b509150915061259a8282866125a5565b979650505050505050565b606083156125b4575081611bd0565b8251156125c45782518084602001fd5b8160405162461bcd60e51b81526004016107b89190612d61565b80356001600160a01b03811681146125f557600080fd5b919050565b600082601f83011261260a578081fd5b8135602061261f61261a83612e8b565b612e5a565b80838252828201915082860187848660051b890101111561263e578586fd5b855b8581101561266357612651826125de565b84529284019290840190600101612640565b5090979650505050505050565b600082601f830112612680578081fd5b8135602061269061261a83612e8b565b80838252828201915082860187848660051b89010111156126af578586fd5b855b85811015612663578135845292840192908401906001016126b1565b600082601f8301126126dd578081fd5b813567ffffffffffffffff8111156126f7576126f761307c565b61270a601f8201601f1916602001612e5a565b81815284602083860101111561271e578283fd5b816020850160208301379081016020019190915292915050565b600060208284031215612749578081fd5b611bd0826125de565b600080600060608486031215612766578182fd5b61276f846125de565b925061277d602085016125de565b9150604084013590509250925092565b6000806040838503121561279f578182fd5b6127a8836125de565b946020939093013593505050565b60008060008060008060c087890312156127ce578182fd5b6127d7876125de565b9550602087013594506127ec604088016125de565b93506127fa606088016125de565b92506080870135915060a087013567ffffffffffffffff81111561281c578182fd5b61282889828a016126cd565b9150509295509295509295565b6000806000806080858703121561284a578384fd5b612853856125de565b935060208501359250612868604086016125de565b9396929550929360600135925050565b600080600080600060a0868803121561288f578081fd5b612898866125de565b9450602086013593506128ad604087016125de565b925060608601359150608086013567ffffffffffffffff8111156128cf578182fd5b6128db888289016126cd565b9150509295509295909350565b6000806000606084860312156128fc578283fd5b612905846125de565b95602085013595506040909401359392505050565b6000806000806080858703121561292f578182fd5b612938856125de565b93506020850135925060408501359150612954606086016125de565b905092959194509250565b60008060008060808587031215612974578182fd5b61297d856125de565b966020860135965060408601359560600135945092505050565b6000806000606084860312156129ab578081fd5b833567ffffffffffffffff808211156129c2578283fd5b6129ce878388016125fa565b945060208601359150808211156129e3578283fd5b6129ef878388016125fa565b93506040860135915080821115612a04578283fd5b50612a1186828701612670565b9150509250925092565b60008060408385031215612a2d578182fd5b823567ffffffffffffffff80821115612a44578384fd5b612a50868387016125fa565b93506020850135915080821115612a65578283fd5b50612a7285828601612670565b9150509250929050565b600060208284031215612a8d578081fd5b81518015158114611bd0578182fd5b600060208284031215612aad578081fd5b5035919050565b60008060408385031215612ac6578182fd5b82359150612ad6602084016125de565b90509250929050565b600060208284031215612af0578081fd5b81356001600160e01b031981168114611bd0578182fd5b600060208284031215612b18578081fd5b813567ffffffffffffffff811115612b2e578182fd5b612475848285016126cd565b600060208284031215612b4b578081fd5b5051919050565b60008060408385031215612b64578182fd5b505080516020909101519092909150565b60008151808452612b8d816020860160208601613008565b601f01601f19169290920160200192915050565b60006bffffffffffffffffffffffff19808860601b168352808760601b166014840152808660601b1660288401525083603c8301528251612be981605c850160208701613008565b91909101605c019695505050505050565b60008251612c0c818460208701613008565b9190910192915050565b7f416363657373436f6e74726f6c3a206163636f756e7420000000000000000000815260008351612c4e816017850160208801613008565b7001034b99036b4b9b9b4b733903937b6329607d1b6017918401918201528351612c7f816028840160208801613008565b01602801949350505050565b6001600160a01b0385811682528416602082015260408101839052608060608201819052600090610c1090830184612b75565b6001600160a01b0397881681529587166020870152604086019490945260608501929092528416608084015290921660a082015260c081019190915260e00190565b6001600160a01b038981168252888116602083015260408201889052606082018790528581166080830152841660a082015260c0810183905261010060e08201819052600090612d5283820185612b75565b9b9a5050505050505050505050565b602081526000611bd06020830184612b75565b60208082526021908201527f54776f5761793a20636861696e494473206c656e677468206e6f74206d6174636040820152600d60fb1b606082015260800190565b6020808252601d908201527f54776f5761793a2063616c6c6572206973206e6f742063726f73736572000000604082015260600190565b6020808252601b908201527f54776f5761793a2063616c6c6572206973206e6f742061646d696e0000000000604082015260600190565b6020808252601e908201527f54776f5761793a206e6f7420737570706f7274207468697320746f6b656e0000604082015260600190565b604051601f8201601f1916810167ffffffffffffffff81118282101715612e8357612e8361307c565b604052919050565b600067ffffffffffffffff821115612ea557612ea561307c565b5060051b60200190565b60008219821115612ec257612ec2613066565b500190565b600082612ee257634e487b7160e01b81526012600452602481fd5b500490565b600181815b80851115612f22578160001904821115612f0857612f08613066565b80851615612f1557918102915b93841c9390800290612eec565b509250929050565b6000611bd08383600082612f405750600161072b565b81612f4d5750600061072b565b8160018114612f635760028114612f6d57612f89565b600191505061072b565b60ff841115612f7e57612f7e613066565b50506001821b61072b565b5060208310610133831016604e8410600b8410161715612fac575081810a61072b565b612fb68383612ee7565b8060001904821115612fca57612fca613066565b029392505050565b6000816000190483118215151615612fec57612fec613066565b500290565b60008282101561300357613003613066565b500390565b60005b8381101561302357818101518382015260200161300b565b83811115611aa95750506000910152565b60008161304357613043613066565b506000190190565b600060001982141561305f5761305f613066565b5060010190565b634e487b7160e01b600052601160045260246000fd5b634e487b7160e01b600052604160045260246000fdfea2646970667358221220ae30df9e97e8ab2c00bd8a5f88d7dd558f11d7451fa213c13f492146feed949164736f6c63430008040033",
  "devdoc": {
    "kind": "dev",
    "methods": {
      "getRoleAdmin(bytes32)": {
        "details": "Returns the admin role that controls `role`. See {grantRole} and {revokeRole}. To change a role's admin, use {_setRoleAdmin}."
      },
      "grantRole(bytes32,address)": {
        "details": "Grants `role` to `account`. If `account` had not been already granted `role`, emits a {RoleGranted} event. Requirements: - the caller must have ``role``'s admin role."
      },
      "hasRole(bytes32,address)": {
        "details": "Returns `true` if `account` has been granted `role`."
      },
      "renounceRole(bytes32,address)": {
        "details": "Revokes `role` from the calling account. Roles are often managed via {grantRole} and {revokeRole}: this function's purpose is to provide a mechanism for accounts to lose their privileges if they are compromised (such as when a trusted device is misplaced). If the calling account had been granted `role`, emits a {RoleRevoked} event. Requirements: - the caller must be `account`."
      },
      "revokeRole(bytes32,address)": {
        "details": "Revokes `role` from `account`. If `account` had been granted `role`, emits a {RoleRevoked} event. Requirements: - the caller must have ``role``'s admin role."
      },
      "supportsInterface(bytes4)": {
        "details": "See {IERC165-supportsInterface}."
      }
    },
    "version": 1
  },
  "userdoc": {
    "kind": "user",
    "methods": {},
    "version": 1
  },
  "storageLayout": {
    "storage": [
      {
        "astId": 6047,
        "contract": "contracts/twoway/TwoWay.sol:TwoWay",
        "label": "threshold",
        "offset": 0,
        "slot": "0",
        "type": "t_mapping(t_address,t_uint256)"
      },
      {
        "astId": 6051,
        "contract": "contracts/twoway/TwoWay.sol:TwoWay",
        "label": "isFinished",
        "offset": 0,
        "slot": "1",
        "type": "t_mapping(t_bytes32,t_bool)"
      },
      {
        "astId": 6057,
        "contract": "contracts/twoway/TwoWay.sol:TwoWay",
        "label": "isVoted",
        "offset": 0,
        "slot": "2",
        "type": "t_mapping(t_bytes32,t_mapping(t_address,t_bool))"
      },
      {
        "astId": 6061,
        "contract": "contracts/twoway/TwoWay.sol:TwoWay",
        "label": "counter",
        "offset": 0,
        "slot": "3",
        "type": "t_mapping(t_bytes32,t_uint256)"
      },
      {
        "astId": 2437,
        "contract": "contracts/twoway/TwoWay.sol:TwoWay",
        "label": "_roles",
        "offset": 0,
        "slot": "4",
        "type": "t_mapping(t_bytes32,t_struct(RoleData)2432_storage)"
      },
      {
        "astId": 9427,
        "contract": "contracts/twoway/TwoWay.sol:TwoWay",
        "label": "feeAmountM",
        "offset": 0,
        "slot": "5",
        "type": "t_mapping(t_address,t_mapping(t_uint256,t_uint256))"
      },
      {
        "astId": 9433,
        "contract": "contracts/twoway/TwoWay.sol:TwoWay",
        "label": "feeRatioM",
        "offset": 0,
        "slot": "6",
        "type": "t_mapping(t_address,t_mapping(t_uint256,t_uint256))"
      },
      {
        "astId": 9439,
        "contract": "contracts/twoway/TwoWay.sol:TwoWay",
        "label": "removeFeeAmount",
        "offset": 0,
        "slot": "7",
        "type": "t_mapping(t_address,t_mapping(t_uint256,t_uint256))"
      },
      {
        "astId": 9445,
        "contract": "contracts/twoway/TwoWay.sol:TwoWay",
        "label": "feeTo",
        "offset": 0,
        "slot": "8",
        "type": "t_mapping(t_address,t_mapping(t_uint256,t_address))"
      },
      {
        "astId": 9447,
        "contract": "contracts/twoway/TwoWay.sol:TwoWay",
        "label": "feeToDev",
        "offset": 0,
        "slot": "9",
        "type": "t_address"
      },
      {
        "astId": 8376,
        "contract": "contracts/twoway/TwoWay.sol:TwoWay",
        "label": "supportToken",
        "offset": 0,
        "slot": "10",
        "type": "t_mapping(t_address,t_mapping(t_uint256,t_address))"
      },
      {
        "astId": 8380,
        "contract": "contracts/twoway/TwoWay.sol:TwoWay",
        "label": "txMinted",
        "offset": 0,
        "slot": "11",
        "type": "t_mapping(t_string_memory_ptr,t_bool)"
      },
      {
        "astId": 8384,
        "contract": "contracts/twoway/TwoWay.sol:TwoWay",
        "label": "txUnlocked",
        "offset": 0,
        "slot": "12",
        "type": "t_mapping(t_string_memory_ptr,t_bool)"
      },
      {
        "astId": 8388,
        "contract": "contracts/twoway/TwoWay.sol:TwoWay",
        "label": "txRollbacked",
        "offset": 0,
        "slot": "13",
        "type": "t_mapping(t_string_memory_ptr,t_bool)"
      },
      {
        "astId": 8391,
        "contract": "contracts/twoway/TwoWay.sol:TwoWay",
        "label": "twoWayFeePool",
        "offset": 0,
        "slot": "14",
        "type": "t_contract(ITwoWayFeePool)7102"
      },
      {
        "astId": 8397,
        "contract": "contracts/twoway/TwoWay.sol:TwoWay",
        "label": "pairs",
        "offset": 0,
        "slot": "15",
        "type": "t_mapping(t_address,t_mapping(t_uint256,t_address))"
      }
    ],
    "types": {
      "t_address": {
        "encoding": "inplace",
        "label": "address",
        "numberOfBytes": "20"
      },
      "t_bool": {
        "encoding": "inplace",
        "label": "bool",
        "numberOfBytes": "1"
      },
      "t_bytes32": {
        "encoding": "inplace",
        "label": "bytes32",
        "numberOfBytes": "32"
      },
      "t_contract(ITwoWayFeePool)7102": {
        "encoding": "inplace",
        "label": "contract ITwoWayFeePool",
        "numberOfBytes": "20"
      },
      "t_mapping(t_address,t_bool)": {
        "encoding": "mapping",
        "key": "t_address",
        "label": "mapping(address => bool)",
        "numberOfBytes": "32",
        "value": "t_bool"
      },
      "t_mapping(t_address,t_mapping(t_uint256,t_address))": {
        "encoding": "mapping",
        "key": "t_address",
        "label": "mapping(address => mapping(uint256 => address))",
        "numberOfBytes": "32",
        "value": "t_mapping(t_uint256,t_address)"
      },
      "t_mapping(t_address,t_mapping(t_uint256,t_uint256))": {
        "encoding": "mapping",
        "key": "t_address",
        "label": "mapping(address => mapping(uint256 => uint256))",
        "numberOfBytes": "32",
        "value": "t_mapping(t_uint256,t_uint256)"
      },
      "t_mapping(t_address,t_uint256)": {
        "encoding": "mapping",
        "key": "t_address",
        "label": "mapping(address => uint256)",
        "numberOfBytes": "32",
        "value": "t_uint256"
      },
      "t_mapping(t_bytes32,t_bool)": {
        "encoding": "mapping",
        "key": "t_bytes32",
        "label": "mapping(bytes32 => bool)",
        "numberOfBytes": "32",
        "value": "t_bool"
      },
      "t_mapping(t_bytes32,t_mapping(t_address,t_bool))": {
        "encoding": "mapping",
        "key": "t_bytes32",
        "label": "mapping(bytes32 => mapping(address => bool))",
        "numberOfBytes": "32",
        "value": "t_mapping(t_address,t_bool)"
      },
      "t_mapping(t_bytes32,t_struct(RoleData)2432_storage)": {
        "encoding": "mapping",
        "key": "t_bytes32",
        "label": "mapping(bytes32 => struct AccessControl.RoleData)",
        "numberOfBytes": "32",
        "value": "t_struct(RoleData)2432_storage"
      },
      "t_mapping(t_bytes32,t_uint256)": {
        "encoding": "mapping",
        "key": "t_bytes32",
        "label": "mapping(bytes32 => uint256)",
        "numberOfBytes": "32",
        "value": "t_uint256"
      },
      "t_mapping(t_string_memory_ptr,t_bool)": {
        "encoding": "mapping",
        "key": "t_string_memory_ptr",
        "label": "mapping(string => bool)",
        "numberOfBytes": "32",
        "value": "t_bool"
      },
      "t_mapping(t_uint256,t_address)": {
        "encoding": "mapping",
        "key": "t_uint256",
        "label": "mapping(uint256 => address)",
        "numberOfBytes": "32",
        "value": "t_address"
      },
      "t_mapping(t_uint256,t_uint256)": {
        "encoding": "mapping",
        "key": "t_uint256",
        "label": "mapping(uint256 => uint256)",
        "numberOfBytes": "32",
        "value": "t_uint256"
      },
      "t_string_memory_ptr": {
        "encoding": "bytes",
        "label": "string",
        "numberOfBytes": "32"
      },
      "t_struct(RoleData)2432_storage": {
        "encoding": "inplace",
        "label": "struct AccessControl.RoleData",
        "members": [
          {
            "astId": 2429,
            "contract": "contracts/twoway/TwoWay.sol:TwoWay",
            "label": "members",
            "offset": 0,
            "slot": "0",
            "type": "t_mapping(t_address,t_bool)"
          },
          {
            "astId": 2431,
            "contract": "contracts/twoway/TwoWay.sol:TwoWay",
            "label": "adminRole",
            "offset": 0,
            "slot": "1",
            "type": "t_bytes32"
          }
        ],
        "numberOfBytes": "64"
      },
      "t_uint256": {
        "encoding": "inplace",
        "label": "uint256",
        "numberOfBytes": "32"
      }
    }
  }
}