{
  "address": "0x65ee0A1eb3517A4371DA2ee61F4b24235F458855",
  "abi": [
    {
      "inputs": [],
      "stateMutability": "nonpayable",
      "type": "constructor"
    },
    {
      "anonymous": false,
      "inputs": [
        {
          "indexed": false,
          "internalType": "address",
          "name": "token0",
          "type": "address"
        },
        {
          "indexed": false,
          "internalType": "address",
          "name": "token1",
          "type": "address"
        },
        {
          "indexed": false,
          "internalType": "uint256",
          "name": "chainID",
          "type": "uint256"
        },
        {
          "indexed": false,
          "internalType": "address",
          "name": "locker",
          "type": "address"
        },
        {
          "indexed": false,
          "internalType": "address",
          "name": "to",
          "type": "address"
        },
        {
          "indexed": false,
          "internalType": "uint256",
          "name": "amount",
          "type": "uint256"
        }
      ],
      "name": "Lock",
      "type": "event"
    },
    {
      "anonymous": false,
      "inputs": [
        {
          "indexed": false,
          "internalType": "address",
          "name": "token",
          "type": "address"
        },
        {
          "indexed": false,
          "internalType": "address",
          "name": "from",
          "type": "address"
        },
        {
          "indexed": false,
          "internalType": "address",
          "name": "to",
          "type": "address"
        },
        {
          "indexed": false,
          "internalType": "uint256",
          "name": "amount",
          "type": "uint256"
        },
        {
          "indexed": false,
          "internalType": "address",
          "name": "proposer",
          "type": "address"
        },
        {
          "indexed": false,
          "internalType": "uint256",
          "name": "count",
          "type": "uint256"
        },
        {
          "indexed": false,
          "internalType": "uint256",
          "name": "threshold",
          "type": "uint256"
        }
      ],
      "name": "ProposalVoted",
      "type": "event"
    },
    {
      "anonymous": false,
      "inputs": [
        {
          "indexed": true,
          "internalType": "bytes32",
          "name": "role",
          "type": "bytes32"
        },
        {
          "indexed": true,
          "internalType": "bytes32",
          "name": "previousAdminRole",
          "type": "bytes32"
        },
        {
          "indexed": true,
          "internalType": "bytes32",
          "name": "newAdminRole",
          "type": "bytes32"
        }
      ],
      "name": "RoleAdminChanged",
      "type": "event"
    },
    {
      "anonymous": false,
      "inputs": [
        {
          "indexed": true,
          "internalType": "bytes32",
          "name": "role",
          "type": "bytes32"
        },
        {
          "indexed": true,
          "internalType": "address",
          "name": "account",
          "type": "address"
        },
        {
          "indexed": true,
          "internalType": "address",
          "name": "sender",
          "type": "address"
        }
      ],
      "name": "RoleGranted",
      "type": "event"
    },
    {
      "anonymous": false,
      "inputs": [
        {
          "indexed": true,
          "internalType": "bytes32",
          "name": "role",
          "type": "bytes32"
        },
        {
          "indexed": true,
          "internalType": "address",
          "name": "account",
          "type": "address"
        },
        {
          "indexed": true,
          "internalType": "address",
          "name": "sender",
          "type": "address"
        }
      ],
      "name": "RoleRevoked",
      "type": "event"
    },
    {
      "anonymous": false,
      "inputs": [
        {
          "indexed": false,
          "internalType": "address",
          "name": "token",
          "type": "address"
        },
        {
          "indexed": false,
          "internalType": "uint256",
          "name": "oldThreshold",
          "type": "uint256"
        },
        {
          "indexed": false,
          "internalType": "uint256",
          "name": "newThreshold",
          "type": "uint256"
        }
      ],
      "name": "ThresholdChanged",
      "type": "event"
    },
    {
      "anonymous": false,
      "inputs": [
        {
          "indexed": false,
          "internalType": "address",
          "name": "token0",
          "type": "address"
        },
        {
          "indexed": false,
          "internalType": "address",
          "name": "token1",
          "type": "address"
        },
        {
          "indexed": false,
          "internalType": "uint256",
          "name": "chainID",
          "type": "uint256"
        },
        {
          "indexed": false,
          "internalType": "address",
          "name": "from",
          "type": "address"
        },
        {
          "indexed": false,
          "internalType": "address",
          "name": "to",
          "type": "address"
        },
        {
          "indexed": false,
          "internalType": "uint256",
          "name": "amount",
          "type": "uint256"
        },
        {
          "indexed": false,
          "internalType": "string",
          "name": "txid",
          "type": "string"
        }
      ],
      "name": "Unlock",
      "type": "event"
    },
    {
      "inputs": [],
      "name": "DEFAULT_ADMIN_ROLE",
      "outputs": [
        {
          "internalType": "bytes32",
          "name": "",
          "type": "bytes32"
        }
      ],
      "stateMutability": "view",
      "type": "function"
    },
    {
      "inputs": [
        {
          "internalType": "address",
          "name": "token0",
          "type": "address"
        },
        {
          "internalType": "address",
          "name": "token1",
          "type": "address"
        },
        {
          "internalType": "uint256",
          "name": "chainID",
          "type": "uint256"
        }
      ],
      "name": "addSupportToken",
      "outputs": [],
      "stateMutability": "nonpayable",
      "type": "function"
    },
    {
      "inputs": [
        {
          "internalType": "address[]",
          "name": "token0Addrs",
          "type": "address[]"
        },
        {
          "internalType": "address[]",
          "name": "token1Addrs",
          "type": "address[]"
        },
        {
          "internalType": "uint256[]",
          "name": "chainIDs",
          "type": "uint256[]"
        }
      ],
      "name": "addSupportTokens",
      "outputs": [],
      "stateMutability": "nonpayable",
      "type": "function"
    },
    {
      "inputs": [
        {
          "internalType": "bytes32",
          "name": "role",
          "type": "bytes32"
        }
      ],
      "name": "getRoleAdmin",
      "outputs": [
        {
          "internalType": "bytes32",
          "name": "",
          "type": "bytes32"
        }
      ],
      "stateMutability": "view",
      "type": "function"
    },
    {
      "inputs": [
        {
          "internalType": "address",
          "name": "token0",
          "type": "address"
        },
        {
          "internalType": "address",
          "name": "token1",
          "type": "address"
        },
        {
          "internalType": "uint256",
          "name": "chainID",
          "type": "uint256"
        }
      ],
      "name": "getRoleKey",
      "outputs": [
        {
          "internalType": "bytes32",
          "name": "key",
          "type": "bytes32"
        }
      ],
      "stateMutability": "pure",
      "type": "function"
    },
    {
      "inputs": [
        {
          "internalType": "bytes32",
          "name": "role",
          "type": "bytes32"
        },
        {
          "internalType": "uint256",
          "name": "index",
          "type": "uint256"
        }
      ],
      "name": "getRoleMember",
      "outputs": [
        {
          "internalType": "address",
          "name": "",
          "type": "address"
        }
      ],
      "stateMutability": "view",
      "type": "function"
    },
    {
      "inputs": [
        {
          "internalType": "bytes32",
          "name": "role",
          "type": "bytes32"
        }
      ],
      "name": "getRoleMemberCount",
      "outputs": [
        {
          "internalType": "uint256",
          "name": "",
          "type": "uint256"
        }
      ],
      "stateMutability": "view",
      "type": "function"
    },
    {
      "inputs": [
        {
          "internalType": "bytes32",
          "name": "role",
          "type": "bytes32"
        },
        {
          "internalType": "address",
          "name": "account",
          "type": "address"
        }
      ],
      "name": "grantRole",
      "outputs": [],
      "stateMutability": "nonpayable",
      "type": "function"
    },
    {
      "inputs": [
        {
          "internalType": "bytes32",
          "name": "role",
          "type": "bytes32"
        },
        {
          "internalType": "address",
          "name": "account",
          "type": "address"
        }
      ],
      "name": "hasRole",
      "outputs": [
        {
          "internalType": "bool",
          "name": "",
          "type": "bool"
        }
      ],
      "stateMutability": "view",
      "type": "function"
    },
    {
      "inputs": [
        {
          "internalType": "address",
          "name": "token0",
          "type": "address"
        },
        {
          "internalType": "uint256",
          "name": "chainID",
          "type": "uint256"
        },
        {
          "internalType": "address",
          "name": "to",
          "type": "address"
        },
        {
          "internalType": "uint256",
          "name": "amount",
          "type": "uint256"
        }
      ],
      "name": "lock",
      "outputs": [],
      "stateMutability": "nonpayable",
      "type": "function"
    },
    {
      "inputs": [
        {
          "internalType": "bytes32",
          "name": "",
          "type": "bytes32"
        }
      ],
      "name": "proposalOf",
      "outputs": [
        {
          "internalType": "address",
          "name": "tokenTo",
          "type": "address"
        },
        {
          "internalType": "address",
          "name": "from",
          "type": "address"
        },
        {
          "internalType": "address",
          "name": "to",
          "type": "address"
        },
        {
          "internalType": "uint256",
          "name": "amount",
          "type": "uint256"
        },
        {
          "internalType": "uint256",
          "name": "count",
          "type": "uint256"
        },
        {
          "internalType": "string",
          "name": "txid",
          "type": "string"
        },
        {
          "internalType": "bool",
          "name": "isFinished",
          "type": "bool"
        },
        {
          "internalType": "bool",
          "name": "isExist",
          "type": "bool"
        }
      ],
      "stateMutability": "view",
      "type": "function"
    },
    {
      "inputs": [
        {
          "internalType": "address",
          "name": "token0",
          "type": "address"
        },
        {
          "internalType": "uint256",
          "name": "chainID",
          "type": "uint256"
        }
      ],
      "name": "removeSupportToken",
      "outputs": [],
      "stateMutability": "nonpayable",
      "type": "function"
    },
    {
      "inputs": [
        {
          "internalType": "address[]",
          "name": "token1s",
          "type": "address[]"
        },
        {
          "internalType": "uint256[]",
          "name": "chainIDs",
          "type": "uint256[]"
        }
      ],
      "name": "removeSupportTokens",
      "outputs": [],
      "stateMutability": "nonpayable",
      "type": "function"
    },
    {
      "inputs": [
        {
          "internalType": "bytes32",
          "name": "role",
          "type": "bytes32"
        },
        {
          "internalType": "address",
          "name": "account",
          "type": "address"
        }
      ],
      "name": "renounceRole",
      "outputs": [],
      "stateMutability": "nonpayable",
      "type": "function"
    },
    {
      "inputs": [
        {
          "internalType": "bytes32",
          "name": "role",
          "type": "bytes32"
        },
        {
          "internalType": "address",
          "name": "account",
          "type": "address"
        }
      ],
      "name": "revokeRole",
      "outputs": [],
      "stateMutability": "nonpayable",
      "type": "function"
    },
    {
      "inputs": [
        {
          "internalType": "address",
          "name": "token0",
          "type": "address"
        },
        {
          "internalType": "uint256",
          "name": "_threshold",
          "type": "uint256"
        }
      ],
      "name": "setThreshold",
      "outputs": [],
      "stateMutability": "nonpayable",
      "type": "function"
    },
    {
      "inputs": [
        {
          "internalType": "address",
          "name": "",
          "type": "address"
        },
        {
          "internalType": "uint256",
          "name": "",
          "type": "uint256"
        }
      ],
      "name": "supportToken",
      "outputs": [
        {
          "internalType": "address",
          "name": "",
          "type": "address"
        }
      ],
      "stateMutability": "view",
      "type": "function"
    },
    {
      "inputs": [
        {
          "internalType": "address",
          "name": "",
          "type": "address"
        }
      ],
      "name": "threshold",
      "outputs": [
        {
          "internalType": "uint256",
          "name": "",
          "type": "uint256"
        }
      ],
      "stateMutability": "view",
      "type": "function"
    },
    {
      "inputs": [
        {
          "internalType": "string",
          "name": "",
          "type": "string"
        }
      ],
      "name": "txUnlocked",
      "outputs": [
        {
          "internalType": "bool",
          "name": "",
          "type": "bool"
        }
      ],
      "stateMutability": "view",
      "type": "function"
    },
    {
      "inputs": [
        {
          "internalType": "address",
          "name": "token0",
          "type": "address"
        },
        {
          "internalType": "uint256",
          "name": "chainID",
          "type": "uint256"
        },
        {
          "internalType": "address",
          "name": "from",
          "type": "address"
        },
        {
          "internalType": "address",
          "name": "to",
          "type": "address"
        },
        {
          "internalType": "uint256",
          "name": "amount",
          "type": "uint256"
        },
        {
          "internalType": "string",
          "name": "txid",
          "type": "string"
        }
      ],
      "name": "unlock",
      "outputs": [],
      "stateMutability": "nonpayable",
      "type": "function"
    }
  ],
  "transactionHash": "0x43a7b1ce6061ce916e0846aa0f83a581aa1c2b3da93dc6bd82f68f3c8c695f06",
  "args": [],
  "solcInputHash": "938eba5d75e35accba9b03f5c00b5ae0",
  "bytecode": "0x60806040523480156200001157600080fd5b506200001f60003362000025565b6200013b565b62000031828262000035565b5050565b60008281526006602090815260409091206200005c9183906200148a620000b0821b17901c565b1562000031576200006c620000d0565b6001600160a01b0316816001600160a01b0316837f2f8788117e7eff1d82e926ec794901d17c78024a50270940304540a733656f0d60405160405180910390a45050565b6000620000c7836001600160a01b038416620000d4565b90505b92915050565b3390565b6000620000e2838362000123565b6200011a57508154600181810184556000848152602080822090930184905584548482528286019093526040902091909155620000ca565b506000620000ca565b60009081526001919091016020526040902054151590565b61204f806200014b6000396000f3fe608060405234801561001057600080fd5b506004361061012c5760003560e01c80639d879990116100ad578063d692f4c511610071578063d692f4c5146105de578063eaac29251461060a578063ee8a6acf14610644578063f48c0abf146107e9578063f8f8d5c0146108ce5761012c565b80639d8799901461053b578063a217fddf14610567578063c86ec2bf1461056f578063ca15c87314610595578063d547741f146105b25761012c565b806336568abe116100f457806336568abe1461031d578063715ec45c146103495780639010d07c1461041857806391d1485414610457578063967145af146104975761012c565b806303507ba5146101315780631b322be414610256578063248a9ca31461028c5780632f2ff15d146102bb5780633316e311146102e7575b600080fd5b6102546004803603604081101561014757600080fd5b810190602081018135600160201b81111561016157600080fd5b82018360208201111561017357600080fd5b803590602001918460208302840111600160201b8311171561019457600080fd5b9190808060200260200160405190810160405280939291908181526020018383602002808284376000920191909152509295949360208101935035915050600160201b8111156101e357600080fd5b8201836020820111156101f557600080fd5b803590602001918460208302840111600160201b8311171561021657600080fd5b9190808060200260200160405190810160405280939291908181526020018383602002808284376000920191909152509295506108fa945050505050565b005b6102546004803603606081101561026c57600080fd5b506001600160a01b03813581169160208101359091169060400135610992565b6102a9600480360360208110156102a257600080fd5b5035610a8d565b60408051918252519081900360200190f35b610254600480360360408110156102d157600080fd5b50803590602001356001600160a01b0316610aa2565b6102a9600480360360608110156102fd57600080fd5b506001600160a01b03813581169160208101359091169060400135610b0e565b6102546004803603604081101561033357600080fd5b50803590602001356001600160a01b0316610b5f565b610254600480360360c081101561035f57600080fd5b6001600160a01b03823581169260208101359260408201358316926060830135169160808101359181019060c0810160a0820135600160201b8111156103a457600080fd5b8201836020820111156103b657600080fd5b803590602001918460018302840111600160201b831117156103d757600080fd5b91908080601f016020809104026020016040519081016040528093929190818152602001838380828437600092019190915250929550610bc0945050505050565b61043b6004803603604081101561042e57600080fd5b5080359060200135610f50565b604080516001600160a01b039092168252519081900360200190f35b6104836004803603604081101561046d57600080fd5b50803590602001356001600160a01b0316610f71565b604080519115158252519081900360200190f35b610483600480360360208110156104ad57600080fd5b810190602081018135600160201b8111156104c757600080fd5b8201836020820111156104d957600080fd5b803590602001918460018302840111600160201b831117156104fa57600080fd5b91908080601f016020809104026020016040519081016040528093929190818152602001838380828437600092019190915250929550610f89945050505050565b6102546004803603604081101561055157600080fd5b506001600160a01b038135169060200135610fa9565b6102a9611005565b6102a96004803603602081101561058557600080fd5b50356001600160a01b031661100a565b6102a9600480360360208110156105ab57600080fd5b503561101c565b610254600480360360408110156105c857600080fd5b50803590602001356001600160a01b0316611033565b61043b600480360360408110156105f457600080fd5b506001600160a01b03813516906020013561108c565b6102546004803603608081101561062057600080fd5b506001600160a01b03813581169160208101359160408201351690606001356110b2565b6102546004803603606081101561065a57600080fd5b810190602081018135600160201b81111561067457600080fd5b82018360208201111561068657600080fd5b803590602001918460208302840111600160201b831117156106a757600080fd5b9190808060200260200160405190810160405280939291908181526020018383602002808284376000920191909152509295949360208101935035915050600160201b8111156106f657600080fd5b82018360208201111561070857600080fd5b803590602001918460208302840111600160201b8311171561072957600080fd5b9190808060200260200160405190810160405280939291908181526020018383602002808284376000920191909152509295949360208101935035915050600160201b81111561077857600080fd5b82018360208201111561078a57600080fd5b803590602001918460208302840111600160201b831117156107ab57600080fd5b9190808060200260200160405190810160405280939291908181526020018383602002808284376000920191909152509295506111bc945050505050565b610806600480360360208110156107ff57600080fd5b50356112b8565b60405180896001600160a01b03168152602001886001600160a01b03168152602001876001600160a01b031681526020018681526020018581526020018060200184151581526020018315158152602001828103825285818151815260200191508051906020019080838360005b8381101561088c578181015183820152602001610874565b50505050905090810190601f1680156108b95780820380516001836020036101000a031916815260200191505b50995050505050505050505060405180910390f35b610254600480360360408110156108e457600080fd5b506001600160a01b038135169060200135611399565b8051825114610949576040805162461bcd60e51b81526020600482015260166024820152750a8ded6cadc40d8cadccee8d040dcdee840dac2e8c6d60531b604482015290519081900360640190fd5b60005b825181101561098d5761098583828151811061096457fe5b602002602001015183838151811061097857fe5b6020026020010151611399565b60010161094c565b505050565b61099d600033610f71565b6109e4576040805162461bcd60e51b815260206004820152601360248201527231b0b63632b91034b9903737ba1030b236b4b760691b604482015290519081900360640190fd5b6001600160a01b0383811660009081526007602090815260408083208584529091529020541615610a55576040805162461bcd60e51b8152602060048201526016602482015275151bdad948185b1c9958591e4814dd5c1c1bdc9d195960521b604482015290519081900360640190fd5b6001600160a01b0392831660009081526007602090815260408083209383529290522080546001600160a01b03191691909216179055565b60009081526006602052604090206002015490565b600082815260066020526040902060020154610ac590610ac061149f565b610f71565b610b005760405162461bcd60e51b815260040180806020018281038252602f815260200180611f0c602f913960400191505060405180910390fd5b610b0a82826114a3565b5050565b604080516bffffffffffffffffffffffff19606095861b81166020808401919091529490951b9094166034850152604880850192909252805180850390920182526068909301909252815191012090565b610b6761149f565b6001600160a01b0316816001600160a01b031614610bb65760405162461bcd60e51b815260040180806020018281038252602f815260200180611feb602f913960400191505060405180910390fd5b610b0a828261150c565b6001600160a01b0380871660009081526007602090815260408083208984529091529020548791879116610c35576040805162461bcd60e51b81526020600482015260176024820152762637b1b59d1d2737ba1029bab83837b93a102a37b5b2b760491b604482015290519081900360640190fd5b6001600160a01b0380891660009081526007602090815260408083208b84529091528120548a928a9291610c6c9185911684610b0e565b9050610c788133610f71565b610cc1576040805162461bcd60e51b815260206004820152601560248201527431b0b63632b91034b9903737ba1031b937b9b9b2b960591b604482015290519081900360640190fd5b856008816040518082805190602001908083835b60208310610cf45780518252601f199092019160209182019101610cd5565b51815160209384036101000a600019018019909216911617905292019485525060405193849003019092205460ff16159150610d679050576040805162461bcd60e51b815260206004820152600b60248201526a1d1e081d5b9b1bd8dad95960aa1b604482015290519081900360640190fd5b6000610d768d8c8c8c8c611575565b90508015610f415760016008896040518082805190602001908083835b60208310610db25780518252601f199092019160209182019101610d93565b51815160209384036101000a60001901801990921691161790529201948552506040519384900301909220805460ff19169315159390931790925550610e0490506001600160a01b038e168b8b6118dc565b6000600760008f6001600160a01b03166001600160a01b0316815260200190815260200160002060008e815260200190815260200160002060009054906101000a90046001600160a01b031690507f0c6a7c66882059d74054ca1f9deb21718c82c28d890c3eeeb7c35a50839abf008e828f8f8f8f8f60405180886001600160a01b03168152602001876001600160a01b03168152602001868152602001856001600160a01b03168152602001846001600160a01b0316815260200183815260200180602001828103825283818151815260200191508051906020019080838360005b83811015610eff578181015183820152602001610ee7565b50505050905090810190601f168015610f2c5780820380516001836020036101000a031916815260200191505b509850505050505050505060405180910390a1505b50505050505050505050505050565b6000828152600660205260408120610f68908361192e565b90505b92915050565b6000828152600660205260408120610f68908361193a565b805160208183018101805160088252928201919093012091525460ff1681565b610fb4600033610f71565b610ffb576040805162461bcd60e51b815260206004820152601360248201527231b0b63632b91034b9903737ba1030b236b4b760691b604482015290519081900360640190fd5b610b0a828261194f565b600081565b60016020526000908152604090205481565b6000818152600660205260408120610f6b906119b6565b60008281526006602052604090206002015461105190610ac061149f565b610bb65760405162461bcd60e51b8152600401808060200182810382526030815260200180611f616030913960400191505060405180910390fd5b60076020908152600092835260408084209091529082529020546001600160a01b031681565b6001600160a01b0380851660009081526007602090815260408083208784529091529020548591859116611127576040805162461bcd60e51b81526020600482015260176024820152762637b1b59d1d2737ba1029bab83837b93a102a37b5b2b760491b604482015290519081900360640190fd5b61113c6001600160a01b0387163330866119c1565b6001600160a01b0380871660008181526007602090815260408083208a8452825291829020548251938452841690830152818101889052336060830152918616608082015260a0810185905290517f4620c97568351e0eab160aa39863643b388e20b445120a289cb346344a2371229181900360c00190a1505050505050565b815183511461120b576040805162461bcd60e51b81526020600482015260166024820152750a8ded6cadc40d8cadccee8d040dcdee840dac2e8c6d60531b604482015290519081900360640190fd5b805183511461125a576040805162461bcd60e51b81526020600482015260166024820152750a8ded6cadc40d8cadccee8d040dcdee840dac2e8c6d60531b604482015290519081900360640190fd5b60005b83518110156112b2576112aa84828151811061127557fe5b602002602001015184838151811061128957fe5b602002602001015184848151811061129d57fe5b6020026020010151610992565b60010161125d565b50505050565b600060208181529181526040908190208054600180830154600280850154600386015460048701546005880180548a51601f600019998316156101000299909901909116959095049687018b90048b0285018b019099528584526001600160a01b0396871699948716989290961696909594909383018282801561137d5780601f106113525761010080835404028352916020019161137d565b820191906000526020600020905b81548152906001019060200180831161136057829003601f168201915b5050506006909301549192505060ff8082169161010090041688565b6113a4600033610f71565b6113eb576040805162461bcd60e51b815260206004820152601360248201527231b0b63632b91034b9903737ba1030b236b4b760691b604482015290519081900360640190fd5b6001600160a01b03828116600090815260076020908152604080832085845290915290205416611457576040805162461bcd60e51b8152602060048201526012602482015271151bdad9481b9bdd0814dd5c1c1bdc9d195960721b604482015290519081900360640190fd5b6001600160a01b0390911660009081526007602090815260408083209383529290522080546001600160a01b0319169055565b6000610f68836001600160a01b038416611a1b565b3390565b60008281526006602052604090206114bb908261148a565b15610b0a576114c861149f565b6001600160a01b0316816001600160a01b0316837f2f8788117e7eff1d82e926ec794901d17c78024a50270940304540a733656f0d60405160405180910390a45050565b60008281526006602052604090206115249082611a65565b15610b0a5761153161149f565b6001600160a01b0316816001600160a01b0316837ff6391f5c32d9c69d2a47ea670b442974b53935d1edc7fd64eb21e047a839171b60405160405180910390a45050565b6001600160a01b0385166000908152600160205260408120546115c95760405162461bcd60e51b8152600401808060200182810382526030815260200180611f916030913960400191505060405180910390fd5b600060016000886001600160a01b03166001600160a01b031681526020019081526020016000205490506000878787878760405160200180866001600160a01b031660601b8152601401856001600160a01b031660601b8152601401846001600160a01b031660601b815260140183815260200182805190602001908083835b602083106116685780518252601f199092019160209182019101611649565b51815160209384036101000a60001901801990921691161790526040805192909401828103601f19018352845281519181019190912060008181526002909252929020549198505060ff161515955061170a94505050505057600081815260056020908152604080832060019081905560028352818420805460ff19908116831790915560048452828520338652909352922080549091169091179055611825565b60008181526003602052604090205460ff161561176e576040805162461bcd60e51b815260206004820152601860248201527f5f766f74653a3a70726f706f73616c2066696e69736865640000000000000000604482015290519081900360640190fd5b600081815260046020908152604080832033845290915290205460ff16156117dd576040805162461bcd60e51b815260206004820152601760248201527f5f766f74653a3a6d73672e73656e64657220766f746564000000000000000000604482015290519081900360640190fd5b6000818152600560205260409020546117f7906001611a7a565b60008281526005602090815260408083209390935560048152828220338352905220805460ff191660011790555b6000818152600560205260409020548211611859576000818152600360205260409020805460ff1916600190811790915592505b6000818152600560209081526040918290205482516001600160a01b03808d168252808c1693820193909352918916828401526060820188905233608083015260a082015260c0810184905290517fe458477b94285c9f254a407e2614c39f55230b527ff7f51d76fdf33e251ae9369181900360e00190a1505095945050505050565b604080516001600160a01b038416602482015260448082018490528251808303909101815260649091019091526020810180516001600160e01b031663a9059cbb60e01b17905261098d908490611ad4565b6000610f688383611b85565b6000610f68836001600160a01b038416611be9565b6001600160a01b0382166000818152600160209081526040918290208054908590558251938452908301819052828201849052905190917fb18e91516e037486aa6fa38f56a8aac933fd127180efe9c9745ecbf660a78e44919081900360600190a1505050565b6000610f6b82611c01565b604080516001600160a01b0380861660248301528416604482015260648082018490528251808303909101815260849091019091526020810180516001600160e01b03166323b872dd60e01b1790526112b2908590611ad4565b6000611a278383611be9565b611a5d57508154600181810184556000848152602080822090930184905584548482528286019093526040902091909155610f6b565b506000610f6b565b6000610f68836001600160a01b038416611c05565b600082820183811015610f68576040805162461bcd60e51b815260206004820152601b60248201527f536166654d6174683a206164646974696f6e206f766572666c6f770000000000604482015290519081900360640190fd5b6000611b29826040518060400160405280602081526020017f5361666545524332303a206c6f772d6c6576656c2063616c6c206661696c6564815250856001600160a01b0316611ccb9092919063ffffffff16565b80519091501561098d57808060200190516020811015611b4857600080fd5b505161098d5760405162461bcd60e51b815260040180806020018281038252602a815260200180611fc1602a913960400191505060405180910390fd5b81546000908210611bc75760405162461bcd60e51b8152600401808060200182810382526022815260200180611eea6022913960400191505060405180910390fd5b826000018281548110611bd657fe5b9060005260206000200154905092915050565b60009081526001919091016020526040902054151590565b5490565b60008181526001830160205260408120548015611cc15783546000198083019190810190600090879083908110611c3857fe5b9060005260206000200154905080876000018481548110611c5557fe5b600091825260208083209091019290925582815260018981019092526040902090840190558654879080611c8557fe5b60019003818190600052602060002001600090559055866001016000878152602001908152602001600020600090556001945050505050610f6b565b6000915050610f6b565b6060611cda8484600085611ce4565b90505b9392505050565b606082471015611d255760405162461bcd60e51b8152600401808060200182810382526026815260200180611f3b6026913960400191505060405180910390fd5b611d2e85611e3f565b611d7f576040805162461bcd60e51b815260206004820152601d60248201527f416464726573733a2063616c6c20746f206e6f6e2d636f6e7472616374000000604482015290519081900360640190fd5b600080866001600160a01b031685876040518082805190602001908083835b60208310611dbd5780518252601f199092019160209182019101611d9e565b6001836020036101000a03801982511681845116808217855250505050505090500191505060006040518083038185875af1925050503d8060008114611e1f576040519150601f19603f3d011682016040523d82523d6000602084013e611e24565b606091505b5091509150611e34828286611e45565b979650505050505050565b3b151590565b60608315611e54575081611cdd565b825115611e645782518084602001fd5b8160405162461bcd60e51b81526004018080602001828103825283818151815260200191508051906020019080838360005b83811015611eae578181015183820152602001611e96565b50505050905090810190601f168015611edb5780820380516001836020036101000a031916815260200191505b509250505060405180910390fdfe456e756d657261626c655365743a20696e646578206f7574206f6620626f756e6473416363657373436f6e74726f6c3a2073656e646572206d75737420626520616e2061646d696e20746f206772616e74416464726573733a20696e73756666696369656e742062616c616e636520666f722063616c6c416363657373436f6e74726f6c3a2073656e646572206d75737420626520616e2061646d696e20746f207265766f6b6550726f706f73616c566f74653a207468726573686f6c642073686f756c642062652067726561746572207468616e20305361666545524332303a204552433230206f7065726174696f6e20646964206e6f742073756363656564416363657373436f6e74726f6c3a2063616e206f6e6c792072656e6f756e636520726f6c657320666f722073656c66a264697066735822122081654909b6b5fe02e461012d1d50555fe4172f29547c761e66c5abf8526a08c464736f6c63430007060033",
  "devdoc": {
    "kind": "dev",
    "methods": {
      "getRoleAdmin(bytes32)": {
        "details": "Returns the admin role that controls `role`. See {grantRole} and {revokeRole}. To change a role's admin, use {_setRoleAdmin}."
      },
      "getRoleMember(bytes32,uint256)": {
        "details": "Returns one of the accounts that have `role`. `index` must be a value between 0 and {getRoleMemberCount}, non-inclusive. Role bearers are not sorted in any particular way, and their ordering may change at any point. WARNING: When using {getRoleMember} and {getRoleMemberCount}, make sure you perform all queries on the same block. See the following https://forum.openzeppelin.com/t/iterating-over-elements-on-enumerableset-in-openzeppelin-contracts/2296[forum post] for more information."
      },
      "getRoleMemberCount(bytes32)": {
        "details": "Returns the number of accounts that have `role`. Can be used together with {getRoleMember} to enumerate all bearers of a role."
      },
      "grantRole(bytes32,address)": {
        "details": "Grants `role` to `account`. If `account` had not been already granted `role`, emits a {RoleGranted} event. Requirements: - the caller must have ``role``'s admin role."
      },
      "hasRole(bytes32,address)": {
        "details": "Returns `true` if `account` has been granted `role`."
      },
      "renounceRole(bytes32,address)": {
        "details": "Revokes `role` from the calling account. Roles are often managed via {grantRole} and {revokeRole}: this function's purpose is to provide a mechanism for accounts to lose their privileges if they are compromised (such as when a trusted device is misplaced). If the calling account had been granted `role`, emits a {RoleRevoked} event. Requirements: - the caller must be `account`."
      },
      "revokeRole(bytes32,address)": {
        "details": "Revokes `role` from `account`. If `account` had been granted `role`, emits a {RoleRevoked} event. Requirements: - the caller must have ``role``'s admin role."
      }
    },
    "version": 1
  },
  "userdoc": {
    "kind": "user",
    "methods": {},
    "version": 1
  },
  "storageLayout": {
    "storage": [
      {
        "astId": 3756,
        "contract": "contracts/CrossLock.sol:CrossLock",
        "label": "proposalOf",
        "offset": 0,
        "slot": "0",
        "type": "t_mapping(t_bytes32,t_struct(Proposal)3996_storage)"
      },
      {
        "astId": 3760,
        "contract": "contracts/CrossLock.sol:CrossLock",
        "label": "threshold",
        "offset": 0,
        "slot": "1",
        "type": "t_mapping(t_address,t_uint256)"
      },
      {
        "astId": 3764,
        "contract": "contracts/CrossLock.sol:CrossLock",
        "label": "isExist",
        "offset": 0,
        "slot": "2",
        "type": "t_mapping(t_bytes32,t_bool)"
      },
      {
        "astId": 3768,
        "contract": "contracts/CrossLock.sol:CrossLock",
        "label": "isFinished",
        "offset": 0,
        "slot": "3",
        "type": "t_mapping(t_bytes32,t_bool)"
      },
      {
        "astId": 3774,
        "contract": "contracts/CrossLock.sol:CrossLock",
        "label": "isVoted",
        "offset": 0,
        "slot": "4",
        "type": "t_mapping(t_bytes32,t_mapping(t_address,t_bool))"
      },
      {
        "astId": 3778,
        "contract": "contracts/CrossLock.sol:CrossLock",
        "label": "counter",
        "offset": 0,
        "slot": "5",
        "type": "t_mapping(t_bytes32,t_uint256)"
      },
      {
        "astId": 22,
        "contract": "contracts/CrossLock.sol:CrossLock",
        "label": "_roles",
        "offset": 0,
        "slot": "6",
        "type": "t_mapping(t_bytes32,t_struct(RoleData)18_storage)"
      },
      {
        "astId": 3139,
        "contract": "contracts/CrossLock.sol:CrossLock",
        "label": "supportToken",
        "offset": 0,
        "slot": "7",
        "type": "t_mapping(t_address,t_mapping(t_uint256,t_address))"
      },
      {
        "astId": 3143,
        "contract": "contracts/CrossLock.sol:CrossLock",
        "label": "txUnlocked",
        "offset": 0,
        "slot": "8",
        "type": "t_mapping(t_string_memory_ptr,t_bool)"
      }
    ],
    "types": {
      "t_address": {
        "encoding": "inplace",
        "label": "address",
        "numberOfBytes": "20"
      },
      "t_array(t_bytes32)dyn_storage": {
        "base": "t_bytes32",
        "encoding": "dynamic_array",
        "label": "bytes32[]",
        "numberOfBytes": "32"
      },
      "t_bool": {
        "encoding": "inplace",
        "label": "bool",
        "numberOfBytes": "1"
      },
      "t_bytes32": {
        "encoding": "inplace",
        "label": "bytes32",
        "numberOfBytes": "32"
      },
      "t_mapping(t_address,t_bool)": {
        "encoding": "mapping",
        "key": "t_address",
        "label": "mapping(address => bool)",
        "numberOfBytes": "32",
        "value": "t_bool"
      },
      "t_mapping(t_address,t_mapping(t_uint256,t_address))": {
        "encoding": "mapping",
        "key": "t_address",
        "label": "mapping(address => mapping(uint256 => address))",
        "numberOfBytes": "32",
        "value": "t_mapping(t_uint256,t_address)"
      },
      "t_mapping(t_address,t_uint256)": {
        "encoding": "mapping",
        "key": "t_address",
        "label": "mapping(address => uint256)",
        "numberOfBytes": "32",
        "value": "t_uint256"
      },
      "t_mapping(t_bytes32,t_bool)": {
        "encoding": "mapping",
        "key": "t_bytes32",
        "label": "mapping(bytes32 => bool)",
        "numberOfBytes": "32",
        "value": "t_bool"
      },
      "t_mapping(t_bytes32,t_mapping(t_address,t_bool))": {
        "encoding": "mapping",
        "key": "t_bytes32",
        "label": "mapping(bytes32 => mapping(address => bool))",
        "numberOfBytes": "32",
        "value": "t_mapping(t_address,t_bool)"
      },
      "t_mapping(t_bytes32,t_struct(Proposal)3996_storage)": {
        "encoding": "mapping",
        "key": "t_bytes32",
        "label": "mapping(bytes32 => struct Proposal)",
        "numberOfBytes": "32",
        "value": "t_struct(Proposal)3996_storage"
      },
      "t_mapping(t_bytes32,t_struct(RoleData)18_storage)": {
        "encoding": "mapping",
        "key": "t_bytes32",
        "label": "mapping(bytes32 => struct AccessControl.RoleData)",
        "numberOfBytes": "32",
        "value": "t_struct(RoleData)18_storage"
      },
      "t_mapping(t_bytes32,t_uint256)": {
        "encoding": "mapping",
        "key": "t_bytes32",
        "label": "mapping(bytes32 => uint256)",
        "numberOfBytes": "32",
        "value": "t_uint256"
      },
      "t_mapping(t_string_memory_ptr,t_bool)": {
        "encoding": "mapping",
        "key": "t_string_memory_ptr",
        "label": "mapping(string => bool)",
        "numberOfBytes": "32",
        "value": "t_bool"
      },
      "t_mapping(t_uint256,t_address)": {
        "encoding": "mapping",
        "key": "t_uint256",
        "label": "mapping(uint256 => address)",
        "numberOfBytes": "32",
        "value": "t_address"
      },
      "t_string_memory_ptr": {
        "encoding": "bytes",
        "label": "string",
        "numberOfBytes": "32"
      },
      "t_string_storage": {
        "encoding": "bytes",
        "label": "string",
        "numberOfBytes": "32"
      },
      "t_struct(AddressSet)2268_storage": {
        "encoding": "inplace",
        "label": "struct EnumerableSet.AddressSet",
        "members": [
          {
            "astId": 2267,
            "contract": "contracts/CrossLock.sol:CrossLock",
            "label": "_inner",
            "offset": 0,
            "slot": "0",
            "type": "t_struct(Set)2003_storage"
          }
        ],
        "numberOfBytes": "64"
      },
      "t_struct(Proposal)3996_storage": {
        "encoding": "inplace",
        "label": "struct Proposal",
        "members": [
          {
            "astId": 3977,
            "contract": "contracts/CrossLock.sol:CrossLock",
            "label": "tokenTo",
            "offset": 0,
            "slot": "0",
            "type": "t_address"
          },
          {
            "astId": 3979,
            "contract": "contracts/CrossLock.sol:CrossLock",
            "label": "from",
            "offset": 0,
            "slot": "1",
            "type": "t_address"
          },
          {
            "astId": 3981,
            "contract": "contracts/CrossLock.sol:CrossLock",
            "label": "to",
            "offset": 0,
            "slot": "2",
            "type": "t_address"
          },
          {
            "astId": 3983,
            "contract": "contracts/CrossLock.sol:CrossLock",
            "label": "amount",
            "offset": 0,
            "slot": "3",
            "type": "t_uint256"
          },
          {
            "astId": 3985,
            "contract": "contracts/CrossLock.sol:CrossLock",
            "label": "count",
            "offset": 0,
            "slot": "4",
            "type": "t_uint256"
          },
          {
            "astId": 3987,
            "contract": "contracts/CrossLock.sol:CrossLock",
            "label": "txid",
            "offset": 0,
            "slot": "5",
            "type": "t_string_storage"
          },
          {
            "astId": 3989,
            "contract": "contracts/CrossLock.sol:CrossLock",
            "label": "isFinished",
            "offset": 0,
            "slot": "6",
            "type": "t_bool"
          },
          {
            "astId": 3991,
            "contract": "contracts/CrossLock.sol:CrossLock",
            "label": "isExist",
            "offset": 1,
            "slot": "6",
            "type": "t_bool"
          },
          {
            "astId": 3995,
            "contract": "contracts/CrossLock.sol:CrossLock",
            "label": "isVoted",
            "offset": 0,
            "slot": "7",
            "type": "t_mapping(t_address,t_bool)"
          }
        ],
        "numberOfBytes": "256"
      },
      "t_struct(RoleData)18_storage": {
        "encoding": "inplace",
        "label": "struct AccessControl.RoleData",
        "members": [
          {
            "astId": 15,
            "contract": "contracts/CrossLock.sol:CrossLock",
            "label": "members",
            "offset": 0,
            "slot": "0",
            "type": "t_struct(AddressSet)2268_storage"
          },
          {
            "astId": 17,
            "contract": "contracts/CrossLock.sol:CrossLock",
            "label": "adminRole",
            "offset": 0,
            "slot": "2",
            "type": "t_bytes32"
          }
        ],
        "numberOfBytes": "96"
      },
      "t_struct(Set)2003_storage": {
        "encoding": "inplace",
        "label": "struct EnumerableSet.Set",
        "members": [
          {
            "astId": 1998,
            "contract": "contracts/CrossLock.sol:CrossLock",
            "label": "_values",
            "offset": 0,
            "slot": "0",
            "type": "t_array(t_bytes32)dyn_storage"
          },
          {
            "astId": 2002,
            "contract": "contracts/CrossLock.sol:CrossLock",
            "label": "_indexes",
            "offset": 0,
            "slot": "1",
            "type": "t_mapping(t_bytes32,t_uint256)"
          }
        ],
        "numberOfBytes": "64"
      },
      "t_uint256": {
        "encoding": "inplace",
        "label": "uint256",
        "numberOfBytes": "32"
      }
    }
  }
}