{
  "address": "0x05fc6766ADc968e2052C9Dc10899E6DbA7911e8F",
  "abi": [
    {
      "inputs": [],
      "stateMutability": "nonpayable",
      "type": "constructor"
    },
    {
      "anonymous": false,
      "inputs": [
        {
          "indexed": false,
          "internalType": "address",
          "name": "token0",
          "type": "address"
        },
        {
          "indexed": false,
          "internalType": "address",
          "name": "token1",
          "type": "address"
        },
        {
          "indexed": false,
          "internalType": "uint256",
          "name": "chainID0",
          "type": "uint256"
        },
        {
          "indexed": false,
          "internalType": "uint256",
          "name": "chainID1",
          "type": "uint256"
        },
        {
          "indexed": false,
          "internalType": "address",
          "name": "from",
          "type": "address"
        },
        {
          "indexed": false,
          "internalType": "address",
          "name": "to",
          "type": "address"
        },
        {
          "indexed": false,
          "internalType": "uint256",
          "name": "amount",
          "type": "uint256"
        }
      ],
      "name": "CrossBurn",
      "type": "event"
    },
    {
      "anonymous": false,
      "inputs": [
        {
          "indexed": false,
          "internalType": "address",
          "name": "token0",
          "type": "address"
        },
        {
          "indexed": false,
          "internalType": "address",
          "name": "token1",
          "type": "address"
        },
        {
          "indexed": false,
          "internalType": "uint256",
          "name": "chainID0",
          "type": "uint256"
        },
        {
          "indexed": false,
          "internalType": "uint256",
          "name": "chainID1",
          "type": "uint256"
        },
        {
          "indexed": false,
          "internalType": "address",
          "name": "from",
          "type": "address"
        },
        {
          "indexed": false,
          "internalType": "address",
          "name": "to",
          "type": "address"
        },
        {
          "indexed": false,
          "internalType": "uint256",
          "name": "amount",
          "type": "uint256"
        }
      ],
      "name": "Lock",
      "type": "event"
    },
    {
      "anonymous": false,
      "inputs": [
        {
          "indexed": false,
          "internalType": "address",
          "name": "token",
          "type": "address"
        },
        {
          "indexed": false,
          "internalType": "address",
          "name": "from",
          "type": "address"
        },
        {
          "indexed": false,
          "internalType": "address",
          "name": "to",
          "type": "address"
        },
        {
          "indexed": false,
          "internalType": "uint256",
          "name": "amount",
          "type": "uint256"
        },
        {
          "indexed": false,
          "internalType": "address",
          "name": "proposer",
          "type": "address"
        },
        {
          "indexed": false,
          "internalType": "uint256",
          "name": "count",
          "type": "uint256"
        },
        {
          "indexed": false,
          "internalType": "uint256",
          "name": "threshold",
          "type": "uint256"
        }
      ],
      "name": "ProposalVoted",
      "type": "event"
    },
    {
      "anonymous": false,
      "inputs": [
        {
          "indexed": true,
          "internalType": "bytes32",
          "name": "role",
          "type": "bytes32"
        },
        {
          "indexed": true,
          "internalType": "bytes32",
          "name": "previousAdminRole",
          "type": "bytes32"
        },
        {
          "indexed": true,
          "internalType": "bytes32",
          "name": "newAdminRole",
          "type": "bytes32"
        }
      ],
      "name": "RoleAdminChanged",
      "type": "event"
    },
    {
      "anonymous": false,
      "inputs": [
        {
          "indexed": true,
          "internalType": "bytes32",
          "name": "role",
          "type": "bytes32"
        },
        {
          "indexed": true,
          "internalType": "address",
          "name": "account",
          "type": "address"
        },
        {
          "indexed": true,
          "internalType": "address",
          "name": "sender",
          "type": "address"
        }
      ],
      "name": "RoleGranted",
      "type": "event"
    },
    {
      "anonymous": false,
      "inputs": [
        {
          "indexed": true,
          "internalType": "bytes32",
          "name": "role",
          "type": "bytes32"
        },
        {
          "indexed": true,
          "internalType": "address",
          "name": "account",
          "type": "address"
        },
        {
          "indexed": true,
          "internalType": "address",
          "name": "sender",
          "type": "address"
        }
      ],
      "name": "RoleRevoked",
      "type": "event"
    },
    {
      "anonymous": false,
      "inputs": [
        {
          "indexed": false,
          "internalType": "address",
          "name": "token0",
          "type": "address"
        },
        {
          "indexed": false,
          "internalType": "address",
          "name": "token1",
          "type": "address"
        },
        {
          "indexed": false,
          "internalType": "uint256",
          "name": "chainID0",
          "type": "uint256"
        },
        {
          "indexed": false,
          "internalType": "uint256",
          "name": "chainID1",
          "type": "uint256"
        },
        {
          "indexed": false,
          "internalType": "address",
          "name": "from",
          "type": "address"
        },
        {
          "indexed": false,
          "internalType": "address",
          "name": "to",
          "type": "address"
        },
        {
          "indexed": false,
          "internalType": "uint256",
          "name": "amount",
          "type": "uint256"
        },
        {
          "indexed": false,
          "internalType": "string",
          "name": "txid",
          "type": "string"
        }
      ],
      "name": "Rollback",
      "type": "event"
    },
    {
      "anonymous": false,
      "inputs": [
        {
          "indexed": false,
          "internalType": "address",
          "name": "token0",
          "type": "address"
        },
        {
          "indexed": false,
          "internalType": "address",
          "name": "from",
          "type": "address"
        },
        {
          "indexed": false,
          "internalType": "uint256",
          "name": "amount",
          "type": "uint256"
        },
        {
          "indexed": false,
          "internalType": "string",
          "name": "txid",
          "type": "string"
        }
      ],
      "name": "Rollbacked",
      "type": "event"
    },
    {
      "anonymous": false,
      "inputs": [
        {
          "indexed": false,
          "internalType": "address",
          "name": "token",
          "type": "address"
        },
        {
          "indexed": false,
          "internalType": "uint256",
          "name": "oldThreshold",
          "type": "uint256"
        },
        {
          "indexed": false,
          "internalType": "uint256",
          "name": "newThreshold",
          "type": "uint256"
        }
      ],
      "name": "ThresholdChanged",
      "type": "event"
    },
    {
      "anonymous": false,
      "inputs": [
        {
          "indexed": false,
          "internalType": "address",
          "name": "token0",
          "type": "address"
        },
        {
          "indexed": false,
          "internalType": "address",
          "name": "token1",
          "type": "address"
        },
        {
          "indexed": false,
          "internalType": "uint256",
          "name": "chianID0",
          "type": "uint256"
        },
        {
          "indexed": false,
          "internalType": "uint256",
          "name": "chainID1",
          "type": "uint256"
        },
        {
          "indexed": false,
          "internalType": "address",
          "name": "from",
          "type": "address"
        },
        {
          "indexed": false,
          "internalType": "address",
          "name": "to",
          "type": "address"
        },
        {
          "indexed": false,
          "internalType": "uint256",
          "name": "amount",
          "type": "uint256"
        },
        {
          "indexed": false,
          "internalType": "string",
          "name": "txid",
          "type": "string"
        }
      ],
      "name": "Unlock",
      "type": "event"
    },
    {
      "inputs": [],
      "name": "CROSSER_ROLE",
      "outputs": [
        {
          "internalType": "bytes32",
          "name": "",
          "type": "bytes32"
        }
      ],
      "stateMutability": "view",
      "type": "function"
    },
    {
      "inputs": [],
      "name": "DEFAULT_ADMIN_ROLE",
      "outputs": [
        {
          "internalType": "bytes32",
          "name": "",
          "type": "bytes32"
        }
      ],
      "stateMutability": "view",
      "type": "function"
    },
    {
      "inputs": [
        {
          "internalType": "address",
          "name": "token0",
          "type": "address"
        },
        {
          "internalType": "address",
          "name": "token1",
          "type": "address"
        },
        {
          "internalType": "uint256",
          "name": "chainID",
          "type": "uint256"
        }
      ],
      "name": "addSupportToken",
      "outputs": [],
      "stateMutability": "nonpayable",
      "type": "function"
    },
    {
      "inputs": [
        {
          "internalType": "address[]",
          "name": "token0s",
          "type": "address[]"
        },
        {
          "internalType": "address[]",
          "name": "token1s",
          "type": "address[]"
        },
        {
          "internalType": "uint256[]",
          "name": "chainIDs",
          "type": "uint256[]"
        }
      ],
      "name": "addSupportTokens",
      "outputs": [],
      "stateMutability": "nonpayable",
      "type": "function"
    },
    {
      "inputs": [
        {
          "internalType": "address",
          "name": "token0",
          "type": "address"
        },
        {
          "internalType": "uint256",
          "name": "chainID",
          "type": "uint256"
        },
        {
          "internalType": "address",
          "name": "to",
          "type": "address"
        },
        {
          "internalType": "uint256",
          "name": "amount",
          "type": "uint256"
        }
      ],
      "name": "burnBoringToken",
      "outputs": [],
      "stateMutability": "nonpayable",
      "type": "function"
    },
    {
      "inputs": [
        {
          "internalType": "address",
          "name": "token0",
          "type": "address"
        },
        {
          "internalType": "uint256",
          "name": "chainID",
          "type": "uint256"
        },
        {
          "internalType": "address",
          "name": "from",
          "type": "address"
        },
        {
          "internalType": "address",
          "name": "to",
          "type": "address"
        },
        {
          "internalType": "uint256",
          "name": "amount",
          "type": "uint256"
        },
        {
          "internalType": "string",
          "name": "txid",
          "type": "string"
        }
      ],
      "name": "crossIn",
      "outputs": [],
      "stateMutability": "nonpayable",
      "type": "function"
    },
    {
      "inputs": [
        {
          "internalType": "address",
          "name": "token0",
          "type": "address"
        },
        {
          "internalType": "uint256",
          "name": "chainID",
          "type": "uint256"
        },
        {
          "internalType": "address",
          "name": "to",
          "type": "address"
        },
        {
          "internalType": "uint256",
          "name": "amount",
          "type": "uint256"
        }
      ],
      "name": "crossOut",
      "outputs": [],
      "stateMutability": "nonpayable",
      "type": "function"
    },
    {
      "inputs": [
        {
          "internalType": "bytes32",
          "name": "role",
          "type": "bytes32"
        }
      ],
      "name": "getRoleAdmin",
      "outputs": [
        {
          "internalType": "bytes32",
          "name": "",
          "type": "bytes32"
        }
      ],
      "stateMutability": "view",
      "type": "function"
    },
    {
      "inputs": [
        {
          "internalType": "bytes32",
          "name": "role",
          "type": "bytes32"
        },
        {
          "internalType": "address",
          "name": "account",
          "type": "address"
        }
      ],
      "name": "grantRole",
      "outputs": [],
      "stateMutability": "nonpayable",
      "type": "function"
    },
    {
      "inputs": [
        {
          "internalType": "bytes32",
          "name": "role",
          "type": "bytes32"
        },
        {
          "internalType": "address",
          "name": "account",
          "type": "address"
        }
      ],
      "name": "hasRole",
      "outputs": [
        {
          "internalType": "bool",
          "name": "",
          "type": "bool"
        }
      ],
      "stateMutability": "view",
      "type": "function"
    },
    {
      "inputs": [],
      "name": "pegSwap",
      "outputs": [
        {
          "internalType": "contract IPegSwap",
          "name": "",
          "type": "address"
        }
      ],
      "stateMutability": "view",
      "type": "function"
    },
    {
      "inputs": [
        {
          "internalType": "address",
          "name": "token0",
          "type": "address"
        },
        {
          "internalType": "uint256",
          "name": "chainID",
          "type": "uint256"
        }
      ],
      "name": "removeSupportToken",
      "outputs": [],
      "stateMutability": "nonpayable",
      "type": "function"
    },
    {
      "inputs": [
        {
          "internalType": "address[]",
          "name": "token0s",
          "type": "address[]"
        },
        {
          "internalType": "uint256[]",
          "name": "chainIDs",
          "type": "uint256[]"
        }
      ],
      "name": "removeSupportTokens",
      "outputs": [],
      "stateMutability": "nonpayable",
      "type": "function"
    },
    {
      "inputs": [
        {
          "internalType": "bytes32",
          "name": "role",
          "type": "bytes32"
        },
        {
          "internalType": "address",
          "name": "account",
          "type": "address"
        }
      ],
      "name": "renounceRole",
      "outputs": [],
      "stateMutability": "nonpayable",
      "type": "function"
    },
    {
      "inputs": [
        {
          "internalType": "bytes32",
          "name": "role",
          "type": "bytes32"
        },
        {
          "internalType": "address",
          "name": "account",
          "type": "address"
        }
      ],
      "name": "revokeRole",
      "outputs": [],
      "stateMutability": "nonpayable",
      "type": "function"
    },
    {
      "inputs": [
        {
          "internalType": "address",
          "name": "token0",
          "type": "address"
        },
        {
          "internalType": "uint256",
          "name": "chainID",
          "type": "uint256"
        },
        {
          "internalType": "address",
          "name": "from",
          "type": "address"
        },
        {
          "internalType": "uint256",
          "name": "amount",
          "type": "uint256"
        },
        {
          "internalType": "string",
          "name": "txid",
          "type": "string"
        }
      ],
      "name": "rollback",
      "outputs": [],
      "stateMutability": "nonpayable",
      "type": "function"
    },
    {
      "inputs": [
        {
          "internalType": "address",
          "name": "_pegSwap",
          "type": "address"
        }
      ],
      "name": "setPegSwap",
      "outputs": [],
      "stateMutability": "nonpayable",
      "type": "function"
    },
    {
      "inputs": [
        {
          "internalType": "address",
          "name": "token",
          "type": "address"
        },
        {
          "internalType": "uint256",
          "name": "_threshold",
          "type": "uint256"
        }
      ],
      "name": "setThreshold",
      "outputs": [],
      "stateMutability": "nonpayable",
      "type": "function"
    },
    {
      "inputs": [
        {
          "internalType": "address",
          "name": "",
          "type": "address"
        },
        {
          "internalType": "uint256",
          "name": "",
          "type": "uint256"
        }
      ],
      "name": "supportToken",
      "outputs": [
        {
          "internalType": "address",
          "name": "",
          "type": "address"
        }
      ],
      "stateMutability": "view",
      "type": "function"
    },
    {
      "inputs": [
        {
          "internalType": "bytes4",
          "name": "interfaceId",
          "type": "bytes4"
        }
      ],
      "name": "supportsInterface",
      "outputs": [
        {
          "internalType": "bool",
          "name": "",
          "type": "bool"
        }
      ],
      "stateMutability": "view",
      "type": "function"
    },
    {
      "inputs": [
        {
          "internalType": "address",
          "name": "",
          "type": "address"
        }
      ],
      "name": "threshold",
      "outputs": [
        {
          "internalType": "uint256",
          "name": "",
          "type": "uint256"
        }
      ],
      "stateMutability": "view",
      "type": "function"
    },
    {
      "inputs": [
        {
          "internalType": "string",
          "name": "",
          "type": "string"
        }
      ],
      "name": "txMinted",
      "outputs": [
        {
          "internalType": "bool",
          "name": "",
          "type": "bool"
        }
      ],
      "stateMutability": "view",
      "type": "function"
    },
    {
      "inputs": [
        {
          "internalType": "string",
          "name": "",
          "type": "string"
        }
      ],
      "name": "txRollbacked",
      "outputs": [
        {
          "internalType": "bool",
          "name": "",
          "type": "bool"
        }
      ],
      "stateMutability": "view",
      "type": "function"
    },
    {
      "inputs": [
        {
          "internalType": "string",
          "name": "",
          "type": "string"
        }
      ],
      "name": "txUnlocked",
      "outputs": [
        {
          "internalType": "bool",
          "name": "",
          "type": "bool"
        }
      ],
      "stateMutability": "view",
      "type": "function"
    },
    {
      "inputs": [
        {
          "internalType": "address",
          "name": "token0",
          "type": "address"
        },
        {
          "internalType": "uint256",
          "name": "chainID",
          "type": "uint256"
        },
        {
          "internalType": "address",
          "name": "from",
          "type": "address"
        },
        {
          "internalType": "address",
          "name": "to",
          "type": "address"
        },
        {
          "internalType": "uint256",
          "name": "amount",
          "type": "uint256"
        },
        {
          "internalType": "string",
          "name": "txid",
          "type": "string"
        }
      ],
      "name": "unlock",
      "outputs": [],
      "stateMutability": "nonpayable",
      "type": "function"
    }
  ],
  "transactionHash": "0xb950b772ccb68704468235157b5fbddb058dfc13f3005c662ecca93bebfc9726",
  "args": [],
  "solcInputHash": "7bb531626318bdf5f5e606a30c007076",
  "bytecode": "0x60806040523480156200001157600080fd5b506200001f60003362000025565b620000d9565b62000031828262000035565b5050565b60008281526004602090815260408083206001600160a01b038516845290915290205460ff16620000315760008281526004602090815260408083206001600160a01b03851684529091529020805460ff19166001179055620000953390565b6001600160a01b0316816001600160a01b0316837f2f8788117e7eff1d82e926ec794901d17c78024a50270940304540a733656f0d60405160405180910390a45050565b6129f180620000e96000396000f3fe608060405234801561001057600080fd5b50600436106101735760003560e01c806381660f5d116100de578063c86ec2bf11610097578063d692f4c511610071578063d692f4c5146103aa578063df7e600a146103de578063ee8a6acf146103f1578063f8f8d5c01461040457600080fd5b8063c86ec2bf14610364578063cf28f67c14610384578063d547741f1461039757600080fd5b806381660f5d146102e257806391d14854146102f5578063967145af146103085780639d87999014610336578063a217fddf14610349578063afd513901461035157600080fd5b80632e6bef33116101305780632e6bef331461023a5780632f2ff15d1461026557806336568abe1461027857806353ad72e51461028b57806356cf02d9146102b9578063715ec45c146102cf57600080fd5b806301ffc9a71461017857806303507ba5146101a057806310c27402146101b557806314681c84146101e35780631b322be4146101f6578063248a9ca314610209575b600080fd5b61018b6101863660046124fb565b610417565b60405190151581526020015b60405180910390f35b6101b36101ae366004612433565b61044e565b005b61018b6101c3366004612523565b805160208183018101805160078252928201919093012091525460ff1681565b6101b36101f13660046121cc565b6104f3565b6101b3610204366004612204565b61053c565b61022c6102173660046124b4565b60009081526004602052604090206001015490565b604051908152602001610197565b60055461024d906001600160a01b031681565b6040516001600160a01b039091168152602001610197565b6101b36102733660046124cc565b61060e565b6101b36102863660046124cc565b610634565b61018b610299366004612523565b805160208183018101805160098252928201919093012091525460ff1681565b61022c6b43524f535345525f524f4c4560a01b81565b6101b36102dd36600461226f565b6106b2565b6101b36102f036600461233b565b61086d565b61018b6103033660046124cc565b610a6a565b61018b610316366004612523565b805160208183018101805160088252928201919093012091525460ff1681565b6101b3610344366004612244565b610a95565b61022c600081565b6101b361035f3660046122f4565b610ac6565b61022c6103723660046121cc565b60006020819052908152604090205481565b6101b361039236600461226f565b610db8565b6101b36103a53660046124cc565b611202565b61024d6103b8366004612244565b60066020908152600092835260408084209091529082529020546001600160a01b031681565b6101b36103ec3660046122f4565b611228565b6101b36103ff3660046123af565b6115bb565b6101b3610412366004612244565b6116d1565b60006001600160e01b03198216637965db0b60e01b148061044857506301ffc9a760e01b6001600160e01b03198316145b92915050565b80518251146104785760405162461bcd60e51b815260040161046f906127fc565b60405180910390fd5b60005b82518110156104ee576104dc8382815181106104a757634e487b7160e01b600052603260045260246000fd5b60200260200101518383815181106104cf57634e487b7160e01b600052603260045260246000fd5b60200260200101516116d1565b806104e68161295c565b91505061047b565b505050565b6104fe600033610a6a565b61051a5760405162461bcd60e51b815260040161046f9061283f565b600580546001600160a01b0319166001600160a01b0392909216919091179055565b610547600033610a6a565b6105635760405162461bcd60e51b815260040161046f9061283f565b6001600160a01b03838116600090815260066020908152604080832085845290915290205416156105d65760405162461bcd60e51b815260206004820181905260248201527f50656750726f78793a20546f6b6520616c726561647920537570706f72746564604482015260640161046f565b6001600160a01b0392831660009081526006602090815260408083209383529290522080546001600160a01b03191691909216179055565b60008281526004602052604090206001015461062a813361179d565b6104ee8383611801565b6001600160a01b03811633146106a45760405162461bcd60e51b815260206004820152602f60248201527f416363657373436f6e74726f6c3a2063616e206f6e6c792072656e6f756e636560448201526e103937b632b9903337b91039b2b63360891b606482015260840161046f565b6106ae8282611887565b5050565b6001600160a01b03808716600090815260066020908152604080832089845290915290205487918791166106f85760405162461bcd60e51b815260040161046f906127c7565b6107116b43524f535345525f524f4c4560a01b33610a6a565b61072d5760405162461bcd60e51b815260040161046f90612790565b8260088160405161073e91906125f3565b9081526040519081900360200190205460ff16156107965760405162461bcd60e51b8152602060048201526015602482015274141959d41c9bde1e4e881d1e081d5b9b1bd8dad959605a1b604482015260640161046f565b60006107a58a898989896118ee565b905080156108615760016008866040516107bf91906125f3565b908152604051908190036020019020805491151560ff199092169190911790556107f36001600160a01b038b168888611b76565b6001600160a01b03808b1660009081526006602090815260408083208d8452909152908190205490517fe8a9cddb11d86358ad5c2fdd6359f0a6f41de0d399033319becf1364409dacbc92610858928e9291169046908e908e908e908e908e90612703565b60405180910390a15b50505050505050505050565b6001600160a01b03808616600090815260066020908152604080832088845290915290205486918691166108b35760405162461bcd60e51b815260040161046f906127c7565b6108cc6b43524f535345525f524f4c4560a01b33610a6a565b6108e85760405162461bcd60e51b815260040161046f90612790565b826009816040516108f991906125f3565b9081526040519081900360200190205460ff16156109595760405162461bcd60e51b815260206004820152601760248201527f50656750726f78793a20747820726f6c6c6261636b6564000000000000000000604482015260640161046f565b600061096889888989896118ee565b90508015610a5f57600160098660405161098291906125f3565b908152604051908190036020018120805492151560ff199093169290921790915563a9059cbb60e01b81526001600160a01b038a169063a9059cbb906109ce908a908a90600401612764565b602060405180830381600087803b1580156109e857600080fd5b505af11580156109fc573d6000803e3d6000fd5b505050506040513d601f19601f82011682018060405250810190610a209190612494565b507f9420db1a0c5e4f45cc0dac05f17e8eb893645981e3c01e8d14120353a487d9e989888888604051610a569493929190612684565b60405180910390a15b505050505050505050565b60009182526004602090815260408084206001600160a01b0393909316845291905290205460ff1690565b610aa0600033610a6a565b610abc5760405162461bcd60e51b815260040161046f9061283f565b6106ae8282611bcc565b6001600160a01b0380851660009081526006602090815260408083208784529091529020548591859116610b0c5760405162461bcd60e51b815260040161046f906127c7565b600554604051626349fb60e01b81526000916001600160a01b031690626349fb90610b3d908a908a90600401612764565b60206040518083038186803b158015610b5557600080fd5b505afa158015610b69573d6000803e3d6000fd5b505050506040513d601f19601f82011682018060405250810190610b8d91906121e8565b90506000816001600160a01b031663d21220a76040518163ffffffff1660e01b8152600401602060405180830381600087803b158015610bcc57600080fd5b505af1158015610be0573d6000803e3d6000fd5b505050506040513d601f19601f82011682018060405250810190610c0491906121e8565b6040516370a0823160e01b815233600482015290915085906001600160a01b038316906370a082319060240160206040518083038186803b158015610c4857600080fd5b505afa158015610c5c573d6000803e3d6000fd5b505050506040513d601f19601f82011682018060405250810190610c809190612556565b1015610ce45760405162461bcd60e51b815260206004820152602d60248201527f50656750726f78793a206d73672e73656e646572206e6f7420656e6f7567682060448201526c3a37b5b2b7103a3790313ab93760991b606482015260840161046f565b604051632770a7eb60e21b81526001600160a01b03821690639dc29fac90610d129033908990600401612764565b600060405180830381600087803b158015610d2c57600080fd5b505af1158015610d40573d6000803e3d6000fd5b5050506001600160a01b03808a1660009081526006602090815260408083208c8452909152908190205490517f79aee25f54411be6ea1ab53c9d3cc3e245c301d481091deda6343da926932c0c9350610da6928c92169046908c9033908d908d906126c1565b60405180910390a15050505050505050565b610dd16b43524f535345525f524f4c4560a01b33610a6a565b610ded5760405162461bcd60e51b815260040161046f90612790565b80600781604051610dfe91906125f3565b9081526040519081900360200190205460ff1615610e545760405162461bcd60e51b8152602060048201526013602482015272141959d41c9bde1e4e881d1e081b5a5b9d1959606a1b604482015260640161046f565b6000610e6388878787876118ee565b905080156111f8576001600784604051610e7d91906125f3565b908152604051908190036020018120805492151560ff1990931692909217909155600554626349fb60e01b82526000916001600160a01b0390911690626349fb90610ece908c908c90600401612764565b60206040518083038186803b158015610ee657600080fd5b505afa158015610efa573d6000803e3d6000fd5b505050506040513d601f19601f82011682018060405250810190610f1e91906121e8565b90506000816001600160a01b031663d21220a76040518163ffffffff1660e01b8152600401602060405180830381600087803b158015610f5d57600080fd5b505af1158015610f71573d6000803e3d6000fd5b505050506040513d601f19601f82011682018060405250810190610f9591906121e8565b60055460405163934ac70760e01b81529192506000916001600160a01b039091169063934ac70790610fcd908e908e90600401612764565b60206040518083038186803b158015610fe557600080fd5b505afa158015610ff9573d6000803e3d6000fd5b505050506040513d601f19601f8201168201806040525081019061101d9190612556565b905080871115611099576001600160a01b03808c1660009081526006602090815260408083208e8452909152908190205490517f56a316ee63540abb5f8fd44be7a6eb2016a90fc9bb3a34ffe13948a44c49a6169261108c928f9291169046908f908f908f908f908f90612703565b60405180910390a16111f4565b6040516340c10f1960e01b81526001600160a01b038316906340c10f19906110c79030908b90600401612764565b600060405180830381600087803b1580156110e157600080fd5b505af11580156110f5573d6000803e3d6000fd5b505060055460405163095ea7b360e01b81526001600160a01b03808716945063095ea7b3935061112b9216908b90600401612764565b602060405180830381600087803b15801561114557600080fd5b505af1158015611159573d6000803e3d6000fd5b505050506040513d601f19601f8201168201806040525081019061117d9190612494565b506005546040516340ec172360e01b81526001600160a01b038d81166004830152602482018d9052604482018a90528a81166064830152909116906340ec172390608401600060405180830381600087803b1580156111db57600080fd5b505af11580156111ef573d6000803e3d6000fd5b505050505b5050505b5050505050505050565b60008281526004602052604090206001015461121e813361179d565b6104ee8383611887565b6001600160a01b038085166000908152600660209081526040808320878452909152902054859185911661126e5760405162461bcd60e51b815260040161046f906127c7565b600083116112ce5760405162461bcd60e51b815260206004820152602760248201527f50656750726f78793a20616d6f756e74206d75737420626520677265617465726044820152660207468616e20360cc1b606482015260840161046f565b6001600160a01b03841661131c5760405162461bcd60e51b815260206004820152601560248201527450656750726f78793a20746f20697320656d70747960581b604482015260640161046f565b6040516323b872dd60e01b8152336004820152306024820152604481018490526001600160a01b038716906323b872dd90606401602060405180830381600087803b15801561136a57600080fd5b505af115801561137e573d6000803e3d6000fd5b505050506040513d601f19601f820116820180604052508101906113a29190612494565b506005546040516356ecaeb760e01b81526000916001600160a01b0316906356ecaeb7906113d6908a908a90600401612764565b60206040518083038186803b1580156113ee57600080fd5b505afa158015611402573d6000803e3d6000fd5b505050506040513d601f19601f820116820180604052508101906114269190612556565b905060006114348583611c30565b905080156115425760055460405163095ea7b360e01b81526001600160a01b038a81169263095ea7b39261147092909116908590600401612764565b602060405180830381600087803b15801561148a57600080fd5b505af115801561149e573d6000803e3d6000fd5b505050506040513d601f19601f820116820180604052508101906114c29190612494565b506005546040516313fcb20160e21b81526001600160a01b038a81166004830152602482018a90526044820184905233606483015290911690634ff2c80490608401600060405180830381600087803b15801561151e57600080fd5b505af1158015611532573d6000803e3d6000fd5b5050505061154288888884610ac6565b818511156111f85760006115568683611c48565b6001600160a01b03808b1660009081526006602090815260408083208d8452909152908190205490519293507f7cb5e2d54d5587c3a3448631884061009b0e2c30e37922a4dd4aed50e11dd7f392610a56928d92169046908d9033908e9089906126c1565b815183511461160c5760405162461bcd60e51b815260206004820181905260248201527f50656750726f78793a20746f6b656e206c656e677468206e6f74206d61746368604482015260640161046f565b805183511461162d5760405162461bcd60e51b815260040161046f906127fc565b60005b83518110156116cb576116b984828151811061165c57634e487b7160e01b600052603260045260246000fd5b602002602001015184838151811061168457634e487b7160e01b600052603260045260246000fd5b60200260200101518484815181106116ac57634e487b7160e01b600052603260045260246000fd5b602002602001015161053c565b806116c38161295c565b915050611630565b50505050565b6116dc600033610a6a565b6116f85760405162461bcd60e51b815260040161046f9061283f565b6001600160a01b0382811660009081526006602090815260408083208584529091529020541661176a5760405162461bcd60e51b815260206004820152601c60248201527f50656750726f78793a20746f6b65206e6f7420737570706f7274656400000000604482015260640161046f565b6001600160a01b0390911660009081526006602090815260408083209383529290522080546001600160a01b0319169055565b6117a78282610a6a565b6106ae576117bf816001600160a01b03166014611c54565b6117ca836020611c54565b6040516020016117db92919061260f565b60408051601f198184030181529082905262461bcd60e51b825261046f9160040161277d565b61180b8282610a6a565b6106ae5760008281526004602090815260408083206001600160a01b03851684529091529020805460ff191660011790556118433390565b6001600160a01b0316816001600160a01b0316837f2f8788117e7eff1d82e926ec794901d17c78024a50270940304540a733656f0d60405160405180910390a45050565b6118918282610a6a565b156106ae5760008281526004602090815260408083206001600160a01b0385168085529252808320805460ff1916905551339285917ff6391f5c32d9c69d2a47ea670b442974b53935d1edc7fd64eb21e047a839171b9190a45050565b6001600160a01b03851660009081526020819052604081205461196c5760405162461bcd60e51b815260206004820152603060248201527f50726f706f73616c566f74653a207468726573686f6c642073686f756c64206260448201526f0652067726561746572207468616e20360841b606482015260840161046f565b6001600160a01b03861660009081526020818152604080832054905190929161199f918a918a918a918a918a910161259a565b60408051601f1981840301815291815281516020928301206000818152600190935291205490915060ff1615611a175760405162461bcd60e51b815260206004820152601860248201527f5f766f74653a3a70726f706f73616c2066696e69736865640000000000000000604482015260640161046f565b600081815260026020908152604080832033845290915290205460ff1615611a815760405162461bcd60e51b815260206004820152601760248201527f5f766f74653a3a6d73672e73656e64657220766f746564000000000000000000604482015260640161046f565b600081815260036020526040902054611a9b906001611e36565b60008281526003602081815260408084209485556002825280842033855282528320805460ff19166001179055918490529052548211611af3576000818152600160208190526040909120805460ff19168217905592505b6000818152600360209081526040918290205482516001600160a01b038c811682528b811693820193909352918916828401526060820188905233608083015260a082015260c0810184905290517fe458477b94285c9f254a407e2614c39f55230b527ff7f51d76fdf33e251ae9369181900360e00190a1505095945050505050565b6104ee8363a9059cbb60e01b8484604051602401611b95929190612764565b60408051601f198184030181529190526020810180516001600160e01b03166001600160e01b031990931692909217909152611e42565b6001600160a01b038216600081815260208181526040918290208054908590558251938452908301819052908201839052907fb18e91516e037486aa6fa38f56a8aac933fd127180efe9c9745ecbf660a78e449060600160405180910390a1505050565b6000818310611c3f5781611c41565b825b9392505050565b6000611c418284612902565b60606000611c638360026128e3565b611c6e9060026128cb565b67ffffffffffffffff811115611c9457634e487b7160e01b600052604160045260246000fd5b6040519080825280601f01601f191660200182016040528015611cbe576020820181803683370190505b509050600360fc1b81600081518110611ce757634e487b7160e01b600052603260045260246000fd5b60200101906001600160f81b031916908160001a905350600f60fb1b81600181518110611d2457634e487b7160e01b600052603260045260246000fd5b60200101906001600160f81b031916908160001a9053506000611d488460026128e3565b611d539060016128cb565b90505b6001811115611de7576f181899199a1a9b1b9c1cb0b131b232b360811b85600f1660108110611d9557634e487b7160e01b600052603260045260246000fd5b1a60f81b828281518110611db957634e487b7160e01b600052603260045260246000fd5b60200101906001600160f81b031916908160001a90535060049490941c93611de081612945565b9050611d56565b508315611c415760405162461bcd60e51b815260206004820181905260248201527f537472696e67733a20686578206c656e67746820696e73756666696369656e74604482015260640161046f565b6000611c4182846128cb565b6000611e97826040518060400160405280602081526020017f5361666545524332303a206c6f772d6c6576656c2063616c6c206661696c6564815250856001600160a01b0316611f149092919063ffffffff16565b8051909150156104ee5780806020019051810190611eb59190612494565b6104ee5760405162461bcd60e51b815260206004820152602a60248201527f5361666545524332303a204552433230206f7065726174696f6e20646964206e6044820152691bdd081cdd58d8d9595960b21b606482015260840161046f565b6060611f238484600085611f2b565b949350505050565b606082471015611f8c5760405162461bcd60e51b815260206004820152602660248201527f416464726573733a20696e73756666696369656e742062616c616e636520666f6044820152651c8818d85b1b60d21b606482015260840161046f565b843b611fda5760405162461bcd60e51b815260206004820152601d60248201527f416464726573733a2063616c6c20746f206e6f6e2d636f6e7472616374000000604482015260640161046f565b600080866001600160a01b03168587604051611ff691906125f3565b60006040518083038185875af1925050503d8060008114612033576040519150601f19603f3d011682016040523d82523d6000602084013e612038565b606091505b5091509150612048828286612053565b979650505050505050565b60608315612062575081611c41565b8251156120725782518084602001fd5b8160405162461bcd60e51b815260040161046f919061277d565b600082601f83011261209c578081fd5b813560206120b16120ac836128a7565b612876565b80838252828201915082860187848660051b89010111156120d0578586fd5b855b858110156120f75781356120e5816129a3565b845292840192908401906001016120d2565b5090979650505050505050565b600082601f830112612114578081fd5b813560206121246120ac836128a7565b80838252828201915082860187848660051b8901011115612143578586fd5b855b858110156120f757813584529284019290840190600101612145565b600082601f830112612171578081fd5b813567ffffffffffffffff81111561218b5761218b61298d565b61219e601f8201601f1916602001612876565b8181528460208386010111156121b2578283fd5b816020850160208301379081016020019190915292915050565b6000602082840312156121dd578081fd5b8135611c41816129a3565b6000602082840312156121f9578081fd5b8151611c41816129a3565b600080600060608486031215612218578182fd5b8335612223816129a3565b92506020840135612233816129a3565b929592945050506040919091013590565b60008060408385031215612256578182fd5b8235612261816129a3565b946020939093013593505050565b60008060008060008060c08789031215612287578182fd5b8635612292816129a3565b95506020870135945060408701356122a9816129a3565b935060608701356122b9816129a3565b92506080870135915060a087013567ffffffffffffffff8111156122db578182fd5b6122e789828a01612161565b9150509295509295509295565b60008060008060808587031215612309578384fd5b8435612314816129a3565b935060208501359250604085013561232b816129a3565b9396929550929360600135925050565b600080600080600060a08688031215612352578081fd5b853561235d816129a3565b9450602086013593506040860135612374816129a3565b925060608601359150608086013567ffffffffffffffff811115612396578182fd5b6123a288828901612161565b9150509295509295909350565b6000806000606084860312156123c3578081fd5b833567ffffffffffffffff808211156123da578283fd5b6123e68783880161208c565b945060208601359150808211156123fb578283fd5b6124078783880161208c565b9350604086013591508082111561241c578283fd5b5061242986828701612104565b9150509250925092565b60008060408385031215612445578182fd5b823567ffffffffffffffff8082111561245c578384fd5b6124688683870161208c565b9350602085013591508082111561247d578283fd5b5061248a85828601612104565b9150509250929050565b6000602082840312156124a5578081fd5b81518015158114611c41578182fd5b6000602082840312156124c5578081fd5b5035919050565b600080604083850312156124de578182fd5b8235915060208301356124f0816129a3565b809150509250929050565b60006020828403121561250c578081fd5b81356001600160e01b031981168114611c41578182fd5b600060208284031215612534578081fd5b813567ffffffffffffffff81111561254a578182fd5b611f2384828501612161565b600060208284031215612567578081fd5b5051919050565b60008151808452612586816020860160208601612919565b601f01601f19169290920160200192915050565b60006bffffffffffffffffffffffff19808860601b168352808760601b166014840152808660601b1660288401525083603c83015282516125e281605c850160208701612919565b91909101605c019695505050505050565b60008251612605818460208701612919565b9190910192915050565b7f416363657373436f6e74726f6c3a206163636f756e7420000000000000000000815260008351612647816017850160208801612919565b7001034b99036b4b9b9b4b733903937b6329607d1b6017918401918201528351612678816028840160208801612919565b01602801949350505050565b6001600160a01b03858116825284166020820152604081018390526080606082018190526000906126b79083018461256e565b9695505050505050565b6001600160a01b0397881681529587166020870152604086019490945260608501929092528416608084015290921660a082015260c081019190915260e00190565b6001600160a01b038981168252888116602083015260408201889052606082018790528581166080830152841660a082015260c0810183905261010060e082018190526000906127558382018561256e565b9b9a5050505050505050505050565b6001600160a01b03929092168252602082015260400190565b602081526000611c41602083018461256e565b6020808252601f908201527f50656750726f78793a2063616c6c6572206973206e6f742063726f7373657200604082015260600190565b6020808252818101527f50656750726f78793a206e6f7420737570706f7274207468697320746f6b656e604082015260600190565b60208082526023908201527f50656750726f78793a20636861696e494473206c656e677468206e6f74206d616040820152620e8c6d60eb1b606082015260800190565b6020808252601d908201527f50656750726f78793a2063616c6c6572206973206e6f742061646d696e000000604082015260600190565b604051601f8201601f1916810167ffffffffffffffff8111828210171561289f5761289f61298d565b604052919050565b600067ffffffffffffffff8211156128c1576128c161298d565b5060051b60200190565b600082198211156128de576128de612977565b500190565b60008160001904831182151516156128fd576128fd612977565b500290565b60008282101561291457612914612977565b500390565b60005b8381101561293457818101518382015260200161291c565b838111156116cb5750506000910152565b60008161295457612954612977565b506000190190565b600060001982141561297057612970612977565b5060010190565b634e487b7160e01b600052601160045260246000fd5b634e487b7160e01b600052604160045260246000fd5b6001600160a01b03811681146129b857600080fd5b5056fea2646970667358221220fb40005b699bca0ba819a9575e60cff93fbf79b090865a554b439c8008a4c57764736f6c63430008040033",
  "devdoc": {
    "kind": "dev",
    "methods": {
      "getRoleAdmin(bytes32)": {
        "details": "Returns the admin role that controls `role`. See {grantRole} and {revokeRole}. To change a role's admin, use {_setRoleAdmin}."
      },
      "grantRole(bytes32,address)": {
        "details": "Grants `role` to `account`. If `account` had not been already granted `role`, emits a {RoleGranted} event. Requirements: - the caller must have ``role``'s admin role."
      },
      "hasRole(bytes32,address)": {
        "details": "Returns `true` if `account` has been granted `role`."
      },
      "renounceRole(bytes32,address)": {
        "details": "Revokes `role` from the calling account. Roles are often managed via {grantRole} and {revokeRole}: this function's purpose is to provide a mechanism for accounts to lose their privileges if they are compromised (such as when a trusted device is misplaced). If the calling account had been granted `role`, emits a {RoleRevoked} event. Requirements: - the caller must be `account`."
      },
      "revokeRole(bytes32,address)": {
        "details": "Revokes `role` from `account`. If `account` had been granted `role`, emits a {RoleRevoked} event. Requirements: - the caller must have ``role``'s admin role."
      },
      "supportsInterface(bytes4)": {
        "details": "See {IERC165-supportsInterface}."
      }
    },
    "version": 1
  },
  "userdoc": {
    "kind": "user",
    "methods": {},
    "version": 1
  },
  "storageLayout": {
    "storage": [
      {
        "astId": 5998,
        "contract": "contracts/pegbridge/PegProxy.sol:PegProxy",
        "label": "threshold",
        "offset": 0,
        "slot": "0",
        "type": "t_mapping(t_address,t_uint256)"
      },
      {
        "astId": 6002,
        "contract": "contracts/pegbridge/PegProxy.sol:PegProxy",
        "label": "isFinished",
        "offset": 0,
        "slot": "1",
        "type": "t_mapping(t_bytes32,t_bool)"
      },
      {
        "astId": 6008,
        "contract": "contracts/pegbridge/PegProxy.sol:PegProxy",
        "label": "isVoted",
        "offset": 0,
        "slot": "2",
        "type": "t_mapping(t_bytes32,t_mapping(t_address,t_bool))"
      },
      {
        "astId": 6012,
        "contract": "contracts/pegbridge/PegProxy.sol:PegProxy",
        "label": "counter",
        "offset": 0,
        "slot": "3",
        "type": "t_mapping(t_bytes32,t_uint256)"
      },
      {
        "astId": 2447,
        "contract": "contracts/pegbridge/PegProxy.sol:PegProxy",
        "label": "_roles",
        "offset": 0,
        "slot": "4",
        "type": "t_mapping(t_bytes32,t_struct(RoleData)2442_storage)"
      },
      {
        "astId": 7516,
        "contract": "contracts/pegbridge/PegProxy.sol:PegProxy",
        "label": "pegSwap",
        "offset": 0,
        "slot": "5",
        "type": "t_contract(IPegSwap)6990"
      },
      {
        "astId": 7522,
        "contract": "contracts/pegbridge/PegProxy.sol:PegProxy",
        "label": "supportToken",
        "offset": 0,
        "slot": "6",
        "type": "t_mapping(t_address,t_mapping(t_uint256,t_address))"
      },
      {
        "astId": 7526,
        "contract": "contracts/pegbridge/PegProxy.sol:PegProxy",
        "label": "txMinted",
        "offset": 0,
        "slot": "7",
        "type": "t_mapping(t_string_memory_ptr,t_bool)"
      },
      {
        "astId": 7530,
        "contract": "contracts/pegbridge/PegProxy.sol:PegProxy",
        "label": "txUnlocked",
        "offset": 0,
        "slot": "8",
        "type": "t_mapping(t_string_memory_ptr,t_bool)"
      },
      {
        "astId": 7534,
        "contract": "contracts/pegbridge/PegProxy.sol:PegProxy",
        "label": "txRollbacked",
        "offset": 0,
        "slot": "9",
        "type": "t_mapping(t_string_memory_ptr,t_bool)"
      }
    ],
    "types": {
      "t_address": {
        "encoding": "inplace",
        "label": "address",
        "numberOfBytes": "20"
      },
      "t_bool": {
        "encoding": "inplace",
        "label": "bool",
        "numberOfBytes": "1"
      },
      "t_bytes32": {
        "encoding": "inplace",
        "label": "bytes32",
        "numberOfBytes": "32"
      },
      "t_contract(IPegSwap)6990": {
        "encoding": "inplace",
        "label": "contract IPegSwap",
        "numberOfBytes": "20"
      },
      "t_mapping(t_address,t_bool)": {
        "encoding": "mapping",
        "key": "t_address",
        "label": "mapping(address => bool)",
        "numberOfBytes": "32",
        "value": "t_bool"
      },
      "t_mapping(t_address,t_mapping(t_uint256,t_address))": {
        "encoding": "mapping",
        "key": "t_address",
        "label": "mapping(address => mapping(uint256 => address))",
        "numberOfBytes": "32",
        "value": "t_mapping(t_uint256,t_address)"
      },
      "t_mapping(t_address,t_uint256)": {
        "encoding": "mapping",
        "key": "t_address",
        "label": "mapping(address => uint256)",
        "numberOfBytes": "32",
        "value": "t_uint256"
      },
      "t_mapping(t_bytes32,t_bool)": {
        "encoding": "mapping",
        "key": "t_bytes32",
        "label": "mapping(bytes32 => bool)",
        "numberOfBytes": "32",
        "value": "t_bool"
      },
      "t_mapping(t_bytes32,t_mapping(t_address,t_bool))": {
        "encoding": "mapping",
        "key": "t_bytes32",
        "label": "mapping(bytes32 => mapping(address => bool))",
        "numberOfBytes": "32",
        "value": "t_mapping(t_address,t_bool)"
      },
      "t_mapping(t_bytes32,t_struct(RoleData)2442_storage)": {
        "encoding": "mapping",
        "key": "t_bytes32",
        "label": "mapping(bytes32 => struct AccessControl.RoleData)",
        "numberOfBytes": "32",
        "value": "t_struct(RoleData)2442_storage"
      },
      "t_mapping(t_bytes32,t_uint256)": {
        "encoding": "mapping",
        "key": "t_bytes32",
        "label": "mapping(bytes32 => uint256)",
        "numberOfBytes": "32",
        "value": "t_uint256"
      },
      "t_mapping(t_string_memory_ptr,t_bool)": {
        "encoding": "mapping",
        "key": "t_string_memory_ptr",
        "label": "mapping(string => bool)",
        "numberOfBytes": "32",
        "value": "t_bool"
      },
      "t_mapping(t_uint256,t_address)": {
        "encoding": "mapping",
        "key": "t_uint256",
        "label": "mapping(uint256 => address)",
        "numberOfBytes": "32",
        "value": "t_address"
      },
      "t_string_memory_ptr": {
        "encoding": "bytes",
        "label": "string",
        "numberOfBytes": "32"
      },
      "t_struct(RoleData)2442_storage": {
        "encoding": "inplace",
        "label": "struct AccessControl.RoleData",
        "members": [
          {
            "astId": 2439,
            "contract": "contracts/pegbridge/PegProxy.sol:PegProxy",
            "label": "members",
            "offset": 0,
            "slot": "0",
            "type": "t_mapping(t_address,t_bool)"
          },
          {
            "astId": 2441,
            "contract": "contracts/pegbridge/PegProxy.sol:PegProxy",
            "label": "adminRole",
            "offset": 0,
            "slot": "1",
            "type": "t_bytes32"
          }
        ],
        "numberOfBytes": "64"
      },
      "t_uint256": {
        "encoding": "inplace",
        "label": "uint256",
        "numberOfBytes": "32"
      }
    }
  }
}